{
	"contracts/actor.sol": {
		"Actor": {
			"abi": [
				{
					"inputs": [
						{
							"internalType": "address",
							"name": "addr",
							"type": "address"
						},
						{
							"internalType": "string",
							"name": "atype",
							"type": "string"
						},
						{
							"internalType": "string",
							"name": "name",
							"type": "string"
						},
						{
							"internalType": "string",
							"name": "region",
							"type": "string"
						},
						{
							"internalType": "string",
							"name": "national_id",
							"type": "string"
						},
						{
							"internalType": "uint256",
							"name": "_quantity",
							"type": "uint256"
						},
						{
							"internalType": "uint256",
							"name": "_annual_demand",
							"type": "uint256"
						},
						{
							"internalType": "uint256",
							"name": "_days_open",
							"type": "uint256"
						},
						{
							"internalType": "uint256",
							"name": "_delivery_days",
							"type": "uint256"
						},
						{
							"internalType": "uint256",
							"name": "_cost_to_place_and_process",
							"type": "uint256"
						},
						{
							"internalType": "uint256",
							"name": "_holding_cost",
							"type": "uint256"
						}
					],
					"stateMutability": "nonpayable",
					"type": "constructor"
				},
				{
					"anonymous": false,
					"inputs": [
						{
							"indexed": false,
							"internalType": "address",
							"name": "actor_address",
							"type": "address"
						},
						{
							"indexed": false,
							"internalType": "string",
							"name": "actor_type",
							"type": "string"
						},
						{
							"indexed": false,
							"internalType": "string",
							"name": "actor_name",
							"type": "string"
						},
						{
							"indexed": false,
							"internalType": "string",
							"name": "actor_region",
							"type": "string"
						},
						{
							"indexed": false,
							"internalType": "string",
							"name": "actor_national_id",
							"type": "string"
						},
						{
							"indexed": false,
							"internalType": "uint256",
							"name": "quantity",
							"type": "uint256"
						},
						{
							"indexed": false,
							"internalType": "uint256",
							"name": "annual_demand",
							"type": "uint256"
						},
						{
							"indexed": false,
							"internalType": "uint256",
							"name": "days_open",
							"type": "uint256"
						},
						{
							"indexed": false,
							"internalType": "uint256",
							"name": "delivery_days",
							"type": "uint256"
						},
						{
							"indexed": false,
							"internalType": "uint256",
							"name": "cost_to_place_and_process",
							"type": "uint256"
						},
						{
							"indexed": false,
							"internalType": "uint256",
							"name": "holding_cost",
							"type": "uint256"
						}
					],
					"name": "event_show_all_details",
					"type": "event"
				},
				{
					"inputs": [],
					"name": "get_address",
					"outputs": [
						{
							"internalType": "address",
							"name": "",
							"type": "address"
						}
					],
					"stateMutability": "view",
					"type": "function"
				},
				{
					"inputs": [],
					"name": "get_annual_demand",
					"outputs": [
						{
							"internalType": "uint256",
							"name": "",
							"type": "uint256"
						}
					],
					"stateMutability": "view",
					"type": "function"
				},
				{
					"inputs": [],
					"name": "get_cost_to_place_and_process_order",
					"outputs": [
						{
							"internalType": "uint256",
							"name": "",
							"type": "uint256"
						}
					],
					"stateMutability": "view",
					"type": "function"
				},
				{
					"inputs": [],
					"name": "get_days_open",
					"outputs": [
						{
							"internalType": "uint256",
							"name": "",
							"type": "uint256"
						}
					],
					"stateMutability": "view",
					"type": "function"
				},
				{
					"inputs": [],
					"name": "get_delivery_days",
					"outputs": [
						{
							"internalType": "uint256",
							"name": "",
							"type": "uint256"
						}
					],
					"stateMutability": "view",
					"type": "function"
				},
				{
					"inputs": [],
					"name": "get_holding_cost",
					"outputs": [
						{
							"internalType": "uint256",
							"name": "",
							"type": "uint256"
						}
					],
					"stateMutability": "view",
					"type": "function"
				},
				{
					"inputs": [],
					"name": "get_inventory",
					"outputs": [
						{
							"internalType": "contract Inventory",
							"name": "",
							"type": "address"
						}
					],
					"stateMutability": "view",
					"type": "function"
				},
				{
					"inputs": [],
					"name": "get_name",
					"outputs": [
						{
							"internalType": "string",
							"name": "",
							"type": "string"
						}
					],
					"stateMutability": "view",
					"type": "function"
				},
				{
					"inputs": [],
					"name": "get_national_id",
					"outputs": [
						{
							"internalType": "string",
							"name": "",
							"type": "string"
						}
					],
					"stateMutability": "view",
					"type": "function"
				},
				{
					"inputs": [],
					"name": "get_region",
					"outputs": [
						{
							"internalType": "string",
							"name": "",
							"type": "string"
						}
					],
					"stateMutability": "view",
					"type": "function"
				},
				{
					"inputs": [],
					"name": "get_type",
					"outputs": [
						{
							"internalType": "string",
							"name": "",
							"type": "string"
						}
					],
					"stateMutability": "view",
					"type": "function"
				},
				{
					"inputs": [
						{
							"internalType": "uint256",
							"name": "quantity",
							"type": "uint256"
						}
					],
					"name": "set_inventory",
					"outputs": [],
					"stateMutability": "nonpayable",
					"type": "function"
				},
				{
					"inputs": [
						{
							"internalType": "string",
							"name": "id",
							"type": "string"
						}
					],
					"name": "set_national_id",
					"outputs": [],
					"stateMutability": "nonpayable",
					"type": "function"
				},
				{
					"inputs": [],
					"name": "show_actor_details",
					"outputs": [],
					"stateMutability": "nonpayable",
					"type": "function"
				}
			],
			"devdoc": {
				"kind": "dev",
				"methods": {},
				"version": 1
			},
			"evm": {
				"assembly": "    /* \"contracts/actor.sol\":60:3021  contract Actor{... */\n  mstore(0x40, 0x80)\n    /* \"contracts/actor.sol\":695:1425  constructor(address addr,... */\n  callvalue\n  dup1\n  iszero\n  tag_1\n  jumpi\n  0x00\n  dup1\n  revert\ntag_1:\n  pop\n  mload(0x40)\n  sub(codesize, bytecodeSize)\n  dup1\n  bytecodeSize\n  dup4\n  codecopy\n  dup2\n  dup2\n  add\n  0x40\n  mstore\n  dup2\n  add\n  swap1\n  tag_2\n  swap2\n  swap1\n  tag_3\n  jump\t// in\ntag_2:\n    /* \"contracts/actor.sol\":1016:1020  addr */\n  dup11\n    /* \"contracts/actor.sol\":1000:1013  actor_address */\n  0x00\n  dup1\n    /* \"contracts/actor.sol\":1000:1020  actor_address = addr */\n  0x0100\n  exp\n  dup2\n  sload\n  dup2\n  0xffffffffffffffffffffffffffffffffffffffff\n  mul\n  not\n  and\n  swap1\n  dup4\n  0xffffffffffffffffffffffffffffffffffffffff\n  and\n  mul\n  or\n  swap1\n  sstore\n  pop\n    /* \"contracts/actor.sol\":1044:1049  atype */\n  dup10\n    /* \"contracts/actor.sol\":1031:1041  actor_type */\n  0x01\n    /* \"contracts/actor.sol\":1031:1049  actor_type = atype */\n  swap1\n  dup2\n  tag_6\n  swap2\n  swap1\n  tag_7\n  jump\t// in\ntag_6:\n  pop\n    /* \"contracts/actor.sol\":1073:1077  name */\n  dup9\n    /* \"contracts/actor.sol\":1060:1070  actor_name */\n  0x02\n    /* \"contracts/actor.sol\":1060:1077  actor_name = name */\n  swap1\n  dup2\n  tag_8\n  swap2\n  swap1\n  tag_7\n  jump\t// in\ntag_8:\n  pop\n    /* \"contracts/actor.sol\":1103:1109  region */\n  dup8\n    /* \"contracts/actor.sol\":1088:1100  actor_region */\n  0x03\n    /* \"contracts/actor.sol\":1088:1109  actor_region = region */\n  swap1\n  dup2\n  tag_9\n  swap2\n  swap1\n  tag_7\n  jump\t// in\ntag_9:\n  pop\n    /* \"contracts/actor.sol\":1140:1151  national_id */\n  dup7\n    /* \"contracts/actor.sol\":1120:1137  actor_national_id */\n  0x04\n    /* \"contracts/actor.sol\":1120:1151  actor_national_id = national_id */\n  swap1\n  dup2\n  tag_10\n  swap2\n  swap1\n  tag_7\n  jump\t// in\ntag_10:\n  pop\n    /* \"contracts/actor.sol\":1188:1197  _quantity */\n  dup6\n    /* \"contracts/actor.sol\":1174:1198  new Inventory(_quantity) */\n  mload(0x40)\n  tag_11\n  swap1\n  tag_12\n  jump\t// in\ntag_11:\n  tag_13\n  swap2\n  swap1\n  tag_14\n  jump\t// in\ntag_13:\n  mload(0x40)\n  dup1\n  swap2\n  sub\n  swap1\n  0x00\n  create\n  dup1\n  iszero\n  dup1\n  iszero\n  tag_15\n  jumpi\n  returndatasize\n  0x00\n  dup1\n  returndatacopy\n  revert(0x00, returndatasize)\ntag_15:\n  pop\n    /* \"contracts/actor.sol\":1162:1171  inventory */\n  0x05\n  0x00\n    /* \"contracts/actor.sol\":1162:1198  inventory = new Inventory(_quantity) */\n  0x0100\n  exp\n  dup2\n  sload\n  dup2\n  0xffffffffffffffffffffffffffffffffffffffff\n  mul\n  not\n  and\n  swap1\n  dup4\n  0xffffffffffffffffffffffffffffffffffffffff\n  and\n  mul\n  or\n  swap1\n  sstore\n  pop\n    /* \"contracts/actor.sol\":1225:1239  _annual_demand */\n  dup5\n    /* \"contracts/actor.sol\":1209:1222  annual_demand */\n  0x06\n    /* \"contracts/actor.sol\":1209:1239  annual_demand = _annual_demand */\n  dup2\n  swap1\n  sstore\n  pop\n    /* \"contracts/actor.sol\":1262:1272  _days_open */\n  dup4\n    /* \"contracts/actor.sol\":1250:1259  days_open */\n  0x07\n    /* \"contracts/actor.sol\":1250:1272  days_open = _days_open */\n  dup2\n  swap1\n  sstore\n  pop\n    /* \"contracts/actor.sol\":1299:1313  _delivery_days */\n  dup3\n    /* \"contracts/actor.sol\":1283:1296  delivery_days */\n  0x08\n    /* \"contracts/actor.sol\":1283:1313  delivery_days = _delivery_days */\n  dup2\n  swap1\n  sstore\n  pop\n    /* \"contracts/actor.sol\":1352:1378  _cost_to_place_and_process */\n  dup2\n    /* \"contracts/actor.sol\":1324:1349  cost_to_place_and_process */\n  0x09\n    /* \"contracts/actor.sol\":1324:1378  cost_to_place_and_process = _cost_to_place_and_process */\n  dup2\n  swap1\n  sstore\n  pop\n    /* \"contracts/actor.sol\":1404:1417  _holding_cost */\n  dup1\n    /* \"contracts/actor.sol\":1389:1401  holding_cost */\n  0x0a\n    /* \"contracts/actor.sol\":1389:1417  holding_cost = _holding_cost */\n  dup2\n  swap1\n  sstore\n  pop\n    /* \"contracts/actor.sol\":695:1425  constructor(address addr,... */\n  pop\n  pop\n  pop\n  pop\n  pop\n  pop\n  pop\n  pop\n  pop\n  pop\n  pop\n    /* \"contracts/actor.sol\":60:3021  contract Actor{... */\n  jump(tag_16)\ntag_12:\n  dataSize(sub_1)\n  dup1\n  dataOffset(sub_1)\n  dup4\n  codecopy\n  add\n  swap1\n  jump\t// out\n    /* \"#utility.yul\":7:82   */\ntag_17:\n    /* \"#utility.yul\":40:46   */\n  0x00\n    /* \"#utility.yul\":73:75   */\n  0x40\n    /* \"#utility.yul\":67:76   */\n  mload\n    /* \"#utility.yul\":57:76   */\n  swap1\n  pop\n    /* \"#utility.yul\":7:82   */\n  swap1\n  jump\t// out\n    /* \"#utility.yul\":88:205   */\ntag_18:\n    /* \"#utility.yul\":197:198   */\n  0x00\n    /* \"#utility.yul\":194:195   */\n  dup1\n    /* \"#utility.yul\":187:199   */\n  revert\n    /* \"#utility.yul\":211:328   */\ntag_19:\n    /* \"#utility.yul\":320:321   */\n  0x00\n    /* \"#utility.yul\":317:318   */\n  dup1\n    /* \"#utility.yul\":310:322   */\n  revert\n    /* \"#utility.yul\":334:460   */\ntag_20:\n    /* \"#utility.yul\":371:378   */\n  0x00\n    /* \"#utility.yul\":411:453   */\n  0xffffffffffffffffffffffffffffffffffffffff\n    /* \"#utility.yul\":404:409   */\n  dup3\n    /* \"#utility.yul\":400:454   */\n  and\n    /* \"#utility.yul\":389:454   */\n  swap1\n  pop\n    /* \"#utility.yul\":334:460   */\n  swap2\n  swap1\n  pop\n  jump\t// out\n    /* \"#utility.yul\":466:562   */\ntag_21:\n    /* \"#utility.yul\":503:510   */\n  0x00\n    /* \"#utility.yul\":532:556   */\n  tag_62\n    /* \"#utility.yul\":550:555   */\n  dup3\n    /* \"#utility.yul\":532:556   */\n  tag_20\n  jump\t// in\ntag_62:\n    /* \"#utility.yul\":521:556   */\n  swap1\n  pop\n    /* \"#utility.yul\":466:562   */\n  swap2\n  swap1\n  pop\n  jump\t// out\n    /* \"#utility.yul\":568:690   */\ntag_22:\n    /* \"#utility.yul\":641:665   */\n  tag_64\n    /* \"#utility.yul\":659:664   */\n  dup2\n    /* \"#utility.yul\":641:665   */\n  tag_21\n  jump\t// in\ntag_64:\n    /* \"#utility.yul\":634:639   */\n  dup2\n    /* \"#utility.yul\":631:666   */\n  eq\n    /* \"#utility.yul\":621:684   */\n  tag_65\n  jumpi\n    /* \"#utility.yul\":680:681   */\n  0x00\n    /* \"#utility.yul\":677:678   */\n  dup1\n    /* \"#utility.yul\":670:682   */\n  revert\n    /* \"#utility.yul\":621:684   */\ntag_65:\n    /* \"#utility.yul\":568:690   */\n  pop\n  jump\t// out\n    /* \"#utility.yul\":696:839   */\ntag_23:\n    /* \"#utility.yul\":753:758   */\n  0x00\n    /* \"#utility.yul\":784:790   */\n  dup2\n    /* \"#utility.yul\":778:791   */\n  mload\n    /* \"#utility.yul\":769:791   */\n  swap1\n  pop\n    /* \"#utility.yul\":800:833   */\n  tag_67\n    /* \"#utility.yul\":827:832   */\n  dup2\n    /* \"#utility.yul\":800:833   */\n  tag_22\n  jump\t// in\ntag_67:\n    /* \"#utility.yul\":696:839   */\n  swap3\n  swap2\n  pop\n  pop\n  jump\t// out\n    /* \"#utility.yul\":845:962   */\ntag_24:\n    /* \"#utility.yul\":954:955   */\n  0x00\n    /* \"#utility.yul\":951:952   */\n  dup1\n    /* \"#utility.yul\":944:956   */\n  revert\n    /* \"#utility.yul\":968:1085   */\ntag_25:\n    /* \"#utility.yul\":1077:1078   */\n  0x00\n    /* \"#utility.yul\":1074:1075   */\n  dup1\n    /* \"#utility.yul\":1067:1079   */\n  revert\n    /* \"#utility.yul\":1091:1193   */\ntag_26:\n    /* \"#utility.yul\":1132:1138   */\n  0x00\n    /* \"#utility.yul\":1183:1185   */\n  0x1f\n    /* \"#utility.yul\":1179:1186   */\n  not\n    /* \"#utility.yul\":1174:1176   */\n  0x1f\n    /* \"#utility.yul\":1167:1172   */\n  dup4\n    /* \"#utility.yul\":1163:1177   */\n  add\n    /* \"#utility.yul\":1159:1187   */\n  and\n    /* \"#utility.yul\":1149:1187   */\n  swap1\n  pop\n    /* \"#utility.yul\":1091:1193   */\n  swap2\n  swap1\n  pop\n  jump\t// out\n    /* \"#utility.yul\":1199:1379   */\ntag_27:\n    /* \"#utility.yul\":1247:1324   */\n  0x4e487b7100000000000000000000000000000000000000000000000000000000\n    /* \"#utility.yul\":1244:1245   */\n  0x00\n    /* \"#utility.yul\":1237:1325   */\n  mstore\n    /* \"#utility.yul\":1344:1348   */\n  0x41\n    /* \"#utility.yul\":1341:1342   */\n  0x04\n    /* \"#utility.yul\":1334:1349   */\n  mstore\n    /* \"#utility.yul\":1368:1372   */\n  0x24\n    /* \"#utility.yul\":1365:1366   */\n  0x00\n    /* \"#utility.yul\":1358:1373   */\n  revert\n    /* \"#utility.yul\":1385:1666   */\ntag_28:\n    /* \"#utility.yul\":1468:1495   */\n  tag_73\n    /* \"#utility.yul\":1490:1494   */\n  dup3\n    /* \"#utility.yul\":1468:1495   */\n  tag_26\n  jump\t// in\ntag_73:\n    /* \"#utility.yul\":1460:1466   */\n  dup2\n    /* \"#utility.yul\":1456:1496   */\n  add\n    /* \"#utility.yul\":1598:1604   */\n  dup2\n    /* \"#utility.yul\":1586:1596   */\n  dup2\n    /* \"#utility.yul\":1583:1605   */\n  lt\n    /* \"#utility.yul\":1562:1580   */\n  0xffffffffffffffff\n    /* \"#utility.yul\":1550:1560   */\n  dup3\n    /* \"#utility.yul\":1547:1581   */\n  gt\n    /* \"#utility.yul\":1544:1606   */\n  or\n    /* \"#utility.yul\":1541:1629   */\n  iszero\n  tag_74\n  jumpi\n    /* \"#utility.yul\":1609:1627   */\n  tag_75\n  tag_27\n  jump\t// in\ntag_75:\n    /* \"#utility.yul\":1541:1629   */\ntag_74:\n    /* \"#utility.yul\":1649:1659   */\n  dup1\n    /* \"#utility.yul\":1645:1647   */\n  0x40\n    /* \"#utility.yul\":1638:1660   */\n  mstore\n    /* \"#utility.yul\":1428:1666   */\n  pop\n    /* \"#utility.yul\":1385:1666   */\n  pop\n  pop\n  jump\t// out\n    /* \"#utility.yul\":1672:1801   */\ntag_29:\n    /* \"#utility.yul\":1706:1712   */\n  0x00\n    /* \"#utility.yul\":1733:1753   */\n  tag_77\n  tag_17\n  jump\t// in\ntag_77:\n    /* \"#utility.yul\":1723:1753   */\n  swap1\n  pop\n    /* \"#utility.yul\":1762:1795   */\n  tag_78\n    /* \"#utility.yul\":1790:1794   */\n  dup3\n    /* \"#utility.yul\":1782:1788   */\n  dup3\n    /* \"#utility.yul\":1762:1795   */\n  tag_28\n  jump\t// in\ntag_78:\n    /* \"#utility.yul\":1672:1801   */\n  swap2\n  swap1\n  pop\n  jump\t// out\n    /* \"#utility.yul\":1807:2115   */\ntag_30:\n    /* \"#utility.yul\":1869:1873   */\n  0x00\n    /* \"#utility.yul\":1959:1977   */\n  0xffffffffffffffff\n    /* \"#utility.yul\":1951:1957   */\n  dup3\n    /* \"#utility.yul\":1948:1978   */\n  gt\n    /* \"#utility.yul\":1945:2001   */\n  iszero\n  tag_80\n  jumpi\n    /* \"#utility.yul\":1981:1999   */\n  tag_81\n  tag_27\n  jump\t// in\ntag_81:\n    /* \"#utility.yul\":1945:2001   */\ntag_80:\n    /* \"#utility.yul\":2019:2048   */\n  tag_82\n    /* \"#utility.yul\":2041:2047   */\n  dup3\n    /* \"#utility.yul\":2019:2048   */\n  tag_26\n  jump\t// in\ntag_82:\n    /* \"#utility.yul\":2011:2048   */\n  swap1\n  pop\n    /* \"#utility.yul\":2103:2107   */\n  0x20\n    /* \"#utility.yul\":2097:2101   */\n  dup2\n    /* \"#utility.yul\":2093:2108   */\n  add\n    /* \"#utility.yul\":2085:2108   */\n  swap1\n  pop\n    /* \"#utility.yul\":1807:2115   */\n  swap2\n  swap1\n  pop\n  jump\t// out\n    /* \"#utility.yul\":2121:2367   */\ntag_31:\n    /* \"#utility.yul\":2202:2203   */\n  0x00\n    /* \"#utility.yul\":2212:2325   */\ntag_84:\n    /* \"#utility.yul\":2226:2232   */\n  dup4\n    /* \"#utility.yul\":2223:2224   */\n  dup2\n    /* \"#utility.yul\":2220:2233   */\n  lt\n    /* \"#utility.yul\":2212:2325   */\n  iszero\n  tag_86\n  jumpi\n    /* \"#utility.yul\":2311:2312   */\n  dup1\n    /* \"#utility.yul\":2306:2309   */\n  dup3\n    /* \"#utility.yul\":2302:2313   */\n  add\n    /* \"#utility.yul\":2296:2314   */\n  mload\n    /* \"#utility.yul\":2292:2293   */\n  dup2\n    /* \"#utility.yul\":2287:2290   */\n  dup5\n    /* \"#utility.yul\":2283:2294   */\n  add\n    /* \"#utility.yul\":2276:2315   */\n  mstore\n    /* \"#utility.yul\":2248:2250   */\n  0x20\n    /* \"#utility.yul\":2245:2246   */\n  dup2\n    /* \"#utility.yul\":2241:2251   */\n  add\n    /* \"#utility.yul\":2236:2251   */\n  swap1\n  pop\n    /* \"#utility.yul\":2212:2325   */\n  jump(tag_84)\ntag_86:\n    /* \"#utility.yul\":2359:2360   */\n  0x00\n    /* \"#utility.yul\":2350:2356   */\n  dup5\n    /* \"#utility.yul\":2345:2348   */\n  dup5\n    /* \"#utility.yul\":2341:2357   */\n  add\n    /* \"#utility.yul\":2334:2361   */\n  mstore\n    /* \"#utility.yul\":2183:2367   */\n  pop\n    /* \"#utility.yul\":2121:2367   */\n  pop\n  pop\n  pop\n  jump\t// out\n    /* \"#utility.yul\":2373:2807   */\ntag_32:\n    /* \"#utility.yul\":2462:2467   */\n  0x00\n    /* \"#utility.yul\":2487:2553   */\n  tag_88\n    /* \"#utility.yul\":2503:2552   */\n  tag_89\n    /* \"#utility.yul\":2545:2551   */\n  dup5\n    /* \"#utility.yul\":2503:2552   */\n  tag_30\n  jump\t// in\ntag_89:\n    /* \"#utility.yul\":2487:2553   */\n  tag_29\n  jump\t// in\ntag_88:\n    /* \"#utility.yul\":2478:2553   */\n  swap1\n  pop\n    /* \"#utility.yul\":2576:2582   */\n  dup3\n    /* \"#utility.yul\":2569:2574   */\n  dup2\n    /* \"#utility.yul\":2562:2583   */\n  mstore\n    /* \"#utility.yul\":2614:2618   */\n  0x20\n    /* \"#utility.yul\":2607:2612   */\n  dup2\n    /* \"#utility.yul\":2603:2619   */\n  add\n    /* \"#utility.yul\":2652:2655   */\n  dup5\n    /* \"#utility.yul\":2643:2649   */\n  dup5\n    /* \"#utility.yul\":2638:2641   */\n  dup5\n    /* \"#utility.yul\":2634:2650   */\n  add\n    /* \"#utility.yul\":2631:2656   */\n  gt\n    /* \"#utility.yul\":2628:2740   */\n  iszero\n  tag_90\n  jumpi\n    /* \"#utility.yul\":2659:2738   */\n  tag_91\n  tag_25\n  jump\t// in\ntag_91:\n    /* \"#utility.yul\":2628:2740   */\ntag_90:\n    /* \"#utility.yul\":2749:2801   */\n  tag_92\n    /* \"#utility.yul\":2794:2800   */\n  dup5\n    /* \"#utility.yul\":2789:2792   */\n  dup3\n    /* \"#utility.yul\":2784:2787   */\n  dup6\n    /* \"#utility.yul\":2749:2801   */\n  tag_31\n  jump\t// in\ntag_92:\n    /* \"#utility.yul\":2468:2807   */\n  pop\n    /* \"#utility.yul\":2373:2807   */\n  swap4\n  swap3\n  pop\n  pop\n  pop\n  jump\t// out\n    /* \"#utility.yul\":2827:3182   */\ntag_33:\n    /* \"#utility.yul\":2894:2899   */\n  0x00\n    /* \"#utility.yul\":2943:2946   */\n  dup3\n    /* \"#utility.yul\":2936:2940   */\n  0x1f\n    /* \"#utility.yul\":2928:2934   */\n  dup4\n    /* \"#utility.yul\":2924:2941   */\n  add\n    /* \"#utility.yul\":2920:2947   */\n  slt\n    /* \"#utility.yul\":2910:3032   */\n  tag_94\n  jumpi\n    /* \"#utility.yul\":2951:3030   */\n  tag_95\n  tag_24\n  jump\t// in\ntag_95:\n    /* \"#utility.yul\":2910:3032   */\ntag_94:\n    /* \"#utility.yul\":3061:3067   */\n  dup2\n    /* \"#utility.yul\":3055:3068   */\n  mload\n    /* \"#utility.yul\":3086:3176   */\n  tag_96\n    /* \"#utility.yul\":3172:3175   */\n  dup5\n    /* \"#utility.yul\":3164:3170   */\n  dup3\n    /* \"#utility.yul\":3157:3161   */\n  0x20\n    /* \"#utility.yul\":3149:3155   */\n  dup7\n    /* \"#utility.yul\":3145:3162   */\n  add\n    /* \"#utility.yul\":3086:3176   */\n  tag_32\n  jump\t// in\ntag_96:\n    /* \"#utility.yul\":3077:3176   */\n  swap2\n  pop\n    /* \"#utility.yul\":2900:3182   */\n  pop\n    /* \"#utility.yul\":2827:3182   */\n  swap3\n  swap2\n  pop\n  pop\n  jump\t// out\n    /* \"#utility.yul\":3188:3265   */\ntag_34:\n    /* \"#utility.yul\":3225:3232   */\n  0x00\n    /* \"#utility.yul\":3254:3259   */\n  dup2\n    /* \"#utility.yul\":3243:3259   */\n  swap1\n  pop\n    /* \"#utility.yul\":3188:3265   */\n  swap2\n  swap1\n  pop\n  jump\t// out\n    /* \"#utility.yul\":3271:3393   */\ntag_35:\n    /* \"#utility.yul\":3344:3368   */\n  tag_99\n    /* \"#utility.yul\":3362:3367   */\n  dup2\n    /* \"#utility.yul\":3344:3368   */\n  tag_34\n  jump\t// in\ntag_99:\n    /* \"#utility.yul\":3337:3342   */\n  dup2\n    /* \"#utility.yul\":3334:3369   */\n  eq\n    /* \"#utility.yul\":3324:3387   */\n  tag_100\n  jumpi\n    /* \"#utility.yul\":3383:3384   */\n  0x00\n    /* \"#utility.yul\":3380:3381   */\n  dup1\n    /* \"#utility.yul\":3373:3385   */\n  revert\n    /* \"#utility.yul\":3324:3387   */\ntag_100:\n    /* \"#utility.yul\":3271:3393   */\n  pop\n  jump\t// out\n    /* \"#utility.yul\":3399:3542   */\ntag_36:\n    /* \"#utility.yul\":3456:3461   */\n  0x00\n    /* \"#utility.yul\":3487:3493   */\n  dup2\n    /* \"#utility.yul\":3481:3494   */\n  mload\n    /* \"#utility.yul\":3472:3494   */\n  swap1\n  pop\n    /* \"#utility.yul\":3503:3536   */\n  tag_102\n    /* \"#utility.yul\":3530:3535   */\n  dup2\n    /* \"#utility.yul\":3503:3536   */\n  tag_35\n  jump\t// in\ntag_102:\n    /* \"#utility.yul\":3399:3542   */\n  swap3\n  swap2\n  pop\n  pop\n  jump\t// out\n    /* \"#utility.yul\":3548:6161   */\ntag_3:\n    /* \"#utility.yul\":3748:3754   */\n  0x00\n    /* \"#utility.yul\":3756:3762   */\n  dup1\n    /* \"#utility.yul\":3764:3770   */\n  0x00\n    /* \"#utility.yul\":3772:3778   */\n  dup1\n    /* \"#utility.yul\":3780:3786   */\n  0x00\n    /* \"#utility.yul\":3788:3794   */\n  dup1\n    /* \"#utility.yul\":3796:3802   */\n  0x00\n    /* \"#utility.yul\":3804:3810   */\n  dup1\n    /* \"#utility.yul\":3812:3818   */\n  0x00\n    /* \"#utility.yul\":3820:3826   */\n  dup1\n    /* \"#utility.yul\":3828:3835   */\n  0x00\n    /* \"#utility.yul\":3878:3881   */\n  0x0160\n    /* \"#utility.yul\":3866:3875   */\n  dup13\n    /* \"#utility.yul\":3857:3864   */\n  dup15\n    /* \"#utility.yul\":3853:3876   */\n  sub\n    /* \"#utility.yul\":3849:3882   */\n  slt\n    /* \"#utility.yul\":3846:3966   */\n  iszero\n  tag_104\n  jumpi\n    /* \"#utility.yul\":3885:3964   */\n  tag_105\n  tag_18\n  jump\t// in\ntag_105:\n    /* \"#utility.yul\":3846:3966   */\ntag_104:\n    /* \"#utility.yul\":4005:4006   */\n  0x00\n    /* \"#utility.yul\":4030:4094   */\n  tag_106\n    /* \"#utility.yul\":4086:4093   */\n  dup15\n    /* \"#utility.yul\":4077:4083   */\n  dup3\n    /* \"#utility.yul\":4066:4075   */\n  dup16\n    /* \"#utility.yul\":4062:4084   */\n  add\n    /* \"#utility.yul\":4030:4094   */\n  tag_23\n  jump\t// in\ntag_106:\n    /* \"#utility.yul\":4020:4094   */\n  swap12\n  pop\n    /* \"#utility.yul\":3976:4104   */\n  pop\n    /* \"#utility.yul\":4164:4166   */\n  0x20\n    /* \"#utility.yul\":4153:4162   */\n  dup13\n    /* \"#utility.yul\":4149:4167   */\n  add\n    /* \"#utility.yul\":4143:4168   */\n  mload\n    /* \"#utility.yul\":4195:4213   */\n  0xffffffffffffffff\n    /* \"#utility.yul\":4187:4193   */\n  dup2\n    /* \"#utility.yul\":4184:4214   */\n  gt\n    /* \"#utility.yul\":4181:4298   */\n  iszero\n  tag_107\n  jumpi\n    /* \"#utility.yul\":4217:4296   */\n  tag_108\n  tag_19\n  jump\t// in\ntag_108:\n    /* \"#utility.yul\":4181:4298   */\ntag_107:\n    /* \"#utility.yul\":4322:4396   */\n  tag_109\n    /* \"#utility.yul\":4388:4395   */\n  dup15\n    /* \"#utility.yul\":4379:4385   */\n  dup3\n    /* \"#utility.yul\":4368:4377   */\n  dup16\n    /* \"#utility.yul\":4364:4386   */\n  add\n    /* \"#utility.yul\":4322:4396   */\n  tag_33\n  jump\t// in\ntag_109:\n    /* \"#utility.yul\":4312:4396   */\n  swap11\n  pop\n    /* \"#utility.yul\":4114:4406   */\n  pop\n    /* \"#utility.yul\":4466:4468   */\n  0x40\n    /* \"#utility.yul\":4455:4464   */\n  dup13\n    /* \"#utility.yul\":4451:4469   */\n  add\n    /* \"#utility.yul\":4445:4470   */\n  mload\n    /* \"#utility.yul\":4497:4515   */\n  0xffffffffffffffff\n    /* \"#utility.yul\":4489:4495   */\n  dup2\n    /* \"#utility.yul\":4486:4516   */\n  gt\n    /* \"#utility.yul\":4483:4600   */\n  iszero\n  tag_110\n  jumpi\n    /* \"#utility.yul\":4519:4598   */\n  tag_111\n  tag_19\n  jump\t// in\ntag_111:\n    /* \"#utility.yul\":4483:4600   */\ntag_110:\n    /* \"#utility.yul\":4624:4698   */\n  tag_112\n    /* \"#utility.yul\":4690:4697   */\n  dup15\n    /* \"#utility.yul\":4681:4687   */\n  dup3\n    /* \"#utility.yul\":4670:4679   */\n  dup16\n    /* \"#utility.yul\":4666:4688   */\n  add\n    /* \"#utility.yul\":4624:4698   */\n  tag_33\n  jump\t// in\ntag_112:\n    /* \"#utility.yul\":4614:4698   */\n  swap10\n  pop\n    /* \"#utility.yul\":4416:4708   */\n  pop\n    /* \"#utility.yul\":4768:4770   */\n  0x60\n    /* \"#utility.yul\":4757:4766   */\n  dup13\n    /* \"#utility.yul\":4753:4771   */\n  add\n    /* \"#utility.yul\":4747:4772   */\n  mload\n    /* \"#utility.yul\":4799:4817   */\n  0xffffffffffffffff\n    /* \"#utility.yul\":4791:4797   */\n  dup2\n    /* \"#utility.yul\":4788:4818   */\n  gt\n    /* \"#utility.yul\":4785:4902   */\n  iszero\n  tag_113\n  jumpi\n    /* \"#utility.yul\":4821:4900   */\n  tag_114\n  tag_19\n  jump\t// in\ntag_114:\n    /* \"#utility.yul\":4785:4902   */\ntag_113:\n    /* \"#utility.yul\":4926:5000   */\n  tag_115\n    /* \"#utility.yul\":4992:4999   */\n  dup15\n    /* \"#utility.yul\":4983:4989   */\n  dup3\n    /* \"#utility.yul\":4972:4981   */\n  dup16\n    /* \"#utility.yul\":4968:4990   */\n  add\n    /* \"#utility.yul\":4926:5000   */\n  tag_33\n  jump\t// in\ntag_115:\n    /* \"#utility.yul\":4916:5000   */\n  swap9\n  pop\n    /* \"#utility.yul\":4718:5010   */\n  pop\n    /* \"#utility.yul\":5070:5073   */\n  0x80\n    /* \"#utility.yul\":5059:5068   */\n  dup13\n    /* \"#utility.yul\":5055:5074   */\n  add\n    /* \"#utility.yul\":5049:5075   */\n  mload\n    /* \"#utility.yul\":5102:5120   */\n  0xffffffffffffffff\n    /* \"#utility.yul\":5094:5100   */\n  dup2\n    /* \"#utility.yul\":5091:5121   */\n  gt\n    /* \"#utility.yul\":5088:5205   */\n  iszero\n  tag_116\n  jumpi\n    /* \"#utility.yul\":5124:5203   */\n  tag_117\n  tag_19\n  jump\t// in\ntag_117:\n    /* \"#utility.yul\":5088:5205   */\ntag_116:\n    /* \"#utility.yul\":5229:5303   */\n  tag_118\n    /* \"#utility.yul\":5295:5302   */\n  dup15\n    /* \"#utility.yul\":5286:5292   */\n  dup3\n    /* \"#utility.yul\":5275:5284   */\n  dup16\n    /* \"#utility.yul\":5271:5293   */\n  add\n    /* \"#utility.yul\":5229:5303   */\n  tag_33\n  jump\t// in\ntag_118:\n    /* \"#utility.yul\":5219:5303   */\n  swap8\n  pop\n    /* \"#utility.yul\":5020:5313   */\n  pop\n    /* \"#utility.yul\":5352:5355   */\n  0xa0\n    /* \"#utility.yul\":5379:5443   */\n  tag_119\n    /* \"#utility.yul\":5435:5442   */\n  dup15\n    /* \"#utility.yul\":5426:5432   */\n  dup3\n    /* \"#utility.yul\":5415:5424   */\n  dup16\n    /* \"#utility.yul\":5411:5433   */\n  add\n    /* \"#utility.yul\":5379:5443   */\n  tag_36\n  jump\t// in\ntag_119:\n    /* \"#utility.yul\":5369:5443   */\n  swap7\n  pop\n    /* \"#utility.yul\":5323:5453   */\n  pop\n    /* \"#utility.yul\":5492:5495   */\n  0xc0\n    /* \"#utility.yul\":5519:5583   */\n  tag_120\n    /* \"#utility.yul\":5575:5582   */\n  dup15\n    /* \"#utility.yul\":5566:5572   */\n  dup3\n    /* \"#utility.yul\":5555:5564   */\n  dup16\n    /* \"#utility.yul\":5551:5573   */\n  add\n    /* \"#utility.yul\":5519:5583   */\n  tag_36\n  jump\t// in\ntag_120:\n    /* \"#utility.yul\":5509:5583   */\n  swap6\n  pop\n    /* \"#utility.yul\":5463:5593   */\n  pop\n    /* \"#utility.yul\":5632:5635   */\n  0xe0\n    /* \"#utility.yul\":5659:5723   */\n  tag_121\n    /* \"#utility.yul\":5715:5722   */\n  dup15\n    /* \"#utility.yul\":5706:5712   */\n  dup3\n    /* \"#utility.yul\":5695:5704   */\n  dup16\n    /* \"#utility.yul\":5691:5713   */\n  add\n    /* \"#utility.yul\":5659:5723   */\n  tag_36\n  jump\t// in\ntag_121:\n    /* \"#utility.yul\":5649:5723   */\n  swap5\n  pop\n    /* \"#utility.yul\":5603:5733   */\n  pop\n    /* \"#utility.yul\":5772:5775   */\n  0x0100\n    /* \"#utility.yul\":5799:5863   */\n  tag_122\n    /* \"#utility.yul\":5855:5862   */\n  dup15\n    /* \"#utility.yul\":5846:5852   */\n  dup3\n    /* \"#utility.yul\":5835:5844   */\n  dup16\n    /* \"#utility.yul\":5831:5853   */\n  add\n    /* \"#utility.yul\":5799:5863   */\n  tag_36\n  jump\t// in\ntag_122:\n    /* \"#utility.yul\":5789:5863   */\n  swap4\n  pop\n    /* \"#utility.yul\":5743:5873   */\n  pop\n    /* \"#utility.yul\":5912:5915   */\n  0x0120\n    /* \"#utility.yul\":5939:6003   */\n  tag_123\n    /* \"#utility.yul\":5995:6002   */\n  dup15\n    /* \"#utility.yul\":5986:5992   */\n  dup3\n    /* \"#utility.yul\":5975:5984   */\n  dup16\n    /* \"#utility.yul\":5971:5993   */\n  add\n    /* \"#utility.yul\":5939:6003   */\n  tag_36\n  jump\t// in\ntag_123:\n    /* \"#utility.yul\":5929:6003   */\n  swap3\n  pop\n    /* \"#utility.yul\":5883:6013   */\n  pop\n    /* \"#utility.yul\":6052:6055   */\n  0x0140\n    /* \"#utility.yul\":6080:6144   */\n  tag_124\n    /* \"#utility.yul\":6136:6143   */\n  dup15\n    /* \"#utility.yul\":6127:6133   */\n  dup3\n    /* \"#utility.yul\":6116:6125   */\n  dup16\n    /* \"#utility.yul\":6112:6134   */\n  add\n    /* \"#utility.yul\":6080:6144   */\n  tag_36\n  jump\t// in\ntag_124:\n    /* \"#utility.yul\":6069:6144   */\n  swap2\n  pop\n    /* \"#utility.yul\":6023:6154   */\n  pop\n    /* \"#utility.yul\":3548:6161   */\n  swap3\n  swap6\n  swap9\n  swap12\n  pop\n  swap3\n  swap6\n  swap9\n  swap12\n  swap1\n  swap4\n  swap7\n  swap10\n  pop\n  jump\t// out\n    /* \"#utility.yul\":6167:6266   */\ntag_37:\n    /* \"#utility.yul\":6219:6225   */\n  0x00\n    /* \"#utility.yul\":6253:6258   */\n  dup2\n    /* \"#utility.yul\":6247:6259   */\n  mload\n    /* \"#utility.yul\":6237:6259   */\n  swap1\n  pop\n    /* \"#utility.yul\":6167:6266   */\n  swap2\n  swap1\n  pop\n  jump\t// out\n    /* \"#utility.yul\":6272:6452   */\ntag_38:\n    /* \"#utility.yul\":6320:6397   */\n  0x4e487b7100000000000000000000000000000000000000000000000000000000\n    /* \"#utility.yul\":6317:6318   */\n  0x00\n    /* \"#utility.yul\":6310:6398   */\n  mstore\n    /* \"#utility.yul\":6417:6421   */\n  0x22\n    /* \"#utility.yul\":6414:6415   */\n  0x04\n    /* \"#utility.yul\":6407:6422   */\n  mstore\n    /* \"#utility.yul\":6441:6445   */\n  0x24\n    /* \"#utility.yul\":6438:6439   */\n  0x00\n    /* \"#utility.yul\":6431:6446   */\n  revert\n    /* \"#utility.yul\":6458:6778   */\ntag_39:\n    /* \"#utility.yul\":6502:6508   */\n  0x00\n    /* \"#utility.yul\":6539:6540   */\n  0x02\n    /* \"#utility.yul\":6533:6537   */\n  dup3\n    /* \"#utility.yul\":6529:6541   */\n  div\n    /* \"#utility.yul\":6519:6541   */\n  swap1\n  pop\n    /* \"#utility.yul\":6586:6587   */\n  0x01\n    /* \"#utility.yul\":6580:6584   */\n  dup3\n    /* \"#utility.yul\":6576:6588   */\n  and\n    /* \"#utility.yul\":6607:6625   */\n  dup1\n    /* \"#utility.yul\":6597:6678   */\n  tag_128\n  jumpi\n    /* \"#utility.yul\":6663:6667   */\n  0x7f\n    /* \"#utility.yul\":6655:6661   */\n  dup3\n    /* \"#utility.yul\":6651:6668   */\n  and\n    /* \"#utility.yul\":6641:6668   */\n  swap2\n  pop\n    /* \"#utility.yul\":6597:6678   */\ntag_128:\n    /* \"#utility.yul\":6725:6727   */\n  0x20\n    /* \"#utility.yul\":6717:6723   */\n  dup3\n    /* \"#utility.yul\":6714:6728   */\n  lt\n    /* \"#utility.yul\":6694:6712   */\n  dup2\n    /* \"#utility.yul\":6691:6729   */\n  sub\n    /* \"#utility.yul\":6688:6772   */\n  tag_129\n  jumpi\n    /* \"#utility.yul\":6744:6762   */\n  tag_130\n  tag_38\n  jump\t// in\ntag_130:\n    /* \"#utility.yul\":6688:6772   */\ntag_129:\n    /* \"#utility.yul\":6509:6778   */\n  pop\n    /* \"#utility.yul\":6458:6778   */\n  swap2\n  swap1\n  pop\n  jump\t// out\n    /* \"#utility.yul\":6784:6925   */\ntag_40:\n    /* \"#utility.yul\":6833:6837   */\n  0x00\n    /* \"#utility.yul\":6856:6859   */\n  dup2\n    /* \"#utility.yul\":6848:6859   */\n  swap1\n  pop\n    /* \"#utility.yul\":6879:6882   */\n  dup2\n    /* \"#utility.yul\":6876:6877   */\n  0x00\n    /* \"#utility.yul\":6869:6883   */\n  mstore\n    /* \"#utility.yul\":6913:6917   */\n  0x20\n    /* \"#utility.yul\":6910:6911   */\n  0x00\n    /* \"#utility.yul\":6900:6918   */\n  keccak256\n    /* \"#utility.yul\":6892:6918   */\n  swap1\n  pop\n    /* \"#utility.yul\":6784:6925   */\n  swap2\n  swap1\n  pop\n  jump\t// out\n    /* \"#utility.yul\":6931:7024   */\ntag_41:\n    /* \"#utility.yul\":6968:6974   */\n  0x00\n    /* \"#utility.yul\":7015:7017   */\n  0x20\n    /* \"#utility.yul\":7010:7012   */\n  0x1f\n    /* \"#utility.yul\":7003:7008   */\n  dup4\n    /* \"#utility.yul\":6999:7013   */\n  add\n    /* \"#utility.yul\":6995:7018   */\n  div\n    /* \"#utility.yul\":6985:7018   */\n  swap1\n  pop\n    /* \"#utility.yul\":6931:7024   */\n  swap2\n  swap1\n  pop\n  jump\t// out\n    /* \"#utility.yul\":7030:7137   */\ntag_42:\n    /* \"#utility.yul\":7074:7082   */\n  0x00\n    /* \"#utility.yul\":7124:7129   */\n  dup3\n    /* \"#utility.yul\":7118:7122   */\n  dup3\n    /* \"#utility.yul\":7114:7130   */\n  shl\n    /* \"#utility.yul\":7093:7130   */\n  swap1\n  pop\n    /* \"#utility.yul\":7030:7137   */\n  swap3\n  swap2\n  pop\n  pop\n  jump\t// out\n    /* \"#utility.yul\":7143:7536   */\ntag_43:\n    /* \"#utility.yul\":7212:7218   */\n  0x00\n    /* \"#utility.yul\":7262:7263   */\n  0x08\n    /* \"#utility.yul\":7250:7260   */\n  dup4\n    /* \"#utility.yul\":7246:7264   */\n  mul\n    /* \"#utility.yul\":7285:7382   */\n  tag_135\n    /* \"#utility.yul\":7315:7381   */\n  0xffffffffffffffffffffffffffffffffffffffffffffffffffffffffffffffff\n    /* \"#utility.yul\":7304:7313   */\n  dup3\n    /* \"#utility.yul\":7285:7382   */\n  tag_42\n  jump\t// in\ntag_135:\n    /* \"#utility.yul\":7403:7442   */\n  tag_136\n    /* \"#utility.yul\":7433:7441   */\n  dup7\n    /* \"#utility.yul\":7422:7431   */\n  dup4\n    /* \"#utility.yul\":7403:7442   */\n  tag_42\n  jump\t// in\ntag_136:\n    /* \"#utility.yul\":7391:7442   */\n  swap6\n  pop\n    /* \"#utility.yul\":7475:7479   */\n  dup1\n    /* \"#utility.yul\":7471:7480   */\n  not\n    /* \"#utility.yul\":7464:7469   */\n  dup5\n    /* \"#utility.yul\":7460:7481   */\n  and\n    /* \"#utility.yul\":7451:7481   */\n  swap4\n  pop\n    /* \"#utility.yul\":7524:7528   */\n  dup1\n    /* \"#utility.yul\":7514:7522   */\n  dup7\n    /* \"#utility.yul\":7510:7529   */\n  and\n    /* \"#utility.yul\":7503:7508   */\n  dup5\n    /* \"#utility.yul\":7500:7530   */\n  or\n    /* \"#utility.yul\":7490:7530   */\n  swap3\n  pop\n    /* \"#utility.yul\":7219:7536   */\n  pop\n  pop\n    /* \"#utility.yul\":7143:7536   */\n  swap4\n  swap3\n  pop\n  pop\n  pop\n  jump\t// out\n    /* \"#utility.yul\":7542:7602   */\ntag_44:\n    /* \"#utility.yul\":7570:7573   */\n  0x00\n    /* \"#utility.yul\":7591:7596   */\n  dup2\n    /* \"#utility.yul\":7584:7596   */\n  swap1\n  pop\n    /* \"#utility.yul\":7542:7602   */\n  swap2\n  swap1\n  pop\n  jump\t// out\n    /* \"#utility.yul\":7608:7750   */\ntag_45:\n    /* \"#utility.yul\":7658:7667   */\n  0x00\n    /* \"#utility.yul\":7691:7744   */\n  tag_139\n    /* \"#utility.yul\":7709:7743   */\n  tag_140\n    /* \"#utility.yul\":7718:7742   */\n  tag_141\n    /* \"#utility.yul\":7736:7741   */\n  dup5\n    /* \"#utility.yul\":7718:7742   */\n  tag_34\n  jump\t// in\ntag_141:\n    /* \"#utility.yul\":7709:7743   */\n  tag_44\n  jump\t// in\ntag_140:\n    /* \"#utility.yul\":7691:7744   */\n  tag_34\n  jump\t// in\ntag_139:\n    /* \"#utility.yul\":7678:7744   */\n  swap1\n  pop\n    /* \"#utility.yul\":7608:7750   */\n  swap2\n  swap1\n  pop\n  jump\t// out\n    /* \"#utility.yul\":7756:7831   */\ntag_46:\n    /* \"#utility.yul\":7799:7802   */\n  0x00\n    /* \"#utility.yul\":7820:7825   */\n  dup2\n    /* \"#utility.yul\":7813:7825   */\n  swap1\n  pop\n    /* \"#utility.yul\":7756:7831   */\n  swap2\n  swap1\n  pop\n  jump\t// out\n    /* \"#utility.yul\":7837:8106   */\ntag_47:\n    /* \"#utility.yul\":7947:7986   */\n  tag_144\n    /* \"#utility.yul\":7978:7985   */\n  dup4\n    /* \"#utility.yul\":7947:7986   */\n  tag_45\n  jump\t// in\ntag_144:\n    /* \"#utility.yul\":8008:8099   */\n  tag_145\n    /* \"#utility.yul\":8057:8098   */\n  tag_146\n    /* \"#utility.yul\":8081:8097   */\n  dup3\n    /* \"#utility.yul\":8057:8098   */\n  tag_46\n  jump\t// in\ntag_146:\n    /* \"#utility.yul\":8049:8055   */\n  dup5\n    /* \"#utility.yul\":8042:8046   */\n  dup5\n    /* \"#utility.yul\":8036:8047   */\n  sload\n    /* \"#utility.yul\":8008:8099   */\n  tag_43\n  jump\t// in\ntag_145:\n    /* \"#utility.yul\":8002:8006   */\n  dup3\n    /* \"#utility.yul\":7995:8100   */\n  sstore\n    /* \"#utility.yul\":7913:8106   */\n  pop\n    /* \"#utility.yul\":7837:8106   */\n  pop\n  pop\n  pop\n  jump\t// out\n    /* \"#utility.yul\":8112:8185   */\ntag_48:\n    /* \"#utility.yul\":8157:8160   */\n  0x00\n    /* \"#utility.yul\":8112:8185   */\n  swap1\n  jump\t// out\n    /* \"#utility.yul\":8191:8380   */\ntag_49:\n    /* \"#utility.yul\":8268:8300   */\n  tag_149\n  tag_48\n  jump\t// in\ntag_149:\n    /* \"#utility.yul\":8309:8374   */\n  tag_150\n    /* \"#utility.yul\":8367:8373   */\n  dup2\n    /* \"#utility.yul\":8359:8365   */\n  dup5\n    /* \"#utility.yul\":8353:8357   */\n  dup5\n    /* \"#utility.yul\":8309:8374   */\n  tag_47\n  jump\t// in\ntag_150:\n    /* \"#utility.yul\":8244:8380   */\n  pop\n    /* \"#utility.yul\":8191:8380   */\n  pop\n  pop\n  jump\t// out\n    /* \"#utility.yul\":8386:8572   */\ntag_50:\n    /* \"#utility.yul\":8446:8566   */\ntag_152:\n    /* \"#utility.yul\":8463:8466   */\n  dup2\n    /* \"#utility.yul\":8456:8461   */\n  dup2\n    /* \"#utility.yul\":8453:8467   */\n  lt\n    /* \"#utility.yul\":8446:8566   */\n  iszero\n  tag_154\n  jumpi\n    /* \"#utility.yul\":8517:8556   */\n  tag_155\n    /* \"#utility.yul\":8554:8555   */\n  0x00\n    /* \"#utility.yul\":8547:8552   */\n  dup3\n    /* \"#utility.yul\":8517:8556   */\n  tag_49\n  jump\t// in\ntag_155:\n    /* \"#utility.yul\":8490:8491   */\n  0x01\n    /* \"#utility.yul\":8483:8488   */\n  dup2\n    /* \"#utility.yul\":8479:8492   */\n  add\n    /* \"#utility.yul\":8470:8492   */\n  swap1\n  pop\n    /* \"#utility.yul\":8446:8566   */\n  jump(tag_152)\ntag_154:\n    /* \"#utility.yul\":8386:8572   */\n  pop\n  pop\n  jump\t// out\n    /* \"#utility.yul\":8578:9121   */\ntag_51:\n    /* \"#utility.yul\":8679:8681   */\n  0x1f\n    /* \"#utility.yul\":8674:8677   */\n  dup3\n    /* \"#utility.yul\":8671:8682   */\n  gt\n    /* \"#utility.yul\":8668:9114   */\n  iszero\n  tag_157\n  jumpi\n    /* \"#utility.yul\":8713:8751   */\n  tag_158\n    /* \"#utility.yul\":8745:8750   */\n  dup2\n    /* \"#utility.yul\":8713:8751   */\n  tag_40\n  jump\t// in\ntag_158:\n    /* \"#utility.yul\":8797:8826   */\n  tag_159\n    /* \"#utility.yul\":8815:8825   */\n  dup5\n    /* \"#utility.yul\":8797:8826   */\n  tag_41\n  jump\t// in\ntag_159:\n    /* \"#utility.yul\":8787:8795   */\n  dup2\n    /* \"#utility.yul\":8783:8827   */\n  add\n    /* \"#utility.yul\":8980:8982   */\n  0x20\n    /* \"#utility.yul\":8968:8978   */\n  dup6\n    /* \"#utility.yul\":8965:8983   */\n  lt\n    /* \"#utility.yul\":8962:9011   */\n  iszero\n  tag_160\n  jumpi\n    /* \"#utility.yul\":9001:9009   */\n  dup2\n    /* \"#utility.yul\":8986:9009   */\n  swap1\n  pop\n    /* \"#utility.yul\":8962:9011   */\ntag_160:\n    /* \"#utility.yul\":9024:9104   */\n  tag_161\n    /* \"#utility.yul\":9080:9102   */\n  tag_162\n    /* \"#utility.yul\":9098:9101   */\n  dup6\n    /* \"#utility.yul\":9080:9102   */\n  tag_41\n  jump\t// in\ntag_162:\n    /* \"#utility.yul\":9070:9078   */\n  dup4\n    /* \"#utility.yul\":9066:9103   */\n  add\n    /* \"#utility.yul\":9053:9064   */\n  dup3\n    /* \"#utility.yul\":9024:9104   */\n  tag_50\n  jump\t// in\ntag_161:\n    /* \"#utility.yul\":8683:9114   */\n  pop\n  pop\n    /* \"#utility.yul\":8668:9114   */\ntag_157:\n    /* \"#utility.yul\":8578:9121   */\n  pop\n  pop\n  pop\n  jump\t// out\n    /* \"#utility.yul\":9127:9244   */\ntag_52:\n    /* \"#utility.yul\":9181:9189   */\n  0x00\n    /* \"#utility.yul\":9231:9236   */\n  dup3\n    /* \"#utility.yul\":9225:9229   */\n  dup3\n    /* \"#utility.yul\":9221:9237   */\n  shr\n    /* \"#utility.yul\":9200:9237   */\n  swap1\n  pop\n    /* \"#utility.yul\":9127:9244   */\n  swap3\n  swap2\n  pop\n  pop\n  jump\t// out\n    /* \"#utility.yul\":9250:9419   */\ntag_53:\n    /* \"#utility.yul\":9294:9300   */\n  0x00\n    /* \"#utility.yul\":9327:9378   */\n  tag_165\n    /* \"#utility.yul\":9375:9376   */\n  0x00\n    /* \"#utility.yul\":9371:9377   */\n  not\n    /* \"#utility.yul\":9363:9368   */\n  dup5\n    /* \"#utility.yul\":9360:9361   */\n  0x08\n    /* \"#utility.yul\":9356:9369   */\n  mul\n    /* \"#utility.yul\":9327:9378   */\n  tag_52\n  jump\t// in\ntag_165:\n    /* \"#utility.yul\":9323:9379   */\n  not\n    /* \"#utility.yul\":9408:9412   */\n  dup1\n    /* \"#utility.yul\":9402:9406   */\n  dup4\n    /* \"#utility.yul\":9398:9413   */\n  and\n    /* \"#utility.yul\":9388:9413   */\n  swap2\n  pop\n    /* \"#utility.yul\":9301:9419   */\n  pop\n    /* \"#utility.yul\":9250:9419   */\n  swap3\n  swap2\n  pop\n  pop\n  jump\t// out\n    /* \"#utility.yul\":9424:9719   */\ntag_54:\n    /* \"#utility.yul\":9500:9504   */\n  0x00\n    /* \"#utility.yul\":9646:9675   */\n  tag_167\n    /* \"#utility.yul\":9671:9674   */\n  dup4\n    /* \"#utility.yul\":9665:9669   */\n  dup4\n    /* \"#utility.yul\":9646:9675   */\n  tag_53\n  jump\t// in\ntag_167:\n    /* \"#utility.yul\":9638:9675   */\n  swap2\n  pop\n    /* \"#utility.yul\":9708:9711   */\n  dup3\n    /* \"#utility.yul\":9705:9706   */\n  0x02\n    /* \"#utility.yul\":9701:9712   */\n  mul\n    /* \"#utility.yul\":9695:9699   */\n  dup3\n    /* \"#utility.yul\":9692:9713   */\n  or\n    /* \"#utility.yul\":9684:9713   */\n  swap1\n  pop\n    /* \"#utility.yul\":9424:9719   */\n  swap3\n  swap2\n  pop\n  pop\n  jump\t// out\n    /* \"#utility.yul\":9724:11119   */\ntag_7:\n    /* \"#utility.yul\":9841:9878   */\n  tag_169\n    /* \"#utility.yul\":9874:9877   */\n  dup3\n    /* \"#utility.yul\":9841:9878   */\n  tag_37\n  jump\t// in\ntag_169:\n    /* \"#utility.yul\":9943:9961   */\n  0xffffffffffffffff\n    /* \"#utility.yul\":9935:9941   */\n  dup2\n    /* \"#utility.yul\":9932:9962   */\n  gt\n    /* \"#utility.yul\":9929:9985   */\n  iszero\n  tag_170\n  jumpi\n    /* \"#utility.yul\":9965:9983   */\n  tag_171\n  tag_27\n  jump\t// in\ntag_171:\n    /* \"#utility.yul\":9929:9985   */\ntag_170:\n    /* \"#utility.yul\":10009:10047   */\n  tag_172\n    /* \"#utility.yul\":10041:10045   */\n  dup3\n    /* \"#utility.yul\":10035:10046   */\n  sload\n    /* \"#utility.yul\":10009:10047   */\n  tag_39\n  jump\t// in\ntag_172:\n    /* \"#utility.yul\":10094:10161   */\n  tag_173\n    /* \"#utility.yul\":10154:10160   */\n  dup3\n    /* \"#utility.yul\":10146:10152   */\n  dup3\n    /* \"#utility.yul\":10140:10144   */\n  dup6\n    /* \"#utility.yul\":10094:10161   */\n  tag_51\n  jump\t// in\ntag_173:\n    /* \"#utility.yul\":10188:10189   */\n  0x00\n    /* \"#utility.yul\":10212:10216   */\n  0x20\n    /* \"#utility.yul\":10199:10216   */\n  swap1\n  pop\n    /* \"#utility.yul\":10244:10246   */\n  0x1f\n    /* \"#utility.yul\":10236:10242   */\n  dup4\n    /* \"#utility.yul\":10233:10247   */\n  gt\n    /* \"#utility.yul\":10261:10262   */\n  0x01\n    /* \"#utility.yul\":10256:10874   */\n  dup2\n  eq\n  tag_175\n  jumpi\n    /* \"#utility.yul\":10918:10919   */\n  0x00\n    /* \"#utility.yul\":10935:10941   */\n  dup5\n    /* \"#utility.yul\":10932:11009   */\n  iszero\n  tag_176\n  jumpi\n    /* \"#utility.yul\":10984:10993   */\n  dup3\n    /* \"#utility.yul\":10979:10982   */\n  dup8\n    /* \"#utility.yul\":10975:10994   */\n  add\n    /* \"#utility.yul\":10969:10995   */\n  mload\n    /* \"#utility.yul\":10960:10995   */\n  swap1\n  pop\n    /* \"#utility.yul\":10932:11009   */\ntag_176:\n    /* \"#utility.yul\":11035:11102   */\n  tag_177\n    /* \"#utility.yul\":11095:11101   */\n  dup6\n    /* \"#utility.yul\":11088:11093   */\n  dup3\n    /* \"#utility.yul\":11035:11102   */\n  tag_54\n  jump\t// in\ntag_177:\n    /* \"#utility.yul\":11029:11033   */\n  dup7\n    /* \"#utility.yul\":11022:11103   */\n  sstore\n    /* \"#utility.yul\":10891:11113   */\n  pop\n    /* \"#utility.yul\":10226:11113   */\n  jump(tag_174)\n    /* \"#utility.yul\":10256:10874   */\ntag_175:\n    /* \"#utility.yul\":10308:10312   */\n  0x1f\n    /* \"#utility.yul\":10304:10313   */\n  not\n    /* \"#utility.yul\":10296:10302   */\n  dup5\n    /* \"#utility.yul\":10292:10314   */\n  and\n    /* \"#utility.yul\":10342:10379   */\n  tag_178\n    /* \"#utility.yul\":10374:10378   */\n  dup7\n    /* \"#utility.yul\":10342:10379   */\n  tag_40\n  jump\t// in\ntag_178:\n    /* \"#utility.yul\":10401:10402   */\n  0x00\n    /* \"#utility.yul\":10415:10623   */\ntag_179:\n    /* \"#utility.yul\":10429:10436   */\n  dup3\n    /* \"#utility.yul\":10426:10427   */\n  dup2\n    /* \"#utility.yul\":10423:10437   */\n  lt\n    /* \"#utility.yul\":10415:10623   */\n  iszero\n  tag_181\n  jumpi\n    /* \"#utility.yul\":10508:10517   */\n  dup5\n    /* \"#utility.yul\":10503:10506   */\n  dup10\n    /* \"#utility.yul\":10499:10518   */\n  add\n    /* \"#utility.yul\":10493:10519   */\n  mload\n    /* \"#utility.yul\":10485:10491   */\n  dup3\n    /* \"#utility.yul\":10478:10520   */\n  sstore\n    /* \"#utility.yul\":10559:10560   */\n  0x01\n    /* \"#utility.yul\":10551:10557   */\n  dup3\n    /* \"#utility.yul\":10547:10561   */\n  add\n    /* \"#utility.yul\":10537:10561   */\n  swap2\n  pop\n    /* \"#utility.yul\":10606:10608   */\n  0x20\n    /* \"#utility.yul\":10595:10604   */\n  dup6\n    /* \"#utility.yul\":10591:10609   */\n  add\n    /* \"#utility.yul\":10578:10609   */\n  swap5\n  pop\n    /* \"#utility.yul\":10452:10456   */\n  0x20\n    /* \"#utility.yul\":10449:10450   */\n  dup2\n    /* \"#utility.yul\":10445:10457   */\n  add\n    /* \"#utility.yul\":10440:10457   */\n  swap1\n  pop\n    /* \"#utility.yul\":10415:10623   */\n  jump(tag_179)\ntag_181:\n    /* \"#utility.yul\":10651:10657   */\n  dup7\n    /* \"#utility.yul\":10642:10649   */\n  dup4\n    /* \"#utility.yul\":10639:10658   */\n  lt\n    /* \"#utility.yul\":10636:10815   */\n  iszero\n  tag_182\n  jumpi\n    /* \"#utility.yul\":10709:10718   */\n  dup5\n    /* \"#utility.yul\":10704:10707   */\n  dup10\n    /* \"#utility.yul\":10700:10719   */\n  add\n    /* \"#utility.yul\":10694:10720   */\n  mload\n    /* \"#utility.yul\":10752:10800   */\n  tag_183\n    /* \"#utility.yul\":10794:10798   */\n  0x1f\n    /* \"#utility.yul\":10786:10792   */\n  dup10\n    /* \"#utility.yul\":10782:10799   */\n  and\n    /* \"#utility.yul\":10771:10780   */\n  dup3\n    /* \"#utility.yul\":10752:10800   */\n  tag_53\n  jump\t// in\ntag_183:\n    /* \"#utility.yul\":10744:10750   */\n  dup4\n    /* \"#utility.yul\":10737:10801   */\n  sstore\n    /* \"#utility.yul\":10659:10815   */\n  pop\n    /* \"#utility.yul\":10636:10815   */\ntag_182:\n    /* \"#utility.yul\":10861:10862   */\n  0x01\n    /* \"#utility.yul\":10857:10858   */\n  0x02\n    /* \"#utility.yul\":10849:10855   */\n  dup9\n    /* \"#utility.yul\":10845:10859   */\n  mul\n    /* \"#utility.yul\":10841:10863   */\n  add\n    /* \"#utility.yul\":10835:10839   */\n  dup9\n    /* \"#utility.yul\":10828:10864   */\n  sstore\n    /* \"#utility.yul\":10263:10874   */\n  pop\n  pop\n  pop\n    /* \"#utility.yul\":10226:11113   */\ntag_174:\n  pop\n    /* \"#utility.yul\":9816:11119   */\n  pop\n  pop\n  pop\n    /* \"#utility.yul\":9724:11119   */\n  pop\n  pop\n  jump\t// out\n    /* \"#utility.yul\":11125:11243   */\ntag_55:\n    /* \"#utility.yul\":11212:11236   */\n  tag_185\n    /* \"#utility.yul\":11230:11235   */\n  dup2\n    /* \"#utility.yul\":11212:11236   */\n  tag_34\n  jump\t// in\ntag_185:\n    /* \"#utility.yul\":11207:11210   */\n  dup3\n    /* \"#utility.yul\":11200:11237   */\n  mstore\n    /* \"#utility.yul\":11125:11243   */\n  pop\n  pop\n  jump\t// out\n    /* \"#utility.yul\":11249:11471   */\ntag_14:\n    /* \"#utility.yul\":11342:11346   */\n  0x00\n    /* \"#utility.yul\":11380:11382   */\n  0x20\n    /* \"#utility.yul\":11369:11378   */\n  dup3\n    /* \"#utility.yul\":11365:11383   */\n  add\n    /* \"#utility.yul\":11357:11383   */\n  swap1\n  pop\n    /* \"#utility.yul\":11393:11464   */\n  tag_187\n    /* \"#utility.yul\":11461:11462   */\n  0x00\n    /* \"#utility.yul\":11450:11459   */\n  dup4\n    /* \"#utility.yul\":11446:11463   */\n  add\n    /* \"#utility.yul\":11437:11443   */\n  dup5\n    /* \"#utility.yul\":11393:11464   */\n  tag_55\n  jump\t// in\ntag_187:\n    /* \"#utility.yul\":11249:11471   */\n  swap3\n  swap2\n  pop\n  pop\n  jump\t// out\n    /* \"contracts/actor.sol\":60:3021  contract Actor{... */\ntag_16:\n  dataSize(sub_0)\n  dup1\n  dataOffset(sub_0)\n  0x00\n  codecopy\n  0x00\n  return\nstop\n\nsub_0: assembly {\n        /* \"contracts/actor.sol\":60:3021  contract Actor{... */\n      mstore(0x40, 0x80)\n      callvalue\n      dup1\n      iszero\n      tag_1\n      jumpi\n      0x00\n      dup1\n      revert\n    tag_1:\n      pop\n      jumpi(tag_2, lt(calldatasize, 0x04))\n      shr(0xe0, calldataload(0x00))\n      dup1\n      0x5b087323\n      gt\n      tag_17\n      jumpi\n      dup1\n      0xc5c340ec\n      gt\n      tag_18\n      jumpi\n      dup1\n      0xc5c340ec\n      eq\n      tag_13\n      jumpi\n      dup1\n      0xdb4b8b4d\n      eq\n      tag_14\n      jumpi\n      dup1\n      0xdf752c7e\n      eq\n      tag_15\n      jumpi\n      dup1\n      0xf4df9085\n      eq\n      tag_16\n      jumpi\n      jump(tag_2)\n    tag_18:\n      dup1\n      0x5b087323\n      eq\n      tag_10\n      jumpi\n      dup1\n      0x6a2b4340\n      eq\n      tag_11\n      jumpi\n      dup1\n      0xbd3c3778\n      eq\n      tag_12\n      jumpi\n      jump(tag_2)\n    tag_17:\n      dup1\n      0x3a4564cf\n      gt\n      tag_19\n      jumpi\n      dup1\n      0x3a4564cf\n      eq\n      tag_6\n      jumpi\n      dup1\n      0x3a525c29\n      eq\n      tag_7\n      jumpi\n      dup1\n      0x3a885968\n      eq\n      tag_8\n      jumpi\n      dup1\n      0x438926a5\n      eq\n      tag_9\n      jumpi\n      jump(tag_2)\n    tag_19:\n      dup1\n      0x0131222f\n      eq\n      tag_3\n      jumpi\n      dup1\n      0x1ae6f119\n      eq\n      tag_4\n      jumpi\n      dup1\n      0x2bb88237\n      eq\n      tag_5\n      jumpi\n    tag_2:\n      0x00\n      dup1\n      revert\n        /* \"contracts/actor.sol\":1431:1522  function get_address() public view returns(address) {... */\n    tag_3:\n      tag_20\n      tag_21\n      jump\t// in\n    tag_20:\n      mload(0x40)\n      tag_22\n      swap2\n      swap1\n      tag_23\n      jump\t// in\n    tag_22:\n      mload(0x40)\n      dup1\n      swap2\n      sub\n      swap1\n      return\n        /* \"contracts/actor.sol\":2133:2229  function set_inventory(uint quantity) public {... */\n    tag_4:\n      tag_24\n      0x04\n      dup1\n      calldatasize\n      sub\n      dup2\n      add\n      swap1\n      tag_25\n      swap2\n      swap1\n      tag_26\n      jump\t// in\n    tag_25:\n      tag_27\n      jump\t// in\n    tag_24:\n      stop\n        /* \"contracts/actor.sol\":2696:2790  function get_delivery_days() public view returns(uint) {... */\n    tag_5:\n      tag_28\n      tag_29\n      jump\t// in\n    tag_28:\n      mload(0x40)\n      tag_30\n      swap2\n      swap1\n      tag_31\n      jump\t// in\n    tag_30:\n      mload(0x40)\n      dup1\n      swap2\n      sub\n      swap1\n      return\n        /* \"contracts/actor.sol\":2504:2598  function get_annual_demand() public view returns(uint) {... */\n    tag_6:\n      tag_32\n      tag_33\n      jump\t// in\n    tag_32:\n      mload(0x40)\n      tag_34\n      swap2\n      swap1\n      tag_31\n      jump\t// in\n    tag_34:\n      mload(0x40)\n      dup1\n      swap2\n      sub\n      swap1\n      return\n        /* \"contracts/actor.sol\":1629:1720  function get_name() public view returns(string memory) {... */\n    tag_7:\n      tag_35\n      tag_36\n      jump\t// in\n    tag_35:\n      mload(0x40)\n      tag_37\n      swap2\n      swap1\n      tag_38\n      jump\t// in\n    tag_37:\n      mload(0x40)\n      dup1\n      swap2\n      sub\n      swap1\n      return\n        /* \"contracts/actor.sol\":1528:1623  function get_type() public view returns(string memory) {... */\n    tag_8:\n      tag_39\n      tag_40\n      jump\t// in\n    tag_39:\n      mload(0x40)\n      tag_41\n      swap2\n      swap1\n      tag_38\n      jump\t// in\n    tag_41:\n      mload(0x40)\n      dup1\n      swap2\n      sub\n      swap1\n      return\n        /* \"contracts/actor.sol\":2036:2127  function set_national_id(string memory id) public {... */\n    tag_9:\n      tag_42\n      0x04\n      dup1\n      calldatasize\n      sub\n      dup2\n      add\n      swap1\n      tag_43\n      swap2\n      swap1\n      tag_44\n      jump\t// in\n    tag_43:\n      tag_45\n      jump\t// in\n    tag_42:\n      stop\n        /* \"contracts/actor.sol\":1827:1932  function get_national_id() public view returns(string memory) {... */\n    tag_10:\n      tag_46\n      tag_47\n      jump\t// in\n    tag_46:\n      mload(0x40)\n      tag_48\n      swap2\n      swap1\n      tag_38\n      jump\t// in\n    tag_48:\n      mload(0x40)\n      dup1\n      swap2\n      sub\n      swap1\n      return\n        /* \"contracts/actor.sol\":2926:3018  function get_holding_cost() public view returns(uint) {... */\n    tag_11:\n      tag_49\n      tag_50\n      jump\t// in\n    tag_49:\n      mload(0x40)\n      tag_51\n      swap2\n      swap1\n      tag_31\n      jump\t// in\n    tag_51:\n      mload(0x40)\n      dup1\n      swap2\n      sub\n      swap1\n      return\n        /* \"contracts/actor.sol\":1726:1821  function get_region() public view returns(string memory) {... */\n    tag_12:\n      tag_52\n      tag_53\n      jump\t// in\n    tag_52:\n      mload(0x40)\n      tag_54\n      swap2\n      swap1\n      tag_38\n      jump\t// in\n    tag_54:\n      mload(0x40)\n      dup1\n      swap2\n      sub\n      swap1\n      return\n        /* \"contracts/actor.sol\":2604:2690  function get_days_open() public view returns(uint) {... */\n    tag_13:\n      tag_55\n      tag_56\n      jump\t// in\n    tag_55:\n      mload(0x40)\n      tag_57\n      swap2\n      swap1\n      tag_31\n      jump\t// in\n    tag_57:\n      mload(0x40)\n      dup1\n      swap2\n      sub\n      swap1\n      return\n        /* \"contracts/actor.sol\":1938:2030  function get_inventory() public view returns (Inventory) {... */\n    tag_14:\n      tag_58\n      tag_59\n      jump\t// in\n    tag_58:\n      mload(0x40)\n      tag_60\n      swap2\n      swap1\n      tag_61\n      jump\t// in\n    tag_60:\n      mload(0x40)\n      dup1\n      swap2\n      sub\n      swap1\n      return\n        /* \"contracts/actor.sol\":2235:2498  function show_actor_details() public {... */\n    tag_15:\n      tag_62\n      tag_63\n      jump\t// in\n    tag_62:\n      stop\n        /* \"contracts/actor.sol\":2796:2920  function get_cost_to_place_and_process_order() public view returns(uint) {... */\n    tag_16:\n      tag_64\n      tag_65\n      jump\t// in\n    tag_64:\n      mload(0x40)\n      tag_66\n      swap2\n      swap1\n      tag_31\n      jump\t// in\n    tag_66:\n      mload(0x40)\n      dup1\n      swap2\n      sub\n      swap1\n      return\n        /* \"contracts/actor.sol\":1431:1522  function get_address() public view returns(address) {... */\n    tag_21:\n        /* \"contracts/actor.sol\":1474:1481  address */\n      0x00\n        /* \"contracts/actor.sol\":1501:1514  actor_address */\n      dup1\n      0x00\n      swap1\n      sload\n      swap1\n      0x0100\n      exp\n      swap1\n      div\n      0xffffffffffffffffffffffffffffffffffffffff\n      and\n        /* \"contracts/actor.sol\":1494:1514  return actor_address */\n      swap1\n      pop\n        /* \"contracts/actor.sol\":1431:1522  function get_address() public view returns(address) {... */\n      swap1\n      jump\t// out\n        /* \"contracts/actor.sol\":2133:2229  function set_inventory(uint quantity) public {... */\n    tag_27:\n        /* \"contracts/actor.sol\":2189:2198  inventory */\n      0x05\n      0x00\n      swap1\n      sload\n      swap1\n      0x0100\n      exp\n      swap1\n      div\n      0xffffffffffffffffffffffffffffffffffffffff\n      and\n        /* \"contracts/actor.sol\":2189:2211  inventory.set_quantity */\n      0xffffffffffffffffffffffffffffffffffffffff\n      and\n      0x992e94fd\n        /* \"contracts/actor.sol\":2212:2220  quantity */\n      dup3\n        /* \"contracts/actor.sol\":2189:2221  inventory.set_quantity(quantity) */\n      mload(0x40)\n      dup3\n      0xffffffff\n      and\n      0xe0\n      shl\n      dup2\n      mstore\n      0x04\n      add\n      tag_69\n      swap2\n      swap1\n      tag_31\n      jump\t// in\n    tag_69:\n      0x00\n      mload(0x40)\n      dup1\n      dup4\n      sub\n      dup2\n      0x00\n      dup8\n      dup1\n      extcodesize\n      iszero\n      dup1\n      iszero\n      tag_70\n      jumpi\n      0x00\n      dup1\n      revert\n    tag_70:\n      pop\n      gas\n      call\n      iszero\n      dup1\n      iszero\n      tag_72\n      jumpi\n      returndatasize\n      0x00\n      dup1\n      returndatacopy\n      revert(0x00, returndatasize)\n    tag_72:\n      pop\n      pop\n      pop\n      pop\n        /* \"contracts/actor.sol\":2133:2229  function set_inventory(uint quantity) public {... */\n      pop\n      jump\t// out\n        /* \"contracts/actor.sol\":2696:2790  function get_delivery_days() public view returns(uint) {... */\n    tag_29:\n        /* \"contracts/actor.sol\":2745:2749  uint */\n      0x00\n        /* \"contracts/actor.sol\":2769:2782  delivery_days */\n      sload(0x08)\n        /* \"contracts/actor.sol\":2762:2782  return delivery_days */\n      swap1\n      pop\n        /* \"contracts/actor.sol\":2696:2790  function get_delivery_days() public view returns(uint) {... */\n      swap1\n      jump\t// out\n        /* \"contracts/actor.sol\":2504:2598  function get_annual_demand() public view returns(uint) {... */\n    tag_33:\n        /* \"contracts/actor.sol\":2553:2557  uint */\n      0x00\n        /* \"contracts/actor.sol\":2577:2590  annual_demand */\n      sload(0x06)\n        /* \"contracts/actor.sol\":2570:2590  return annual_demand */\n      swap1\n      pop\n        /* \"contracts/actor.sol\":2504:2598  function get_annual_demand() public view returns(uint) {... */\n      swap1\n      jump\t// out\n        /* \"contracts/actor.sol\":1629:1720  function get_name() public view returns(string memory) {... */\n    tag_36:\n        /* \"contracts/actor.sol\":1669:1682  string memory */\n      0x60\n        /* \"contracts/actor.sol\":1702:1712  actor_name */\n      0x02\n        /* \"contracts/actor.sol\":1695:1712  return actor_name */\n      dup1\n      sload\n      tag_76\n      swap1\n      tag_77\n      jump\t// in\n    tag_76:\n      dup1\n      0x1f\n      add\n      0x20\n      dup1\n      swap2\n      div\n      mul\n      0x20\n      add\n      mload(0x40)\n      swap1\n      dup2\n      add\n      0x40\n      mstore\n      dup1\n      swap3\n      swap2\n      swap1\n      dup2\n      dup2\n      mstore\n      0x20\n      add\n      dup3\n      dup1\n      sload\n      tag_78\n      swap1\n      tag_77\n      jump\t// in\n    tag_78:\n      dup1\n      iszero\n      tag_79\n      jumpi\n      dup1\n      0x1f\n      lt\n      tag_80\n      jumpi\n      0x0100\n      dup1\n      dup4\n      sload\n      div\n      mul\n      dup4\n      mstore\n      swap2\n      0x20\n      add\n      swap2\n      jump(tag_79)\n    tag_80:\n      dup3\n      add\n      swap2\n      swap1\n      0x00\n      mstore\n      keccak256(0x00, 0x20)\n      swap1\n    tag_81:\n      dup2\n      sload\n      dup2\n      mstore\n      swap1\n      0x01\n      add\n      swap1\n      0x20\n      add\n      dup1\n      dup4\n      gt\n      tag_81\n      jumpi\n      dup3\n      swap1\n      sub\n      0x1f\n      and\n      dup3\n      add\n      swap2\n    tag_79:\n      pop\n      pop\n      pop\n      pop\n      pop\n      swap1\n      pop\n        /* \"contracts/actor.sol\":1629:1720  function get_name() public view returns(string memory) {... */\n      swap1\n      jump\t// out\n        /* \"contracts/actor.sol\":1528:1623  function get_type() public view returns(string memory) {... */\n    tag_40:\n        /* \"contracts/actor.sol\":1568:1581  string memory */\n      0x60\n        /* \"contracts/actor.sol\":1601:1611  actor_type */\n      0x01\n        /* \"contracts/actor.sol\":1594:1611  return actor_type */\n      dup1\n      sload\n      tag_83\n      swap1\n      tag_77\n      jump\t// in\n    tag_83:\n      dup1\n      0x1f\n      add\n      0x20\n      dup1\n      swap2\n      div\n      mul\n      0x20\n      add\n      mload(0x40)\n      swap1\n      dup2\n      add\n      0x40\n      mstore\n      dup1\n      swap3\n      swap2\n      swap1\n      dup2\n      dup2\n      mstore\n      0x20\n      add\n      dup3\n      dup1\n      sload\n      tag_84\n      swap1\n      tag_77\n      jump\t// in\n    tag_84:\n      dup1\n      iszero\n      tag_85\n      jumpi\n      dup1\n      0x1f\n      lt\n      tag_86\n      jumpi\n      0x0100\n      dup1\n      dup4\n      sload\n      div\n      mul\n      dup4\n      mstore\n      swap2\n      0x20\n      add\n      swap2\n      jump(tag_85)\n    tag_86:\n      dup3\n      add\n      swap2\n      swap1\n      0x00\n      mstore\n      keccak256(0x00, 0x20)\n      swap1\n    tag_87:\n      dup2\n      sload\n      dup2\n      mstore\n      swap1\n      0x01\n      add\n      swap1\n      0x20\n      add\n      dup1\n      dup4\n      gt\n      tag_87\n      jumpi\n      dup3\n      swap1\n      sub\n      0x1f\n      and\n      dup3\n      add\n      swap2\n    tag_85:\n      pop\n      pop\n      pop\n      pop\n      pop\n      swap1\n      pop\n        /* \"contracts/actor.sol\":1528:1623  function get_type() public view returns(string memory) {... */\n      swap1\n      jump\t// out\n        /* \"contracts/actor.sol\":2036:2127  function set_national_id(string memory id) public {... */\n    tag_45:\n        /* \"contracts/actor.sol\":2117:2119  id */\n      dup1\n        /* \"contracts/actor.sol\":2097:2114  actor_national_id */\n      0x04\n        /* \"contracts/actor.sol\":2097:2119  actor_national_id = id */\n      swap1\n      dup2\n      tag_89\n      swap2\n      swap1\n      tag_90\n      jump\t// in\n    tag_89:\n      pop\n        /* \"contracts/actor.sol\":2036:2127  function set_national_id(string memory id) public {... */\n      pop\n      jump\t// out\n        /* \"contracts/actor.sol\":1827:1932  function get_national_id() public view returns(string memory) {... */\n    tag_47:\n        /* \"contracts/actor.sol\":1874:1887  string memory */\n      0x60\n        /* \"contracts/actor.sol\":1907:1924  actor_national_id */\n      0x04\n        /* \"contracts/actor.sol\":1900:1924  return actor_national_id */\n      dup1\n      sload\n      tag_92\n      swap1\n      tag_77\n      jump\t// in\n    tag_92:\n      dup1\n      0x1f\n      add\n      0x20\n      dup1\n      swap2\n      div\n      mul\n      0x20\n      add\n      mload(0x40)\n      swap1\n      dup2\n      add\n      0x40\n      mstore\n      dup1\n      swap3\n      swap2\n      swap1\n      dup2\n      dup2\n      mstore\n      0x20\n      add\n      dup3\n      dup1\n      sload\n      tag_93\n      swap1\n      tag_77\n      jump\t// in\n    tag_93:\n      dup1\n      iszero\n      tag_94\n      jumpi\n      dup1\n      0x1f\n      lt\n      tag_95\n      jumpi\n      0x0100\n      dup1\n      dup4\n      sload\n      div\n      mul\n      dup4\n      mstore\n      swap2\n      0x20\n      add\n      swap2\n      jump(tag_94)\n    tag_95:\n      dup3\n      add\n      swap2\n      swap1\n      0x00\n      mstore\n      keccak256(0x00, 0x20)\n      swap1\n    tag_96:\n      dup2\n      sload\n      dup2\n      mstore\n      swap1\n      0x01\n      add\n      swap1\n      0x20\n      add\n      dup1\n      dup4\n      gt\n      tag_96\n      jumpi\n      dup3\n      swap1\n      sub\n      0x1f\n      and\n      dup3\n      add\n      swap2\n    tag_94:\n      pop\n      pop\n      pop\n      pop\n      pop\n      swap1\n      pop\n        /* \"contracts/actor.sol\":1827:1932  function get_national_id() public view returns(string memory) {... */\n      swap1\n      jump\t// out\n        /* \"contracts/actor.sol\":2926:3018  function get_holding_cost() public view returns(uint) {... */\n    tag_50:\n        /* \"contracts/actor.sol\":2974:2978  uint */\n      0x00\n        /* \"contracts/actor.sol\":2998:3010  holding_cost */\n      sload(0x0a)\n        /* \"contracts/actor.sol\":2991:3010  return holding_cost */\n      swap1\n      pop\n        /* \"contracts/actor.sol\":2926:3018  function get_holding_cost() public view returns(uint) {... */\n      swap1\n      jump\t// out\n        /* \"contracts/actor.sol\":1726:1821  function get_region() public view returns(string memory) {... */\n    tag_53:\n        /* \"contracts/actor.sol\":1768:1781  string memory */\n      0x60\n        /* \"contracts/actor.sol\":1801:1813  actor_region */\n      0x03\n        /* \"contracts/actor.sol\":1794:1813  return actor_region */\n      dup1\n      sload\n      tag_99\n      swap1\n      tag_77\n      jump\t// in\n    tag_99:\n      dup1\n      0x1f\n      add\n      0x20\n      dup1\n      swap2\n      div\n      mul\n      0x20\n      add\n      mload(0x40)\n      swap1\n      dup2\n      add\n      0x40\n      mstore\n      dup1\n      swap3\n      swap2\n      swap1\n      dup2\n      dup2\n      mstore\n      0x20\n      add\n      dup3\n      dup1\n      sload\n      tag_100\n      swap1\n      tag_77\n      jump\t// in\n    tag_100:\n      dup1\n      iszero\n      tag_101\n      jumpi\n      dup1\n      0x1f\n      lt\n      tag_102\n      jumpi\n      0x0100\n      dup1\n      dup4\n      sload\n      div\n      mul\n      dup4\n      mstore\n      swap2\n      0x20\n      add\n      swap2\n      jump(tag_101)\n    tag_102:\n      dup3\n      add\n      swap2\n      swap1\n      0x00\n      mstore\n      keccak256(0x00, 0x20)\n      swap1\n    tag_103:\n      dup2\n      sload\n      dup2\n      mstore\n      swap1\n      0x01\n      add\n      swap1\n      0x20\n      add\n      dup1\n      dup4\n      gt\n      tag_103\n      jumpi\n      dup3\n      swap1\n      sub\n      0x1f\n      and\n      dup3\n      add\n      swap2\n    tag_101:\n      pop\n      pop\n      pop\n      pop\n      pop\n      swap1\n      pop\n        /* \"contracts/actor.sol\":1726:1821  function get_region() public view returns(string memory) {... */\n      swap1\n      jump\t// out\n        /* \"contracts/actor.sol\":2604:2690  function get_days_open() public view returns(uint) {... */\n    tag_56:\n        /* \"contracts/actor.sol\":2649:2653  uint */\n      0x00\n        /* \"contracts/actor.sol\":2673:2682  days_open */\n      sload(0x07)\n        /* \"contracts/actor.sol\":2666:2682  return days_open */\n      swap1\n      pop\n        /* \"contracts/actor.sol\":2604:2690  function get_days_open() public view returns(uint) {... */\n      swap1\n      jump\t// out\n        /* \"contracts/actor.sol\":1938:2030  function get_inventory() public view returns (Inventory) {... */\n    tag_59:\n        /* \"contracts/actor.sol\":1984:1993  Inventory */\n      0x00\n        /* \"contracts/actor.sol\":2013:2022  inventory */\n      0x05\n      0x00\n      swap1\n      sload\n      swap1\n      0x0100\n      exp\n      swap1\n      div\n      0xffffffffffffffffffffffffffffffffffffffff\n      and\n        /* \"contracts/actor.sol\":2006:2022  return inventory */\n      swap1\n      pop\n        /* \"contracts/actor.sol\":1938:2030  function get_inventory() public view returns (Inventory) {... */\n      swap1\n      jump\t// out\n        /* \"contracts/actor.sol\":2235:2498  function show_actor_details() public {... */\n    tag_63:\n        /* \"contracts/actor.sol\":2288:2490  event_show_all_details(actor_address, actor_type, actor_name, actor_region, actor_national_id, inventory.get_quantity(), annual_demand, days_open, delivery_days, cost_to_place_and_process, holding_cost) */\n      0xff986eb5f73f3854e5207fe385403c4d281fd7b6bfd7cbdfe61a29f6239c1591\n        /* \"contracts/actor.sol\":2311:2324  actor_address */\n      0x00\n      dup1\n      sload\n      swap1\n      0x0100\n      exp\n      swap1\n      div\n      0xffffffffffffffffffffffffffffffffffffffff\n      and\n        /* \"contracts/actor.sol\":2326:2336  actor_type */\n      0x01\n        /* \"contracts/actor.sol\":2338:2348  actor_name */\n      0x02\n        /* \"contracts/actor.sol\":2350:2362  actor_region */\n      0x03\n        /* \"contracts/actor.sol\":2364:2381  actor_national_id */\n      0x04\n        /* \"contracts/actor.sol\":2383:2392  inventory */\n      0x05\n      0x00\n      swap1\n      sload\n      swap1\n      0x0100\n      exp\n      swap1\n      div\n      0xffffffffffffffffffffffffffffffffffffffff\n      and\n        /* \"contracts/actor.sol\":2383:2405  inventory.get_quantity */\n      0xffffffffffffffffffffffffffffffffffffffff\n      and\n      0xed0109a5\n        /* \"contracts/actor.sol\":2383:2407  inventory.get_quantity() */\n      mload(0x40)\n      dup2\n      0xffffffff\n      and\n      0xe0\n      shl\n      dup2\n      mstore\n      0x04\n      add\n      0x20\n      mload(0x40)\n      dup1\n      dup4\n      sub\n      dup2\n      dup7\n      gas\n      staticcall\n      iszero\n      dup1\n      iszero\n      tag_108\n      jumpi\n      returndatasize\n      0x00\n      dup1\n      returndatacopy\n      revert(0x00, returndatasize)\n    tag_108:\n      pop\n      pop\n      pop\n      pop\n      mload(0x40)\n      returndatasize\n      not(0x1f)\n      0x1f\n      dup3\n      add\n      and\n      dup3\n      add\n      dup1\n      0x40\n      mstore\n      pop\n      dup2\n      add\n      swap1\n      tag_109\n      swap2\n      swap1\n      tag_110\n      jump\t// in\n    tag_109:\n        /* \"contracts/actor.sol\":2409:2422  annual_demand */\n      sload(0x06)\n        /* \"contracts/actor.sol\":2424:2433  days_open */\n      sload(0x07)\n        /* \"contracts/actor.sol\":2435:2448  delivery_days */\n      sload(0x08)\n        /* \"contracts/actor.sol\":2450:2475  cost_to_place_and_process */\n      sload(0x09)\n        /* \"contracts/actor.sol\":2477:2489  holding_cost */\n      sload(0x0a)\n        /* \"contracts/actor.sol\":2288:2490  event_show_all_details(actor_address, actor_type, actor_name, actor_region, actor_national_id, inventory.get_quantity(), annual_demand, days_open, delivery_days, cost_to_place_and_process, holding_cost) */\n      mload(0x40)\n      tag_111\n      swap12\n      swap11\n      swap10\n      swap9\n      swap8\n      swap7\n      swap6\n      swap5\n      swap4\n      swap3\n      swap2\n      swap1\n      tag_112\n      jump\t// in\n    tag_111:\n      mload(0x40)\n      dup1\n      swap2\n      sub\n      swap1\n      log1\n        /* \"contracts/actor.sol\":2235:2498  function show_actor_details() public {... */\n      jump\t// out\n        /* \"contracts/actor.sol\":2796:2920  function get_cost_to_place_and_process_order() public view returns(uint) {... */\n    tag_65:\n        /* \"contracts/actor.sol\":2863:2867  uint */\n      0x00\n        /* \"contracts/actor.sol\":2887:2912  cost_to_place_and_process */\n      sload(0x09)\n        /* \"contracts/actor.sol\":2880:2912  return cost_to_place_and_process */\n      swap1\n      pop\n        /* \"contracts/actor.sol\":2796:2920  function get_cost_to_place_and_process_order() public view returns(uint) {... */\n      swap1\n      jump\t// out\n        /* \"#utility.yul\":7:133   */\n    tag_114:\n        /* \"#utility.yul\":44:51   */\n      0x00\n        /* \"#utility.yul\":84:126   */\n      0xffffffffffffffffffffffffffffffffffffffff\n        /* \"#utility.yul\":77:82   */\n      dup3\n        /* \"#utility.yul\":73:127   */\n      and\n        /* \"#utility.yul\":62:127   */\n      swap1\n      pop\n        /* \"#utility.yul\":7:133   */\n      swap2\n      swap1\n      pop\n      jump\t// out\n        /* \"#utility.yul\":139:235   */\n    tag_115:\n        /* \"#utility.yul\":176:183   */\n      0x00\n        /* \"#utility.yul\":205:229   */\n      tag_163\n        /* \"#utility.yul\":223:228   */\n      dup3\n        /* \"#utility.yul\":205:229   */\n      tag_114\n      jump\t// in\n    tag_163:\n        /* \"#utility.yul\":194:229   */\n      swap1\n      pop\n        /* \"#utility.yul\":139:235   */\n      swap2\n      swap1\n      pop\n      jump\t// out\n        /* \"#utility.yul\":241:359   */\n    tag_116:\n        /* \"#utility.yul\":328:352   */\n      tag_165\n        /* \"#utility.yul\":346:351   */\n      dup2\n        /* \"#utility.yul\":328:352   */\n      tag_115\n      jump\t// in\n    tag_165:\n        /* \"#utility.yul\":323:326   */\n      dup3\n        /* \"#utility.yul\":316:353   */\n      mstore\n        /* \"#utility.yul\":241:359   */\n      pop\n      pop\n      jump\t// out\n        /* \"#utility.yul\":365:587   */\n    tag_23:\n        /* \"#utility.yul\":458:462   */\n      0x00\n        /* \"#utility.yul\":496:498   */\n      0x20\n        /* \"#utility.yul\":485:494   */\n      dup3\n        /* \"#utility.yul\":481:499   */\n      add\n        /* \"#utility.yul\":473:499   */\n      swap1\n      pop\n        /* \"#utility.yul\":509:580   */\n      tag_167\n        /* \"#utility.yul\":577:578   */\n      0x00\n        /* \"#utility.yul\":566:575   */\n      dup4\n        /* \"#utility.yul\":562:579   */\n      add\n        /* \"#utility.yul\":553:559   */\n      dup5\n        /* \"#utility.yul\":509:580   */\n      tag_116\n      jump\t// in\n    tag_167:\n        /* \"#utility.yul\":365:587   */\n      swap3\n      swap2\n      pop\n      pop\n      jump\t// out\n        /* \"#utility.yul\":593:668   */\n    tag_117:\n        /* \"#utility.yul\":626:632   */\n      0x00\n        /* \"#utility.yul\":659:661   */\n      0x40\n        /* \"#utility.yul\":653:662   */\n      mload\n        /* \"#utility.yul\":643:662   */\n      swap1\n      pop\n        /* \"#utility.yul\":593:668   */\n      swap1\n      jump\t// out\n        /* \"#utility.yul\":674:791   */\n    tag_118:\n        /* \"#utility.yul\":783:784   */\n      0x00\n        /* \"#utility.yul\":780:781   */\n      dup1\n        /* \"#utility.yul\":773:785   */\n      revert\n        /* \"#utility.yul\":797:914   */\n    tag_119:\n        /* \"#utility.yul\":906:907   */\n      0x00\n        /* \"#utility.yul\":903:904   */\n      dup1\n        /* \"#utility.yul\":896:908   */\n      revert\n        /* \"#utility.yul\":920:997   */\n    tag_120:\n        /* \"#utility.yul\":957:964   */\n      0x00\n        /* \"#utility.yul\":986:991   */\n      dup2\n        /* \"#utility.yul\":975:991   */\n      swap1\n      pop\n        /* \"#utility.yul\":920:997   */\n      swap2\n      swap1\n      pop\n      jump\t// out\n        /* \"#utility.yul\":1003:1125   */\n    tag_121:\n        /* \"#utility.yul\":1076:1100   */\n      tag_173\n        /* \"#utility.yul\":1094:1099   */\n      dup2\n        /* \"#utility.yul\":1076:1100   */\n      tag_120\n      jump\t// in\n    tag_173:\n        /* \"#utility.yul\":1069:1074   */\n      dup2\n        /* \"#utility.yul\":1066:1101   */\n      eq\n        /* \"#utility.yul\":1056:1119   */\n      tag_174\n      jumpi\n        /* \"#utility.yul\":1115:1116   */\n      0x00\n        /* \"#utility.yul\":1112:1113   */\n      dup1\n        /* \"#utility.yul\":1105:1117   */\n      revert\n        /* \"#utility.yul\":1056:1119   */\n    tag_174:\n        /* \"#utility.yul\":1003:1125   */\n      pop\n      jump\t// out\n        /* \"#utility.yul\":1131:1270   */\n    tag_122:\n        /* \"#utility.yul\":1177:1182   */\n      0x00\n        /* \"#utility.yul\":1215:1221   */\n      dup2\n        /* \"#utility.yul\":1202:1222   */\n      calldataload\n        /* \"#utility.yul\":1193:1222   */\n      swap1\n      pop\n        /* \"#utility.yul\":1231:1264   */\n      tag_176\n        /* \"#utility.yul\":1258:1263   */\n      dup2\n        /* \"#utility.yul\":1231:1264   */\n      tag_121\n      jump\t// in\n    tag_176:\n        /* \"#utility.yul\":1131:1270   */\n      swap3\n      swap2\n      pop\n      pop\n      jump\t// out\n        /* \"#utility.yul\":1276:1605   */\n    tag_26:\n        /* \"#utility.yul\":1335:1341   */\n      0x00\n        /* \"#utility.yul\":1384:1386   */\n      0x20\n        /* \"#utility.yul\":1372:1381   */\n      dup3\n        /* \"#utility.yul\":1363:1370   */\n      dup5\n        /* \"#utility.yul\":1359:1382   */\n      sub\n        /* \"#utility.yul\":1355:1387   */\n      slt\n        /* \"#utility.yul\":1352:1471   */\n      iszero\n      tag_178\n      jumpi\n        /* \"#utility.yul\":1390:1469   */\n      tag_179\n      tag_118\n      jump\t// in\n    tag_179:\n        /* \"#utility.yul\":1352:1471   */\n    tag_178:\n        /* \"#utility.yul\":1510:1511   */\n      0x00\n        /* \"#utility.yul\":1535:1588   */\n      tag_180\n        /* \"#utility.yul\":1580:1587   */\n      dup5\n        /* \"#utility.yul\":1571:1577   */\n      dup3\n        /* \"#utility.yul\":1560:1569   */\n      dup6\n        /* \"#utility.yul\":1556:1578   */\n      add\n        /* \"#utility.yul\":1535:1588   */\n      tag_122\n      jump\t// in\n    tag_180:\n        /* \"#utility.yul\":1525:1588   */\n      swap2\n      pop\n        /* \"#utility.yul\":1481:1598   */\n      pop\n        /* \"#utility.yul\":1276:1605   */\n      swap3\n      swap2\n      pop\n      pop\n      jump\t// out\n        /* \"#utility.yul\":1611:1729   */\n    tag_123:\n        /* \"#utility.yul\":1698:1722   */\n      tag_182\n        /* \"#utility.yul\":1716:1721   */\n      dup2\n        /* \"#utility.yul\":1698:1722   */\n      tag_120\n      jump\t// in\n    tag_182:\n        /* \"#utility.yul\":1693:1696   */\n      dup3\n        /* \"#utility.yul\":1686:1723   */\n      mstore\n        /* \"#utility.yul\":1611:1729   */\n      pop\n      pop\n      jump\t// out\n        /* \"#utility.yul\":1735:1957   */\n    tag_31:\n        /* \"#utility.yul\":1828:1832   */\n      0x00\n        /* \"#utility.yul\":1866:1868   */\n      0x20\n        /* \"#utility.yul\":1855:1864   */\n      dup3\n        /* \"#utility.yul\":1851:1869   */\n      add\n        /* \"#utility.yul\":1843:1869   */\n      swap1\n      pop\n        /* \"#utility.yul\":1879:1950   */\n      tag_184\n        /* \"#utility.yul\":1947:1948   */\n      0x00\n        /* \"#utility.yul\":1936:1945   */\n      dup4\n        /* \"#utility.yul\":1932:1949   */\n      add\n        /* \"#utility.yul\":1923:1929   */\n      dup5\n        /* \"#utility.yul\":1879:1950   */\n      tag_123\n      jump\t// in\n    tag_184:\n        /* \"#utility.yul\":1735:1957   */\n      swap3\n      swap2\n      pop\n      pop\n      jump\t// out\n        /* \"#utility.yul\":1963:2062   */\n    tag_124:\n        /* \"#utility.yul\":2015:2021   */\n      0x00\n        /* \"#utility.yul\":2049:2054   */\n      dup2\n        /* \"#utility.yul\":2043:2055   */\n      mload\n        /* \"#utility.yul\":2033:2055   */\n      swap1\n      pop\n        /* \"#utility.yul\":1963:2062   */\n      swap2\n      swap1\n      pop\n      jump\t// out\n        /* \"#utility.yul\":2068:2237   */\n    tag_125:\n        /* \"#utility.yul\":2152:2163   */\n      0x00\n        /* \"#utility.yul\":2186:2192   */\n      dup3\n        /* \"#utility.yul\":2181:2184   */\n      dup3\n        /* \"#utility.yul\":2174:2193   */\n      mstore\n        /* \"#utility.yul\":2226:2230   */\n      0x20\n        /* \"#utility.yul\":2221:2224   */\n      dup3\n        /* \"#utility.yul\":2217:2231   */\n      add\n        /* \"#utility.yul\":2202:2231   */\n      swap1\n      pop\n        /* \"#utility.yul\":2068:2237   */\n      swap3\n      swap2\n      pop\n      pop\n      jump\t// out\n        /* \"#utility.yul\":2243:2489   */\n    tag_126:\n        /* \"#utility.yul\":2324:2325   */\n      0x00\n        /* \"#utility.yul\":2334:2447   */\n    tag_188:\n        /* \"#utility.yul\":2348:2354   */\n      dup4\n        /* \"#utility.yul\":2345:2346   */\n      dup2\n        /* \"#utility.yul\":2342:2355   */\n      lt\n        /* \"#utility.yul\":2334:2447   */\n      iszero\n      tag_190\n      jumpi\n        /* \"#utility.yul\":2433:2434   */\n      dup1\n        /* \"#utility.yul\":2428:2431   */\n      dup3\n        /* \"#utility.yul\":2424:2435   */\n      add\n        /* \"#utility.yul\":2418:2436   */\n      mload\n        /* \"#utility.yul\":2414:2415   */\n      dup2\n        /* \"#utility.yul\":2409:2412   */\n      dup5\n        /* \"#utility.yul\":2405:2416   */\n      add\n        /* \"#utility.yul\":2398:2437   */\n      mstore\n        /* \"#utility.yul\":2370:2372   */\n      0x20\n        /* \"#utility.yul\":2367:2368   */\n      dup2\n        /* \"#utility.yul\":2363:2373   */\n      add\n        /* \"#utility.yul\":2358:2373   */\n      swap1\n      pop\n        /* \"#utility.yul\":2334:2447   */\n      jump(tag_188)\n    tag_190:\n        /* \"#utility.yul\":2481:2482   */\n      0x00\n        /* \"#utility.yul\":2472:2478   */\n      dup5\n        /* \"#utility.yul\":2467:2470   */\n      dup5\n        /* \"#utility.yul\":2463:2479   */\n      add\n        /* \"#utility.yul\":2456:2483   */\n      mstore\n        /* \"#utility.yul\":2305:2489   */\n      pop\n        /* \"#utility.yul\":2243:2489   */\n      pop\n      pop\n      pop\n      jump\t// out\n        /* \"#utility.yul\":2495:2597   */\n    tag_127:\n        /* \"#utility.yul\":2536:2542   */\n      0x00\n        /* \"#utility.yul\":2587:2589   */\n      0x1f\n        /* \"#utility.yul\":2583:2590   */\n      not\n        /* \"#utility.yul\":2578:2580   */\n      0x1f\n        /* \"#utility.yul\":2571:2576   */\n      dup4\n        /* \"#utility.yul\":2567:2581   */\n      add\n        /* \"#utility.yul\":2563:2591   */\n      and\n        /* \"#utility.yul\":2553:2591   */\n      swap1\n      pop\n        /* \"#utility.yul\":2495:2597   */\n      swap2\n      swap1\n      pop\n      jump\t// out\n        /* \"#utility.yul\":2603:2980   */\n    tag_128:\n        /* \"#utility.yul\":2691:2694   */\n      0x00\n        /* \"#utility.yul\":2719:2758   */\n      tag_193\n        /* \"#utility.yul\":2752:2757   */\n      dup3\n        /* \"#utility.yul\":2719:2758   */\n      tag_124\n      jump\t// in\n    tag_193:\n        /* \"#utility.yul\":2774:2845   */\n      tag_194\n        /* \"#utility.yul\":2838:2844   */\n      dup2\n        /* \"#utility.yul\":2833:2836   */\n      dup6\n        /* \"#utility.yul\":2774:2845   */\n      tag_125\n      jump\t// in\n    tag_194:\n        /* \"#utility.yul\":2767:2845   */\n      swap4\n      pop\n        /* \"#utility.yul\":2854:2919   */\n      tag_195\n        /* \"#utility.yul\":2912:2918   */\n      dup2\n        /* \"#utility.yul\":2907:2910   */\n      dup6\n        /* \"#utility.yul\":2900:2904   */\n      0x20\n        /* \"#utility.yul\":2893:2898   */\n      dup7\n        /* \"#utility.yul\":2889:2905   */\n      add\n        /* \"#utility.yul\":2854:2919   */\n      tag_126\n      jump\t// in\n    tag_195:\n        /* \"#utility.yul\":2944:2973   */\n      tag_196\n        /* \"#utility.yul\":2966:2972   */\n      dup2\n        /* \"#utility.yul\":2944:2973   */\n      tag_127\n      jump\t// in\n    tag_196:\n        /* \"#utility.yul\":2939:2942   */\n      dup5\n        /* \"#utility.yul\":2935:2974   */\n      add\n        /* \"#utility.yul\":2928:2974   */\n      swap2\n      pop\n        /* \"#utility.yul\":2695:2980   */\n      pop\n        /* \"#utility.yul\":2603:2980   */\n      swap3\n      swap2\n      pop\n      pop\n      jump\t// out\n        /* \"#utility.yul\":2986:3299   */\n    tag_38:\n        /* \"#utility.yul\":3099:3103   */\n      0x00\n        /* \"#utility.yul\":3137:3139   */\n      0x20\n        /* \"#utility.yul\":3126:3135   */\n      dup3\n        /* \"#utility.yul\":3122:3140   */\n      add\n        /* \"#utility.yul\":3114:3140   */\n      swap1\n      pop\n        /* \"#utility.yul\":3186:3195   */\n      dup2\n        /* \"#utility.yul\":3180:3184   */\n      dup2\n        /* \"#utility.yul\":3176:3196   */\n      sub\n        /* \"#utility.yul\":3172:3173   */\n      0x00\n        /* \"#utility.yul\":3161:3170   */\n      dup4\n        /* \"#utility.yul\":3157:3174   */\n      add\n        /* \"#utility.yul\":3150:3197   */\n      mstore\n        /* \"#utility.yul\":3214:3292   */\n      tag_198\n        /* \"#utility.yul\":3287:3291   */\n      dup2\n        /* \"#utility.yul\":3278:3284   */\n      dup5\n        /* \"#utility.yul\":3214:3292   */\n      tag_128\n      jump\t// in\n    tag_198:\n        /* \"#utility.yul\":3206:3292   */\n      swap1\n      pop\n        /* \"#utility.yul\":2986:3299   */\n      swap3\n      swap2\n      pop\n      pop\n      jump\t// out\n        /* \"#utility.yul\":3305:3422   */\n    tag_129:\n        /* \"#utility.yul\":3414:3415   */\n      0x00\n        /* \"#utility.yul\":3411:3412   */\n      dup1\n        /* \"#utility.yul\":3404:3416   */\n      revert\n        /* \"#utility.yul\":3428:3545   */\n    tag_130:\n        /* \"#utility.yul\":3537:3538   */\n      0x00\n        /* \"#utility.yul\":3534:3535   */\n      dup1\n        /* \"#utility.yul\":3527:3539   */\n      revert\n        /* \"#utility.yul\":3551:3731   */\n    tag_131:\n        /* \"#utility.yul\":3599:3676   */\n      0x4e487b7100000000000000000000000000000000000000000000000000000000\n        /* \"#utility.yul\":3596:3597   */\n      0x00\n        /* \"#utility.yul\":3589:3677   */\n      mstore\n        /* \"#utility.yul\":3696:3700   */\n      0x41\n        /* \"#utility.yul\":3693:3694   */\n      0x04\n        /* \"#utility.yul\":3686:3701   */\n      mstore\n        /* \"#utility.yul\":3720:3724   */\n      0x24\n        /* \"#utility.yul\":3717:3718   */\n      0x00\n        /* \"#utility.yul\":3710:3725   */\n      revert\n        /* \"#utility.yul\":3737:4018   */\n    tag_132:\n        /* \"#utility.yul\":3820:3847   */\n      tag_203\n        /* \"#utility.yul\":3842:3846   */\n      dup3\n        /* \"#utility.yul\":3820:3847   */\n      tag_127\n      jump\t// in\n    tag_203:\n        /* \"#utility.yul\":3812:3818   */\n      dup2\n        /* \"#utility.yul\":3808:3848   */\n      add\n        /* \"#utility.yul\":3950:3956   */\n      dup2\n        /* \"#utility.yul\":3938:3948   */\n      dup2\n        /* \"#utility.yul\":3935:3957   */\n      lt\n        /* \"#utility.yul\":3914:3932   */\n      0xffffffffffffffff\n        /* \"#utility.yul\":3902:3912   */\n      dup3\n        /* \"#utility.yul\":3899:3933   */\n      gt\n        /* \"#utility.yul\":3896:3958   */\n      or\n        /* \"#utility.yul\":3893:3981   */\n      iszero\n      tag_204\n      jumpi\n        /* \"#utility.yul\":3961:3979   */\n      tag_205\n      tag_131\n      jump\t// in\n    tag_205:\n        /* \"#utility.yul\":3893:3981   */\n    tag_204:\n        /* \"#utility.yul\":4001:4011   */\n      dup1\n        /* \"#utility.yul\":3997:3999   */\n      0x40\n        /* \"#utility.yul\":3990:4012   */\n      mstore\n        /* \"#utility.yul\":3780:4018   */\n      pop\n        /* \"#utility.yul\":3737:4018   */\n      pop\n      pop\n      jump\t// out\n        /* \"#utility.yul\":4024:4153   */\n    tag_133:\n        /* \"#utility.yul\":4058:4064   */\n      0x00\n        /* \"#utility.yul\":4085:4105   */\n      tag_207\n      tag_117\n      jump\t// in\n    tag_207:\n        /* \"#utility.yul\":4075:4105   */\n      swap1\n      pop\n        /* \"#utility.yul\":4114:4147   */\n      tag_208\n        /* \"#utility.yul\":4142:4146   */\n      dup3\n        /* \"#utility.yul\":4134:4140   */\n      dup3\n        /* \"#utility.yul\":4114:4147   */\n      tag_132\n      jump\t// in\n    tag_208:\n        /* \"#utility.yul\":4024:4153   */\n      swap2\n      swap1\n      pop\n      jump\t// out\n        /* \"#utility.yul\":4159:4467   */\n    tag_134:\n        /* \"#utility.yul\":4221:4225   */\n      0x00\n        /* \"#utility.yul\":4311:4329   */\n      0xffffffffffffffff\n        /* \"#utility.yul\":4303:4309   */\n      dup3\n        /* \"#utility.yul\":4300:4330   */\n      gt\n        /* \"#utility.yul\":4297:4353   */\n      iszero\n      tag_210\n      jumpi\n        /* \"#utility.yul\":4333:4351   */\n      tag_211\n      tag_131\n      jump\t// in\n    tag_211:\n        /* \"#utility.yul\":4297:4353   */\n    tag_210:\n        /* \"#utility.yul\":4371:4400   */\n      tag_212\n        /* \"#utility.yul\":4393:4399   */\n      dup3\n        /* \"#utility.yul\":4371:4400   */\n      tag_127\n      jump\t// in\n    tag_212:\n        /* \"#utility.yul\":4363:4400   */\n      swap1\n      pop\n        /* \"#utility.yul\":4455:4459   */\n      0x20\n        /* \"#utility.yul\":4449:4453   */\n      dup2\n        /* \"#utility.yul\":4445:4460   */\n      add\n        /* \"#utility.yul\":4437:4460   */\n      swap1\n      pop\n        /* \"#utility.yul\":4159:4467   */\n      swap2\n      swap1\n      pop\n      jump\t// out\n        /* \"#utility.yul\":4473:4619   */\n    tag_135:\n        /* \"#utility.yul\":4570:4576   */\n      dup3\n        /* \"#utility.yul\":4565:4568   */\n      dup2\n        /* \"#utility.yul\":4560:4563   */\n      dup4\n        /* \"#utility.yul\":4547:4577   */\n      calldatacopy\n        /* \"#utility.yul\":4611:4612   */\n      0x00\n        /* \"#utility.yul\":4602:4608   */\n      dup4\n        /* \"#utility.yul\":4597:4600   */\n      dup4\n        /* \"#utility.yul\":4593:4609   */\n      add\n        /* \"#utility.yul\":4586:4613   */\n      mstore\n        /* \"#utility.yul\":4473:4619   */\n      pop\n      pop\n      pop\n      jump\t// out\n        /* \"#utility.yul\":4625:5050   */\n    tag_136:\n        /* \"#utility.yul\":4703:4708   */\n      0x00\n        /* \"#utility.yul\":4728:4794   */\n      tag_215\n        /* \"#utility.yul\":4744:4793   */\n      tag_216\n        /* \"#utility.yul\":4786:4792   */\n      dup5\n        /* \"#utility.yul\":4744:4793   */\n      tag_134\n      jump\t// in\n    tag_216:\n        /* \"#utility.yul\":4728:4794   */\n      tag_133\n      jump\t// in\n    tag_215:\n        /* \"#utility.yul\":4719:4794   */\n      swap1\n      pop\n        /* \"#utility.yul\":4817:4823   */\n      dup3\n        /* \"#utility.yul\":4810:4815   */\n      dup2\n        /* \"#utility.yul\":4803:4824   */\n      mstore\n        /* \"#utility.yul\":4855:4859   */\n      0x20\n        /* \"#utility.yul\":4848:4853   */\n      dup2\n        /* \"#utility.yul\":4844:4860   */\n      add\n        /* \"#utility.yul\":4893:4896   */\n      dup5\n        /* \"#utility.yul\":4884:4890   */\n      dup5\n        /* \"#utility.yul\":4879:4882   */\n      dup5\n        /* \"#utility.yul\":4875:4891   */\n      add\n        /* \"#utility.yul\":4872:4897   */\n      gt\n        /* \"#utility.yul\":4869:4981   */\n      iszero\n      tag_217\n      jumpi\n        /* \"#utility.yul\":4900:4979   */\n      tag_218\n      tag_130\n      jump\t// in\n    tag_218:\n        /* \"#utility.yul\":4869:4981   */\n    tag_217:\n        /* \"#utility.yul\":4990:5044   */\n      tag_219\n        /* \"#utility.yul\":5037:5043   */\n      dup5\n        /* \"#utility.yul\":5032:5035   */\n      dup3\n        /* \"#utility.yul\":5027:5030   */\n      dup6\n        /* \"#utility.yul\":4990:5044   */\n      tag_135\n      jump\t// in\n    tag_219:\n        /* \"#utility.yul\":4709:5050   */\n      pop\n        /* \"#utility.yul\":4625:5050   */\n      swap4\n      swap3\n      pop\n      pop\n      pop\n      jump\t// out\n        /* \"#utility.yul\":5070:5410   */\n    tag_137:\n        /* \"#utility.yul\":5126:5131   */\n      0x00\n        /* \"#utility.yul\":5175:5178   */\n      dup3\n        /* \"#utility.yul\":5168:5172   */\n      0x1f\n        /* \"#utility.yul\":5160:5166   */\n      dup4\n        /* \"#utility.yul\":5156:5173   */\n      add\n        /* \"#utility.yul\":5152:5179   */\n      slt\n        /* \"#utility.yul\":5142:5264   */\n      tag_221\n      jumpi\n        /* \"#utility.yul\":5183:5262   */\n      tag_222\n      tag_129\n      jump\t// in\n    tag_222:\n        /* \"#utility.yul\":5142:5264   */\n    tag_221:\n        /* \"#utility.yul\":5300:5306   */\n      dup2\n        /* \"#utility.yul\":5287:5307   */\n      calldataload\n        /* \"#utility.yul\":5325:5404   */\n      tag_223\n        /* \"#utility.yul\":5400:5403   */\n      dup5\n        /* \"#utility.yul\":5392:5398   */\n      dup3\n        /* \"#utility.yul\":5385:5389   */\n      0x20\n        /* \"#utility.yul\":5377:5383   */\n      dup7\n        /* \"#utility.yul\":5373:5390   */\n      add\n        /* \"#utility.yul\":5325:5404   */\n      tag_136\n      jump\t// in\n    tag_223:\n        /* \"#utility.yul\":5316:5404   */\n      swap2\n      pop\n        /* \"#utility.yul\":5132:5410   */\n      pop\n        /* \"#utility.yul\":5070:5410   */\n      swap3\n      swap2\n      pop\n      pop\n      jump\t// out\n        /* \"#utility.yul\":5416:5925   */\n    tag_44:\n        /* \"#utility.yul\":5485:5491   */\n      0x00\n        /* \"#utility.yul\":5534:5536   */\n      0x20\n        /* \"#utility.yul\":5522:5531   */\n      dup3\n        /* \"#utility.yul\":5513:5520   */\n      dup5\n        /* \"#utility.yul\":5509:5532   */\n      sub\n        /* \"#utility.yul\":5505:5537   */\n      slt\n        /* \"#utility.yul\":5502:5621   */\n      iszero\n      tag_225\n      jumpi\n        /* \"#utility.yul\":5540:5619   */\n      tag_226\n      tag_118\n      jump\t// in\n    tag_226:\n        /* \"#utility.yul\":5502:5621   */\n    tag_225:\n        /* \"#utility.yul\":5688:5689   */\n      0x00\n        /* \"#utility.yul\":5677:5686   */\n      dup3\n        /* \"#utility.yul\":5673:5690   */\n      add\n        /* \"#utility.yul\":5660:5691   */\n      calldataload\n        /* \"#utility.yul\":5718:5736   */\n      0xffffffffffffffff\n        /* \"#utility.yul\":5710:5716   */\n      dup2\n        /* \"#utility.yul\":5707:5737   */\n      gt\n        /* \"#utility.yul\":5704:5821   */\n      iszero\n      tag_227\n      jumpi\n        /* \"#utility.yul\":5740:5819   */\n      tag_228\n      tag_119\n      jump\t// in\n    tag_228:\n        /* \"#utility.yul\":5704:5821   */\n    tag_227:\n        /* \"#utility.yul\":5845:5908   */\n      tag_229\n        /* \"#utility.yul\":5900:5907   */\n      dup5\n        /* \"#utility.yul\":5891:5897   */\n      dup3\n        /* \"#utility.yul\":5880:5889   */\n      dup6\n        /* \"#utility.yul\":5876:5898   */\n      add\n        /* \"#utility.yul\":5845:5908   */\n      tag_137\n      jump\t// in\n    tag_229:\n        /* \"#utility.yul\":5835:5908   */\n      swap2\n      pop\n        /* \"#utility.yul\":5631:5918   */\n      pop\n        /* \"#utility.yul\":5416:5925   */\n      swap3\n      swap2\n      pop\n      pop\n      jump\t// out\n        /* \"#utility.yul\":5931:5991   */\n    tag_138:\n        /* \"#utility.yul\":5959:5962   */\n      0x00\n        /* \"#utility.yul\":5980:5985   */\n      dup2\n        /* \"#utility.yul\":5973:5985   */\n      swap1\n      pop\n        /* \"#utility.yul\":5931:5991   */\n      swap2\n      swap1\n      pop\n      jump\t// out\n        /* \"#utility.yul\":5997:6139   */\n    tag_139:\n        /* \"#utility.yul\":6047:6056   */\n      0x00\n        /* \"#utility.yul\":6080:6133   */\n      tag_232\n        /* \"#utility.yul\":6098:6132   */\n      tag_233\n        /* \"#utility.yul\":6107:6131   */\n      tag_234\n        /* \"#utility.yul\":6125:6130   */\n      dup5\n        /* \"#utility.yul\":6107:6131   */\n      tag_114\n      jump\t// in\n    tag_234:\n        /* \"#utility.yul\":6098:6132   */\n      tag_138\n      jump\t// in\n    tag_233:\n        /* \"#utility.yul\":6080:6133   */\n      tag_114\n      jump\t// in\n    tag_232:\n        /* \"#utility.yul\":6067:6133   */\n      swap1\n      pop\n        /* \"#utility.yul\":5997:6139   */\n      swap2\n      swap1\n      pop\n      jump\t// out\n        /* \"#utility.yul\":6145:6271   */\n    tag_140:\n        /* \"#utility.yul\":6195:6204   */\n      0x00\n        /* \"#utility.yul\":6228:6265   */\n      tag_236\n        /* \"#utility.yul\":6259:6264   */\n      dup3\n        /* \"#utility.yul\":6228:6265   */\n      tag_139\n      jump\t// in\n    tag_236:\n        /* \"#utility.yul\":6215:6265   */\n      swap1\n      pop\n        /* \"#utility.yul\":6145:6271   */\n      swap2\n      swap1\n      pop\n      jump\t// out\n        /* \"#utility.yul\":6277:6420   */\n    tag_141:\n        /* \"#utility.yul\":6344:6353   */\n      0x00\n        /* \"#utility.yul\":6377:6414   */\n      tag_238\n        /* \"#utility.yul\":6408:6413   */\n      dup3\n        /* \"#utility.yul\":6377:6414   */\n      tag_140\n      jump\t// in\n    tag_238:\n        /* \"#utility.yul\":6364:6414   */\n      swap1\n      pop\n        /* \"#utility.yul\":6277:6420   */\n      swap2\n      swap1\n      pop\n      jump\t// out\n        /* \"#utility.yul\":6426:6591   */\n    tag_142:\n        /* \"#utility.yul\":6530:6584   */\n      tag_240\n        /* \"#utility.yul\":6578:6583   */\n      dup2\n        /* \"#utility.yul\":6530:6584   */\n      tag_141\n      jump\t// in\n    tag_240:\n        /* \"#utility.yul\":6525:6528   */\n      dup3\n        /* \"#utility.yul\":6518:6585   */\n      mstore\n        /* \"#utility.yul\":6426:6591   */\n      pop\n      pop\n      jump\t// out\n        /* \"#utility.yul\":6597:6853   */\n    tag_61:\n        /* \"#utility.yul\":6707:6711   */\n      0x00\n        /* \"#utility.yul\":6745:6747   */\n      0x20\n        /* \"#utility.yul\":6734:6743   */\n      dup3\n        /* \"#utility.yul\":6730:6748   */\n      add\n        /* \"#utility.yul\":6722:6748   */\n      swap1\n      pop\n        /* \"#utility.yul\":6758:6846   */\n      tag_242\n        /* \"#utility.yul\":6843:6844   */\n      0x00\n        /* \"#utility.yul\":6832:6841   */\n      dup4\n        /* \"#utility.yul\":6828:6845   */\n      add\n        /* \"#utility.yul\":6819:6825   */\n      dup5\n        /* \"#utility.yul\":6758:6846   */\n      tag_142\n      jump\t// in\n    tag_242:\n        /* \"#utility.yul\":6597:6853   */\n      swap3\n      swap2\n      pop\n      pop\n      jump\t// out\n        /* \"#utility.yul\":6859:7039   */\n    tag_143:\n        /* \"#utility.yul\":6907:6984   */\n      0x4e487b7100000000000000000000000000000000000000000000000000000000\n        /* \"#utility.yul\":6904:6905   */\n      0x00\n        /* \"#utility.yul\":6897:6985   */\n      mstore\n        /* \"#utility.yul\":7004:7008   */\n      0x22\n        /* \"#utility.yul\":7001:7002   */\n      0x04\n        /* \"#utility.yul\":6994:7009   */\n      mstore\n        /* \"#utility.yul\":7028:7032   */\n      0x24\n        /* \"#utility.yul\":7025:7026   */\n      0x00\n        /* \"#utility.yul\":7018:7033   */\n      revert\n        /* \"#utility.yul\":7045:7365   */\n    tag_77:\n        /* \"#utility.yul\":7089:7095   */\n      0x00\n        /* \"#utility.yul\":7126:7127   */\n      0x02\n        /* \"#utility.yul\":7120:7124   */\n      dup3\n        /* \"#utility.yul\":7116:7128   */\n      div\n        /* \"#utility.yul\":7106:7128   */\n      swap1\n      pop\n        /* \"#utility.yul\":7173:7174   */\n      0x01\n        /* \"#utility.yul\":7167:7171   */\n      dup3\n        /* \"#utility.yul\":7163:7175   */\n      and\n        /* \"#utility.yul\":7194:7212   */\n      dup1\n        /* \"#utility.yul\":7184:7265   */\n      tag_245\n      jumpi\n        /* \"#utility.yul\":7250:7254   */\n      0x7f\n        /* \"#utility.yul\":7242:7248   */\n      dup3\n        /* \"#utility.yul\":7238:7255   */\n      and\n        /* \"#utility.yul\":7228:7255   */\n      swap2\n      pop\n        /* \"#utility.yul\":7184:7265   */\n    tag_245:\n        /* \"#utility.yul\":7312:7314   */\n      0x20\n        /* \"#utility.yul\":7304:7310   */\n      dup3\n        /* \"#utility.yul\":7301:7315   */\n      lt\n        /* \"#utility.yul\":7281:7299   */\n      dup2\n        /* \"#utility.yul\":7278:7316   */\n      sub\n        /* \"#utility.yul\":7275:7359   */\n      tag_246\n      jumpi\n        /* \"#utility.yul\":7331:7349   */\n      tag_247\n      tag_143\n      jump\t// in\n    tag_247:\n        /* \"#utility.yul\":7275:7359   */\n    tag_246:\n        /* \"#utility.yul\":7096:7365   */\n      pop\n        /* \"#utility.yul\":7045:7365   */\n      swap2\n      swap1\n      pop\n      jump\t// out\n        /* \"#utility.yul\":7371:7512   */\n    tag_144:\n        /* \"#utility.yul\":7420:7424   */\n      0x00\n        /* \"#utility.yul\":7443:7446   */\n      dup2\n        /* \"#utility.yul\":7435:7446   */\n      swap1\n      pop\n        /* \"#utility.yul\":7466:7469   */\n      dup2\n        /* \"#utility.yul\":7463:7464   */\n      0x00\n        /* \"#utility.yul\":7456:7470   */\n      mstore\n        /* \"#utility.yul\":7500:7504   */\n      0x20\n        /* \"#utility.yul\":7497:7498   */\n      0x00\n        /* \"#utility.yul\":7487:7505   */\n      keccak256\n        /* \"#utility.yul\":7479:7505   */\n      swap1\n      pop\n        /* \"#utility.yul\":7371:7512   */\n      swap2\n      swap1\n      pop\n      jump\t// out\n        /* \"#utility.yul\":7518:7611   */\n    tag_145:\n        /* \"#utility.yul\":7555:7561   */\n      0x00\n        /* \"#utility.yul\":7602:7604   */\n      0x20\n        /* \"#utility.yul\":7597:7599   */\n      0x1f\n        /* \"#utility.yul\":7590:7595   */\n      dup4\n        /* \"#utility.yul\":7586:7600   */\n      add\n        /* \"#utility.yul\":7582:7605   */\n      div\n        /* \"#utility.yul\":7572:7605   */\n      swap1\n      pop\n        /* \"#utility.yul\":7518:7611   */\n      swap2\n      swap1\n      pop\n      jump\t// out\n        /* \"#utility.yul\":7617:7724   */\n    tag_146:\n        /* \"#utility.yul\":7661:7669   */\n      0x00\n        /* \"#utility.yul\":7711:7716   */\n      dup3\n        /* \"#utility.yul\":7705:7709   */\n      dup3\n        /* \"#utility.yul\":7701:7717   */\n      shl\n        /* \"#utility.yul\":7680:7717   */\n      swap1\n      pop\n        /* \"#utility.yul\":7617:7724   */\n      swap3\n      swap2\n      pop\n      pop\n      jump\t// out\n        /* \"#utility.yul\":7730:8123   */\n    tag_147:\n        /* \"#utility.yul\":7799:7805   */\n      0x00\n        /* \"#utility.yul\":7849:7850   */\n      0x08\n        /* \"#utility.yul\":7837:7847   */\n      dup4\n        /* \"#utility.yul\":7833:7851   */\n      mul\n        /* \"#utility.yul\":7872:7969   */\n      tag_252\n        /* \"#utility.yul\":7902:7968   */\n      0xffffffffffffffffffffffffffffffffffffffffffffffffffffffffffffffff\n        /* \"#utility.yul\":7891:7900   */\n      dup3\n        /* \"#utility.yul\":7872:7969   */\n      tag_146\n      jump\t// in\n    tag_252:\n        /* \"#utility.yul\":7990:8029   */\n      tag_253\n        /* \"#utility.yul\":8020:8028   */\n      dup7\n        /* \"#utility.yul\":8009:8018   */\n      dup4\n        /* \"#utility.yul\":7990:8029   */\n      tag_146\n      jump\t// in\n    tag_253:\n        /* \"#utility.yul\":7978:8029   */\n      swap6\n      pop\n        /* \"#utility.yul\":8062:8066   */\n      dup1\n        /* \"#utility.yul\":8058:8067   */\n      not\n        /* \"#utility.yul\":8051:8056   */\n      dup5\n        /* \"#utility.yul\":8047:8068   */\n      and\n        /* \"#utility.yul\":8038:8068   */\n      swap4\n      pop\n        /* \"#utility.yul\":8111:8115   */\n      dup1\n        /* \"#utility.yul\":8101:8109   */\n      dup7\n        /* \"#utility.yul\":8097:8116   */\n      and\n        /* \"#utility.yul\":8090:8095   */\n      dup5\n        /* \"#utility.yul\":8087:8117   */\n      or\n        /* \"#utility.yul\":8077:8117   */\n      swap3\n      pop\n        /* \"#utility.yul\":7806:8123   */\n      pop\n      pop\n        /* \"#utility.yul\":7730:8123   */\n      swap4\n      swap3\n      pop\n      pop\n      pop\n      jump\t// out\n        /* \"#utility.yul\":8129:8271   */\n    tag_148:\n        /* \"#utility.yul\":8179:8188   */\n      0x00\n        /* \"#utility.yul\":8212:8265   */\n      tag_255\n        /* \"#utility.yul\":8230:8264   */\n      tag_256\n        /* \"#utility.yul\":8239:8263   */\n      tag_257\n        /* \"#utility.yul\":8257:8262   */\n      dup5\n        /* \"#utility.yul\":8239:8263   */\n      tag_120\n      jump\t// in\n    tag_257:\n        /* \"#utility.yul\":8230:8264   */\n      tag_138\n      jump\t// in\n    tag_256:\n        /* \"#utility.yul\":8212:8265   */\n      tag_120\n      jump\t// in\n    tag_255:\n        /* \"#utility.yul\":8199:8265   */\n      swap1\n      pop\n        /* \"#utility.yul\":8129:8271   */\n      swap2\n      swap1\n      pop\n      jump\t// out\n        /* \"#utility.yul\":8277:8352   */\n    tag_149:\n        /* \"#utility.yul\":8320:8323   */\n      0x00\n        /* \"#utility.yul\":8341:8346   */\n      dup2\n        /* \"#utility.yul\":8334:8346   */\n      swap1\n      pop\n        /* \"#utility.yul\":8277:8352   */\n      swap2\n      swap1\n      pop\n      jump\t// out\n        /* \"#utility.yul\":8358:8627   */\n    tag_150:\n        /* \"#utility.yul\":8468:8507   */\n      tag_260\n        /* \"#utility.yul\":8499:8506   */\n      dup4\n        /* \"#utility.yul\":8468:8507   */\n      tag_148\n      jump\t// in\n    tag_260:\n        /* \"#utility.yul\":8529:8620   */\n      tag_261\n        /* \"#utility.yul\":8578:8619   */\n      tag_262\n        /* \"#utility.yul\":8602:8618   */\n      dup3\n        /* \"#utility.yul\":8578:8619   */\n      tag_149\n      jump\t// in\n    tag_262:\n        /* \"#utility.yul\":8570:8576   */\n      dup5\n        /* \"#utility.yul\":8563:8567   */\n      dup5\n        /* \"#utility.yul\":8557:8568   */\n      sload\n        /* \"#utility.yul\":8529:8620   */\n      tag_147\n      jump\t// in\n    tag_261:\n        /* \"#utility.yul\":8523:8527   */\n      dup3\n        /* \"#utility.yul\":8516:8621   */\n      sstore\n        /* \"#utility.yul\":8434:8627   */\n      pop\n        /* \"#utility.yul\":8358:8627   */\n      pop\n      pop\n      pop\n      jump\t// out\n        /* \"#utility.yul\":8633:8706   */\n    tag_151:\n        /* \"#utility.yul\":8678:8681   */\n      0x00\n        /* \"#utility.yul\":8633:8706   */\n      swap1\n      jump\t// out\n        /* \"#utility.yul\":8712:8901   */\n    tag_152:\n        /* \"#utility.yul\":8789:8821   */\n      tag_265\n      tag_151\n      jump\t// in\n    tag_265:\n        /* \"#utility.yul\":8830:8895   */\n      tag_266\n        /* \"#utility.yul\":8888:8894   */\n      dup2\n        /* \"#utility.yul\":8880:8886   */\n      dup5\n        /* \"#utility.yul\":8874:8878   */\n      dup5\n        /* \"#utility.yul\":8830:8895   */\n      tag_150\n      jump\t// in\n    tag_266:\n        /* \"#utility.yul\":8765:8901   */\n      pop\n        /* \"#utility.yul\":8712:8901   */\n      pop\n      pop\n      jump\t// out\n        /* \"#utility.yul\":8907:9093   */\n    tag_153:\n        /* \"#utility.yul\":8967:9087   */\n    tag_268:\n        /* \"#utility.yul\":8984:8987   */\n      dup2\n        /* \"#utility.yul\":8977:8982   */\n      dup2\n        /* \"#utility.yul\":8974:8988   */\n      lt\n        /* \"#utility.yul\":8967:9087   */\n      iszero\n      tag_270\n      jumpi\n        /* \"#utility.yul\":9038:9077   */\n      tag_271\n        /* \"#utility.yul\":9075:9076   */\n      0x00\n        /* \"#utility.yul\":9068:9073   */\n      dup3\n        /* \"#utility.yul\":9038:9077   */\n      tag_152\n      jump\t// in\n    tag_271:\n        /* \"#utility.yul\":9011:9012   */\n      0x01\n        /* \"#utility.yul\":9004:9009   */\n      dup2\n        /* \"#utility.yul\":9000:9013   */\n      add\n        /* \"#utility.yul\":8991:9013   */\n      swap1\n      pop\n        /* \"#utility.yul\":8967:9087   */\n      jump(tag_268)\n    tag_270:\n        /* \"#utility.yul\":8907:9093   */\n      pop\n      pop\n      jump\t// out\n        /* \"#utility.yul\":9099:9642   */\n    tag_154:\n        /* \"#utility.yul\":9200:9202   */\n      0x1f\n        /* \"#utility.yul\":9195:9198   */\n      dup3\n        /* \"#utility.yul\":9192:9203   */\n      gt\n        /* \"#utility.yul\":9189:9635   */\n      iszero\n      tag_273\n      jumpi\n        /* \"#utility.yul\":9234:9272   */\n      tag_274\n        /* \"#utility.yul\":9266:9271   */\n      dup2\n        /* \"#utility.yul\":9234:9272   */\n      tag_144\n      jump\t// in\n    tag_274:\n        /* \"#utility.yul\":9318:9347   */\n      tag_275\n        /* \"#utility.yul\":9336:9346   */\n      dup5\n        /* \"#utility.yul\":9318:9347   */\n      tag_145\n      jump\t// in\n    tag_275:\n        /* \"#utility.yul\":9308:9316   */\n      dup2\n        /* \"#utility.yul\":9304:9348   */\n      add\n        /* \"#utility.yul\":9501:9503   */\n      0x20\n        /* \"#utility.yul\":9489:9499   */\n      dup6\n        /* \"#utility.yul\":9486:9504   */\n      lt\n        /* \"#utility.yul\":9483:9532   */\n      iszero\n      tag_276\n      jumpi\n        /* \"#utility.yul\":9522:9530   */\n      dup2\n        /* \"#utility.yul\":9507:9530   */\n      swap1\n      pop\n        /* \"#utility.yul\":9483:9532   */\n    tag_276:\n        /* \"#utility.yul\":9545:9625   */\n      tag_277\n        /* \"#utility.yul\":9601:9623   */\n      tag_278\n        /* \"#utility.yul\":9619:9622   */\n      dup6\n        /* \"#utility.yul\":9601:9623   */\n      tag_145\n      jump\t// in\n    tag_278:\n        /* \"#utility.yul\":9591:9599   */\n      dup4\n        /* \"#utility.yul\":9587:9624   */\n      add\n        /* \"#utility.yul\":9574:9585   */\n      dup3\n        /* \"#utility.yul\":9545:9625   */\n      tag_153\n      jump\t// in\n    tag_277:\n        /* \"#utility.yul\":9204:9635   */\n      pop\n      pop\n        /* \"#utility.yul\":9189:9635   */\n    tag_273:\n        /* \"#utility.yul\":9099:9642   */\n      pop\n      pop\n      pop\n      jump\t// out\n        /* \"#utility.yul\":9648:9765   */\n    tag_155:\n        /* \"#utility.yul\":9702:9710   */\n      0x00\n        /* \"#utility.yul\":9752:9757   */\n      dup3\n        /* \"#utility.yul\":9746:9750   */\n      dup3\n        /* \"#utility.yul\":9742:9758   */\n      shr\n        /* \"#utility.yul\":9721:9758   */\n      swap1\n      pop\n        /* \"#utility.yul\":9648:9765   */\n      swap3\n      swap2\n      pop\n      pop\n      jump\t// out\n        /* \"#utility.yul\":9771:9940   */\n    tag_156:\n        /* \"#utility.yul\":9815:9821   */\n      0x00\n        /* \"#utility.yul\":9848:9899   */\n      tag_281\n        /* \"#utility.yul\":9896:9897   */\n      0x00\n        /* \"#utility.yul\":9892:9898   */\n      not\n        /* \"#utility.yul\":9884:9889   */\n      dup5\n        /* \"#utility.yul\":9881:9882   */\n      0x08\n        /* \"#utility.yul\":9877:9890   */\n      mul\n        /* \"#utility.yul\":9848:9899   */\n      tag_155\n      jump\t// in\n    tag_281:\n        /* \"#utility.yul\":9844:9900   */\n      not\n        /* \"#utility.yul\":9929:9933   */\n      dup1\n        /* \"#utility.yul\":9923:9927   */\n      dup4\n        /* \"#utility.yul\":9919:9934   */\n      and\n        /* \"#utility.yul\":9909:9934   */\n      swap2\n      pop\n        /* \"#utility.yul\":9822:9940   */\n      pop\n        /* \"#utility.yul\":9771:9940   */\n      swap3\n      swap2\n      pop\n      pop\n      jump\t// out\n        /* \"#utility.yul\":9945:10240   */\n    tag_157:\n        /* \"#utility.yul\":10021:10025   */\n      0x00\n        /* \"#utility.yul\":10167:10196   */\n      tag_283\n        /* \"#utility.yul\":10192:10195   */\n      dup4\n        /* \"#utility.yul\":10186:10190   */\n      dup4\n        /* \"#utility.yul\":10167:10196   */\n      tag_156\n      jump\t// in\n    tag_283:\n        /* \"#utility.yul\":10159:10196   */\n      swap2\n      pop\n        /* \"#utility.yul\":10229:10232   */\n      dup3\n        /* \"#utility.yul\":10226:10227   */\n      0x02\n        /* \"#utility.yul\":10222:10233   */\n      mul\n        /* \"#utility.yul\":10216:10220   */\n      dup3\n        /* \"#utility.yul\":10213:10234   */\n      or\n        /* \"#utility.yul\":10205:10234   */\n      swap1\n      pop\n        /* \"#utility.yul\":9945:10240   */\n      swap3\n      swap2\n      pop\n      pop\n      jump\t// out\n        /* \"#utility.yul\":10245:11640   */\n    tag_90:\n        /* \"#utility.yul\":10362:10399   */\n      tag_285\n        /* \"#utility.yul\":10395:10398   */\n      dup3\n        /* \"#utility.yul\":10362:10399   */\n      tag_124\n      jump\t// in\n    tag_285:\n        /* \"#utility.yul\":10464:10482   */\n      0xffffffffffffffff\n        /* \"#utility.yul\":10456:10462   */\n      dup2\n        /* \"#utility.yul\":10453:10483   */\n      gt\n        /* \"#utility.yul\":10450:10506   */\n      iszero\n      tag_286\n      jumpi\n        /* \"#utility.yul\":10486:10504   */\n      tag_287\n      tag_131\n      jump\t// in\n    tag_287:\n        /* \"#utility.yul\":10450:10506   */\n    tag_286:\n        /* \"#utility.yul\":10530:10568   */\n      tag_288\n        /* \"#utility.yul\":10562:10566   */\n      dup3\n        /* \"#utility.yul\":10556:10567   */\n      sload\n        /* \"#utility.yul\":10530:10568   */\n      tag_77\n      jump\t// in\n    tag_288:\n        /* \"#utility.yul\":10615:10682   */\n      tag_289\n        /* \"#utility.yul\":10675:10681   */\n      dup3\n        /* \"#utility.yul\":10667:10673   */\n      dup3\n        /* \"#utility.yul\":10661:10665   */\n      dup6\n        /* \"#utility.yul\":10615:10682   */\n      tag_154\n      jump\t// in\n    tag_289:\n        /* \"#utility.yul\":10709:10710   */\n      0x00\n        /* \"#utility.yul\":10733:10737   */\n      0x20\n        /* \"#utility.yul\":10720:10737   */\n      swap1\n      pop\n        /* \"#utility.yul\":10765:10767   */\n      0x1f\n        /* \"#utility.yul\":10757:10763   */\n      dup4\n        /* \"#utility.yul\":10754:10768   */\n      gt\n        /* \"#utility.yul\":10782:10783   */\n      0x01\n        /* \"#utility.yul\":10777:11395   */\n      dup2\n      eq\n      tag_291\n      jumpi\n        /* \"#utility.yul\":11439:11440   */\n      0x00\n        /* \"#utility.yul\":11456:11462   */\n      dup5\n        /* \"#utility.yul\":11453:11530   */\n      iszero\n      tag_292\n      jumpi\n        /* \"#utility.yul\":11505:11514   */\n      dup3\n        /* \"#utility.yul\":11500:11503   */\n      dup8\n        /* \"#utility.yul\":11496:11515   */\n      add\n        /* \"#utility.yul\":11490:11516   */\n      mload\n        /* \"#utility.yul\":11481:11516   */\n      swap1\n      pop\n        /* \"#utility.yul\":11453:11530   */\n    tag_292:\n        /* \"#utility.yul\":11556:11623   */\n      tag_293\n        /* \"#utility.yul\":11616:11622   */\n      dup6\n        /* \"#utility.yul\":11609:11614   */\n      dup3\n        /* \"#utility.yul\":11556:11623   */\n      tag_157\n      jump\t// in\n    tag_293:\n        /* \"#utility.yul\":11550:11554   */\n      dup7\n        /* \"#utility.yul\":11543:11624   */\n      sstore\n        /* \"#utility.yul\":11412:11634   */\n      pop\n        /* \"#utility.yul\":10747:11634   */\n      jump(tag_290)\n        /* \"#utility.yul\":10777:11395   */\n    tag_291:\n        /* \"#utility.yul\":10829:10833   */\n      0x1f\n        /* \"#utility.yul\":10825:10834   */\n      not\n        /* \"#utility.yul\":10817:10823   */\n      dup5\n        /* \"#utility.yul\":10813:10835   */\n      and\n        /* \"#utility.yul\":10863:10900   */\n      tag_294\n        /* \"#utility.yul\":10895:10899   */\n      dup7\n        /* \"#utility.yul\":10863:10900   */\n      tag_144\n      jump\t// in\n    tag_294:\n        /* \"#utility.yul\":10922:10923   */\n      0x00\n        /* \"#utility.yul\":10936:11144   */\n    tag_295:\n        /* \"#utility.yul\":10950:10957   */\n      dup3\n        /* \"#utility.yul\":10947:10948   */\n      dup2\n        /* \"#utility.yul\":10944:10958   */\n      lt\n        /* \"#utility.yul\":10936:11144   */\n      iszero\n      tag_297\n      jumpi\n        /* \"#utility.yul\":11029:11038   */\n      dup5\n        /* \"#utility.yul\":11024:11027   */\n      dup10\n        /* \"#utility.yul\":11020:11039   */\n      add\n        /* \"#utility.yul\":11014:11040   */\n      mload\n        /* \"#utility.yul\":11006:11012   */\n      dup3\n        /* \"#utility.yul\":10999:11041   */\n      sstore\n        /* \"#utility.yul\":11080:11081   */\n      0x01\n        /* \"#utility.yul\":11072:11078   */\n      dup3\n        /* \"#utility.yul\":11068:11082   */\n      add\n        /* \"#utility.yul\":11058:11082   */\n      swap2\n      pop\n        /* \"#utility.yul\":11127:11129   */\n      0x20\n        /* \"#utility.yul\":11116:11125   */\n      dup6\n        /* \"#utility.yul\":11112:11130   */\n      add\n        /* \"#utility.yul\":11099:11130   */\n      swap5\n      pop\n        /* \"#utility.yul\":10973:10977   */\n      0x20\n        /* \"#utility.yul\":10970:10971   */\n      dup2\n        /* \"#utility.yul\":10966:10978   */\n      add\n        /* \"#utility.yul\":10961:10978   */\n      swap1\n      pop\n        /* \"#utility.yul\":10936:11144   */\n      jump(tag_295)\n    tag_297:\n        /* \"#utility.yul\":11172:11178   */\n      dup7\n        /* \"#utility.yul\":11163:11170   */\n      dup4\n        /* \"#utility.yul\":11160:11179   */\n      lt\n        /* \"#utility.yul\":11157:11336   */\n      iszero\n      tag_298\n      jumpi\n        /* \"#utility.yul\":11230:11239   */\n      dup5\n        /* \"#utility.yul\":11225:11228   */\n      dup10\n        /* \"#utility.yul\":11221:11240   */\n      add\n        /* \"#utility.yul\":11215:11241   */\n      mload\n        /* \"#utility.yul\":11273:11321   */\n      tag_299\n        /* \"#utility.yul\":11315:11319   */\n      0x1f\n        /* \"#utility.yul\":11307:11313   */\n      dup10\n        /* \"#utility.yul\":11303:11320   */\n      and\n        /* \"#utility.yul\":11292:11301   */\n      dup3\n        /* \"#utility.yul\":11273:11321   */\n      tag_156\n      jump\t// in\n    tag_299:\n        /* \"#utility.yul\":11265:11271   */\n      dup4\n        /* \"#utility.yul\":11258:11322   */\n      sstore\n        /* \"#utility.yul\":11180:11336   */\n      pop\n        /* \"#utility.yul\":11157:11336   */\n    tag_298:\n        /* \"#utility.yul\":11382:11383   */\n      0x01\n        /* \"#utility.yul\":11378:11379   */\n      0x02\n        /* \"#utility.yul\":11370:11376   */\n      dup9\n        /* \"#utility.yul\":11366:11380   */\n      mul\n        /* \"#utility.yul\":11362:11384   */\n      add\n        /* \"#utility.yul\":11356:11360   */\n      dup9\n        /* \"#utility.yul\":11349:11385   */\n      sstore\n        /* \"#utility.yul\":10784:11395   */\n      pop\n      pop\n      pop\n        /* \"#utility.yul\":10747:11634   */\n    tag_290:\n      pop\n        /* \"#utility.yul\":10337:11640   */\n      pop\n      pop\n      pop\n        /* \"#utility.yul\":10245:11640   */\n      pop\n      pop\n      jump\t// out\n        /* \"#utility.yul\":11646:11789   */\n    tag_158:\n        /* \"#utility.yul\":11703:11708   */\n      0x00\n        /* \"#utility.yul\":11734:11740   */\n      dup2\n        /* \"#utility.yul\":11728:11741   */\n      mload\n        /* \"#utility.yul\":11719:11741   */\n      swap1\n      pop\n        /* \"#utility.yul\":11750:11783   */\n      tag_301\n        /* \"#utility.yul\":11777:11782   */\n      dup2\n        /* \"#utility.yul\":11750:11783   */\n      tag_121\n      jump\t// in\n    tag_301:\n        /* \"#utility.yul\":11646:11789   */\n      swap3\n      swap2\n      pop\n      pop\n      jump\t// out\n        /* \"#utility.yul\":11795:12146   */\n    tag_110:\n        /* \"#utility.yul\":11865:11871   */\n      0x00\n        /* \"#utility.yul\":11914:11916   */\n      0x20\n        /* \"#utility.yul\":11902:11911   */\n      dup3\n        /* \"#utility.yul\":11893:11900   */\n      dup5\n        /* \"#utility.yul\":11889:11912   */\n      sub\n        /* \"#utility.yul\":11885:11917   */\n      slt\n        /* \"#utility.yul\":11882:12001   */\n      iszero\n      tag_303\n      jumpi\n        /* \"#utility.yul\":11920:11999   */\n      tag_304\n      tag_118\n      jump\t// in\n    tag_304:\n        /* \"#utility.yul\":11882:12001   */\n    tag_303:\n        /* \"#utility.yul\":12040:12041   */\n      0x00\n        /* \"#utility.yul\":12065:12129   */\n      tag_305\n        /* \"#utility.yul\":12121:12128   */\n      dup5\n        /* \"#utility.yul\":12112:12118   */\n      dup3\n        /* \"#utility.yul\":12101:12110   */\n      dup6\n        /* \"#utility.yul\":12097:12119   */\n      add\n        /* \"#utility.yul\":12065:12129   */\n      tag_158\n      jump\t// in\n    tag_305:\n        /* \"#utility.yul\":12055:12129   */\n      swap2\n      pop\n        /* \"#utility.yul\":12011:12139   */\n      pop\n        /* \"#utility.yul\":11795:12146   */\n      swap3\n      swap2\n      pop\n      pop\n      jump\t// out\n        /* \"#utility.yul\":12176:13007   */\n    tag_159:\n        /* \"#utility.yul\":12261:12264   */\n      0x00\n        /* \"#utility.yul\":12298:12303   */\n      dup2\n        /* \"#utility.yul\":12292:12304   */\n      sload\n        /* \"#utility.yul\":12327:12363   */\n      tag_307\n        /* \"#utility.yul\":12353:12362   */\n      dup2\n        /* \"#utility.yul\":12327:12363   */\n      tag_77\n      jump\t// in\n    tag_307:\n        /* \"#utility.yul\":12379:12450   */\n      tag_308\n        /* \"#utility.yul\":12443:12449   */\n      dup2\n        /* \"#utility.yul\":12438:12441   */\n      dup7\n        /* \"#utility.yul\":12379:12450   */\n      tag_125\n      jump\t// in\n    tag_308:\n        /* \"#utility.yul\":12372:12450   */\n      swap5\n      pop\n        /* \"#utility.yul\":12481:12482   */\n      0x01\n        /* \"#utility.yul\":12470:12479   */\n      dup3\n        /* \"#utility.yul\":12466:12483   */\n      and\n        /* \"#utility.yul\":12497:12498   */\n      0x00\n        /* \"#utility.yul\":12492:12656   */\n      dup2\n      eq\n      tag_310\n      jumpi\n        /* \"#utility.yul\":12670:12671   */\n      0x01\n        /* \"#utility.yul\":12665:13001   */\n      dup2\n      eq\n      tag_311\n      jumpi\n        /* \"#utility.yul\":12459:13001   */\n      jump(tag_309)\n        /* \"#utility.yul\":12492:12656   */\n    tag_310:\n        /* \"#utility.yul\":12576:12580   */\n      0xff\n        /* \"#utility.yul\":12572:12581   */\n      not\n        /* \"#utility.yul\":12561:12570   */\n      dup4\n        /* \"#utility.yul\":12557:12582   */\n      and\n        /* \"#utility.yul\":12552:12555   */\n      dup7\n        /* \"#utility.yul\":12545:12583   */\n      mstore\n        /* \"#utility.yul\":12636:12642   */\n      dup2\n        /* \"#utility.yul\":12629:12643   */\n      iszero\n        /* \"#utility.yul\":12622:12644   */\n      iszero\n        /* \"#utility.yul\":12616:12620   */\n      0x20\n        /* \"#utility.yul\":12612:12645   */\n      mul\n        /* \"#utility.yul\":12607:12610   */\n      dup7\n        /* \"#utility.yul\":12603:12646   */\n      add\n        /* \"#utility.yul\":12596:12646   */\n      swap4\n      pop\n        /* \"#utility.yul\":12492:12656   */\n      jump(tag_309)\n        /* \"#utility.yul\":12665:13001   */\n    tag_311:\n        /* \"#utility.yul\":12732:12770   */\n      tag_312\n        /* \"#utility.yul\":12764:12769   */\n      dup6\n        /* \"#utility.yul\":12732:12770   */\n      tag_144\n      jump\t// in\n    tag_312:\n        /* \"#utility.yul\":12792:12793   */\n      0x00\n        /* \"#utility.yul\":12806:12960   */\n    tag_313:\n        /* \"#utility.yul\":12820:12826   */\n      dup4\n        /* \"#utility.yul\":12817:12818   */\n      dup2\n        /* \"#utility.yul\":12814:12827   */\n      lt\n        /* \"#utility.yul\":12806:12960   */\n      iszero\n      tag_315\n      jumpi\n        /* \"#utility.yul\":12894:12901   */\n      dup2\n        /* \"#utility.yul\":12888:12902   */\n      sload\n        /* \"#utility.yul\":12884:12885   */\n      dup2\n        /* \"#utility.yul\":12879:12882   */\n      dup10\n        /* \"#utility.yul\":12875:12886   */\n      add\n        /* \"#utility.yul\":12868:12903   */\n      mstore\n        /* \"#utility.yul\":12944:12945   */\n      0x01\n        /* \"#utility.yul\":12935:12942   */\n      dup3\n        /* \"#utility.yul\":12931:12946   */\n      add\n        /* \"#utility.yul\":12920:12946   */\n      swap2\n      pop\n        /* \"#utility.yul\":12842:12846   */\n      0x20\n        /* \"#utility.yul\":12839:12840   */\n      dup2\n        /* \"#utility.yul\":12835:12847   */\n      add\n        /* \"#utility.yul\":12830:12847   */\n      swap1\n      pop\n        /* \"#utility.yul\":12806:12960   */\n      jump(tag_313)\n    tag_315:\n        /* \"#utility.yul\":12989:12990   */\n      dup1\n        /* \"#utility.yul\":12984:12987   */\n      dup9\n        /* \"#utility.yul\":12980:12991   */\n      add\n        /* \"#utility.yul\":12973:12991   */\n      swap6\n      pop\n        /* \"#utility.yul\":12672:13001   */\n      pop\n      pop\n        /* \"#utility.yul\":12459:13001   */\n    tag_309:\n      pop\n        /* \"#utility.yul\":12265:13007   */\n      pop\n      pop\n        /* \"#utility.yul\":12176:13007   */\n      swap3\n      swap2\n      pop\n      pop\n      jump\t// out\n        /* \"#utility.yul\":13013:14685   */\n    tag_112:\n        /* \"#utility.yul\":13455:13459   */\n      0x00\n        /* \"#utility.yul\":13493:13496   */\n      0x0160\n        /* \"#utility.yul\":13482:13491   */\n      dup3\n        /* \"#utility.yul\":13478:13497   */\n      add\n        /* \"#utility.yul\":13470:13497   */\n      swap1\n      pop\n        /* \"#utility.yul\":13507:13578   */\n      tag_317\n        /* \"#utility.yul\":13575:13576   */\n      0x00\n        /* \"#utility.yul\":13564:13573   */\n      dup4\n        /* \"#utility.yul\":13560:13577   */\n      add\n        /* \"#utility.yul\":13551:13557   */\n      dup15\n        /* \"#utility.yul\":13507:13578   */\n      tag_116\n      jump\t// in\n    tag_317:\n        /* \"#utility.yul\":13625:13634   */\n      dup2\n        /* \"#utility.yul\":13619:13623   */\n      dup2\n        /* \"#utility.yul\":13615:13635   */\n      sub\n        /* \"#utility.yul\":13610:13612   */\n      0x20\n        /* \"#utility.yul\":13599:13608   */\n      dup4\n        /* \"#utility.yul\":13595:13613   */\n      add\n        /* \"#utility.yul\":13588:13636   */\n      mstore\n        /* \"#utility.yul\":13653:13728   */\n      tag_318\n        /* \"#utility.yul\":13723:13727   */\n      dup2\n        /* \"#utility.yul\":13714:13720   */\n      dup14\n        /* \"#utility.yul\":13653:13728   */\n      tag_159\n      jump\t// in\n    tag_318:\n        /* \"#utility.yul\":13645:13728   */\n      swap1\n      pop\n        /* \"#utility.yul\":13775:13784   */\n      dup2\n        /* \"#utility.yul\":13769:13773   */\n      dup2\n        /* \"#utility.yul\":13765:13785   */\n      sub\n        /* \"#utility.yul\":13760:13762   */\n      0x40\n        /* \"#utility.yul\":13749:13758   */\n      dup4\n        /* \"#utility.yul\":13745:13763   */\n      add\n        /* \"#utility.yul\":13738:13786   */\n      mstore\n        /* \"#utility.yul\":13803:13878   */\n      tag_319\n        /* \"#utility.yul\":13873:13877   */\n      dup2\n        /* \"#utility.yul\":13864:13870   */\n      dup13\n        /* \"#utility.yul\":13803:13878   */\n      tag_159\n      jump\t// in\n    tag_319:\n        /* \"#utility.yul\":13795:13878   */\n      swap1\n      pop\n        /* \"#utility.yul\":13925:13934   */\n      dup2\n        /* \"#utility.yul\":13919:13923   */\n      dup2\n        /* \"#utility.yul\":13915:13935   */\n      sub\n        /* \"#utility.yul\":13910:13912   */\n      0x60\n        /* \"#utility.yul\":13899:13908   */\n      dup4\n        /* \"#utility.yul\":13895:13913   */\n      add\n        /* \"#utility.yul\":13888:13936   */\n      mstore\n        /* \"#utility.yul\":13953:14028   */\n      tag_320\n        /* \"#utility.yul\":14023:14027   */\n      dup2\n        /* \"#utility.yul\":14014:14020   */\n      dup12\n        /* \"#utility.yul\":13953:14028   */\n      tag_159\n      jump\t// in\n    tag_320:\n        /* \"#utility.yul\":13945:14028   */\n      swap1\n      pop\n        /* \"#utility.yul\":14076:14085   */\n      dup2\n        /* \"#utility.yul\":14070:14074   */\n      dup2\n        /* \"#utility.yul\":14066:14086   */\n      sub\n        /* \"#utility.yul\":14060:14063   */\n      0x80\n        /* \"#utility.yul\":14049:14058   */\n      dup4\n        /* \"#utility.yul\":14045:14064   */\n      add\n        /* \"#utility.yul\":14038:14087   */\n      mstore\n        /* \"#utility.yul\":14104:14179   */\n      tag_321\n        /* \"#utility.yul\":14174:14178   */\n      dup2\n        /* \"#utility.yul\":14165:14171   */\n      dup11\n        /* \"#utility.yul\":14104:14179   */\n      tag_159\n      jump\t// in\n    tag_321:\n        /* \"#utility.yul\":14096:14179   */\n      swap1\n      pop\n        /* \"#utility.yul\":14189:14262   */\n      tag_322\n        /* \"#utility.yul\":14257:14260   */\n      0xa0\n        /* \"#utility.yul\":14246:14255   */\n      dup4\n        /* \"#utility.yul\":14242:14261   */\n      add\n        /* \"#utility.yul\":14233:14239   */\n      dup10\n        /* \"#utility.yul\":14189:14262   */\n      tag_123\n      jump\t// in\n    tag_322:\n        /* \"#utility.yul\":14272:14345   */\n      tag_323\n        /* \"#utility.yul\":14340:14343   */\n      0xc0\n        /* \"#utility.yul\":14329:14338   */\n      dup4\n        /* \"#utility.yul\":14325:14344   */\n      add\n        /* \"#utility.yul\":14316:14322   */\n      dup9\n        /* \"#utility.yul\":14272:14345   */\n      tag_123\n      jump\t// in\n    tag_323:\n        /* \"#utility.yul\":14355:14428   */\n      tag_324\n        /* \"#utility.yul\":14423:14426   */\n      0xe0\n        /* \"#utility.yul\":14412:14421   */\n      dup4\n        /* \"#utility.yul\":14408:14427   */\n      add\n        /* \"#utility.yul\":14399:14405   */\n      dup8\n        /* \"#utility.yul\":14355:14428   */\n      tag_123\n      jump\t// in\n    tag_324:\n        /* \"#utility.yul\":14438:14511   */\n      tag_325\n        /* \"#utility.yul\":14506:14509   */\n      0x0100\n        /* \"#utility.yul\":14495:14504   */\n      dup4\n        /* \"#utility.yul\":14491:14510   */\n      add\n        /* \"#utility.yul\":14482:14488   */\n      dup7\n        /* \"#utility.yul\":14438:14511   */\n      tag_123\n      jump\t// in\n    tag_325:\n        /* \"#utility.yul\":14521:14594   */\n      tag_326\n        /* \"#utility.yul\":14589:14592   */\n      0x0120\n        /* \"#utility.yul\":14578:14587   */\n      dup4\n        /* \"#utility.yul\":14574:14593   */\n      add\n        /* \"#utility.yul\":14565:14571   */\n      dup6\n        /* \"#utility.yul\":14521:14594   */\n      tag_123\n      jump\t// in\n    tag_326:\n        /* \"#utility.yul\":14604:14678   */\n      tag_327\n        /* \"#utility.yul\":14673:14676   */\n      0x0140\n        /* \"#utility.yul\":14662:14671   */\n      dup4\n        /* \"#utility.yul\":14658:14677   */\n      add\n        /* \"#utility.yul\":14648:14655   */\n      dup5\n        /* \"#utility.yul\":14604:14678   */\n      tag_123\n      jump\t// in\n    tag_327:\n        /* \"#utility.yul\":13013:14685   */\n      swap13\n      swap12\n      pop\n      pop\n      pop\n      pop\n      pop\n      pop\n      pop\n      pop\n      pop\n      pop\n      pop\n      pop\n      jump\t// out\n\n    auxdata: 0xa2646970667358221220fd9b021a483bf4381aed2937b6b212155153c2c60642fbd6a5f3c37e0a7ea5db64736f6c63430008160033\n}\n\nsub_1: assembly {\n        /* \"contracts/inventory.sol\":35:325  contract Inventory {... */\n      mstore(0x40, 0x80)\n        /* \"contracts/inventory.sol\":81:148  constructor(uint _quantity) {... */\n      callvalue\n      dup1\n      iszero\n      tag_1\n      jumpi\n      0x00\n      dup1\n      revert\n    tag_1:\n      pop\n      mload(0x40)\n      sub(codesize, bytecodeSize)\n      dup1\n      bytecodeSize\n      dup4\n      codecopy\n      dup2\n      dup2\n      add\n      0x40\n      mstore\n      dup2\n      add\n      swap1\n      tag_2\n      swap2\n      swap1\n      tag_3\n      jump\t// in\n    tag_2:\n        /* \"contracts/inventory.sol\":131:140  _quantity */\n      dup1\n        /* \"contracts/inventory.sol\":120:128  quantity */\n      0x00\n        /* \"contracts/inventory.sol\":120:140  quantity = _quantity */\n      dup2\n      swap1\n      sstore\n      pop\n        /* \"contracts/inventory.sol\":81:148  constructor(uint _quantity) {... */\n      pop\n        /* \"contracts/inventory.sol\":35:325  contract Inventory {... */\n      jump(tag_6)\n        /* \"#utility.yul\":88:205   */\n    tag_8:\n        /* \"#utility.yul\":197:198   */\n      0x00\n        /* \"#utility.yul\":194:195   */\n      dup1\n        /* \"#utility.yul\":187:199   */\n      revert\n        /* \"#utility.yul\":334:411   */\n    tag_10:\n        /* \"#utility.yul\":371:378   */\n      0x00\n        /* \"#utility.yul\":400:405   */\n      dup2\n        /* \"#utility.yul\":389:405   */\n      swap1\n      pop\n        /* \"#utility.yul\":334:411   */\n      swap2\n      swap1\n      pop\n      jump\t// out\n        /* \"#utility.yul\":417:539   */\n    tag_11:\n        /* \"#utility.yul\":490:514   */\n      tag_19\n        /* \"#utility.yul\":508:513   */\n      dup2\n        /* \"#utility.yul\":490:514   */\n      tag_10\n      jump\t// in\n    tag_19:\n        /* \"#utility.yul\":483:488   */\n      dup2\n        /* \"#utility.yul\":480:515   */\n      eq\n        /* \"#utility.yul\":470:533   */\n      tag_20\n      jumpi\n        /* \"#utility.yul\":529:530   */\n      0x00\n        /* \"#utility.yul\":526:527   */\n      dup1\n        /* \"#utility.yul\":519:531   */\n      revert\n        /* \"#utility.yul\":470:533   */\n    tag_20:\n        /* \"#utility.yul\":417:539   */\n      pop\n      jump\t// out\n        /* \"#utility.yul\":545:688   */\n    tag_12:\n        /* \"#utility.yul\":602:607   */\n      0x00\n        /* \"#utility.yul\":633:639   */\n      dup2\n        /* \"#utility.yul\":627:640   */\n      mload\n        /* \"#utility.yul\":618:640   */\n      swap1\n      pop\n        /* \"#utility.yul\":649:682   */\n      tag_22\n        /* \"#utility.yul\":676:681   */\n      dup2\n        /* \"#utility.yul\":649:682   */\n      tag_11\n      jump\t// in\n    tag_22:\n        /* \"#utility.yul\":545:688   */\n      swap3\n      swap2\n      pop\n      pop\n      jump\t// out\n        /* \"#utility.yul\":694:1045   */\n    tag_3:\n        /* \"#utility.yul\":764:770   */\n      0x00\n        /* \"#utility.yul\":813:815   */\n      0x20\n        /* \"#utility.yul\":801:810   */\n      dup3\n        /* \"#utility.yul\":792:799   */\n      dup5\n        /* \"#utility.yul\":788:811   */\n      sub\n        /* \"#utility.yul\":784:816   */\n      slt\n        /* \"#utility.yul\":781:900   */\n      iszero\n      tag_24\n      jumpi\n        /* \"#utility.yul\":819:898   */\n      tag_25\n      tag_8\n      jump\t// in\n    tag_25:\n        /* \"#utility.yul\":781:900   */\n    tag_24:\n        /* \"#utility.yul\":939:940   */\n      0x00\n        /* \"#utility.yul\":964:1028   */\n      tag_26\n        /* \"#utility.yul\":1020:1027   */\n      dup5\n        /* \"#utility.yul\":1011:1017   */\n      dup3\n        /* \"#utility.yul\":1000:1009   */\n      dup6\n        /* \"#utility.yul\":996:1018   */\n      add\n        /* \"#utility.yul\":964:1028   */\n      tag_12\n      jump\t// in\n    tag_26:\n        /* \"#utility.yul\":954:1028   */\n      swap2\n      pop\n        /* \"#utility.yul\":910:1038   */\n      pop\n        /* \"#utility.yul\":694:1045   */\n      swap3\n      swap2\n      pop\n      pop\n      jump\t// out\n        /* \"contracts/inventory.sol\":35:325  contract Inventory {... */\n    tag_6:\n      dataSize(sub_0)\n      dup1\n      dataOffset(sub_0)\n      0x00\n      codecopy\n      0x00\n      return\n    stop\n\n    sub_0: assembly {\n            /* \"contracts/inventory.sol\":35:325  contract Inventory {... */\n          mstore(0x40, 0x80)\n          callvalue\n          dup1\n          iszero\n          tag_1\n          jumpi\n          0x00\n          dup1\n          revert\n        tag_1:\n          pop\n          jumpi(tag_2, lt(calldatasize, 0x04))\n          shr(0xe0, calldataload(0x00))\n          dup1\n          0x992e94fd\n          eq\n          tag_3\n          jumpi\n          dup1\n          0xed0109a5\n          eq\n          tag_4\n          jumpi\n        tag_2:\n          0x00\n          dup1\n          revert\n            /* \"contracts/inventory.sol\":248:320  function set_quantity(uint qty) public {... */\n        tag_3:\n          tag_5\n          0x04\n          dup1\n          calldatasize\n          sub\n          dup2\n          add\n          swap1\n          tag_6\n          swap2\n          swap1\n          tag_7\n          jump\t// in\n        tag_6:\n          tag_8\n          jump\t// in\n        tag_5:\n          stop\n            /* \"contracts/inventory.sol\":156:240  function get_quantity() public view returns(uint) {... */\n        tag_4:\n          tag_9\n          tag_10\n          jump\t// in\n        tag_9:\n          mload(0x40)\n          tag_11\n          swap2\n          swap1\n          tag_12\n          jump\t// in\n        tag_11:\n          mload(0x40)\n          dup1\n          swap2\n          sub\n          swap1\n          return\n            /* \"contracts/inventory.sol\":248:320  function set_quantity(uint qty) public {... */\n        tag_8:\n            /* \"contracts/inventory.sol\":309:312  qty */\n          dup1\n            /* \"contracts/inventory.sol\":298:306  quantity */\n          0x00\n            /* \"contracts/inventory.sol\":298:312  quantity = qty */\n          dup2\n          swap1\n          sstore\n          pop\n            /* \"contracts/inventory.sol\":248:320  function set_quantity(uint qty) public {... */\n          pop\n          jump\t// out\n            /* \"contracts/inventory.sol\":156:240  function get_quantity() public view returns(uint) {... */\n        tag_10:\n            /* \"contracts/inventory.sol\":200:204  uint */\n          0x00\n            /* \"contracts/inventory.sol\":224:232  quantity */\n          dup1\n          sload\n            /* \"contracts/inventory.sol\":217:232  return quantity */\n          swap1\n          pop\n            /* \"contracts/inventory.sol\":156:240  function get_quantity() public view returns(uint) {... */\n          swap1\n          jump\t// out\n            /* \"#utility.yul\":88:205   */\n        tag_16:\n            /* \"#utility.yul\":197:198   */\n          0x00\n            /* \"#utility.yul\":194:195   */\n          dup1\n            /* \"#utility.yul\":187:199   */\n          revert\n            /* \"#utility.yul\":334:411   */\n        tag_18:\n            /* \"#utility.yul\":371:378   */\n          0x00\n            /* \"#utility.yul\":400:405   */\n          dup2\n            /* \"#utility.yul\":389:405   */\n          swap1\n          pop\n            /* \"#utility.yul\":334:411   */\n          swap2\n          swap1\n          pop\n          jump\t// out\n            /* \"#utility.yul\":417:539   */\n        tag_19:\n            /* \"#utility.yul\":490:514   */\n          tag_28\n            /* \"#utility.yul\":508:513   */\n          dup2\n            /* \"#utility.yul\":490:514   */\n          tag_18\n          jump\t// in\n        tag_28:\n            /* \"#utility.yul\":483:488   */\n          dup2\n            /* \"#utility.yul\":480:515   */\n          eq\n            /* \"#utility.yul\":470:533   */\n          tag_29\n          jumpi\n            /* \"#utility.yul\":529:530   */\n          0x00\n            /* \"#utility.yul\":526:527   */\n          dup1\n            /* \"#utility.yul\":519:531   */\n          revert\n            /* \"#utility.yul\":470:533   */\n        tag_29:\n            /* \"#utility.yul\":417:539   */\n          pop\n          jump\t// out\n            /* \"#utility.yul\":545:684   */\n        tag_20:\n            /* \"#utility.yul\":591:596   */\n          0x00\n            /* \"#utility.yul\":629:635   */\n          dup2\n            /* \"#utility.yul\":616:636   */\n          calldataload\n            /* \"#utility.yul\":607:636   */\n          swap1\n          pop\n            /* \"#utility.yul\":645:678   */\n          tag_31\n            /* \"#utility.yul\":672:677   */\n          dup2\n            /* \"#utility.yul\":645:678   */\n          tag_19\n          jump\t// in\n        tag_31:\n            /* \"#utility.yul\":545:684   */\n          swap3\n          swap2\n          pop\n          pop\n          jump\t// out\n            /* \"#utility.yul\":690:1019   */\n        tag_7:\n            /* \"#utility.yul\":749:755   */\n          0x00\n            /* \"#utility.yul\":798:800   */\n          0x20\n            /* \"#utility.yul\":786:795   */\n          dup3\n            /* \"#utility.yul\":777:784   */\n          dup5\n            /* \"#utility.yul\":773:796   */\n          sub\n            /* \"#utility.yul\":769:801   */\n          slt\n            /* \"#utility.yul\":766:885   */\n          iszero\n          tag_33\n          jumpi\n            /* \"#utility.yul\":804:883   */\n          tag_34\n          tag_16\n          jump\t// in\n        tag_34:\n            /* \"#utility.yul\":766:885   */\n        tag_33:\n            /* \"#utility.yul\":924:925   */\n          0x00\n            /* \"#utility.yul\":949:1002   */\n          tag_35\n            /* \"#utility.yul\":994:1001   */\n          dup5\n            /* \"#utility.yul\":985:991   */\n          dup3\n            /* \"#utility.yul\":974:983   */\n          dup6\n            /* \"#utility.yul\":970:992   */\n          add\n            /* \"#utility.yul\":949:1002   */\n          tag_20\n          jump\t// in\n        tag_35:\n            /* \"#utility.yul\":939:1002   */\n          swap2\n          pop\n            /* \"#utility.yul\":895:1012   */\n          pop\n            /* \"#utility.yul\":690:1019   */\n          swap3\n          swap2\n          pop\n          pop\n          jump\t// out\n            /* \"#utility.yul\":1025:1143   */\n        tag_21:\n            /* \"#utility.yul\":1112:1136   */\n          tag_37\n            /* \"#utility.yul\":1130:1135   */\n          dup2\n            /* \"#utility.yul\":1112:1136   */\n          tag_18\n          jump\t// in\n        tag_37:\n            /* \"#utility.yul\":1107:1110   */\n          dup3\n            /* \"#utility.yul\":1100:1137   */\n          mstore\n            /* \"#utility.yul\":1025:1143   */\n          pop\n          pop\n          jump\t// out\n            /* \"#utility.yul\":1149:1371   */\n        tag_12:\n            /* \"#utility.yul\":1242:1246   */\n          0x00\n            /* \"#utility.yul\":1280:1282   */\n          0x20\n            /* \"#utility.yul\":1269:1278   */\n          dup3\n            /* \"#utility.yul\":1265:1283   */\n          add\n            /* \"#utility.yul\":1257:1283   */\n          swap1\n          pop\n            /* \"#utility.yul\":1293:1364   */\n          tag_39\n            /* \"#utility.yul\":1361:1362   */\n          0x00\n            /* \"#utility.yul\":1350:1359   */\n          dup4\n            /* \"#utility.yul\":1346:1363   */\n          add\n            /* \"#utility.yul\":1337:1343   */\n          dup5\n            /* \"#utility.yul\":1293:1364   */\n          tag_21\n          jump\t// in\n        tag_39:\n            /* \"#utility.yul\":1149:1371   */\n          swap3\n          swap2\n          pop\n          pop\n          jump\t// out\n\n        auxdata: 0xa2646970667358221220adc1caa820653f22f99113d0826ce2d3b938d88594cd9e4d9cdb1649d5b963fa64736f6c63430008160033\n    }\n}\n",
				"bytecode": {
					"linkReferences": {},
					"object": "60806040523480156200001157600080fd5b50604051620019d6380380620019d68339818101604052810190620000379190620003ad565b8a6000806101000a81548173ffffffffffffffffffffffffffffffffffffffff021916908373ffffffffffffffffffffffffffffffffffffffff160217905550896001908162000088919062000777565b5088600290816200009a919062000777565b508760039081620000ac919062000777565b508660049081620000be919062000777565b5085604051620000ce906200016c565b620000da91906200086f565b604051809103906000f080158015620000f7573d6000803e3d6000fd5b50600560006101000a81548173ffffffffffffffffffffffffffffffffffffffff021916908373ffffffffffffffffffffffffffffffffffffffff1602179055508460068190555083600781905550826008819055508160098190555080600a8190555050505050505050505050506200088c565b61020680620017d083390190565b6000604051905090565b600080fd5b600080fd5b600073ffffffffffffffffffffffffffffffffffffffff82169050919050565b6000620001bb826200018e565b9050919050565b620001cd81620001ae565b8114620001d957600080fd5b50565b600081519050620001ed81620001c2565b92915050565b600080fd5b600080fd5b6000601f19601f8301169050919050565b7f4e487b7100000000000000000000000000000000000000000000000000000000600052604160045260246000fd5b6200024882620001fd565b810181811067ffffffffffffffff821117156200026a57620002696200020e565b5b80604052505050565b60006200027f6200017a565b90506200028d82826200023d565b919050565b600067ffffffffffffffff821115620002b057620002af6200020e565b5b620002bb82620001fd565b9050602081019050919050565b60005b83811015620002e8578082015181840152602081019050620002cb565b60008484015250505050565b60006200030b620003058462000292565b62000273565b9050828152602081018484840111156200032a5762000329620001f8565b5b62000337848285620002c8565b509392505050565b600082601f830112620003575762000356620001f3565b5b815162000369848260208601620002f4565b91505092915050565b6000819050919050565b620003878162000372565b81146200039357600080fd5b50565b600081519050620003a7816200037c565b92915050565b60008060008060008060008060008060006101608c8e031215620003d657620003d562000184565b5b6000620003e68e828f01620001dc565b9b505060208c015167ffffffffffffffff8111156200040a576200040962000189565b5b620004188e828f016200033f565b9a505060408c015167ffffffffffffffff8111156200043c576200043b62000189565b5b6200044a8e828f016200033f565b99505060608c015167ffffffffffffffff8111156200046e576200046d62000189565b5b6200047c8e828f016200033f565b98505060808c015167ffffffffffffffff811115620004a0576200049f62000189565b5b620004ae8e828f016200033f565b97505060a0620004c18e828f0162000396565b96505060c0620004d48e828f0162000396565b95505060e0620004e78e828f0162000396565b945050610100620004fb8e828f0162000396565b9350506101206200050f8e828f0162000396565b925050610140620005238e828f0162000396565b9150509295989b509295989b9093969950565b600081519050919050565b7f4e487b7100000000000000000000000000000000000000000000000000000000600052602260045260246000fd5b600060028204905060018216806200058957607f821691505b6020821081036200059f576200059e62000541565b5b50919050565b60008190508160005260206000209050919050565b60006020601f8301049050919050565b600082821b905092915050565b600060088302620006097fffffffffffffffffffffffffffffffffffffffffffffffffffffffffffffffff82620005ca565b620006158683620005ca565b95508019841693508086168417925050509392505050565b6000819050919050565b600062000658620006526200064c8462000372565b6200062d565b62000372565b9050919050565b6000819050919050565b620006748362000637565b6200068c62000683826200065f565b848454620005d7565b825550505050565b600090565b620006a362000694565b620006b081848462000669565b505050565b5b81811015620006d857620006cc60008262000699565b600181019050620006b6565b5050565b601f8211156200072757620006f181620005a5565b620006fc84620005ba565b810160208510156200070c578190505b620007246200071b85620005ba565b830182620006b5565b50505b505050565b600082821c905092915050565b60006200074c600019846008026200072c565b1980831691505092915050565b600062000767838362000739565b9150826002028217905092915050565b620007828262000536565b67ffffffffffffffff8111156200079e576200079d6200020e565b5b620007aa825462000570565b620007b7828285620006dc565b600060209050601f831160018114620007ef5760008415620007da578287015190505b620007e6858262000759565b86555062000856565b601f198416620007ff86620005a5565b60005b82811015620008295784890151825560018201915060208501945060208101905062000802565b8683101562000849578489015162000845601f89168262000739565b8355505b6001600288020188555050505b505050505050565b620008698162000372565b82525050565b60006020820190506200088660008301846200085e565b92915050565b610f34806200089c6000396000f3fe608060405234801561001057600080fd5b50600436106100ea5760003560e01c80635b0873231161008c578063c5c340ec11610066578063c5c340ec14610217578063db4b8b4d14610235578063df752c7e14610253578063f4df90851461025d576100ea565b80635b087323146101bd5780636a2b4340146101db578063bd3c3778146101f9576100ea565b80633a4564cf116100c85780633a4564cf146101475780633a525c29146101655780633a88596814610183578063438926a5146101a1576100ea565b80630131222f146100ef5780631ae6f1191461010d5780632bb8823714610129575b600080fd5b6100f761027b565b6040516101049190610737565b60405180910390f35b6101276004803603810190610122919061079c565b6102a4565b005b610131610334565b60405161013e91906107d8565b60405180910390f35b61014f61033e565b60405161015c91906107d8565b60405180910390f35b61016d610348565b60405161017a9190610883565b60405180910390f35b61018b6103da565b6040516101989190610883565b60405180910390f35b6101bb60048036038101906101b691906109da565b61046c565b005b6101c561047f565b6040516101d29190610883565b60405180910390f35b6101e3610511565b6040516101f091906107d8565b60405180910390f35b61020161051b565b60405161020e9190610883565b60405180910390f35b61021f6105ad565b60405161022c91906107d8565b60405180910390f35b61023d6105b7565b60405161024a9190610a82565b60405180910390f35b61025b6105e1565b005b6102656106ec565b60405161027291906107d8565b60405180910390f35b60008060009054906101000a900473ffffffffffffffffffffffffffffffffffffffff16905090565b600560009054906101000a900473ffffffffffffffffffffffffffffffffffffffff1673ffffffffffffffffffffffffffffffffffffffff1663992e94fd826040518263ffffffff1660e01b81526004016102ff91906107d8565b600060405180830381600087803b15801561031957600080fd5b505af115801561032d573d6000803e3d6000fd5b5050505050565b6000600854905090565b6000600654905090565b60606002805461035790610acc565b80601f016020809104026020016040519081016040528092919081815260200182805461038390610acc565b80156103d05780601f106103a5576101008083540402835291602001916103d0565b820191906000526020600020905b8154815290600101906020018083116103b357829003601f168201915b5050505050905090565b6060600180546103e990610acc565b80601f016020809104026020016040519081016040528092919081815260200182805461041590610acc565b80156104625780601f1061043757610100808354040283529160200191610462565b820191906000526020600020905b81548152906001019060200180831161044557829003601f168201915b5050505050905090565b806004908161047b9190610c9f565b5050565b60606004805461048e90610acc565b80601f01602080910402602001604051908101604052809291908181526020018280546104ba90610acc565b80156105075780601f106104dc57610100808354040283529160200191610507565b820191906000526020600020905b8154815290600101906020018083116104ea57829003601f168201915b5050505050905090565b6000600a54905090565b60606003805461052a90610acc565b80601f016020809104026020016040519081016040528092919081815260200182805461055690610acc565b80156105a35780601f10610578576101008083540402835291602001916105a3565b820191906000526020600020905b81548152906001019060200180831161058657829003601f168201915b5050505050905090565b6000600754905090565b6000600560009054906101000a900473ffffffffffffffffffffffffffffffffffffffff16905090565b7fff986eb5f73f3854e5207fe385403c4d281fd7b6bfd7cbdfe61a29f6239c159160008054906101000a900473ffffffffffffffffffffffffffffffffffffffff166001600260036004600560009054906101000a900473ffffffffffffffffffffffffffffffffffffffff1673ffffffffffffffffffffffffffffffffffffffff1663ed0109a56040518163ffffffff1660e01b8152600401602060405180830381865afa158015610698573d6000803e3d6000fd5b505050506040513d601f19601f820116820180604052508101906106bc9190610d86565b600654600754600854600954600a546040516106e29b9a99989796959493929190610e37565b60405180910390a1565b6000600954905090565b600073ffffffffffffffffffffffffffffffffffffffff82169050919050565b6000610721826106f6565b9050919050565b61073181610716565b82525050565b600060208201905061074c6000830184610728565b92915050565b6000604051905090565b600080fd5b600080fd5b6000819050919050565b61077981610766565b811461078457600080fd5b50565b60008135905061079681610770565b92915050565b6000602082840312156107b2576107b161075c565b5b60006107c084828501610787565b91505092915050565b6107d281610766565b82525050565b60006020820190506107ed60008301846107c9565b92915050565b600081519050919050565b600082825260208201905092915050565b60005b8381101561082d578082015181840152602081019050610812565b60008484015250505050565b6000601f19601f8301169050919050565b6000610855826107f3565b61085f81856107fe565b935061086f81856020860161080f565b61087881610839565b840191505092915050565b6000602082019050818103600083015261089d818461084a565b905092915050565b600080fd5b600080fd5b7f4e487b7100000000000000000000000000000000000000000000000000000000600052604160045260246000fd5b6108e782610839565b810181811067ffffffffffffffff82111715610906576109056108af565b5b80604052505050565b6000610919610752565b905061092582826108de565b919050565b600067ffffffffffffffff821115610945576109446108af565b5b61094e82610839565b9050602081019050919050565b82818337600083830152505050565b600061097d6109788461092a565b61090f565b905082815260208101848484011115610999576109986108aa565b5b6109a484828561095b565b509392505050565b600082601f8301126109c1576109c06108a5565b5b81356109d184826020860161096a565b91505092915050565b6000602082840312156109f0576109ef61075c565b5b600082013567ffffffffffffffff811115610a0e57610a0d610761565b5b610a1a848285016109ac565b91505092915050565b6000819050919050565b6000610a48610a43610a3e846106f6565b610a23565b6106f6565b9050919050565b6000610a5a82610a2d565b9050919050565b6000610a6c82610a4f565b9050919050565b610a7c81610a61565b82525050565b6000602082019050610a976000830184610a73565b92915050565b7f4e487b7100000000000000000000000000000000000000000000000000000000600052602260045260246000fd5b60006002820490506001821680610ae457607f821691505b602082108103610af757610af6610a9d565b5b50919050565b60008190508160005260206000209050919050565b60006020601f8301049050919050565b600082821b905092915050565b600060088302610b5f7fffffffffffffffffffffffffffffffffffffffffffffffffffffffffffffffff82610b22565b610b698683610b22565b95508019841693508086168417925050509392505050565b6000610b9c610b97610b9284610766565b610a23565b610766565b9050919050565b6000819050919050565b610bb683610b81565b610bca610bc282610ba3565b848454610b2f565b825550505050565b600090565b610bdf610bd2565b610bea818484610bad565b505050565b5b81811015610c0e57610c03600082610bd7565b600181019050610bf0565b5050565b601f821115610c5357610c2481610afd565b610c2d84610b12565b81016020851015610c3c578190505b610c50610c4885610b12565b830182610bef565b50505b505050565b600082821c905092915050565b6000610c7660001984600802610c58565b1980831691505092915050565b6000610c8f8383610c65565b9150826002028217905092915050565b610ca8826107f3565b67ffffffffffffffff811115610cc157610cc06108af565b5b610ccb8254610acc565b610cd6828285610c12565b600060209050601f831160018114610d095760008415610cf7578287015190505b610d018582610c83565b865550610d69565b601f198416610d1786610afd565b60005b82811015610d3f57848901518255600182019150602085019450602081019050610d1a565b86831015610d5c5784890151610d58601f891682610c65565b8355505b6001600288020188555050505b505050505050565b600081519050610d8081610770565b92915050565b600060208284031215610d9c57610d9b61075c565b5b6000610daa84828501610d71565b91505092915050565b60008154610dc081610acc565b610dca81866107fe565b94506001821660008114610de55760018114610dfb57610e2e565b60ff198316865281151560200286019350610e2e565b610e0485610afd565b60005b83811015610e2657815481890152600182019150602081019050610e07565b808801955050505b50505092915050565b600061016082019050610e4d600083018e610728565b8181036020830152610e5f818d610db3565b90508181036040830152610e73818c610db3565b90508181036060830152610e87818b610db3565b90508181036080830152610e9b818a610db3565b9050610eaa60a08301896107c9565b610eb760c08301886107c9565b610ec460e08301876107c9565b610ed26101008301866107c9565b610ee06101208301856107c9565b610eee6101408301846107c9565b9c9b50505050505050505050505056fea2646970667358221220fd9b021a483bf4381aed2937b6b212155153c2c60642fbd6a5f3c37e0a7ea5db64736f6c63430008160033608060405234801561001057600080fd5b506040516102063803806102068339818101604052810190610032919061007a565b80600081905550506100a7565b600080fd5b6000819050919050565b61005781610044565b811461006257600080fd5b50565b6000815190506100748161004e565b92915050565b6000602082840312156100905761008f61003f565b5b600061009e84828501610065565b91505092915050565b610150806100b66000396000f3fe608060405234801561001057600080fd5b50600436106100365760003560e01c8063992e94fd1461003b578063ed0109a514610057575b600080fd5b610055600480360381019061005091906100c3565b610075565b005b61005f61007f565b60405161006c91906100ff565b60405180910390f35b8060008190555050565b60008054905090565b600080fd5b6000819050919050565b6100a08161008d565b81146100ab57600080fd5b50565b6000813590506100bd81610097565b92915050565b6000602082840312156100d9576100d8610088565b5b60006100e7848285016100ae565b91505092915050565b6100f98161008d565b82525050565b600060208201905061011460008301846100f0565b9291505056fea2646970667358221220adc1caa820653f22f99113d0826ce2d3b938d88594cd9e4d9cdb1649d5b963fa64736f6c63430008160033",
					"opcodes": "PUSH1 0x80 PUSH1 0x40 MSTORE CALLVALUE DUP1 ISZERO PUSH3 0x11 JUMPI PUSH1 0x0 DUP1 REVERT JUMPDEST POP PUSH1 0x40 MLOAD PUSH3 0x19D6 CODESIZE SUB DUP1 PUSH3 0x19D6 DUP4 CODECOPY DUP2 DUP2 ADD PUSH1 0x40 MSTORE DUP2 ADD SWAP1 PUSH3 0x37 SWAP2 SWAP1 PUSH3 0x3AD JUMP JUMPDEST DUP11 PUSH1 0x0 DUP1 PUSH2 0x100 EXP DUP2 SLOAD DUP2 PUSH20 0xFFFFFFFFFFFFFFFFFFFFFFFFFFFFFFFFFFFFFFFF MUL NOT AND SWAP1 DUP4 PUSH20 0xFFFFFFFFFFFFFFFFFFFFFFFFFFFFFFFFFFFFFFFF AND MUL OR SWAP1 SSTORE POP DUP10 PUSH1 0x1 SWAP1 DUP2 PUSH3 0x88 SWAP2 SWAP1 PUSH3 0x777 JUMP JUMPDEST POP DUP9 PUSH1 0x2 SWAP1 DUP2 PUSH3 0x9A SWAP2 SWAP1 PUSH3 0x777 JUMP JUMPDEST POP DUP8 PUSH1 0x3 SWAP1 DUP2 PUSH3 0xAC SWAP2 SWAP1 PUSH3 0x777 JUMP JUMPDEST POP DUP7 PUSH1 0x4 SWAP1 DUP2 PUSH3 0xBE SWAP2 SWAP1 PUSH3 0x777 JUMP JUMPDEST POP DUP6 PUSH1 0x40 MLOAD PUSH3 0xCE SWAP1 PUSH3 0x16C JUMP JUMPDEST PUSH3 0xDA SWAP2 SWAP1 PUSH3 0x86F JUMP JUMPDEST PUSH1 0x40 MLOAD DUP1 SWAP2 SUB SWAP1 PUSH1 0x0 CREATE DUP1 ISZERO DUP1 ISZERO PUSH3 0xF7 JUMPI RETURNDATASIZE PUSH1 0x0 DUP1 RETURNDATACOPY RETURNDATASIZE PUSH1 0x0 REVERT JUMPDEST POP PUSH1 0x5 PUSH1 0x0 PUSH2 0x100 EXP DUP2 SLOAD DUP2 PUSH20 0xFFFFFFFFFFFFFFFFFFFFFFFFFFFFFFFFFFFFFFFF MUL NOT AND SWAP1 DUP4 PUSH20 0xFFFFFFFFFFFFFFFFFFFFFFFFFFFFFFFFFFFFFFFF AND MUL OR SWAP1 SSTORE POP DUP5 PUSH1 0x6 DUP2 SWAP1 SSTORE POP DUP4 PUSH1 0x7 DUP2 SWAP1 SSTORE POP DUP3 PUSH1 0x8 DUP2 SWAP1 SSTORE POP DUP2 PUSH1 0x9 DUP2 SWAP1 SSTORE POP DUP1 PUSH1 0xA DUP2 SWAP1 SSTORE POP POP POP POP POP POP POP POP POP POP POP POP PUSH3 0x88C JUMP JUMPDEST PUSH2 0x206 DUP1 PUSH3 0x17D0 DUP4 CODECOPY ADD SWAP1 JUMP JUMPDEST PUSH1 0x0 PUSH1 0x40 MLOAD SWAP1 POP SWAP1 JUMP JUMPDEST PUSH1 0x0 DUP1 REVERT JUMPDEST PUSH1 0x0 DUP1 REVERT JUMPDEST PUSH1 0x0 PUSH20 0xFFFFFFFFFFFFFFFFFFFFFFFFFFFFFFFFFFFFFFFF DUP3 AND SWAP1 POP SWAP2 SWAP1 POP JUMP JUMPDEST PUSH1 0x0 PUSH3 0x1BB DUP3 PUSH3 0x18E JUMP JUMPDEST SWAP1 POP SWAP2 SWAP1 POP JUMP JUMPDEST PUSH3 0x1CD DUP2 PUSH3 0x1AE JUMP JUMPDEST DUP2 EQ PUSH3 0x1D9 JUMPI PUSH1 0x0 DUP1 REVERT JUMPDEST POP JUMP JUMPDEST PUSH1 0x0 DUP2 MLOAD SWAP1 POP PUSH3 0x1ED DUP2 PUSH3 0x1C2 JUMP JUMPDEST SWAP3 SWAP2 POP POP JUMP JUMPDEST PUSH1 0x0 DUP1 REVERT JUMPDEST PUSH1 0x0 DUP1 REVERT JUMPDEST PUSH1 0x0 PUSH1 0x1F NOT PUSH1 0x1F DUP4 ADD AND SWAP1 POP SWAP2 SWAP1 POP JUMP JUMPDEST PUSH32 0x4E487B7100000000000000000000000000000000000000000000000000000000 PUSH1 0x0 MSTORE PUSH1 0x41 PUSH1 0x4 MSTORE PUSH1 0x24 PUSH1 0x0 REVERT JUMPDEST PUSH3 0x248 DUP3 PUSH3 0x1FD JUMP JUMPDEST DUP2 ADD DUP2 DUP2 LT PUSH8 0xFFFFFFFFFFFFFFFF DUP3 GT OR ISZERO PUSH3 0x26A JUMPI PUSH3 0x269 PUSH3 0x20E JUMP JUMPDEST JUMPDEST DUP1 PUSH1 0x40 MSTORE POP POP POP JUMP JUMPDEST PUSH1 0x0 PUSH3 0x27F PUSH3 0x17A JUMP JUMPDEST SWAP1 POP PUSH3 0x28D DUP3 DUP3 PUSH3 0x23D JUMP JUMPDEST SWAP2 SWAP1 POP JUMP JUMPDEST PUSH1 0x0 PUSH8 0xFFFFFFFFFFFFFFFF DUP3 GT ISZERO PUSH3 0x2B0 JUMPI PUSH3 0x2AF PUSH3 0x20E JUMP JUMPDEST JUMPDEST PUSH3 0x2BB DUP3 PUSH3 0x1FD JUMP JUMPDEST SWAP1 POP PUSH1 0x20 DUP2 ADD SWAP1 POP SWAP2 SWAP1 POP JUMP JUMPDEST PUSH1 0x0 JUMPDEST DUP4 DUP2 LT ISZERO PUSH3 0x2E8 JUMPI DUP1 DUP3 ADD MLOAD DUP2 DUP5 ADD MSTORE PUSH1 0x20 DUP2 ADD SWAP1 POP PUSH3 0x2CB JUMP JUMPDEST PUSH1 0x0 DUP5 DUP5 ADD MSTORE POP POP POP POP JUMP JUMPDEST PUSH1 0x0 PUSH3 0x30B PUSH3 0x305 DUP5 PUSH3 0x292 JUMP JUMPDEST PUSH3 0x273 JUMP JUMPDEST SWAP1 POP DUP3 DUP2 MSTORE PUSH1 0x20 DUP2 ADD DUP5 DUP5 DUP5 ADD GT ISZERO PUSH3 0x32A JUMPI PUSH3 0x329 PUSH3 0x1F8 JUMP JUMPDEST JUMPDEST PUSH3 0x337 DUP5 DUP3 DUP6 PUSH3 0x2C8 JUMP JUMPDEST POP SWAP4 SWAP3 POP POP POP JUMP JUMPDEST PUSH1 0x0 DUP3 PUSH1 0x1F DUP4 ADD SLT PUSH3 0x357 JUMPI PUSH3 0x356 PUSH3 0x1F3 JUMP JUMPDEST JUMPDEST DUP2 MLOAD PUSH3 0x369 DUP5 DUP3 PUSH1 0x20 DUP7 ADD PUSH3 0x2F4 JUMP JUMPDEST SWAP2 POP POP SWAP3 SWAP2 POP POP JUMP JUMPDEST PUSH1 0x0 DUP2 SWAP1 POP SWAP2 SWAP1 POP JUMP JUMPDEST PUSH3 0x387 DUP2 PUSH3 0x372 JUMP JUMPDEST DUP2 EQ PUSH3 0x393 JUMPI PUSH1 0x0 DUP1 REVERT JUMPDEST POP JUMP JUMPDEST PUSH1 0x0 DUP2 MLOAD SWAP1 POP PUSH3 0x3A7 DUP2 PUSH3 0x37C JUMP JUMPDEST SWAP3 SWAP2 POP POP JUMP JUMPDEST PUSH1 0x0 DUP1 PUSH1 0x0 DUP1 PUSH1 0x0 DUP1 PUSH1 0x0 DUP1 PUSH1 0x0 DUP1 PUSH1 0x0 PUSH2 0x160 DUP13 DUP15 SUB SLT ISZERO PUSH3 0x3D6 JUMPI PUSH3 0x3D5 PUSH3 0x184 JUMP JUMPDEST JUMPDEST PUSH1 0x0 PUSH3 0x3E6 DUP15 DUP3 DUP16 ADD PUSH3 0x1DC JUMP JUMPDEST SWAP12 POP POP PUSH1 0x20 DUP13 ADD MLOAD PUSH8 0xFFFFFFFFFFFFFFFF DUP2 GT ISZERO PUSH3 0x40A JUMPI PUSH3 0x409 PUSH3 0x189 JUMP JUMPDEST JUMPDEST PUSH3 0x418 DUP15 DUP3 DUP16 ADD PUSH3 0x33F JUMP JUMPDEST SWAP11 POP POP PUSH1 0x40 DUP13 ADD MLOAD PUSH8 0xFFFFFFFFFFFFFFFF DUP2 GT ISZERO PUSH3 0x43C JUMPI PUSH3 0x43B PUSH3 0x189 JUMP JUMPDEST JUMPDEST PUSH3 0x44A DUP15 DUP3 DUP16 ADD PUSH3 0x33F JUMP JUMPDEST SWAP10 POP POP PUSH1 0x60 DUP13 ADD MLOAD PUSH8 0xFFFFFFFFFFFFFFFF DUP2 GT ISZERO PUSH3 0x46E JUMPI PUSH3 0x46D PUSH3 0x189 JUMP JUMPDEST JUMPDEST PUSH3 0x47C DUP15 DUP3 DUP16 ADD PUSH3 0x33F JUMP JUMPDEST SWAP9 POP POP PUSH1 0x80 DUP13 ADD MLOAD PUSH8 0xFFFFFFFFFFFFFFFF DUP2 GT ISZERO PUSH3 0x4A0 JUMPI PUSH3 0x49F PUSH3 0x189 JUMP JUMPDEST JUMPDEST PUSH3 0x4AE DUP15 DUP3 DUP16 ADD PUSH3 0x33F JUMP JUMPDEST SWAP8 POP POP PUSH1 0xA0 PUSH3 0x4C1 DUP15 DUP3 DUP16 ADD PUSH3 0x396 JUMP JUMPDEST SWAP7 POP POP PUSH1 0xC0 PUSH3 0x4D4 DUP15 DUP3 DUP16 ADD PUSH3 0x396 JUMP JUMPDEST SWAP6 POP POP PUSH1 0xE0 PUSH3 0x4E7 DUP15 DUP3 DUP16 ADD PUSH3 0x396 JUMP JUMPDEST SWAP5 POP POP PUSH2 0x100 PUSH3 0x4FB DUP15 DUP3 DUP16 ADD PUSH3 0x396 JUMP JUMPDEST SWAP4 POP POP PUSH2 0x120 PUSH3 0x50F DUP15 DUP3 DUP16 ADD PUSH3 0x396 JUMP JUMPDEST SWAP3 POP POP PUSH2 0x140 PUSH3 0x523 DUP15 DUP3 DUP16 ADD PUSH3 0x396 JUMP JUMPDEST SWAP2 POP POP SWAP3 SWAP6 SWAP9 SWAP12 POP SWAP3 SWAP6 SWAP9 SWAP12 SWAP1 SWAP4 SWAP7 SWAP10 POP JUMP JUMPDEST PUSH1 0x0 DUP2 MLOAD SWAP1 POP SWAP2 SWAP1 POP JUMP JUMPDEST PUSH32 0x4E487B7100000000000000000000000000000000000000000000000000000000 PUSH1 0x0 MSTORE PUSH1 0x22 PUSH1 0x4 MSTORE PUSH1 0x24 PUSH1 0x0 REVERT JUMPDEST PUSH1 0x0 PUSH1 0x2 DUP3 DIV SWAP1 POP PUSH1 0x1 DUP3 AND DUP1 PUSH3 0x589 JUMPI PUSH1 0x7F DUP3 AND SWAP2 POP JUMPDEST PUSH1 0x20 DUP3 LT DUP2 SUB PUSH3 0x59F JUMPI PUSH3 0x59E PUSH3 0x541 JUMP JUMPDEST JUMPDEST POP SWAP2 SWAP1 POP JUMP JUMPDEST PUSH1 0x0 DUP2 SWAP1 POP DUP2 PUSH1 0x0 MSTORE PUSH1 0x20 PUSH1 0x0 KECCAK256 SWAP1 POP SWAP2 SWAP1 POP JUMP JUMPDEST PUSH1 0x0 PUSH1 0x20 PUSH1 0x1F DUP4 ADD DIV SWAP1 POP SWAP2 SWAP1 POP JUMP JUMPDEST PUSH1 0x0 DUP3 DUP3 SHL SWAP1 POP SWAP3 SWAP2 POP POP JUMP JUMPDEST PUSH1 0x0 PUSH1 0x8 DUP4 MUL PUSH3 0x609 PUSH32 0xFFFFFFFFFFFFFFFFFFFFFFFFFFFFFFFFFFFFFFFFFFFFFFFFFFFFFFFFFFFFFFFF DUP3 PUSH3 0x5CA JUMP JUMPDEST PUSH3 0x615 DUP7 DUP4 PUSH3 0x5CA JUMP JUMPDEST SWAP6 POP DUP1 NOT DUP5 AND SWAP4 POP DUP1 DUP7 AND DUP5 OR SWAP3 POP POP POP SWAP4 SWAP3 POP POP POP JUMP JUMPDEST PUSH1 0x0 DUP2 SWAP1 POP SWAP2 SWAP1 POP JUMP JUMPDEST PUSH1 0x0 PUSH3 0x658 PUSH3 0x652 PUSH3 0x64C DUP5 PUSH3 0x372 JUMP JUMPDEST PUSH3 0x62D JUMP JUMPDEST PUSH3 0x372 JUMP JUMPDEST SWAP1 POP SWAP2 SWAP1 POP JUMP JUMPDEST PUSH1 0x0 DUP2 SWAP1 POP SWAP2 SWAP1 POP JUMP JUMPDEST PUSH3 0x674 DUP4 PUSH3 0x637 JUMP JUMPDEST PUSH3 0x68C PUSH3 0x683 DUP3 PUSH3 0x65F JUMP JUMPDEST DUP5 DUP5 SLOAD PUSH3 0x5D7 JUMP JUMPDEST DUP3 SSTORE POP POP POP POP JUMP JUMPDEST PUSH1 0x0 SWAP1 JUMP JUMPDEST PUSH3 0x6A3 PUSH3 0x694 JUMP JUMPDEST PUSH3 0x6B0 DUP2 DUP5 DUP5 PUSH3 0x669 JUMP JUMPDEST POP POP POP JUMP JUMPDEST JUMPDEST DUP2 DUP2 LT ISZERO PUSH3 0x6D8 JUMPI PUSH3 0x6CC PUSH1 0x0 DUP3 PUSH3 0x699 JUMP JUMPDEST PUSH1 0x1 DUP2 ADD SWAP1 POP PUSH3 0x6B6 JUMP JUMPDEST POP POP JUMP JUMPDEST PUSH1 0x1F DUP3 GT ISZERO PUSH3 0x727 JUMPI PUSH3 0x6F1 DUP2 PUSH3 0x5A5 JUMP JUMPDEST PUSH3 0x6FC DUP5 PUSH3 0x5BA JUMP JUMPDEST DUP2 ADD PUSH1 0x20 DUP6 LT ISZERO PUSH3 0x70C JUMPI DUP2 SWAP1 POP JUMPDEST PUSH3 0x724 PUSH3 0x71B DUP6 PUSH3 0x5BA JUMP JUMPDEST DUP4 ADD DUP3 PUSH3 0x6B5 JUMP JUMPDEST POP POP JUMPDEST POP POP POP JUMP JUMPDEST PUSH1 0x0 DUP3 DUP3 SHR SWAP1 POP SWAP3 SWAP2 POP POP JUMP JUMPDEST PUSH1 0x0 PUSH3 0x74C PUSH1 0x0 NOT DUP5 PUSH1 0x8 MUL PUSH3 0x72C JUMP JUMPDEST NOT DUP1 DUP4 AND SWAP2 POP POP SWAP3 SWAP2 POP POP JUMP JUMPDEST PUSH1 0x0 PUSH3 0x767 DUP4 DUP4 PUSH3 0x739 JUMP JUMPDEST SWAP2 POP DUP3 PUSH1 0x2 MUL DUP3 OR SWAP1 POP SWAP3 SWAP2 POP POP JUMP JUMPDEST PUSH3 0x782 DUP3 PUSH3 0x536 JUMP JUMPDEST PUSH8 0xFFFFFFFFFFFFFFFF DUP2 GT ISZERO PUSH3 0x79E JUMPI PUSH3 0x79D PUSH3 0x20E JUMP JUMPDEST JUMPDEST PUSH3 0x7AA DUP3 SLOAD PUSH3 0x570 JUMP JUMPDEST PUSH3 0x7B7 DUP3 DUP3 DUP6 PUSH3 0x6DC JUMP JUMPDEST PUSH1 0x0 PUSH1 0x20 SWAP1 POP PUSH1 0x1F DUP4 GT PUSH1 0x1 DUP2 EQ PUSH3 0x7EF JUMPI PUSH1 0x0 DUP5 ISZERO PUSH3 0x7DA JUMPI DUP3 DUP8 ADD MLOAD SWAP1 POP JUMPDEST PUSH3 0x7E6 DUP6 DUP3 PUSH3 0x759 JUMP JUMPDEST DUP7 SSTORE POP PUSH3 0x856 JUMP JUMPDEST PUSH1 0x1F NOT DUP5 AND PUSH3 0x7FF DUP7 PUSH3 0x5A5 JUMP JUMPDEST PUSH1 0x0 JUMPDEST DUP3 DUP2 LT ISZERO PUSH3 0x829 JUMPI DUP5 DUP10 ADD MLOAD DUP3 SSTORE PUSH1 0x1 DUP3 ADD SWAP2 POP PUSH1 0x20 DUP6 ADD SWAP5 POP PUSH1 0x20 DUP2 ADD SWAP1 POP PUSH3 0x802 JUMP JUMPDEST DUP7 DUP4 LT ISZERO PUSH3 0x849 JUMPI DUP5 DUP10 ADD MLOAD PUSH3 0x845 PUSH1 0x1F DUP10 AND DUP3 PUSH3 0x739 JUMP JUMPDEST DUP4 SSTORE POP JUMPDEST PUSH1 0x1 PUSH1 0x2 DUP9 MUL ADD DUP9 SSTORE POP POP POP JUMPDEST POP POP POP POP POP POP JUMP JUMPDEST PUSH3 0x869 DUP2 PUSH3 0x372 JUMP JUMPDEST DUP3 MSTORE POP POP JUMP JUMPDEST PUSH1 0x0 PUSH1 0x20 DUP3 ADD SWAP1 POP PUSH3 0x886 PUSH1 0x0 DUP4 ADD DUP5 PUSH3 0x85E JUMP JUMPDEST SWAP3 SWAP2 POP POP JUMP JUMPDEST PUSH2 0xF34 DUP1 PUSH3 0x89C PUSH1 0x0 CODECOPY PUSH1 0x0 RETURN INVALID PUSH1 0x80 PUSH1 0x40 MSTORE CALLVALUE DUP1 ISZERO PUSH2 0x10 JUMPI PUSH1 0x0 DUP1 REVERT JUMPDEST POP PUSH1 0x4 CALLDATASIZE LT PUSH2 0xEA JUMPI PUSH1 0x0 CALLDATALOAD PUSH1 0xE0 SHR DUP1 PUSH4 0x5B087323 GT PUSH2 0x8C JUMPI DUP1 PUSH4 0xC5C340EC GT PUSH2 0x66 JUMPI DUP1 PUSH4 0xC5C340EC EQ PUSH2 0x217 JUMPI DUP1 PUSH4 0xDB4B8B4D EQ PUSH2 0x235 JUMPI DUP1 PUSH4 0xDF752C7E EQ PUSH2 0x253 JUMPI DUP1 PUSH4 0xF4DF9085 EQ PUSH2 0x25D JUMPI PUSH2 0xEA JUMP JUMPDEST DUP1 PUSH4 0x5B087323 EQ PUSH2 0x1BD JUMPI DUP1 PUSH4 0x6A2B4340 EQ PUSH2 0x1DB JUMPI DUP1 PUSH4 0xBD3C3778 EQ PUSH2 0x1F9 JUMPI PUSH2 0xEA JUMP JUMPDEST DUP1 PUSH4 0x3A4564CF GT PUSH2 0xC8 JUMPI DUP1 PUSH4 0x3A4564CF EQ PUSH2 0x147 JUMPI DUP1 PUSH4 0x3A525C29 EQ PUSH2 0x165 JUMPI DUP1 PUSH4 0x3A885968 EQ PUSH2 0x183 JUMPI DUP1 PUSH4 0x438926A5 EQ PUSH2 0x1A1 JUMPI PUSH2 0xEA JUMP JUMPDEST DUP1 PUSH4 0x131222F EQ PUSH2 0xEF JUMPI DUP1 PUSH4 0x1AE6F119 EQ PUSH2 0x10D JUMPI DUP1 PUSH4 0x2BB88237 EQ PUSH2 0x129 JUMPI JUMPDEST PUSH1 0x0 DUP1 REVERT JUMPDEST PUSH2 0xF7 PUSH2 0x27B JUMP JUMPDEST PUSH1 0x40 MLOAD PUSH2 0x104 SWAP2 SWAP1 PUSH2 0x737 JUMP JUMPDEST PUSH1 0x40 MLOAD DUP1 SWAP2 SUB SWAP1 RETURN JUMPDEST PUSH2 0x127 PUSH1 0x4 DUP1 CALLDATASIZE SUB DUP2 ADD SWAP1 PUSH2 0x122 SWAP2 SWAP1 PUSH2 0x79C JUMP JUMPDEST PUSH2 0x2A4 JUMP JUMPDEST STOP JUMPDEST PUSH2 0x131 PUSH2 0x334 JUMP JUMPDEST PUSH1 0x40 MLOAD PUSH2 0x13E SWAP2 SWAP1 PUSH2 0x7D8 JUMP JUMPDEST PUSH1 0x40 MLOAD DUP1 SWAP2 SUB SWAP1 RETURN JUMPDEST PUSH2 0x14F PUSH2 0x33E JUMP JUMPDEST PUSH1 0x40 MLOAD PUSH2 0x15C SWAP2 SWAP1 PUSH2 0x7D8 JUMP JUMPDEST PUSH1 0x40 MLOAD DUP1 SWAP2 SUB SWAP1 RETURN JUMPDEST PUSH2 0x16D PUSH2 0x348 JUMP JUMPDEST PUSH1 0x40 MLOAD PUSH2 0x17A SWAP2 SWAP1 PUSH2 0x883 JUMP JUMPDEST PUSH1 0x40 MLOAD DUP1 SWAP2 SUB SWAP1 RETURN JUMPDEST PUSH2 0x18B PUSH2 0x3DA JUMP JUMPDEST PUSH1 0x40 MLOAD PUSH2 0x198 SWAP2 SWAP1 PUSH2 0x883 JUMP JUMPDEST PUSH1 0x40 MLOAD DUP1 SWAP2 SUB SWAP1 RETURN JUMPDEST PUSH2 0x1BB PUSH1 0x4 DUP1 CALLDATASIZE SUB DUP2 ADD SWAP1 PUSH2 0x1B6 SWAP2 SWAP1 PUSH2 0x9DA JUMP JUMPDEST PUSH2 0x46C JUMP JUMPDEST STOP JUMPDEST PUSH2 0x1C5 PUSH2 0x47F JUMP JUMPDEST PUSH1 0x40 MLOAD PUSH2 0x1D2 SWAP2 SWAP1 PUSH2 0x883 JUMP JUMPDEST PUSH1 0x40 MLOAD DUP1 SWAP2 SUB SWAP1 RETURN JUMPDEST PUSH2 0x1E3 PUSH2 0x511 JUMP JUMPDEST PUSH1 0x40 MLOAD PUSH2 0x1F0 SWAP2 SWAP1 PUSH2 0x7D8 JUMP JUMPDEST PUSH1 0x40 MLOAD DUP1 SWAP2 SUB SWAP1 RETURN JUMPDEST PUSH2 0x201 PUSH2 0x51B JUMP JUMPDEST PUSH1 0x40 MLOAD PUSH2 0x20E SWAP2 SWAP1 PUSH2 0x883 JUMP JUMPDEST PUSH1 0x40 MLOAD DUP1 SWAP2 SUB SWAP1 RETURN JUMPDEST PUSH2 0x21F PUSH2 0x5AD JUMP JUMPDEST PUSH1 0x40 MLOAD PUSH2 0x22C SWAP2 SWAP1 PUSH2 0x7D8 JUMP JUMPDEST PUSH1 0x40 MLOAD DUP1 SWAP2 SUB SWAP1 RETURN JUMPDEST PUSH2 0x23D PUSH2 0x5B7 JUMP JUMPDEST PUSH1 0x40 MLOAD PUSH2 0x24A SWAP2 SWAP1 PUSH2 0xA82 JUMP JUMPDEST PUSH1 0x40 MLOAD DUP1 SWAP2 SUB SWAP1 RETURN JUMPDEST PUSH2 0x25B PUSH2 0x5E1 JUMP JUMPDEST STOP JUMPDEST PUSH2 0x265 PUSH2 0x6EC JUMP JUMPDEST PUSH1 0x40 MLOAD PUSH2 0x272 SWAP2 SWAP1 PUSH2 0x7D8 JUMP JUMPDEST PUSH1 0x40 MLOAD DUP1 SWAP2 SUB SWAP1 RETURN JUMPDEST PUSH1 0x0 DUP1 PUSH1 0x0 SWAP1 SLOAD SWAP1 PUSH2 0x100 EXP SWAP1 DIV PUSH20 0xFFFFFFFFFFFFFFFFFFFFFFFFFFFFFFFFFFFFFFFF AND SWAP1 POP SWAP1 JUMP JUMPDEST PUSH1 0x5 PUSH1 0x0 SWAP1 SLOAD SWAP1 PUSH2 0x100 EXP SWAP1 DIV PUSH20 0xFFFFFFFFFFFFFFFFFFFFFFFFFFFFFFFFFFFFFFFF AND PUSH20 0xFFFFFFFFFFFFFFFFFFFFFFFFFFFFFFFFFFFFFFFF AND PUSH4 0x992E94FD DUP3 PUSH1 0x40 MLOAD DUP3 PUSH4 0xFFFFFFFF AND PUSH1 0xE0 SHL DUP2 MSTORE PUSH1 0x4 ADD PUSH2 0x2FF SWAP2 SWAP1 PUSH2 0x7D8 JUMP JUMPDEST PUSH1 0x0 PUSH1 0x40 MLOAD DUP1 DUP4 SUB DUP2 PUSH1 0x0 DUP8 DUP1 EXTCODESIZE ISZERO DUP1 ISZERO PUSH2 0x319 JUMPI PUSH1 0x0 DUP1 REVERT JUMPDEST POP GAS CALL ISZERO DUP1 ISZERO PUSH2 0x32D JUMPI RETURNDATASIZE PUSH1 0x0 DUP1 RETURNDATACOPY RETURNDATASIZE PUSH1 0x0 REVERT JUMPDEST POP POP POP POP POP JUMP JUMPDEST PUSH1 0x0 PUSH1 0x8 SLOAD SWAP1 POP SWAP1 JUMP JUMPDEST PUSH1 0x0 PUSH1 0x6 SLOAD SWAP1 POP SWAP1 JUMP JUMPDEST PUSH1 0x60 PUSH1 0x2 DUP1 SLOAD PUSH2 0x357 SWAP1 PUSH2 0xACC JUMP JUMPDEST DUP1 PUSH1 0x1F ADD PUSH1 0x20 DUP1 SWAP2 DIV MUL PUSH1 0x20 ADD PUSH1 0x40 MLOAD SWAP1 DUP2 ADD PUSH1 0x40 MSTORE DUP1 SWAP3 SWAP2 SWAP1 DUP2 DUP2 MSTORE PUSH1 0x20 ADD DUP3 DUP1 SLOAD PUSH2 0x383 SWAP1 PUSH2 0xACC JUMP JUMPDEST DUP1 ISZERO PUSH2 0x3D0 JUMPI DUP1 PUSH1 0x1F LT PUSH2 0x3A5 JUMPI PUSH2 0x100 DUP1 DUP4 SLOAD DIV MUL DUP4 MSTORE SWAP2 PUSH1 0x20 ADD SWAP2 PUSH2 0x3D0 JUMP JUMPDEST DUP3 ADD SWAP2 SWAP1 PUSH1 0x0 MSTORE PUSH1 0x20 PUSH1 0x0 KECCAK256 SWAP1 JUMPDEST DUP2 SLOAD DUP2 MSTORE SWAP1 PUSH1 0x1 ADD SWAP1 PUSH1 0x20 ADD DUP1 DUP4 GT PUSH2 0x3B3 JUMPI DUP3 SWAP1 SUB PUSH1 0x1F AND DUP3 ADD SWAP2 JUMPDEST POP POP POP POP POP SWAP1 POP SWAP1 JUMP JUMPDEST PUSH1 0x60 PUSH1 0x1 DUP1 SLOAD PUSH2 0x3E9 SWAP1 PUSH2 0xACC JUMP JUMPDEST DUP1 PUSH1 0x1F ADD PUSH1 0x20 DUP1 SWAP2 DIV MUL PUSH1 0x20 ADD PUSH1 0x40 MLOAD SWAP1 DUP2 ADD PUSH1 0x40 MSTORE DUP1 SWAP3 SWAP2 SWAP1 DUP2 DUP2 MSTORE PUSH1 0x20 ADD DUP3 DUP1 SLOAD PUSH2 0x415 SWAP1 PUSH2 0xACC JUMP JUMPDEST DUP1 ISZERO PUSH2 0x462 JUMPI DUP1 PUSH1 0x1F LT PUSH2 0x437 JUMPI PUSH2 0x100 DUP1 DUP4 SLOAD DIV MUL DUP4 MSTORE SWAP2 PUSH1 0x20 ADD SWAP2 PUSH2 0x462 JUMP JUMPDEST DUP3 ADD SWAP2 SWAP1 PUSH1 0x0 MSTORE PUSH1 0x20 PUSH1 0x0 KECCAK256 SWAP1 JUMPDEST DUP2 SLOAD DUP2 MSTORE SWAP1 PUSH1 0x1 ADD SWAP1 PUSH1 0x20 ADD DUP1 DUP4 GT PUSH2 0x445 JUMPI DUP3 SWAP1 SUB PUSH1 0x1F AND DUP3 ADD SWAP2 JUMPDEST POP POP POP POP POP SWAP1 POP SWAP1 JUMP JUMPDEST DUP1 PUSH1 0x4 SWAP1 DUP2 PUSH2 0x47B SWAP2 SWAP1 PUSH2 0xC9F JUMP JUMPDEST POP POP JUMP JUMPDEST PUSH1 0x60 PUSH1 0x4 DUP1 SLOAD PUSH2 0x48E SWAP1 PUSH2 0xACC JUMP JUMPDEST DUP1 PUSH1 0x1F ADD PUSH1 0x20 DUP1 SWAP2 DIV MUL PUSH1 0x20 ADD PUSH1 0x40 MLOAD SWAP1 DUP2 ADD PUSH1 0x40 MSTORE DUP1 SWAP3 SWAP2 SWAP1 DUP2 DUP2 MSTORE PUSH1 0x20 ADD DUP3 DUP1 SLOAD PUSH2 0x4BA SWAP1 PUSH2 0xACC JUMP JUMPDEST DUP1 ISZERO PUSH2 0x507 JUMPI DUP1 PUSH1 0x1F LT PUSH2 0x4DC JUMPI PUSH2 0x100 DUP1 DUP4 SLOAD DIV MUL DUP4 MSTORE SWAP2 PUSH1 0x20 ADD SWAP2 PUSH2 0x507 JUMP JUMPDEST DUP3 ADD SWAP2 SWAP1 PUSH1 0x0 MSTORE PUSH1 0x20 PUSH1 0x0 KECCAK256 SWAP1 JUMPDEST DUP2 SLOAD DUP2 MSTORE SWAP1 PUSH1 0x1 ADD SWAP1 PUSH1 0x20 ADD DUP1 DUP4 GT PUSH2 0x4EA JUMPI DUP3 SWAP1 SUB PUSH1 0x1F AND DUP3 ADD SWAP2 JUMPDEST POP POP POP POP POP SWAP1 POP SWAP1 JUMP JUMPDEST PUSH1 0x0 PUSH1 0xA SLOAD SWAP1 POP SWAP1 JUMP JUMPDEST PUSH1 0x60 PUSH1 0x3 DUP1 SLOAD PUSH2 0x52A SWAP1 PUSH2 0xACC JUMP JUMPDEST DUP1 PUSH1 0x1F ADD PUSH1 0x20 DUP1 SWAP2 DIV MUL PUSH1 0x20 ADD PUSH1 0x40 MLOAD SWAP1 DUP2 ADD PUSH1 0x40 MSTORE DUP1 SWAP3 SWAP2 SWAP1 DUP2 DUP2 MSTORE PUSH1 0x20 ADD DUP3 DUP1 SLOAD PUSH2 0x556 SWAP1 PUSH2 0xACC JUMP JUMPDEST DUP1 ISZERO PUSH2 0x5A3 JUMPI DUP1 PUSH1 0x1F LT PUSH2 0x578 JUMPI PUSH2 0x100 DUP1 DUP4 SLOAD DIV MUL DUP4 MSTORE SWAP2 PUSH1 0x20 ADD SWAP2 PUSH2 0x5A3 JUMP JUMPDEST DUP3 ADD SWAP2 SWAP1 PUSH1 0x0 MSTORE PUSH1 0x20 PUSH1 0x0 KECCAK256 SWAP1 JUMPDEST DUP2 SLOAD DUP2 MSTORE SWAP1 PUSH1 0x1 ADD SWAP1 PUSH1 0x20 ADD DUP1 DUP4 GT PUSH2 0x586 JUMPI DUP3 SWAP1 SUB PUSH1 0x1F AND DUP3 ADD SWAP2 JUMPDEST POP POP POP POP POP SWAP1 POP SWAP1 JUMP JUMPDEST PUSH1 0x0 PUSH1 0x7 SLOAD SWAP1 POP SWAP1 JUMP JUMPDEST PUSH1 0x0 PUSH1 0x5 PUSH1 0x0 SWAP1 SLOAD SWAP1 PUSH2 0x100 EXP SWAP1 DIV PUSH20 0xFFFFFFFFFFFFFFFFFFFFFFFFFFFFFFFFFFFFFFFF AND SWAP1 POP SWAP1 JUMP JUMPDEST PUSH32 0xFF986EB5F73F3854E5207FE385403C4D281FD7B6BFD7CBDFE61A29F6239C1591 PUSH1 0x0 DUP1 SLOAD SWAP1 PUSH2 0x100 EXP SWAP1 DIV PUSH20 0xFFFFFFFFFFFFFFFFFFFFFFFFFFFFFFFFFFFFFFFF AND PUSH1 0x1 PUSH1 0x2 PUSH1 0x3 PUSH1 0x4 PUSH1 0x5 PUSH1 0x0 SWAP1 SLOAD SWAP1 PUSH2 0x100 EXP SWAP1 DIV PUSH20 0xFFFFFFFFFFFFFFFFFFFFFFFFFFFFFFFFFFFFFFFF AND PUSH20 0xFFFFFFFFFFFFFFFFFFFFFFFFFFFFFFFFFFFFFFFF AND PUSH4 0xED0109A5 PUSH1 0x40 MLOAD DUP2 PUSH4 0xFFFFFFFF AND PUSH1 0xE0 SHL DUP2 MSTORE PUSH1 0x4 ADD PUSH1 0x20 PUSH1 0x40 MLOAD DUP1 DUP4 SUB DUP2 DUP7 GAS STATICCALL ISZERO DUP1 ISZERO PUSH2 0x698 JUMPI RETURNDATASIZE PUSH1 0x0 DUP1 RETURNDATACOPY RETURNDATASIZE PUSH1 0x0 REVERT JUMPDEST POP POP POP POP PUSH1 0x40 MLOAD RETURNDATASIZE PUSH1 0x1F NOT PUSH1 0x1F DUP3 ADD AND DUP3 ADD DUP1 PUSH1 0x40 MSTORE POP DUP2 ADD SWAP1 PUSH2 0x6BC SWAP2 SWAP1 PUSH2 0xD86 JUMP JUMPDEST PUSH1 0x6 SLOAD PUSH1 0x7 SLOAD PUSH1 0x8 SLOAD PUSH1 0x9 SLOAD PUSH1 0xA SLOAD PUSH1 0x40 MLOAD PUSH2 0x6E2 SWAP12 SWAP11 SWAP10 SWAP9 SWAP8 SWAP7 SWAP6 SWAP5 SWAP4 SWAP3 SWAP2 SWAP1 PUSH2 0xE37 JUMP JUMPDEST PUSH1 0x40 MLOAD DUP1 SWAP2 SUB SWAP1 LOG1 JUMP JUMPDEST PUSH1 0x0 PUSH1 0x9 SLOAD SWAP1 POP SWAP1 JUMP JUMPDEST PUSH1 0x0 PUSH20 0xFFFFFFFFFFFFFFFFFFFFFFFFFFFFFFFFFFFFFFFF DUP3 AND SWAP1 POP SWAP2 SWAP1 POP JUMP JUMPDEST PUSH1 0x0 PUSH2 0x721 DUP3 PUSH2 0x6F6 JUMP JUMPDEST SWAP1 POP SWAP2 SWAP1 POP JUMP JUMPDEST PUSH2 0x731 DUP2 PUSH2 0x716 JUMP JUMPDEST DUP3 MSTORE POP POP JUMP JUMPDEST PUSH1 0x0 PUSH1 0x20 DUP3 ADD SWAP1 POP PUSH2 0x74C PUSH1 0x0 DUP4 ADD DUP5 PUSH2 0x728 JUMP JUMPDEST SWAP3 SWAP2 POP POP JUMP JUMPDEST PUSH1 0x0 PUSH1 0x40 MLOAD SWAP1 POP SWAP1 JUMP JUMPDEST PUSH1 0x0 DUP1 REVERT JUMPDEST PUSH1 0x0 DUP1 REVERT JUMPDEST PUSH1 0x0 DUP2 SWAP1 POP SWAP2 SWAP1 POP JUMP JUMPDEST PUSH2 0x779 DUP2 PUSH2 0x766 JUMP JUMPDEST DUP2 EQ PUSH2 0x784 JUMPI PUSH1 0x0 DUP1 REVERT JUMPDEST POP JUMP JUMPDEST PUSH1 0x0 DUP2 CALLDATALOAD SWAP1 POP PUSH2 0x796 DUP2 PUSH2 0x770 JUMP JUMPDEST SWAP3 SWAP2 POP POP JUMP JUMPDEST PUSH1 0x0 PUSH1 0x20 DUP3 DUP5 SUB SLT ISZERO PUSH2 0x7B2 JUMPI PUSH2 0x7B1 PUSH2 0x75C JUMP JUMPDEST JUMPDEST PUSH1 0x0 PUSH2 0x7C0 DUP5 DUP3 DUP6 ADD PUSH2 0x787 JUMP JUMPDEST SWAP2 POP POP SWAP3 SWAP2 POP POP JUMP JUMPDEST PUSH2 0x7D2 DUP2 PUSH2 0x766 JUMP JUMPDEST DUP3 MSTORE POP POP JUMP JUMPDEST PUSH1 0x0 PUSH1 0x20 DUP3 ADD SWAP1 POP PUSH2 0x7ED PUSH1 0x0 DUP4 ADD DUP5 PUSH2 0x7C9 JUMP JUMPDEST SWAP3 SWAP2 POP POP JUMP JUMPDEST PUSH1 0x0 DUP2 MLOAD SWAP1 POP SWAP2 SWAP1 POP JUMP JUMPDEST PUSH1 0x0 DUP3 DUP3 MSTORE PUSH1 0x20 DUP3 ADD SWAP1 POP SWAP3 SWAP2 POP POP JUMP JUMPDEST PUSH1 0x0 JUMPDEST DUP4 DUP2 LT ISZERO PUSH2 0x82D JUMPI DUP1 DUP3 ADD MLOAD DUP2 DUP5 ADD MSTORE PUSH1 0x20 DUP2 ADD SWAP1 POP PUSH2 0x812 JUMP JUMPDEST PUSH1 0x0 DUP5 DUP5 ADD MSTORE POP POP POP POP JUMP JUMPDEST PUSH1 0x0 PUSH1 0x1F NOT PUSH1 0x1F DUP4 ADD AND SWAP1 POP SWAP2 SWAP1 POP JUMP JUMPDEST PUSH1 0x0 PUSH2 0x855 DUP3 PUSH2 0x7F3 JUMP JUMPDEST PUSH2 0x85F DUP2 DUP6 PUSH2 0x7FE JUMP JUMPDEST SWAP4 POP PUSH2 0x86F DUP2 DUP6 PUSH1 0x20 DUP7 ADD PUSH2 0x80F JUMP JUMPDEST PUSH2 0x878 DUP2 PUSH2 0x839 JUMP JUMPDEST DUP5 ADD SWAP2 POP POP SWAP3 SWAP2 POP POP JUMP JUMPDEST PUSH1 0x0 PUSH1 0x20 DUP3 ADD SWAP1 POP DUP2 DUP2 SUB PUSH1 0x0 DUP4 ADD MSTORE PUSH2 0x89D DUP2 DUP5 PUSH2 0x84A JUMP JUMPDEST SWAP1 POP SWAP3 SWAP2 POP POP JUMP JUMPDEST PUSH1 0x0 DUP1 REVERT JUMPDEST PUSH1 0x0 DUP1 REVERT JUMPDEST PUSH32 0x4E487B7100000000000000000000000000000000000000000000000000000000 PUSH1 0x0 MSTORE PUSH1 0x41 PUSH1 0x4 MSTORE PUSH1 0x24 PUSH1 0x0 REVERT JUMPDEST PUSH2 0x8E7 DUP3 PUSH2 0x839 JUMP JUMPDEST DUP2 ADD DUP2 DUP2 LT PUSH8 0xFFFFFFFFFFFFFFFF DUP3 GT OR ISZERO PUSH2 0x906 JUMPI PUSH2 0x905 PUSH2 0x8AF JUMP JUMPDEST JUMPDEST DUP1 PUSH1 0x40 MSTORE POP POP POP JUMP JUMPDEST PUSH1 0x0 PUSH2 0x919 PUSH2 0x752 JUMP JUMPDEST SWAP1 POP PUSH2 0x925 DUP3 DUP3 PUSH2 0x8DE JUMP JUMPDEST SWAP2 SWAP1 POP JUMP JUMPDEST PUSH1 0x0 PUSH8 0xFFFFFFFFFFFFFFFF DUP3 GT ISZERO PUSH2 0x945 JUMPI PUSH2 0x944 PUSH2 0x8AF JUMP JUMPDEST JUMPDEST PUSH2 0x94E DUP3 PUSH2 0x839 JUMP JUMPDEST SWAP1 POP PUSH1 0x20 DUP2 ADD SWAP1 POP SWAP2 SWAP1 POP JUMP JUMPDEST DUP3 DUP2 DUP4 CALLDATACOPY PUSH1 0x0 DUP4 DUP4 ADD MSTORE POP POP POP JUMP JUMPDEST PUSH1 0x0 PUSH2 0x97D PUSH2 0x978 DUP5 PUSH2 0x92A JUMP JUMPDEST PUSH2 0x90F JUMP JUMPDEST SWAP1 POP DUP3 DUP2 MSTORE PUSH1 0x20 DUP2 ADD DUP5 DUP5 DUP5 ADD GT ISZERO PUSH2 0x999 JUMPI PUSH2 0x998 PUSH2 0x8AA JUMP JUMPDEST JUMPDEST PUSH2 0x9A4 DUP5 DUP3 DUP6 PUSH2 0x95B JUMP JUMPDEST POP SWAP4 SWAP3 POP POP POP JUMP JUMPDEST PUSH1 0x0 DUP3 PUSH1 0x1F DUP4 ADD SLT PUSH2 0x9C1 JUMPI PUSH2 0x9C0 PUSH2 0x8A5 JUMP JUMPDEST JUMPDEST DUP2 CALLDATALOAD PUSH2 0x9D1 DUP5 DUP3 PUSH1 0x20 DUP7 ADD PUSH2 0x96A JUMP JUMPDEST SWAP2 POP POP SWAP3 SWAP2 POP POP JUMP JUMPDEST PUSH1 0x0 PUSH1 0x20 DUP3 DUP5 SUB SLT ISZERO PUSH2 0x9F0 JUMPI PUSH2 0x9EF PUSH2 0x75C JUMP JUMPDEST JUMPDEST PUSH1 0x0 DUP3 ADD CALLDATALOAD PUSH8 0xFFFFFFFFFFFFFFFF DUP2 GT ISZERO PUSH2 0xA0E JUMPI PUSH2 0xA0D PUSH2 0x761 JUMP JUMPDEST JUMPDEST PUSH2 0xA1A DUP5 DUP3 DUP6 ADD PUSH2 0x9AC JUMP JUMPDEST SWAP2 POP POP SWAP3 SWAP2 POP POP JUMP JUMPDEST PUSH1 0x0 DUP2 SWAP1 POP SWAP2 SWAP1 POP JUMP JUMPDEST PUSH1 0x0 PUSH2 0xA48 PUSH2 0xA43 PUSH2 0xA3E DUP5 PUSH2 0x6F6 JUMP JUMPDEST PUSH2 0xA23 JUMP JUMPDEST PUSH2 0x6F6 JUMP JUMPDEST SWAP1 POP SWAP2 SWAP1 POP JUMP JUMPDEST PUSH1 0x0 PUSH2 0xA5A DUP3 PUSH2 0xA2D JUMP JUMPDEST SWAP1 POP SWAP2 SWAP1 POP JUMP JUMPDEST PUSH1 0x0 PUSH2 0xA6C DUP3 PUSH2 0xA4F JUMP JUMPDEST SWAP1 POP SWAP2 SWAP1 POP JUMP JUMPDEST PUSH2 0xA7C DUP2 PUSH2 0xA61 JUMP JUMPDEST DUP3 MSTORE POP POP JUMP JUMPDEST PUSH1 0x0 PUSH1 0x20 DUP3 ADD SWAP1 POP PUSH2 0xA97 PUSH1 0x0 DUP4 ADD DUP5 PUSH2 0xA73 JUMP JUMPDEST SWAP3 SWAP2 POP POP JUMP JUMPDEST PUSH32 0x4E487B7100000000000000000000000000000000000000000000000000000000 PUSH1 0x0 MSTORE PUSH1 0x22 PUSH1 0x4 MSTORE PUSH1 0x24 PUSH1 0x0 REVERT JUMPDEST PUSH1 0x0 PUSH1 0x2 DUP3 DIV SWAP1 POP PUSH1 0x1 DUP3 AND DUP1 PUSH2 0xAE4 JUMPI PUSH1 0x7F DUP3 AND SWAP2 POP JUMPDEST PUSH1 0x20 DUP3 LT DUP2 SUB PUSH2 0xAF7 JUMPI PUSH2 0xAF6 PUSH2 0xA9D JUMP JUMPDEST JUMPDEST POP SWAP2 SWAP1 POP JUMP JUMPDEST PUSH1 0x0 DUP2 SWAP1 POP DUP2 PUSH1 0x0 MSTORE PUSH1 0x20 PUSH1 0x0 KECCAK256 SWAP1 POP SWAP2 SWAP1 POP JUMP JUMPDEST PUSH1 0x0 PUSH1 0x20 PUSH1 0x1F DUP4 ADD DIV SWAP1 POP SWAP2 SWAP1 POP JUMP JUMPDEST PUSH1 0x0 DUP3 DUP3 SHL SWAP1 POP SWAP3 SWAP2 POP POP JUMP JUMPDEST PUSH1 0x0 PUSH1 0x8 DUP4 MUL PUSH2 0xB5F PUSH32 0xFFFFFFFFFFFFFFFFFFFFFFFFFFFFFFFFFFFFFFFFFFFFFFFFFFFFFFFFFFFFFFFF DUP3 PUSH2 0xB22 JUMP JUMPDEST PUSH2 0xB69 DUP7 DUP4 PUSH2 0xB22 JUMP JUMPDEST SWAP6 POP DUP1 NOT DUP5 AND SWAP4 POP DUP1 DUP7 AND DUP5 OR SWAP3 POP POP POP SWAP4 SWAP3 POP POP POP JUMP JUMPDEST PUSH1 0x0 PUSH2 0xB9C PUSH2 0xB97 PUSH2 0xB92 DUP5 PUSH2 0x766 JUMP JUMPDEST PUSH2 0xA23 JUMP JUMPDEST PUSH2 0x766 JUMP JUMPDEST SWAP1 POP SWAP2 SWAP1 POP JUMP JUMPDEST PUSH1 0x0 DUP2 SWAP1 POP SWAP2 SWAP1 POP JUMP JUMPDEST PUSH2 0xBB6 DUP4 PUSH2 0xB81 JUMP JUMPDEST PUSH2 0xBCA PUSH2 0xBC2 DUP3 PUSH2 0xBA3 JUMP JUMPDEST DUP5 DUP5 SLOAD PUSH2 0xB2F JUMP JUMPDEST DUP3 SSTORE POP POP POP POP JUMP JUMPDEST PUSH1 0x0 SWAP1 JUMP JUMPDEST PUSH2 0xBDF PUSH2 0xBD2 JUMP JUMPDEST PUSH2 0xBEA DUP2 DUP5 DUP5 PUSH2 0xBAD JUMP JUMPDEST POP POP POP JUMP JUMPDEST JUMPDEST DUP2 DUP2 LT ISZERO PUSH2 0xC0E JUMPI PUSH2 0xC03 PUSH1 0x0 DUP3 PUSH2 0xBD7 JUMP JUMPDEST PUSH1 0x1 DUP2 ADD SWAP1 POP PUSH2 0xBF0 JUMP JUMPDEST POP POP JUMP JUMPDEST PUSH1 0x1F DUP3 GT ISZERO PUSH2 0xC53 JUMPI PUSH2 0xC24 DUP2 PUSH2 0xAFD JUMP JUMPDEST PUSH2 0xC2D DUP5 PUSH2 0xB12 JUMP JUMPDEST DUP2 ADD PUSH1 0x20 DUP6 LT ISZERO PUSH2 0xC3C JUMPI DUP2 SWAP1 POP JUMPDEST PUSH2 0xC50 PUSH2 0xC48 DUP6 PUSH2 0xB12 JUMP JUMPDEST DUP4 ADD DUP3 PUSH2 0xBEF JUMP JUMPDEST POP POP JUMPDEST POP POP POP JUMP JUMPDEST PUSH1 0x0 DUP3 DUP3 SHR SWAP1 POP SWAP3 SWAP2 POP POP JUMP JUMPDEST PUSH1 0x0 PUSH2 0xC76 PUSH1 0x0 NOT DUP5 PUSH1 0x8 MUL PUSH2 0xC58 JUMP JUMPDEST NOT DUP1 DUP4 AND SWAP2 POP POP SWAP3 SWAP2 POP POP JUMP JUMPDEST PUSH1 0x0 PUSH2 0xC8F DUP4 DUP4 PUSH2 0xC65 JUMP JUMPDEST SWAP2 POP DUP3 PUSH1 0x2 MUL DUP3 OR SWAP1 POP SWAP3 SWAP2 POP POP JUMP JUMPDEST PUSH2 0xCA8 DUP3 PUSH2 0x7F3 JUMP JUMPDEST PUSH8 0xFFFFFFFFFFFFFFFF DUP2 GT ISZERO PUSH2 0xCC1 JUMPI PUSH2 0xCC0 PUSH2 0x8AF JUMP JUMPDEST JUMPDEST PUSH2 0xCCB DUP3 SLOAD PUSH2 0xACC JUMP JUMPDEST PUSH2 0xCD6 DUP3 DUP3 DUP6 PUSH2 0xC12 JUMP JUMPDEST PUSH1 0x0 PUSH1 0x20 SWAP1 POP PUSH1 0x1F DUP4 GT PUSH1 0x1 DUP2 EQ PUSH2 0xD09 JUMPI PUSH1 0x0 DUP5 ISZERO PUSH2 0xCF7 JUMPI DUP3 DUP8 ADD MLOAD SWAP1 POP JUMPDEST PUSH2 0xD01 DUP6 DUP3 PUSH2 0xC83 JUMP JUMPDEST DUP7 SSTORE POP PUSH2 0xD69 JUMP JUMPDEST PUSH1 0x1F NOT DUP5 AND PUSH2 0xD17 DUP7 PUSH2 0xAFD JUMP JUMPDEST PUSH1 0x0 JUMPDEST DUP3 DUP2 LT ISZERO PUSH2 0xD3F JUMPI DUP5 DUP10 ADD MLOAD DUP3 SSTORE PUSH1 0x1 DUP3 ADD SWAP2 POP PUSH1 0x20 DUP6 ADD SWAP5 POP PUSH1 0x20 DUP2 ADD SWAP1 POP PUSH2 0xD1A JUMP JUMPDEST DUP7 DUP4 LT ISZERO PUSH2 0xD5C JUMPI DUP5 DUP10 ADD MLOAD PUSH2 0xD58 PUSH1 0x1F DUP10 AND DUP3 PUSH2 0xC65 JUMP JUMPDEST DUP4 SSTORE POP JUMPDEST PUSH1 0x1 PUSH1 0x2 DUP9 MUL ADD DUP9 SSTORE POP POP POP JUMPDEST POP POP POP POP POP POP JUMP JUMPDEST PUSH1 0x0 DUP2 MLOAD SWAP1 POP PUSH2 0xD80 DUP2 PUSH2 0x770 JUMP JUMPDEST SWAP3 SWAP2 POP POP JUMP JUMPDEST PUSH1 0x0 PUSH1 0x20 DUP3 DUP5 SUB SLT ISZERO PUSH2 0xD9C JUMPI PUSH2 0xD9B PUSH2 0x75C JUMP JUMPDEST JUMPDEST PUSH1 0x0 PUSH2 0xDAA DUP5 DUP3 DUP6 ADD PUSH2 0xD71 JUMP JUMPDEST SWAP2 POP POP SWAP3 SWAP2 POP POP JUMP JUMPDEST PUSH1 0x0 DUP2 SLOAD PUSH2 0xDC0 DUP2 PUSH2 0xACC JUMP JUMPDEST PUSH2 0xDCA DUP2 DUP7 PUSH2 0x7FE JUMP JUMPDEST SWAP5 POP PUSH1 0x1 DUP3 AND PUSH1 0x0 DUP2 EQ PUSH2 0xDE5 JUMPI PUSH1 0x1 DUP2 EQ PUSH2 0xDFB JUMPI PUSH2 0xE2E JUMP JUMPDEST PUSH1 0xFF NOT DUP4 AND DUP7 MSTORE DUP2 ISZERO ISZERO PUSH1 0x20 MUL DUP7 ADD SWAP4 POP PUSH2 0xE2E JUMP JUMPDEST PUSH2 0xE04 DUP6 PUSH2 0xAFD JUMP JUMPDEST PUSH1 0x0 JUMPDEST DUP4 DUP2 LT ISZERO PUSH2 0xE26 JUMPI DUP2 SLOAD DUP2 DUP10 ADD MSTORE PUSH1 0x1 DUP3 ADD SWAP2 POP PUSH1 0x20 DUP2 ADD SWAP1 POP PUSH2 0xE07 JUMP JUMPDEST DUP1 DUP9 ADD SWAP6 POP POP POP JUMPDEST POP POP POP SWAP3 SWAP2 POP POP JUMP JUMPDEST PUSH1 0x0 PUSH2 0x160 DUP3 ADD SWAP1 POP PUSH2 0xE4D PUSH1 0x0 DUP4 ADD DUP15 PUSH2 0x728 JUMP JUMPDEST DUP2 DUP2 SUB PUSH1 0x20 DUP4 ADD MSTORE PUSH2 0xE5F DUP2 DUP14 PUSH2 0xDB3 JUMP JUMPDEST SWAP1 POP DUP2 DUP2 SUB PUSH1 0x40 DUP4 ADD MSTORE PUSH2 0xE73 DUP2 DUP13 PUSH2 0xDB3 JUMP JUMPDEST SWAP1 POP DUP2 DUP2 SUB PUSH1 0x60 DUP4 ADD MSTORE PUSH2 0xE87 DUP2 DUP12 PUSH2 0xDB3 JUMP JUMPDEST SWAP1 POP DUP2 DUP2 SUB PUSH1 0x80 DUP4 ADD MSTORE PUSH2 0xE9B DUP2 DUP11 PUSH2 0xDB3 JUMP JUMPDEST SWAP1 POP PUSH2 0xEAA PUSH1 0xA0 DUP4 ADD DUP10 PUSH2 0x7C9 JUMP JUMPDEST PUSH2 0xEB7 PUSH1 0xC0 DUP4 ADD DUP9 PUSH2 0x7C9 JUMP JUMPDEST PUSH2 0xEC4 PUSH1 0xE0 DUP4 ADD DUP8 PUSH2 0x7C9 JUMP JUMPDEST PUSH2 0xED2 PUSH2 0x100 DUP4 ADD DUP7 PUSH2 0x7C9 JUMP JUMPDEST PUSH2 0xEE0 PUSH2 0x120 DUP4 ADD DUP6 PUSH2 0x7C9 JUMP JUMPDEST PUSH2 0xEEE PUSH2 0x140 DUP4 ADD DUP5 PUSH2 0x7C9 JUMP JUMPDEST SWAP13 SWAP12 POP POP POP POP POP POP POP POP POP POP POP POP JUMP INVALID LOG2 PUSH5 0x6970667358 0x22 SLT KECCAK256 REVERT SWAP12 MUL BYTE BASEFEE EXTCODESIZE DELEGATECALL CODESIZE BYTE 0xED 0x29 CALLDATACOPY 0xB6 0xB2 SLT ISZERO MLOAD MSTORE8 0xC2 0xC6 MOD TIMESTAMP 0xFB 0xD6 0xA5 RETURN 0xC3 PUSH31 0xA7EA5DB64736F6C63430008160033608060405234801561001057600080FD JUMPDEST POP PUSH1 0x40 MLOAD PUSH2 0x206 CODESIZE SUB DUP1 PUSH2 0x206 DUP4 CODECOPY DUP2 DUP2 ADD PUSH1 0x40 MSTORE DUP2 ADD SWAP1 PUSH2 0x32 SWAP2 SWAP1 PUSH2 0x7A JUMP JUMPDEST DUP1 PUSH1 0x0 DUP2 SWAP1 SSTORE POP POP PUSH2 0xA7 JUMP JUMPDEST PUSH1 0x0 DUP1 REVERT JUMPDEST PUSH1 0x0 DUP2 SWAP1 POP SWAP2 SWAP1 POP JUMP JUMPDEST PUSH2 0x57 DUP2 PUSH2 0x44 JUMP JUMPDEST DUP2 EQ PUSH2 0x62 JUMPI PUSH1 0x0 DUP1 REVERT JUMPDEST POP JUMP JUMPDEST PUSH1 0x0 DUP2 MLOAD SWAP1 POP PUSH2 0x74 DUP2 PUSH2 0x4E JUMP JUMPDEST SWAP3 SWAP2 POP POP JUMP JUMPDEST PUSH1 0x0 PUSH1 0x20 DUP3 DUP5 SUB SLT ISZERO PUSH2 0x90 JUMPI PUSH2 0x8F PUSH2 0x3F JUMP JUMPDEST JUMPDEST PUSH1 0x0 PUSH2 0x9E DUP5 DUP3 DUP6 ADD PUSH2 0x65 JUMP JUMPDEST SWAP2 POP POP SWAP3 SWAP2 POP POP JUMP JUMPDEST PUSH2 0x150 DUP1 PUSH2 0xB6 PUSH1 0x0 CODECOPY PUSH1 0x0 RETURN INVALID PUSH1 0x80 PUSH1 0x40 MSTORE CALLVALUE DUP1 ISZERO PUSH2 0x10 JUMPI PUSH1 0x0 DUP1 REVERT JUMPDEST POP PUSH1 0x4 CALLDATASIZE LT PUSH2 0x36 JUMPI PUSH1 0x0 CALLDATALOAD PUSH1 0xE0 SHR DUP1 PUSH4 0x992E94FD EQ PUSH2 0x3B JUMPI DUP1 PUSH4 0xED0109A5 EQ PUSH2 0x57 JUMPI JUMPDEST PUSH1 0x0 DUP1 REVERT JUMPDEST PUSH2 0x55 PUSH1 0x4 DUP1 CALLDATASIZE SUB DUP2 ADD SWAP1 PUSH2 0x50 SWAP2 SWAP1 PUSH2 0xC3 JUMP JUMPDEST PUSH2 0x75 JUMP JUMPDEST STOP JUMPDEST PUSH2 0x5F PUSH2 0x7F JUMP JUMPDEST PUSH1 0x40 MLOAD PUSH2 0x6C SWAP2 SWAP1 PUSH2 0xFF JUMP JUMPDEST PUSH1 0x40 MLOAD DUP1 SWAP2 SUB SWAP1 RETURN JUMPDEST DUP1 PUSH1 0x0 DUP2 SWAP1 SSTORE POP POP JUMP JUMPDEST PUSH1 0x0 DUP1 SLOAD SWAP1 POP SWAP1 JUMP JUMPDEST PUSH1 0x0 DUP1 REVERT JUMPDEST PUSH1 0x0 DUP2 SWAP1 POP SWAP2 SWAP1 POP JUMP JUMPDEST PUSH2 0xA0 DUP2 PUSH2 0x8D JUMP JUMPDEST DUP2 EQ PUSH2 0xAB JUMPI PUSH1 0x0 DUP1 REVERT JUMPDEST POP JUMP JUMPDEST PUSH1 0x0 DUP2 CALLDATALOAD SWAP1 POP PUSH2 0xBD DUP2 PUSH2 0x97 JUMP JUMPDEST SWAP3 SWAP2 POP POP JUMP JUMPDEST PUSH1 0x0 PUSH1 0x20 DUP3 DUP5 SUB SLT ISZERO PUSH2 0xD9 JUMPI PUSH2 0xD8 PUSH2 0x88 JUMP JUMPDEST JUMPDEST PUSH1 0x0 PUSH2 0xE7 DUP5 DUP3 DUP6 ADD PUSH2 0xAE JUMP JUMPDEST SWAP2 POP POP SWAP3 SWAP2 POP POP JUMP JUMPDEST PUSH2 0xF9 DUP2 PUSH2 0x8D JUMP JUMPDEST DUP3 MSTORE POP POP JUMP JUMPDEST PUSH1 0x0 PUSH1 0x20 DUP3 ADD SWAP1 POP PUSH2 0x114 PUSH1 0x0 DUP4 ADD DUP5 PUSH2 0xF0 JUMP JUMPDEST SWAP3 SWAP2 POP POP JUMP INVALID LOG2 PUSH5 0x6970667358 0x22 SLT KECCAK256 0xAD 0xC1 0xCA 0xA8 KECCAK256 PUSH6 0x3F22F99113D0 DUP3 PUSH13 0xE2D3B938D88594CD9E4D9CDB16 0x49 0xD5 0xB9 PUSH4 0xFA64736F PUSH13 0x63430008160033000000000000 "
				},
				"gasEstimates": {
					"creation": {
						"codeDepositCost": "778400",
						"executionCost": "infinite",
						"totalCost": "infinite"
					},
					"external": {
						"get_address()": "2546",
						"get_annual_demand()": "2460",
						"get_cost_to_place_and_process_order()": "2525",
						"get_days_open()": "2459",
						"get_delivery_days()": "2505",
						"get_holding_cost()": "2482",
						"get_inventory()": "infinite",
						"get_name()": "infinite",
						"get_national_id()": "infinite",
						"get_region()": "infinite",
						"get_type()": "infinite",
						"set_inventory(uint256)": "infinite",
						"set_national_id(string)": "infinite",
						"show_actor_details()": "infinite"
					}
				},
				"methodIdentifiers": {
					"get_address()": "0131222f",
					"get_annual_demand()": "3a4564cf",
					"get_cost_to_place_and_process_order()": "f4df9085",
					"get_days_open()": "c5c340ec",
					"get_delivery_days()": "2bb88237",
					"get_holding_cost()": "6a2b4340",
					"get_inventory()": "db4b8b4d",
					"get_name()": "3a525c29",
					"get_national_id()": "5b087323",
					"get_region()": "bd3c3778",
					"get_type()": "3a885968",
					"set_inventory(uint256)": "1ae6f119",
					"set_national_id(string)": "438926a5",
					"show_actor_details()": "df752c7e"
				}
			},
			"storageLayout": {
				"storage": [
					{
						"astId": 4,
						"contract": "contracts/actor.sol:Actor",
						"label": "actor_address",
						"offset": 0,
						"slot": "0",
						"type": "t_address"
					},
					{
						"astId": 6,
						"contract": "contracts/actor.sol:Actor",
						"label": "actor_type",
						"offset": 0,
						"slot": "1",
						"type": "t_string_storage"
					},
					{
						"astId": 8,
						"contract": "contracts/actor.sol:Actor",
						"label": "actor_name",
						"offset": 0,
						"slot": "2",
						"type": "t_string_storage"
					},
					{
						"astId": 10,
						"contract": "contracts/actor.sol:Actor",
						"label": "actor_region",
						"offset": 0,
						"slot": "3",
						"type": "t_string_storage"
					},
					{
						"astId": 12,
						"contract": "contracts/actor.sol:Actor",
						"label": "actor_national_id",
						"offset": 0,
						"slot": "4",
						"type": "t_string_storage"
					},
					{
						"astId": 15,
						"contract": "contracts/actor.sol:Actor",
						"label": "inventory",
						"offset": 0,
						"slot": "5",
						"type": "t_contract(Inventory)288"
					},
					{
						"astId": 17,
						"contract": "contracts/actor.sol:Actor",
						"label": "annual_demand",
						"offset": 0,
						"slot": "6",
						"type": "t_uint256"
					},
					{
						"astId": 19,
						"contract": "contracts/actor.sol:Actor",
						"label": "days_open",
						"offset": 0,
						"slot": "7",
						"type": "t_uint256"
					},
					{
						"astId": 21,
						"contract": "contracts/actor.sol:Actor",
						"label": "delivery_days",
						"offset": 0,
						"slot": "8",
						"type": "t_uint256"
					},
					{
						"astId": 23,
						"contract": "contracts/actor.sol:Actor",
						"label": "cost_to_place_and_process",
						"offset": 0,
						"slot": "9",
						"type": "t_uint256"
					},
					{
						"astId": 25,
						"contract": "contracts/actor.sol:Actor",
						"label": "holding_cost",
						"offset": 0,
						"slot": "10",
						"type": "t_uint256"
					}
				],
				"types": {
					"t_address": {
						"encoding": "inplace",
						"label": "address",
						"numberOfBytes": "20"
					},
					"t_contract(Inventory)288": {
						"encoding": "inplace",
						"label": "contract Inventory",
						"numberOfBytes": "20"
					},
					"t_string_storage": {
						"encoding": "bytes",
						"label": "string",
						"numberOfBytes": "32"
					},
					"t_uint256": {
						"encoding": "inplace",
						"label": "uint256",
						"numberOfBytes": "32"
					}
				}
			},
			"userdoc": {
				"kind": "user",
				"methods": {},
				"version": 1
			}
		}
	}
}