{
	"contracts/transfer_ether.sol": {
		"TransferEther": {
			"abi": [
				{
					"anonymous": false,
					"inputs": [
						{
							"indexed": false,
							"internalType": "uint256",
							"name": "balance",
							"type": "uint256"
						}
					],
					"name": "event_show_balance",
					"type": "event"
				},
				{
					"anonymous": false,
					"inputs": [
						{
							"indexed": false,
							"internalType": "address payable",
							"name": "sender",
							"type": "address"
						},
						{
							"indexed": false,
							"internalType": "address payable",
							"name": "recipient",
							"type": "address"
						},
						{
							"indexed": false,
							"internalType": "uint256",
							"name": "amount",
							"type": "uint256"
						}
					],
					"name": "event_show_payment",
					"type": "event"
				},
				{
					"inputs": [
						{
							"internalType": "address payable",
							"name": "sender",
							"type": "address"
						},
						{
							"internalType": "address payable",
							"name": "recipient",
							"type": "address"
						}
					],
					"name": "transferEther",
					"outputs": [],
					"stateMutability": "payable",
					"type": "function"
				},
				{
					"stateMutability": "payable",
					"type": "receive"
				}
			],
			"devdoc": {
				"kind": "dev",
				"methods": {},
				"version": 1
			},
			"evm": {
				"assembly": "    /* \"contracts/transfer_ether.sol\":29:715  contract TransferEther {... */\n  mstore(0x40, 0x80)\n  callvalue\n  dup1\n  iszero\n  tag_1\n  jumpi\n  0x00\n  dup1\n  revert\ntag_1:\n  pop\n  dataSize(sub_0)\n  dup1\n  dataOffset(sub_0)\n  0x00\n  codecopy\n  0x00\n  return\nstop\n\nsub_0: assembly {\n        /* \"contracts/transfer_ether.sol\":29:715  contract TransferEther {... */\n      mstore(0x40, 0x80)\n      jumpi(tag_1, lt(calldatasize, 0x04))\n      shr(0xe0, calldataload(0x00))\n      dup1\n      0x72a2f7ac\n      eq\n      tag_3\n      jumpi\n      jump(tag_2)\n    tag_1:\n      jumpi(tag_2, calldatasize)\n      stop\n    tag_2:\n      0x00\n      dup1\n      revert\n        /* \"contracts/transfer_ether.sol\":242:712  function transferEther(address payable sender, address payable recipient) public payable{... */\n    tag_3:\n      tag_6\n      0x04\n      dup1\n      calldatasize\n      sub\n      dup2\n      add\n      swap1\n      tag_7\n      swap2\n      swap1\n      tag_8\n      jump\t// in\n    tag_7:\n      tag_9\n      jump\t// in\n    tag_6:\n      stop\n    tag_9:\n        /* \"contracts/transfer_ether.sol\":337:348  uint amount */\n      0x00\n        /* \"contracts/transfer_ether.sol\":351:360  msg.value */\n      callvalue\n        /* \"contracts/transfer_ether.sol\":337:360  uint amount = msg.value */\n      swap1\n      pop\n        /* \"contracts/transfer_ether.sol\":393:399  amount */\n      dup1\n        /* \"contracts/transfer_ether.sol\":375:381  sender */\n      dup4\n        /* \"contracts/transfer_ether.sol\":375:389  sender.balance */\n      0xffffffffffffffffffffffffffffffffffffffff\n      and\n      balance\n        /* \"contracts/transfer_ether.sol\":375:399  sender.balance >= amount */\n      lt\n      iszero\n        /* \"contracts/transfer_ether.sol\":367:400  require(sender.balance >= amount) */\n      tag_11\n      jumpi\n      0x00\n      dup1\n      revert\n    tag_11:\n        /* \"contracts/transfer_ether.sol\":412:453  event_show_balance(address(this).balance) */\n      0x7397cb07442b63dbcf09c0999c0b87751f363b70bc43fc7fad594b4739eedb\n        /* \"contracts/transfer_ether.sol\":431:452  address(this).balance */\n      selfbalance\n        /* \"contracts/transfer_ether.sol\":412:453  event_show_balance(address(this).balance) */\n      mload(0x40)\n      tag_12\n      swap2\n      swap1\n      tag_13\n      jump\t// in\n    tag_12:\n      mload(0x40)\n      dup1\n      swap2\n      sub\n      swap1\n      log1\n        /* \"contracts/transfer_ether.sol\":465:499  event_show_balance(sender.balance) */\n      0x7397cb07442b63dbcf09c0999c0b87751f363b70bc43fc7fad594b4739eedb\n        /* \"contracts/transfer_ether.sol\":484:490  sender */\n      dup4\n        /* \"contracts/transfer_ether.sol\":484:498  sender.balance */\n      0xffffffffffffffffffffffffffffffffffffffff\n      and\n      balance\n        /* \"contracts/transfer_ether.sol\":465:499  event_show_balance(sender.balance) */\n      mload(0x40)\n      tag_14\n      swap2\n      swap1\n      tag_13\n      jump\t// in\n    tag_14:\n      mload(0x40)\n      dup1\n      swap2\n      sub\n      swap1\n      log1\n        /* \"contracts/transfer_ether.sol\":511:548  event_show_balance(recipient.balance) */\n      0x7397cb07442b63dbcf09c0999c0b87751f363b70bc43fc7fad594b4739eedb\n        /* \"contracts/transfer_ether.sol\":530:539  recipient */\n      dup3\n        /* \"contracts/transfer_ether.sol\":530:547  recipient.balance */\n      0xffffffffffffffffffffffffffffffffffffffff\n      and\n      balance\n        /* \"contracts/transfer_ether.sol\":511:548  event_show_balance(recipient.balance) */\n      mload(0x40)\n      tag_15\n      swap2\n      swap1\n      tag_13\n      jump\t// in\n    tag_15:\n      mload(0x40)\n      dup1\n      swap2\n      sub\n      swap1\n      log1\n        /* \"contracts/transfer_ether.sol\":556:565  bool sent */\n      0x00\n        /* \"contracts/transfer_ether.sol\":570:579  recipient */\n      dup3\n        /* \"contracts/transfer_ether.sol\":570:584  recipient.call */\n      0xffffffffffffffffffffffffffffffffffffffff\n      and\n        /* \"contracts/transfer_ether.sol\":592:598  amount */\n      dup3\n        /* \"contracts/transfer_ether.sol\":570:603  recipient.call{value: amount}(\"\") */\n      mload(0x40)\n      tag_16\n      swap1\n      tag_17\n      jump\t// in\n    tag_16:\n      0x00\n      mload(0x40)\n      dup1\n      dup4\n      sub\n      dup2\n      dup6\n      dup8\n      gas\n      call\n      swap3\n      pop\n      pop\n      pop\n      returndatasize\n      dup1\n      0x00\n      dup2\n      eq\n      tag_20\n      jumpi\n      mload(0x40)\n      swap2\n      pop\n      and(add(returndatasize, 0x3f), not(0x1f))\n      dup3\n      add\n      0x40\n      mstore\n      returndatasize\n      dup3\n      mstore\n      returndatasize\n      0x00\n      0x20\n      dup5\n      add\n      returndatacopy\n      jump(tag_19)\n    tag_20:\n      0x60\n      swap2\n      pop\n    tag_19:\n      pop\n        /* \"contracts/transfer_ether.sol\":555:603  (bool sent,) = recipient.call{value: amount}(\"\") */\n      pop\n      swap1\n      pop\n        /* \"contracts/transfer_ether.sol\":618:622  sent */\n      dup1\n        /* \"contracts/transfer_ether.sol\":610:647  require(sent,\"Transaction failed!!!\") */\n      tag_21\n      jumpi\n      mload(0x40)\n      0x08c379a000000000000000000000000000000000000000000000000000000000\n      dup2\n      mstore\n      0x04\n      add\n      tag_22\n      swap1\n      tag_23\n      jump\t// in\n    tag_22:\n      mload(0x40)\n      dup1\n      swap2\n      sub\n      swap1\n      revert\n    tag_21:\n        /* \"contracts/transfer_ether.sol\":659:704  event_show_payment(sender, recipient, amount) */\n      0xde9a2f6563f794e611b349aafc930264297ab1e6cae2110944821be22fd29137\n        /* \"contracts/transfer_ether.sol\":678:684  sender */\n      dup5\n        /* \"contracts/transfer_ether.sol\":686:695  recipient */\n      dup5\n        /* \"contracts/transfer_ether.sol\":697:703  amount */\n      dup5\n        /* \"contracts/transfer_ether.sol\":659:704  event_show_payment(sender, recipient, amount) */\n      mload(0x40)\n      tag_24\n      swap4\n      swap3\n      swap2\n      swap1\n      tag_25\n      jump\t// in\n    tag_24:\n      mload(0x40)\n      dup1\n      swap2\n      sub\n      swap1\n      log1\n        /* \"contracts/transfer_ether.sol\":330:712  {... */\n      pop\n      pop\n        /* \"contracts/transfer_ether.sol\":242:712  function transferEther(address payable sender, address payable recipient) public payable{... */\n      pop\n      pop\n      jump\t// out\n        /* \"#utility.yul\":88:205   */\n    tag_27:\n        /* \"#utility.yul\":197:198   */\n      0x00\n        /* \"#utility.yul\":194:195   */\n      dup1\n        /* \"#utility.yul\":187:199   */\n      revert\n        /* \"#utility.yul\":334:460   */\n    tag_29:\n        /* \"#utility.yul\":371:378   */\n      0x00\n        /* \"#utility.yul\":411:453   */\n      0xffffffffffffffffffffffffffffffffffffffff\n        /* \"#utility.yul\":404:409   */\n      dup3\n        /* \"#utility.yul\":400:454   */\n      and\n        /* \"#utility.yul\":389:454   */\n      swap1\n      pop\n        /* \"#utility.yul\":334:460   */\n      swap2\n      swap1\n      pop\n      jump\t// out\n        /* \"#utility.yul\":466:570   */\n    tag_30:\n        /* \"#utility.yul\":511:518   */\n      0x00\n        /* \"#utility.yul\":540:564   */\n      tag_48\n        /* \"#utility.yul\":558:563   */\n      dup3\n        /* \"#utility.yul\":540:564   */\n      tag_29\n      jump\t// in\n    tag_48:\n        /* \"#utility.yul\":529:564   */\n      swap1\n      pop\n        /* \"#utility.yul\":466:570   */\n      swap2\n      swap1\n      pop\n      jump\t// out\n        /* \"#utility.yul\":576:714   */\n    tag_31:\n        /* \"#utility.yul\":657:689   */\n      tag_50\n        /* \"#utility.yul\":683:688   */\n      dup2\n        /* \"#utility.yul\":657:689   */\n      tag_30\n      jump\t// in\n    tag_50:\n        /* \"#utility.yul\":650:655   */\n      dup2\n        /* \"#utility.yul\":647:690   */\n      eq\n        /* \"#utility.yul\":637:708   */\n      tag_51\n      jumpi\n        /* \"#utility.yul\":704:705   */\n      0x00\n        /* \"#utility.yul\":701:702   */\n      dup1\n        /* \"#utility.yul\":694:706   */\n      revert\n        /* \"#utility.yul\":637:708   */\n    tag_51:\n        /* \"#utility.yul\":576:714   */\n      pop\n      jump\t// out\n        /* \"#utility.yul\":720:875   */\n    tag_32:\n        /* \"#utility.yul\":774:779   */\n      0x00\n        /* \"#utility.yul\":812:818   */\n      dup2\n        /* \"#utility.yul\":799:819   */\n      calldataload\n        /* \"#utility.yul\":790:819   */\n      swap1\n      pop\n        /* \"#utility.yul\":828:869   */\n      tag_53\n        /* \"#utility.yul\":863:868   */\n      dup2\n        /* \"#utility.yul\":828:869   */\n      tag_31\n      jump\t// in\n    tag_53:\n        /* \"#utility.yul\":720:875   */\n      swap3\n      swap2\n      pop\n      pop\n      jump\t// out\n        /* \"#utility.yul\":881:1387   */\n    tag_8:\n        /* \"#utility.yul\":965:971   */\n      0x00\n        /* \"#utility.yul\":973:979   */\n      dup1\n        /* \"#utility.yul\":1022:1024   */\n      0x40\n        /* \"#utility.yul\":1010:1019   */\n      dup4\n        /* \"#utility.yul\":1001:1008   */\n      dup6\n        /* \"#utility.yul\":997:1020   */\n      sub\n        /* \"#utility.yul\":993:1025   */\n      slt\n        /* \"#utility.yul\":990:1109   */\n      iszero\n      tag_55\n      jumpi\n        /* \"#utility.yul\":1028:1107   */\n      tag_56\n      tag_27\n      jump\t// in\n    tag_56:\n        /* \"#utility.yul\":990:1109   */\n    tag_55:\n        /* \"#utility.yul\":1148:1149   */\n      0x00\n        /* \"#utility.yul\":1173:1234   */\n      tag_57\n        /* \"#utility.yul\":1226:1233   */\n      dup6\n        /* \"#utility.yul\":1217:1223   */\n      dup3\n        /* \"#utility.yul\":1206:1215   */\n      dup7\n        /* \"#utility.yul\":1202:1224   */\n      add\n        /* \"#utility.yul\":1173:1234   */\n      tag_32\n      jump\t// in\n    tag_57:\n        /* \"#utility.yul\":1163:1234   */\n      swap3\n      pop\n        /* \"#utility.yul\":1119:1244   */\n      pop\n        /* \"#utility.yul\":1283:1285   */\n      0x20\n        /* \"#utility.yul\":1309:1370   */\n      tag_58\n        /* \"#utility.yul\":1362:1369   */\n      dup6\n        /* \"#utility.yul\":1353:1359   */\n      dup3\n        /* \"#utility.yul\":1342:1351   */\n      dup7\n        /* \"#utility.yul\":1338:1360   */\n      add\n        /* \"#utility.yul\":1309:1370   */\n      tag_32\n      jump\t// in\n    tag_58:\n        /* \"#utility.yul\":1299:1370   */\n      swap2\n      pop\n        /* \"#utility.yul\":1254:1380   */\n      pop\n        /* \"#utility.yul\":881:1387   */\n      swap3\n      pop\n      swap3\n      swap1\n      pop\n      jump\t// out\n        /* \"#utility.yul\":1393:1470   */\n    tag_33:\n        /* \"#utility.yul\":1430:1437   */\n      0x00\n        /* \"#utility.yul\":1459:1464   */\n      dup2\n        /* \"#utility.yul\":1448:1464   */\n      swap1\n      pop\n        /* \"#utility.yul\":1393:1470   */\n      swap2\n      swap1\n      pop\n      jump\t// out\n        /* \"#utility.yul\":1476:1594   */\n    tag_34:\n        /* \"#utility.yul\":1563:1587   */\n      tag_61\n        /* \"#utility.yul\":1581:1586   */\n      dup2\n        /* \"#utility.yul\":1563:1587   */\n      tag_33\n      jump\t// in\n    tag_61:\n        /* \"#utility.yul\":1558:1561   */\n      dup3\n        /* \"#utility.yul\":1551:1588   */\n      mstore\n        /* \"#utility.yul\":1476:1594   */\n      pop\n      pop\n      jump\t// out\n        /* \"#utility.yul\":1600:1822   */\n    tag_13:\n        /* \"#utility.yul\":1693:1697   */\n      0x00\n        /* \"#utility.yul\":1731:1733   */\n      0x20\n        /* \"#utility.yul\":1720:1729   */\n      dup3\n        /* \"#utility.yul\":1716:1734   */\n      add\n        /* \"#utility.yul\":1708:1734   */\n      swap1\n      pop\n        /* \"#utility.yul\":1744:1815   */\n      tag_63\n        /* \"#utility.yul\":1812:1813   */\n      0x00\n        /* \"#utility.yul\":1801:1810   */\n      dup4\n        /* \"#utility.yul\":1797:1814   */\n      add\n        /* \"#utility.yul\":1788:1794   */\n      dup5\n        /* \"#utility.yul\":1744:1815   */\n      tag_34\n      jump\t// in\n    tag_63:\n        /* \"#utility.yul\":1600:1822   */\n      swap3\n      swap2\n      pop\n      pop\n      jump\t// out\n        /* \"#utility.yul\":1828:1975   */\n    tag_35:\n        /* \"#utility.yul\":1929:1940   */\n      0x00\n        /* \"#utility.yul\":1966:1969   */\n      dup2\n        /* \"#utility.yul\":1951:1969   */\n      swap1\n      pop\n        /* \"#utility.yul\":1828:1975   */\n      swap3\n      swap2\n      pop\n      pop\n      jump\t// out\n        /* \"#utility.yul\":1981:2095   */\n    tag_36:\n      pop\n      jump\t// out\n        /* \"#utility.yul\":2101:2499   */\n    tag_37:\n        /* \"#utility.yul\":2260:2263   */\n      0x00\n        /* \"#utility.yul\":2281:2364   */\n      tag_67\n        /* \"#utility.yul\":2362:2363   */\n      0x00\n        /* \"#utility.yul\":2357:2360   */\n      dup4\n        /* \"#utility.yul\":2281:2364   */\n      tag_35\n      jump\t// in\n    tag_67:\n        /* \"#utility.yul\":2274:2364   */\n      swap2\n      pop\n        /* \"#utility.yul\":2373:2466   */\n      tag_68\n        /* \"#utility.yul\":2462:2465   */\n      dup3\n        /* \"#utility.yul\":2373:2466   */\n      tag_36\n      jump\t// in\n    tag_68:\n        /* \"#utility.yul\":2491:2492   */\n      0x00\n        /* \"#utility.yul\":2486:2489   */\n      dup3\n        /* \"#utility.yul\":2482:2493   */\n      add\n        /* \"#utility.yul\":2475:2493   */\n      swap1\n      pop\n        /* \"#utility.yul\":2101:2499   */\n      swap2\n      swap1\n      pop\n      jump\t// out\n        /* \"#utility.yul\":2505:2884   */\n    tag_17:\n        /* \"#utility.yul\":2689:2692   */\n      0x00\n        /* \"#utility.yul\":2711:2858   */\n      tag_70\n        /* \"#utility.yul\":2854:2857   */\n      dup3\n        /* \"#utility.yul\":2711:2858   */\n      tag_37\n      jump\t// in\n    tag_70:\n        /* \"#utility.yul\":2704:2858   */\n      swap2\n      pop\n        /* \"#utility.yul\":2875:2878   */\n      dup2\n        /* \"#utility.yul\":2868:2878   */\n      swap1\n      pop\n        /* \"#utility.yul\":2505:2884   */\n      swap2\n      swap1\n      pop\n      jump\t// out\n        /* \"#utility.yul\":2890:3059   */\n    tag_38:\n        /* \"#utility.yul\":2974:2985   */\n      0x00\n        /* \"#utility.yul\":3008:3014   */\n      dup3\n        /* \"#utility.yul\":3003:3006   */\n      dup3\n        /* \"#utility.yul\":2996:3015   */\n      mstore\n        /* \"#utility.yul\":3048:3052   */\n      0x20\n        /* \"#utility.yul\":3043:3046   */\n      dup3\n        /* \"#utility.yul\":3039:3053   */\n      add\n        /* \"#utility.yul\":3024:3053   */\n      swap1\n      pop\n        /* \"#utility.yul\":2890:3059   */\n      swap3\n      swap2\n      pop\n      pop\n      jump\t// out\n        /* \"#utility.yul\":3065:3236   */\n    tag_39:\n        /* \"#utility.yul\":3205:3228   */\n      0x5472616e73616374696f6e206661696c65642121210000000000000000000000\n        /* \"#utility.yul\":3201:3202   */\n      0x00\n        /* \"#utility.yul\":3193:3199   */\n      dup3\n        /* \"#utility.yul\":3189:3203   */\n      add\n        /* \"#utility.yul\":3182:3229   */\n      mstore\n        /* \"#utility.yul\":3065:3236   */\n      pop\n      jump\t// out\n        /* \"#utility.yul\":3242:3608   */\n    tag_40:\n        /* \"#utility.yul\":3384:3387   */\n      0x00\n        /* \"#utility.yul\":3405:3472   */\n      tag_74\n        /* \"#utility.yul\":3469:3471   */\n      0x15\n        /* \"#utility.yul\":3464:3467   */\n      dup4\n        /* \"#utility.yul\":3405:3472   */\n      tag_38\n      jump\t// in\n    tag_74:\n        /* \"#utility.yul\":3398:3472   */\n      swap2\n      pop\n        /* \"#utility.yul\":3481:3574   */\n      tag_75\n        /* \"#utility.yul\":3570:3573   */\n      dup3\n        /* \"#utility.yul\":3481:3574   */\n      tag_39\n      jump\t// in\n    tag_75:\n        /* \"#utility.yul\":3599:3601   */\n      0x20\n        /* \"#utility.yul\":3594:3597   */\n      dup3\n        /* \"#utility.yul\":3590:3602   */\n      add\n        /* \"#utility.yul\":3583:3602   */\n      swap1\n      pop\n        /* \"#utility.yul\":3242:3608   */\n      swap2\n      swap1\n      pop\n      jump\t// out\n        /* \"#utility.yul\":3614:4033   */\n    tag_23:\n        /* \"#utility.yul\":3780:3784   */\n      0x00\n        /* \"#utility.yul\":3818:3820   */\n      0x20\n        /* \"#utility.yul\":3807:3816   */\n      dup3\n        /* \"#utility.yul\":3803:3821   */\n      add\n        /* \"#utility.yul\":3795:3821   */\n      swap1\n      pop\n        /* \"#utility.yul\":3867:3876   */\n      dup2\n        /* \"#utility.yul\":3861:3865   */\n      dup2\n        /* \"#utility.yul\":3857:3877   */\n      sub\n        /* \"#utility.yul\":3853:3854   */\n      0x00\n        /* \"#utility.yul\":3842:3851   */\n      dup4\n        /* \"#utility.yul\":3838:3855   */\n      add\n        /* \"#utility.yul\":3831:3878   */\n      mstore\n        /* \"#utility.yul\":3895:4026   */\n      tag_77\n        /* \"#utility.yul\":4021:4025   */\n      dup2\n        /* \"#utility.yul\":3895:4026   */\n      tag_40\n      jump\t// in\n    tag_77:\n        /* \"#utility.yul\":3887:4026   */\n      swap1\n      pop\n        /* \"#utility.yul\":3614:4033   */\n      swap2\n      swap1\n      pop\n      jump\t// out\n        /* \"#utility.yul\":4039:4181   */\n    tag_41:\n        /* \"#utility.yul\":4142:4174   */\n      tag_79\n        /* \"#utility.yul\":4168:4173   */\n      dup2\n        /* \"#utility.yul\":4142:4174   */\n      tag_30\n      jump\t// in\n    tag_79:\n        /* \"#utility.yul\":4137:4140   */\n      dup3\n        /* \"#utility.yul\":4130:4175   */\n      mstore\n        /* \"#utility.yul\":4039:4181   */\n      pop\n      pop\n      jump\t// out\n        /* \"#utility.yul\":4187:4693   */\n    tag_25:\n        /* \"#utility.yul\":4368:4372   */\n      0x00\n        /* \"#utility.yul\":4406:4408   */\n      0x60\n        /* \"#utility.yul\":4395:4404   */\n      dup3\n        /* \"#utility.yul\":4391:4409   */\n      add\n        /* \"#utility.yul\":4383:4409   */\n      swap1\n      pop\n        /* \"#utility.yul\":4419:4506   */\n      tag_81\n        /* \"#utility.yul\":4503:4504   */\n      0x00\n        /* \"#utility.yul\":4492:4501   */\n      dup4\n        /* \"#utility.yul\":4488:4505   */\n      add\n        /* \"#utility.yul\":4479:4485   */\n      dup7\n        /* \"#utility.yul\":4419:4506   */\n      tag_41\n      jump\t// in\n    tag_81:\n        /* \"#utility.yul\":4516:4604   */\n      tag_82\n        /* \"#utility.yul\":4600:4602   */\n      0x20\n        /* \"#utility.yul\":4589:4598   */\n      dup4\n        /* \"#utility.yul\":4585:4603   */\n      add\n        /* \"#utility.yul\":4576:4582   */\n      dup6\n        /* \"#utility.yul\":4516:4604   */\n      tag_41\n      jump\t// in\n    tag_82:\n        /* \"#utility.yul\":4614:4686   */\n      tag_83\n        /* \"#utility.yul\":4682:4684   */\n      0x40\n        /* \"#utility.yul\":4671:4680   */\n      dup4\n        /* \"#utility.yul\":4667:4685   */\n      add\n        /* \"#utility.yul\":4658:4664   */\n      dup5\n        /* \"#utility.yul\":4614:4686   */\n      tag_34\n      jump\t// in\n    tag_83:\n        /* \"#utility.yul\":4187:4693   */\n      swap5\n      swap4\n      pop\n      pop\n      pop\n      pop\n      jump\t// out\n\n    auxdata: 0xa26469706673582212207865600ddc74a6b276ef031f2916c00da1be133f7d7988b300323713015a152d64736f6c63430008160033\n}\n",
				"bytecode": {
					"linkReferences": {},
					"object": "608060405234801561001057600080fd5b50610446806100206000396000f3fe6080604052600436106100225760003560e01c806372a2f7ac1461002e57610029565b3661002957005b600080fd5b61004860048036038101906100439190610293565b61004a565b005b6000349050808373ffffffffffffffffffffffffffffffffffffffff1631101561007357600080fd5b7e7397cb07442b63dbcf09c0999c0b87751f363b70bc43fc7fad594b4739eedb476040516100a191906102ec565b60405180910390a17e7397cb07442b63dbcf09c0999c0b87751f363b70bc43fc7fad594b4739eedb8373ffffffffffffffffffffffffffffffffffffffff16316040516100ee91906102ec565b60405180910390a17e7397cb07442b63dbcf09c0999c0b87751f363b70bc43fc7fad594b4739eedb8273ffffffffffffffffffffffffffffffffffffffff163160405161013b91906102ec565b60405180910390a160008273ffffffffffffffffffffffffffffffffffffffff168260405161016990610338565b60006040518083038185875af1925050503d80600081146101a6576040519150601f19603f3d011682016040523d82523d6000602084013e6101ab565b606091505b50509050806101ef576040517f08c379a00000000000000000000000000000000000000000000000000000000081526004016101e6906103aa565b60405180910390fd5b7fde9a2f6563f794e611b349aafc930264297ab1e6cae2110944821be22fd29137848484604051610222939291906103d9565b60405180910390a150505050565b600080fd5b600073ffffffffffffffffffffffffffffffffffffffff82169050919050565b600061026082610235565b9050919050565b61027081610255565b811461027b57600080fd5b50565b60008135905061028d81610267565b92915050565b600080604083850312156102aa576102a9610230565b5b60006102b88582860161027e565b92505060206102c98582860161027e565b9150509250929050565b6000819050919050565b6102e6816102d3565b82525050565b600060208201905061030160008301846102dd565b92915050565b600081905092915050565b50565b6000610322600083610307565b915061032d82610312565b600082019050919050565b600061034382610315565b9150819050919050565b600082825260208201905092915050565b7f5472616e73616374696f6e206661696c65642121210000000000000000000000600082015250565b600061039460158361034d565b915061039f8261035e565b602082019050919050565b600060208201905081810360008301526103c381610387565b9050919050565b6103d381610255565b82525050565b60006060820190506103ee60008301866103ca565b6103fb60208301856103ca565b61040860408301846102dd565b94935050505056fea26469706673582212207865600ddc74a6b276ef031f2916c00da1be133f7d7988b300323713015a152d64736f6c63430008160033",
					"opcodes": "PUSH1 0x80 PUSH1 0x40 MSTORE CALLVALUE DUP1 ISZERO PUSH2 0x10 JUMPI PUSH1 0x0 DUP1 REVERT JUMPDEST POP PUSH2 0x446 DUP1 PUSH2 0x20 PUSH1 0x0 CODECOPY PUSH1 0x0 RETURN INVALID PUSH1 0x80 PUSH1 0x40 MSTORE PUSH1 0x4 CALLDATASIZE LT PUSH2 0x22 JUMPI PUSH1 0x0 CALLDATALOAD PUSH1 0xE0 SHR DUP1 PUSH4 0x72A2F7AC EQ PUSH2 0x2E JUMPI PUSH2 0x29 JUMP JUMPDEST CALLDATASIZE PUSH2 0x29 JUMPI STOP JUMPDEST PUSH1 0x0 DUP1 REVERT JUMPDEST PUSH2 0x48 PUSH1 0x4 DUP1 CALLDATASIZE SUB DUP2 ADD SWAP1 PUSH2 0x43 SWAP2 SWAP1 PUSH2 0x293 JUMP JUMPDEST PUSH2 0x4A JUMP JUMPDEST STOP JUMPDEST PUSH1 0x0 CALLVALUE SWAP1 POP DUP1 DUP4 PUSH20 0xFFFFFFFFFFFFFFFFFFFFFFFFFFFFFFFFFFFFFFFF AND BALANCE LT ISZERO PUSH2 0x73 JUMPI PUSH1 0x0 DUP1 REVERT JUMPDEST PUSH31 0x7397CB07442B63DBCF09C0999C0B87751F363B70BC43FC7FAD594B4739EEDB SELFBALANCE PUSH1 0x40 MLOAD PUSH2 0xA1 SWAP2 SWAP1 PUSH2 0x2EC JUMP JUMPDEST PUSH1 0x40 MLOAD DUP1 SWAP2 SUB SWAP1 LOG1 PUSH31 0x7397CB07442B63DBCF09C0999C0B87751F363B70BC43FC7FAD594B4739EEDB DUP4 PUSH20 0xFFFFFFFFFFFFFFFFFFFFFFFFFFFFFFFFFFFFFFFF AND BALANCE PUSH1 0x40 MLOAD PUSH2 0xEE SWAP2 SWAP1 PUSH2 0x2EC JUMP JUMPDEST PUSH1 0x40 MLOAD DUP1 SWAP2 SUB SWAP1 LOG1 PUSH31 0x7397CB07442B63DBCF09C0999C0B87751F363B70BC43FC7FAD594B4739EEDB DUP3 PUSH20 0xFFFFFFFFFFFFFFFFFFFFFFFFFFFFFFFFFFFFFFFF AND BALANCE PUSH1 0x40 MLOAD PUSH2 0x13B SWAP2 SWAP1 PUSH2 0x2EC JUMP JUMPDEST PUSH1 0x40 MLOAD DUP1 SWAP2 SUB SWAP1 LOG1 PUSH1 0x0 DUP3 PUSH20 0xFFFFFFFFFFFFFFFFFFFFFFFFFFFFFFFFFFFFFFFF AND DUP3 PUSH1 0x40 MLOAD PUSH2 0x169 SWAP1 PUSH2 0x338 JUMP JUMPDEST PUSH1 0x0 PUSH1 0x40 MLOAD DUP1 DUP4 SUB DUP2 DUP6 DUP8 GAS CALL SWAP3 POP POP POP RETURNDATASIZE DUP1 PUSH1 0x0 DUP2 EQ PUSH2 0x1A6 JUMPI PUSH1 0x40 MLOAD SWAP2 POP PUSH1 0x1F NOT PUSH1 0x3F RETURNDATASIZE ADD AND DUP3 ADD PUSH1 0x40 MSTORE RETURNDATASIZE DUP3 MSTORE RETURNDATASIZE PUSH1 0x0 PUSH1 0x20 DUP5 ADD RETURNDATACOPY PUSH2 0x1AB JUMP JUMPDEST PUSH1 0x60 SWAP2 POP JUMPDEST POP POP SWAP1 POP DUP1 PUSH2 0x1EF JUMPI PUSH1 0x40 MLOAD PUSH32 0x8C379A000000000000000000000000000000000000000000000000000000000 DUP2 MSTORE PUSH1 0x4 ADD PUSH2 0x1E6 SWAP1 PUSH2 0x3AA JUMP JUMPDEST PUSH1 0x40 MLOAD DUP1 SWAP2 SUB SWAP1 REVERT JUMPDEST PUSH32 0xDE9A2F6563F794E611B349AAFC930264297AB1E6CAE2110944821BE22FD29137 DUP5 DUP5 DUP5 PUSH1 0x40 MLOAD PUSH2 0x222 SWAP4 SWAP3 SWAP2 SWAP1 PUSH2 0x3D9 JUMP JUMPDEST PUSH1 0x40 MLOAD DUP1 SWAP2 SUB SWAP1 LOG1 POP POP POP POP JUMP JUMPDEST PUSH1 0x0 DUP1 REVERT JUMPDEST PUSH1 0x0 PUSH20 0xFFFFFFFFFFFFFFFFFFFFFFFFFFFFFFFFFFFFFFFF DUP3 AND SWAP1 POP SWAP2 SWAP1 POP JUMP JUMPDEST PUSH1 0x0 PUSH2 0x260 DUP3 PUSH2 0x235 JUMP JUMPDEST SWAP1 POP SWAP2 SWAP1 POP JUMP JUMPDEST PUSH2 0x270 DUP2 PUSH2 0x255 JUMP JUMPDEST DUP2 EQ PUSH2 0x27B JUMPI PUSH1 0x0 DUP1 REVERT JUMPDEST POP JUMP JUMPDEST PUSH1 0x0 DUP2 CALLDATALOAD SWAP1 POP PUSH2 0x28D DUP2 PUSH2 0x267 JUMP JUMPDEST SWAP3 SWAP2 POP POP JUMP JUMPDEST PUSH1 0x0 DUP1 PUSH1 0x40 DUP4 DUP6 SUB SLT ISZERO PUSH2 0x2AA JUMPI PUSH2 0x2A9 PUSH2 0x230 JUMP JUMPDEST JUMPDEST PUSH1 0x0 PUSH2 0x2B8 DUP6 DUP3 DUP7 ADD PUSH2 0x27E JUMP JUMPDEST SWAP3 POP POP PUSH1 0x20 PUSH2 0x2C9 DUP6 DUP3 DUP7 ADD PUSH2 0x27E JUMP JUMPDEST SWAP2 POP POP SWAP3 POP SWAP3 SWAP1 POP JUMP JUMPDEST PUSH1 0x0 DUP2 SWAP1 POP SWAP2 SWAP1 POP JUMP JUMPDEST PUSH2 0x2E6 DUP2 PUSH2 0x2D3 JUMP JUMPDEST DUP3 MSTORE POP POP JUMP JUMPDEST PUSH1 0x0 PUSH1 0x20 DUP3 ADD SWAP1 POP PUSH2 0x301 PUSH1 0x0 DUP4 ADD DUP5 PUSH2 0x2DD JUMP JUMPDEST SWAP3 SWAP2 POP POP JUMP JUMPDEST PUSH1 0x0 DUP2 SWAP1 POP SWAP3 SWAP2 POP POP JUMP JUMPDEST POP JUMP JUMPDEST PUSH1 0x0 PUSH2 0x322 PUSH1 0x0 DUP4 PUSH2 0x307 JUMP JUMPDEST SWAP2 POP PUSH2 0x32D DUP3 PUSH2 0x312 JUMP JUMPDEST PUSH1 0x0 DUP3 ADD SWAP1 POP SWAP2 SWAP1 POP JUMP JUMPDEST PUSH1 0x0 PUSH2 0x343 DUP3 PUSH2 0x315 JUMP JUMPDEST SWAP2 POP DUP2 SWAP1 POP SWAP2 SWAP1 POP JUMP JUMPDEST PUSH1 0x0 DUP3 DUP3 MSTORE PUSH1 0x20 DUP3 ADD SWAP1 POP SWAP3 SWAP2 POP POP JUMP JUMPDEST PUSH32 0x5472616E73616374696F6E206661696C65642121210000000000000000000000 PUSH1 0x0 DUP3 ADD MSTORE POP JUMP JUMPDEST PUSH1 0x0 PUSH2 0x394 PUSH1 0x15 DUP4 PUSH2 0x34D JUMP JUMPDEST SWAP2 POP PUSH2 0x39F DUP3 PUSH2 0x35E JUMP JUMPDEST PUSH1 0x20 DUP3 ADD SWAP1 POP SWAP2 SWAP1 POP JUMP JUMPDEST PUSH1 0x0 PUSH1 0x20 DUP3 ADD SWAP1 POP DUP2 DUP2 SUB PUSH1 0x0 DUP4 ADD MSTORE PUSH2 0x3C3 DUP2 PUSH2 0x387 JUMP JUMPDEST SWAP1 POP SWAP2 SWAP1 POP JUMP JUMPDEST PUSH2 0x3D3 DUP2 PUSH2 0x255 JUMP JUMPDEST DUP3 MSTORE POP POP JUMP JUMPDEST PUSH1 0x0 PUSH1 0x60 DUP3 ADD SWAP1 POP PUSH2 0x3EE PUSH1 0x0 DUP4 ADD DUP7 PUSH2 0x3CA JUMP JUMPDEST PUSH2 0x3FB PUSH1 0x20 DUP4 ADD DUP6 PUSH2 0x3CA JUMP JUMPDEST PUSH2 0x408 PUSH1 0x40 DUP4 ADD DUP5 PUSH2 0x2DD JUMP JUMPDEST SWAP5 SWAP4 POP POP POP POP JUMP INVALID LOG2 PUSH5 0x6970667358 0x22 SLT KECCAK256 PUSH25 0x65600DDC74A6B276EF031F2916C00DA1BE133F7D7988B30032 CALLDATACOPY SGT ADD GAS ISZERO 0x2D PUSH5 0x736F6C6343 STOP ADDMOD AND STOP CALLER "
				},
				"gasEstimates": {
					"creation": {
						"codeDepositCost": "218800",
						"executionCost": "263",
						"totalCost": "219063"
					},
					"external": {
						"transferEther(address,address)": "infinite"
					}
				},
				"methodIdentifiers": {
					"transferEther(address,address)": "72a2f7ac"
				}
			},
			"storageLayout": {
				"storage": [],
				"types": null
			},
			"userdoc": {
				"kind": "user",
				"methods": {},
				"version": 1
			}
		}
	}
}