{
	"contracts/supply_chain.sol": {
		"SupplyChainManagement": {
			"abi": [
				{
					"inputs": [],
					"stateMutability": "nonpayable",
					"type": "constructor"
				},
				{
					"anonymous": false,
					"inputs": [
						{
							"indexed": false,
							"internalType": "bytes32",
							"name": "orderID",
							"type": "bytes32"
						},
						{
							"indexed": false,
							"internalType": "bool",
							"name": "accepted",
							"type": "bool"
						}
					],
					"name": "LogOrderAccepted",
					"type": "event"
				},
				{
					"anonymous": false,
					"inputs": [
						{
							"indexed": false,
							"internalType": "bytes32",
							"name": "orderID",
							"type": "bytes32"
						},
						{
							"indexed": false,
							"internalType": "uint256",
							"name": "quantity",
							"type": "uint256"
						},
						{
							"indexed": false,
							"internalType": "address",
							"name": "ordererID",
							"type": "address"
						},
						{
							"indexed": false,
							"internalType": "address",
							"name": "supplierID",
							"type": "address"
						},
						{
							"indexed": false,
							"internalType": "uint256",
							"name": "productID",
							"type": "uint256"
						},
						{
							"indexed": false,
							"internalType": "bool",
							"name": "accepted",
							"type": "bool"
						}
					],
					"name": "LogOrderCreated",
					"type": "event"
				},
				{
					"anonymous": false,
					"inputs": [
						{
							"indexed": true,
							"internalType": "address",
							"name": "sender",
							"type": "address"
						},
						{
							"indexed": true,
							"internalType": "address",
							"name": "receiver",
							"type": "address"
						},
						{
							"indexed": false,
							"internalType": "uint256",
							"name": "amount",
							"type": "uint256"
						}
					],
					"name": "LogPaymentMade",
					"type": "event"
				},
				{
					"anonymous": false,
					"inputs": [
						{
							"indexed": true,
							"internalType": "address",
							"name": "user",
							"type": "address"
						},
						{
							"indexed": false,
							"internalType": "string",
							"name": "actorType",
							"type": "string"
						},
						{
							"indexed": false,
							"internalType": "string",
							"name": "name",
							"type": "string"
						},
						{
							"indexed": false,
							"internalType": "string",
							"name": "region",
							"type": "string"
						},
						{
							"indexed": false,
							"internalType": "uint256",
							"name": "nationalID",
							"type": "uint256"
						}
					],
					"name": "Registration",
					"type": "event"
				},
				{
					"inputs": [
						{
							"internalType": "bytes32",
							"name": "_orderID",
							"type": "bytes32"
						},
						{
							"internalType": "bool",
							"name": "_accept",
							"type": "bool"
						}
					],
					"name": "acceptOrder",
					"outputs": [],
					"stateMutability": "nonpayable",
					"type": "function"
				},
				{
					"inputs": [
						{
							"internalType": "address",
							"name": "",
							"type": "address"
						}
					],
					"name": "actors",
					"outputs": [
						{
							"internalType": "string",
							"name": "actorType",
							"type": "string"
						},
						{
							"internalType": "string",
							"name": "name",
							"type": "string"
						},
						{
							"internalType": "string",
							"name": "region",
							"type": "string"
						},
						{
							"internalType": "uint256",
							"name": "nationalID",
							"type": "uint256"
						}
					],
					"stateMutability": "view",
					"type": "function"
				},
				{
					"inputs": [
						{
							"internalType": "uint256",
							"name": "_annualDemand",
							"type": "uint256"
						},
						{
							"internalType": "uint256",
							"name": "_orderCost",
							"type": "uint256"
						},
						{
							"internalType": "uint256",
							"name": "_holdingCost",
							"type": "uint256"
						}
					],
					"name": "calculateEconomicOrderQuantity",
					"outputs": [
						{
							"internalType": "uint256",
							"name": "",
							"type": "uint256"
						}
					],
					"stateMutability": "pure",
					"type": "function"
				},
				{
					"inputs": [
						{
							"internalType": "uint256",
							"name": "_annualDemand",
							"type": "uint256"
						},
						{
							"internalType": "uint256",
							"name": "_totalDays",
							"type": "uint256"
						},
						{
							"internalType": "uint256",
							"name": "_deliveryDays",
							"type": "uint256"
						}
					],
					"name": "calculateReorderPoint",
					"outputs": [
						{
							"internalType": "uint256",
							"name": "",
							"type": "uint256"
						}
					],
					"stateMutability": "pure",
					"type": "function"
				},
				{
					"inputs": [
						{
							"internalType": "uint256",
							"name": "_quantity",
							"type": "uint256"
						},
						{
							"internalType": "address",
							"name": "_ordererID",
							"type": "address"
						},
						{
							"internalType": "address",
							"name": "_supplierID",
							"type": "address"
						},
						{
							"internalType": "uint256",
							"name": "_productID",
							"type": "uint256"
						}
					],
					"name": "createOrder",
					"outputs": [
						{
							"internalType": "bytes32",
							"name": "",
							"type": "bytes32"
						}
					],
					"stateMutability": "nonpayable",
					"type": "function"
				},
				{
					"inputs": [
						{
							"internalType": "address",
							"name": "_sender",
							"type": "address"
						},
						{
							"internalType": "address",
							"name": "_receiver",
							"type": "address"
						},
						{
							"internalType": "uint256",
							"name": "_amount",
							"type": "uint256"
						}
					],
					"name": "makePayment",
					"outputs": [],
					"stateMutability": "nonpayable",
					"type": "function"
				},
				{
					"inputs": [],
					"name": "owner",
					"outputs": [
						{
							"internalType": "address",
							"name": "",
							"type": "address"
						}
					],
					"stateMutability": "view",
					"type": "function"
				},
				{
					"inputs": [
						{
							"internalType": "string",
							"name": "_actorType",
							"type": "string"
						},
						{
							"internalType": "string",
							"name": "_name",
							"type": "string"
						},
						{
							"internalType": "string",
							"name": "_region",
							"type": "string"
						},
						{
							"internalType": "uint256",
							"name": "_nationalID",
							"type": "uint256"
						}
					],
					"name": "register",
					"outputs": [],
					"stateMutability": "nonpayable",
					"type": "function"
				},
				{
					"inputs": [
						{
							"internalType": "address",
							"name": "",
							"type": "address"
						}
					],
					"name": "registeredActors",
					"outputs": [
						{
							"internalType": "bool",
							"name": "",
							"type": "bool"
						}
					],
					"stateMutability": "view",
					"type": "function"
				}
			],
			"devdoc": {
				"kind": "dev",
				"methods": {},
				"version": 1
			},
			"evm": {
				"assembly": "    /* \"contracts/supply_chain.sol\":29:2854  contract SupplyChainManagement {... */\n  mstore(0x40, 0x80)\n    /* \"contracts/supply_chain.sol\":568:619  constructor() {... */\n  callvalue\n  dup1\n  iszero\n  tag_1\n  jumpi\n  0x00\n  dup1\n  revert\ntag_1:\n  pop\n    /* \"contracts/supply_chain.sol\":601:611  msg.sender */\n  caller\n    /* \"contracts/supply_chain.sol\":593:598  owner */\n  0x00\n  dup1\n    /* \"contracts/supply_chain.sol\":593:611  owner = msg.sender */\n  0x0100\n  exp\n  dup2\n  sload\n  dup2\n  0xffffffffffffffffffffffffffffffffffffffff\n  mul\n  not\n  and\n  swap1\n  dup4\n  0xffffffffffffffffffffffffffffffffffffffff\n  and\n  mul\n  or\n  swap1\n  sstore\n  pop\n    /* \"contracts/supply_chain.sol\":29:2854  contract SupplyChainManagement {... */\n  dataSize(sub_0)\n  dup1\n  dataOffset(sub_0)\n  0x00\n  codecopy\n  0x00\n  return\nstop\n\nsub_0: assembly {\n        /* \"contracts/supply_chain.sol\":29:2854  contract SupplyChainManagement {... */\n      mstore(0x40, 0x80)\n      callvalue\n      dup1\n      iszero\n      tag_1\n      jumpi\n      0x00\n      dup1\n      revert\n    tag_1:\n      pop\n      jumpi(tag_2, lt(calldatasize, 0x04))\n      shr(0xe0, calldataload(0x00))\n      dup1\n      0x87e660d3\n      gt\n      tag_12\n      jumpi\n      dup1\n      0x87e660d3\n      eq\n      tag_7\n      jumpi\n      dup1\n      0x8da5cb5b\n      eq\n      tag_8\n      jumpi\n      dup1\n      0xbbebfbf8\n      eq\n      tag_9\n      jumpi\n      dup1\n      0xe5981f7a\n      eq\n      tag_10\n      jumpi\n      dup1\n      0xeaa66a3c\n      eq\n      tag_11\n      jumpi\n      jump(tag_2)\n    tag_12:\n      dup1\n      0x02110d25\n      eq\n      tag_3\n      jumpi\n      dup1\n      0x5dba37cb\n      eq\n      tag_4\n      jumpi\n      dup1\n      0x6b01fba6\n      eq\n      tag_5\n      jumpi\n      dup1\n      0x7d08d81d\n      eq\n      tag_6\n      jumpi\n    tag_2:\n      0x00\n      dup1\n      revert\n        /* \"contracts/supply_chain.sol\":631:1043  function register(string memory _actorType, string memory _name, string memory _region, uint256 _nationalID) external {... */\n    tag_3:\n      tag_13\n      0x04\n      dup1\n      calldatasize\n      sub\n      dup2\n      add\n      swap1\n      tag_14\n      swap2\n      swap1\n      tag_15\n      jump\t// in\n    tag_14:\n      tag_16\n      jump\t// in\n    tag_13:\n      stop\n        /* \"contracts/supply_chain.sol\":2287:2471  function acceptOrder(bytes32 _orderID, bool _accept) external {... */\n    tag_4:\n      tag_17\n      0x04\n      dup1\n      calldatasize\n      sub\n      dup2\n      add\n      swap1\n      tag_18\n      swap2\n      swap1\n      tag_19\n      jump\t// in\n    tag_18:\n      tag_20\n      jump\t// in\n    tag_17:\n      stop\n        /* \"contracts/supply_chain.sol\":1051:1250  function calculateReorderPoint(uint256 _annualDemand, uint256 _totalDays, uint256 _deliveryDays) external pure returns (uint256) {... */\n    tag_5:\n      tag_21\n      0x04\n      dup1\n      calldatasize\n      sub\n      dup2\n      add\n      swap1\n      tag_22\n      swap2\n      swap1\n      tag_23\n      jump\t// in\n    tag_22:\n      tag_24\n      jump\t// in\n    tag_21:\n      mload(0x40)\n      tag_25\n      swap2\n      swap1\n      tag_26\n      jump\t// in\n    tag_25:\n      mload(0x40)\n      dup1\n      swap2\n      sub\n      swap1\n      return\n        /* \"contracts/supply_chain.sol\":1258:1637  function calculateEconomicOrderQuantity(uint256 _annualDemand, uint256 _orderCost, uint256 _holdingCost) external pure returns (uint256) {... */\n    tag_6:\n      tag_27\n      0x04\n      dup1\n      calldatasize\n      sub\n      dup2\n      add\n      swap1\n      tag_28\n      swap2\n      swap1\n      tag_23\n      jump\t// in\n    tag_28:\n      tag_29\n      jump\t// in\n    tag_27:\n      mload(0x40)\n      tag_30\n      swap2\n      swap1\n      tag_26\n      jump\t// in\n    tag_30:\n      mload(0x40)\n      dup1\n      swap2\n      sub\n      swap1\n      return\n        /* \"contracts/supply_chain.sol\":2542:2756  function makePayment(address _sender, address _receiver, uint256 _amount) external onlyOwner {... */\n    tag_7:\n      tag_31\n      0x04\n      dup1\n      calldatasize\n      sub\n      dup2\n      add\n      swap1\n      tag_32\n      swap2\n      swap1\n      tag_33\n      jump\t// in\n    tag_32:\n      tag_34\n      jump\t// in\n    tag_31:\n      stop\n        /* \"contracts/supply_chain.sol\":67:87  address public owner */\n    tag_8:\n      tag_35\n      tag_36\n      jump\t// in\n    tag_35:\n      mload(0x40)\n      tag_37\n      swap2\n      swap1\n      tag_38\n      jump\t// in\n    tag_37:\n      mload(0x40)\n      dup1\n      swap2\n      sub\n      swap1\n      return\n        /* \"contracts/supply_chain.sol\":1645:2141  function createOrder(uint256 _quantity, address _ordererID, address _supplierID, uint256 _productID) external returns (bytes32) {... */\n    tag_9:\n      tag_39\n      0x04\n      dup1\n      calldatasize\n      sub\n      dup2\n      add\n      swap1\n      tag_40\n      swap2\n      swap1\n      tag_41\n      jump\t// in\n    tag_40:\n      tag_42\n      jump\t// in\n    tag_39:\n      mload(0x40)\n      tag_43\n      swap2\n      swap1\n      tag_44\n      jump\t// in\n    tag_43:\n      mload(0x40)\n      dup1\n      swap2\n      sub\n      swap1\n      return\n        /* \"contracts/supply_chain.sol\":273:321  mapping(address => bool) public registeredActors */\n    tag_10:\n      tag_45\n      0x04\n      dup1\n      calldatasize\n      sub\n      dup2\n      add\n      swap1\n      tag_46\n      swap2\n      swap1\n      tag_47\n      jump\t// in\n    tag_46:\n      tag_48\n      jump\t// in\n    tag_45:\n      mload(0x40)\n      tag_49\n      swap2\n      swap1\n      tag_50\n      jump\t// in\n    tag_49:\n      mload(0x40)\n      dup1\n      swap2\n      sub\n      swap1\n      return\n        /* \"contracts/supply_chain.sol\":227:266  mapping(address => Actor) public actors */\n    tag_11:\n      tag_51\n      0x04\n      dup1\n      calldatasize\n      sub\n      dup2\n      add\n      swap1\n      tag_52\n      swap2\n      swap1\n      tag_47\n      jump\t// in\n    tag_52:\n      tag_53\n      jump\t// in\n    tag_51:\n      mload(0x40)\n      tag_54\n      swap5\n      swap4\n      swap3\n      swap2\n      swap1\n      tag_55\n      jump\t// in\n    tag_54:\n      mload(0x40)\n      dup1\n      swap2\n      sub\n      swap1\n      return\n        /* \"contracts/supply_chain.sol\":631:1043  function register(string memory _actorType, string memory _name, string memory _region, uint256 _nationalID) external {... */\n    tag_16:\n        /* \"contracts/supply_chain.sol\":769:785  registeredActors */\n      0x02\n        /* \"contracts/supply_chain.sol\":769:797  registeredActors[msg.sender] */\n      0x00\n        /* \"contracts/supply_chain.sol\":786:796  msg.sender */\n      caller\n        /* \"contracts/supply_chain.sol\":769:797  registeredActors[msg.sender] */\n      0xffffffffffffffffffffffffffffffffffffffff\n      and\n      0xffffffffffffffffffffffffffffffffffffffff\n      and\n      dup2\n      mstore\n      0x20\n      add\n      swap1\n      dup2\n      mstore\n      0x20\n      add\n      0x00\n      keccak256\n      0x00\n      swap1\n      sload\n      swap1\n      0x0100\n      exp\n      swap1\n      div\n      0xff\n      and\n        /* \"contracts/supply_chain.sol\":768:797  !registeredActors[msg.sender] */\n      iszero\n        /* \"contracts/supply_chain.sol\":760:826  require(!registeredActors[msg.sender], \"Actor already registered\") */\n      tag_57\n      jumpi\n      mload(0x40)\n      0x08c379a000000000000000000000000000000000000000000000000000000000\n      dup2\n      mstore\n      0x04\n      add\n      tag_58\n      swap1\n      tag_59\n      jump\t// in\n    tag_58:\n      mload(0x40)\n      dup1\n      swap2\n      sub\n      swap1\n      revert\n    tag_57:\n        /* \"contracts/supply_chain.sol\":860:906  Actor(_actorType, _name, _region, _nationalID) */\n      mload(0x40)\n      dup1\n      0x80\n      add\n      0x40\n      mstore\n      dup1\n        /* \"contracts/supply_chain.sol\":866:876  _actorType */\n      dup6\n        /* \"contracts/supply_chain.sol\":860:906  Actor(_actorType, _name, _region, _nationalID) */\n      dup2\n      mstore\n      0x20\n      add\n        /* \"contracts/supply_chain.sol\":878:883  _name */\n      dup5\n        /* \"contracts/supply_chain.sol\":860:906  Actor(_actorType, _name, _region, _nationalID) */\n      dup2\n      mstore\n      0x20\n      add\n        /* \"contracts/supply_chain.sol\":885:892  _region */\n      dup4\n        /* \"contracts/supply_chain.sol\":860:906  Actor(_actorType, _name, _region, _nationalID) */\n      dup2\n      mstore\n      0x20\n      add\n        /* \"contracts/supply_chain.sol\":894:905  _nationalID */\n      dup3\n        /* \"contracts/supply_chain.sol\":860:906  Actor(_actorType, _name, _region, _nationalID) */\n      dup2\n      mstore\n      pop\n        /* \"contracts/supply_chain.sol\":839:845  actors */\n      0x01\n        /* \"contracts/supply_chain.sol\":839:857  actors[msg.sender] */\n      0x00\n        /* \"contracts/supply_chain.sol\":846:856  msg.sender */\n      caller\n        /* \"contracts/supply_chain.sol\":839:857  actors[msg.sender] */\n      0xffffffffffffffffffffffffffffffffffffffff\n      and\n      0xffffffffffffffffffffffffffffffffffffffff\n      and\n      dup2\n      mstore\n      0x20\n      add\n      swap1\n      dup2\n      mstore\n      0x20\n      add\n      0x00\n      keccak256\n        /* \"contracts/supply_chain.sol\":839:906  actors[msg.sender] = Actor(_actorType, _name, _region, _nationalID) */\n      0x00\n      dup3\n      add\n      mload\n      dup2\n      0x00\n      add\n      swap1\n      dup2\n      tag_60\n      swap2\n      swap1\n      tag_61\n      jump\t// in\n    tag_60:\n      pop\n      0x20\n      dup3\n      add\n      mload\n      dup2\n      0x01\n      add\n      swap1\n      dup2\n      tag_62\n      swap2\n      swap1\n      tag_61\n      jump\t// in\n    tag_62:\n      pop\n      0x40\n      dup3\n      add\n      mload\n      dup2\n      0x02\n      add\n      swap1\n      dup2\n      tag_63\n      swap2\n      swap1\n      tag_61\n      jump\t// in\n    tag_63:\n      pop\n      0x60\n      dup3\n      add\n      mload\n      dup2\n      0x03\n      add\n      sstore\n      swap1\n      pop\n      pop\n        /* \"contracts/supply_chain.sol\":948:952  true */\n      0x01\n        /* \"contracts/supply_chain.sol\":917:933  registeredActors */\n      0x02\n        /* \"contracts/supply_chain.sol\":917:945  registeredActors[msg.sender] */\n      0x00\n        /* \"contracts/supply_chain.sol\":934:944  msg.sender */\n      caller\n        /* \"contracts/supply_chain.sol\":917:945  registeredActors[msg.sender] */\n      0xffffffffffffffffffffffffffffffffffffffff\n      and\n      0xffffffffffffffffffffffffffffffffffffffff\n      and\n      dup2\n      mstore\n      0x20\n      add\n      swap1\n      dup2\n      mstore\n      0x20\n      add\n      0x00\n      keccak256\n      0x00\n        /* \"contracts/supply_chain.sol\":917:952  registeredActors[msg.sender] = true */\n      0x0100\n      exp\n      dup2\n      sload\n      dup2\n      0xff\n      mul\n      not\n      and\n      swap1\n      dup4\n      iszero\n      iszero\n      mul\n      or\n      swap1\n      sstore\n      pop\n        /* \"contracts/supply_chain.sol\":983:993  msg.sender */\n      caller\n        /* \"contracts/supply_chain.sol\":970:1035  Registration(msg.sender, _actorType, _name, _region, _nationalID) */\n      0xffffffffffffffffffffffffffffffffffffffff\n      and\n      0x60bc4d8bb7fd4551e3fb969811d8a395873a5936f32a1965dd4331f84043a49e\n        /* \"contracts/supply_chain.sol\":995:1005  _actorType */\n      dup6\n        /* \"contracts/supply_chain.sol\":1007:1012  _name */\n      dup6\n        /* \"contracts/supply_chain.sol\":1014:1021  _region */\n      dup6\n        /* \"contracts/supply_chain.sol\":1023:1034  _nationalID */\n      dup6\n        /* \"contracts/supply_chain.sol\":970:1035  Registration(msg.sender, _actorType, _name, _region, _nationalID) */\n      mload(0x40)\n      tag_64\n      swap5\n      swap4\n      swap3\n      swap2\n      swap1\n      tag_55\n      jump\t// in\n    tag_64:\n      mload(0x40)\n      dup1\n      swap2\n      sub\n      swap1\n      log2\n        /* \"contracts/supply_chain.sol\":631:1043  function register(string memory _actorType, string memory _name, string memory _region, uint256 _nationalID) external {... */\n      pop\n      pop\n      pop\n      pop\n      jump\t// out\n        /* \"contracts/supply_chain.sol\":2287:2471  function acceptOrder(bytes32 _orderID, bool _accept) external {... */\n    tag_20:\n        /* \"contracts/supply_chain.sol\":2428:2463  LogOrderAccepted(_orderID, _accept) */\n      0x331f401024904122c4b07b629e53f6c416d0aed7f111c0004eab033f2e13e8a4\n        /* \"contracts/supply_chain.sol\":2445:2453  _orderID */\n      dup3\n        /* \"contracts/supply_chain.sol\":2455:2462  _accept */\n      dup3\n        /* \"contracts/supply_chain.sol\":2428:2463  LogOrderAccepted(_orderID, _accept) */\n      mload(0x40)\n      tag_66\n      swap3\n      swap2\n      swap1\n      tag_67\n      jump\t// in\n    tag_66:\n      mload(0x40)\n      dup1\n      swap2\n      sub\n      swap1\n      log1\n        /* \"contracts/supply_chain.sol\":2287:2471  function acceptOrder(bytes32 _orderID, bool _accept) external {... */\n      pop\n      pop\n      jump\t// out\n        /* \"contracts/supply_chain.sol\":1051:1250  function calculateReorderPoint(uint256 _annualDemand, uint256 _totalDays, uint256 _deliveryDays) external pure returns (uint256) {... */\n    tag_24:\n        /* \"contracts/supply_chain.sol\":1171:1178  uint256 */\n      0x00\n        /* \"contracts/supply_chain.sol\":1232:1242  _totalDays */\n      dup3\n        /* \"contracts/supply_chain.sol\":1215:1228  _deliveryDays */\n      dup3\n        /* \"contracts/supply_chain.sol\":1199:1212  _annualDemand */\n      dup6\n        /* \"contracts/supply_chain.sol\":1199:1228  _annualDemand * _deliveryDays */\n      tag_69\n      swap2\n      swap1\n      tag_70\n      jump\t// in\n    tag_69:\n        /* \"contracts/supply_chain.sol\":1198:1242  (_annualDemand * _deliveryDays) / _totalDays */\n      tag_71\n      swap2\n      swap1\n      tag_72\n      jump\t// in\n    tag_71:\n        /* \"contracts/supply_chain.sol\":1191:1242  return (_annualDemand * _deliveryDays) / _totalDays */\n      swap1\n      pop\n        /* \"contracts/supply_chain.sol\":1051:1250  function calculateReorderPoint(uint256 _annualDemand, uint256 _totalDays, uint256 _deliveryDays) external pure returns (uint256) {... */\n      swap4\n      swap3\n      pop\n      pop\n      pop\n      jump\t// out\n        /* \"contracts/supply_chain.sol\":1258:1637  function calculateEconomicOrderQuantity(uint256 _annualDemand, uint256 _orderCost, uint256 _holdingCost) external pure returns (uint256) {... */\n    tag_29:\n        /* \"contracts/supply_chain.sol\":1386:1393  uint256 */\n      0x00\n        /* \"contracts/supply_chain.sol\":1406:1415  uint256 x */\n      dup1\n        /* \"contracts/supply_chain.sol\":1452:1464  _holdingCost */\n      dup3\n        /* \"contracts/supply_chain.sol\":1439:1449  _orderCost */\n      dup5\n        /* \"contracts/supply_chain.sol\":1423:1436  _annualDemand */\n      dup7\n        /* \"contracts/supply_chain.sol\":1419:1420  2 */\n      0x02\n        /* \"contracts/supply_chain.sol\":1419:1436  2 * _annualDemand */\n      tag_74\n      swap2\n      swap1\n      tag_70\n      jump\t// in\n    tag_74:\n        /* \"contracts/supply_chain.sol\":1419:1449  2 * _annualDemand * _orderCost */\n      tag_75\n      swap2\n      swap1\n      tag_70\n      jump\t// in\n    tag_75:\n        /* \"contracts/supply_chain.sol\":1419:1464  2 * _annualDemand * _orderCost / _holdingCost */\n      tag_76\n      swap2\n      swap1\n      tag_72\n      jump\t// in\n    tag_76:\n        /* \"contracts/supply_chain.sol\":1406:1465  uint256 x = (2 * _annualDemand * _orderCost / _holdingCost) */\n      swap1\n      pop\n        /* \"contracts/supply_chain.sol\":1476:1482  uint z */\n      0x00\n        /* \"contracts/supply_chain.sol\":1495:1496  2 */\n      0x02\n        /* \"contracts/supply_chain.sol\":1490:1491  1 */\n      0x01\n        /* \"contracts/supply_chain.sol\":1486:1487  x */\n      dup4\n        /* \"contracts/supply_chain.sol\":1486:1491  x + 1 */\n      tag_77\n      swap2\n      swap1\n      tag_78\n      jump\t// in\n    tag_77:\n        /* \"contracts/supply_chain.sol\":1485:1496  (x + 1) / 2 */\n      tag_79\n      swap2\n      swap1\n      tag_72\n      jump\t// in\n    tag_79:\n        /* \"contracts/supply_chain.sol\":1476:1496  uint z = (x + 1) / 2 */\n      swap1\n      pop\n        /* \"contracts/supply_chain.sol\":1507:1516  uint256 y */\n      0x00\n        /* \"contracts/supply_chain.sol\":1519:1520  x */\n      dup3\n        /* \"contracts/supply_chain.sol\":1507:1520  uint256 y = x */\n      swap1\n      pop\n        /* \"contracts/supply_chain.sol\":1531:1611  while (z < y) {... */\n    tag_80:\n        /* \"contracts/supply_chain.sol\":1542:1543  y */\n      dup1\n        /* \"contracts/supply_chain.sol\":1538:1539  z */\n      dup3\n        /* \"contracts/supply_chain.sol\":1538:1543  z < y */\n      lt\n        /* \"contracts/supply_chain.sol\":1531:1611  while (z < y) {... */\n      iszero\n      tag_81\n      jumpi\n        /* \"contracts/supply_chain.sol\":1564:1565  z */\n      dup2\n        /* \"contracts/supply_chain.sol\":1560:1565  y = z */\n      swap1\n      pop\n        /* \"contracts/supply_chain.sol\":1598:1599  2 */\n      0x02\n        /* \"contracts/supply_chain.sol\":1593:1594  z */\n      dup3\n        /* \"contracts/supply_chain.sol\":1589:1590  z */\n      dup4\n        /* \"contracts/supply_chain.sol\":1585:1586  x */\n      dup6\n        /* \"contracts/supply_chain.sol\":1585:1590  x / z */\n      tag_82\n      swap2\n      swap1\n      tag_72\n      jump\t// in\n    tag_82:\n        /* \"contracts/supply_chain.sol\":1585:1594  x / z + z */\n      tag_83\n      swap2\n      swap1\n      tag_78\n      jump\t// in\n    tag_83:\n        /* \"contracts/supply_chain.sol\":1584:1599  (x / z + z) / 2 */\n      tag_84\n      swap2\n      swap1\n      tag_72\n      jump\t// in\n    tag_84:\n        /* \"contracts/supply_chain.sol\":1580:1599  z = (x / z + z) / 2 */\n      swap2\n      pop\n        /* \"contracts/supply_chain.sol\":1531:1611  while (z < y) {... */\n      jump(tag_80)\n    tag_81:\n        /* \"contracts/supply_chain.sol\":1628:1629  y */\n      dup1\n        /* \"contracts/supply_chain.sol\":1621:1629  return y */\n      swap4\n      pop\n      pop\n      pop\n      pop\n        /* \"contracts/supply_chain.sol\":1258:1637  function calculateEconomicOrderQuantity(uint256 _annualDemand, uint256 _orderCost, uint256 _holdingCost) external pure returns (uint256) {... */\n      swap4\n      swap3\n      pop\n      pop\n      pop\n      jump\t// out\n        /* \"contracts/supply_chain.sol\":2542:2756  function makePayment(address _sender, address _receiver, uint256 _amount) external onlyOwner {... */\n    tag_34:\n        /* \"contracts/supply_chain.sol\":499:504  owner */\n      0x00\n      dup1\n      sload\n      swap1\n      0x0100\n      exp\n      swap1\n      div\n      0xffffffffffffffffffffffffffffffffffffffff\n      and\n        /* \"contracts/supply_chain.sol\":485:504  msg.sender == owner */\n      0xffffffffffffffffffffffffffffffffffffffff\n      and\n        /* \"contracts/supply_chain.sol\":485:495  msg.sender */\n      caller\n        /* \"contracts/supply_chain.sol\":485:504  msg.sender == owner */\n      0xffffffffffffffffffffffffffffffffffffffff\n      and\n      eq\n        /* \"contracts/supply_chain.sol\":477:540  require(msg.sender == owner, \"Only the owner can execute this\") */\n      tag_86\n      jumpi\n      mload(0x40)\n      0x08c379a000000000000000000000000000000000000000000000000000000000\n      dup2\n      mstore\n      0x04\n      add\n      tag_87\n      swap1\n      tag_88\n      jump\t// in\n    tag_87:\n      mload(0x40)\n      dup1\n      swap2\n      sub\n      swap1\n      revert\n    tag_86:\n        /* \"contracts/supply_chain.sol\":2729:2738  _receiver */\n      dup2\n        /* \"contracts/supply_chain.sol\":2705:2748  LogPaymentMade(_sender, _receiver, _amount) */\n      0xffffffffffffffffffffffffffffffffffffffff\n      and\n        /* \"contracts/supply_chain.sol\":2720:2727  _sender */\n      dup4\n        /* \"contracts/supply_chain.sol\":2705:2748  LogPaymentMade(_sender, _receiver, _amount) */\n      0xffffffffffffffffffffffffffffffffffffffff\n      and\n      0xb03a765902deae82ba76b0b34a0d8519ba0b10952576f134ee3cc1cdd9a7e633\n        /* \"contracts/supply_chain.sol\":2740:2747  _amount */\n      dup4\n        /* \"contracts/supply_chain.sol\":2705:2748  LogPaymentMade(_sender, _receiver, _amount) */\n      mload(0x40)\n      tag_90\n      swap2\n      swap1\n      tag_26\n      jump\t// in\n    tag_90:\n      mload(0x40)\n      dup1\n      swap2\n      sub\n      swap1\n      log3\n        /* \"contracts/supply_chain.sol\":2542:2756  function makePayment(address _sender, address _receiver, uint256 _amount) external onlyOwner {... */\n      pop\n      pop\n      pop\n      jump\t// out\n        /* \"contracts/supply_chain.sol\":67:87  address public owner */\n    tag_36:\n      0x00\n      dup1\n      sload\n      swap1\n      0x0100\n      exp\n      swap1\n      div\n      0xffffffffffffffffffffffffffffffffffffffff\n      and\n      dup2\n      jump\t// out\n        /* \"contracts/supply_chain.sol\":1645:2141  function createOrder(uint256 _quantity, address _ordererID, address _supplierID, uint256 _productID) external returns (bytes32) {... */\n    tag_42:\n        /* \"contracts/supply_chain.sol\":1764:1771  bytes32 */\n      0x00\n        /* \"contracts/supply_chain.sol\":1859:1874  bytes32 orderID */\n      dup1\n        /* \"contracts/supply_chain.sol\":1904:1913  _quantity */\n      dup6\n        /* \"contracts/supply_chain.sol\":1915:1925  _ordererID */\n      dup6\n        /* \"contracts/supply_chain.sol\":1927:1938  _supplierID */\n      dup6\n        /* \"contracts/supply_chain.sol\":1940:1950  _productID */\n      dup6\n        /* \"contracts/supply_chain.sol\":1887:1951  abi.encodePacked(_quantity, _ordererID, _supplierID, _productID) */\n      add(0x20, mload(0x40))\n      tag_92\n      swap5\n      swap4\n      swap3\n      swap2\n      swap1\n      tag_93\n      jump\t// in\n    tag_92:\n      mload(0x40)\n      0x20\n      dup2\n      dup4\n      sub\n      sub\n      dup2\n      mstore\n      swap1\n      0x40\n      mstore\n        /* \"contracts/supply_chain.sol\":1877:1952  keccak256(abi.encodePacked(_quantity, _ordererID, _supplierID, _productID)) */\n      dup1\n      mload\n      swap1\n      0x20\n      add\n      keccak256\n        /* \"contracts/supply_chain.sol\":1859:1952  bytes32 orderID = keccak256(abi.encodePacked(_quantity, _ordererID, _supplierID, _productID)) */\n      swap1\n      pop\n        /* \"contracts/supply_chain.sol\":2027:2106  LogOrderCreated(orderID, _quantity, _ordererID, _supplierID, _productID, false) */\n      0x80d4542edfa853e74e670ddc8e6925d88b43c1c8ac870652ad051227cbc17167\n        /* \"contracts/supply_chain.sol\":2043:2050  orderID */\n      dup2\n        /* \"contracts/supply_chain.sol\":2052:2061  _quantity */\n      dup8\n        /* \"contracts/supply_chain.sol\":2063:2073  _ordererID */\n      dup8\n        /* \"contracts/supply_chain.sol\":2075:2086  _supplierID */\n      dup8\n        /* \"contracts/supply_chain.sol\":2088:2098  _productID */\n      dup8\n        /* \"contracts/supply_chain.sol\":2100:2105  false */\n      0x00\n        /* \"contracts/supply_chain.sol\":2027:2106  LogOrderCreated(orderID, _quantity, _ordererID, _supplierID, _productID, false) */\n      mload(0x40)\n      tag_94\n      swap7\n      swap6\n      swap5\n      swap4\n      swap3\n      swap2\n      swap1\n      tag_95\n      jump\t// in\n    tag_94:\n      mload(0x40)\n      dup1\n      swap2\n      sub\n      swap1\n      log1\n        /* \"contracts/supply_chain.sol\":2126:2133  orderID */\n      dup1\n        /* \"contracts/supply_chain.sol\":2119:2133  return orderID */\n      swap2\n      pop\n      pop\n        /* \"contracts/supply_chain.sol\":1645:2141  function createOrder(uint256 _quantity, address _ordererID, address _supplierID, uint256 _productID) external returns (bytes32) {... */\n      swap5\n      swap4\n      pop\n      pop\n      pop\n      pop\n      jump\t// out\n        /* \"contracts/supply_chain.sol\":273:321  mapping(address => bool) public registeredActors */\n    tag_48:\n      mstore(0x20, 0x02)\n      dup1\n      0x00\n      mstore\n      keccak256(0x00, 0x40)\n      0x00\n      swap2\n      pop\n      sload\n      swap1\n      0x0100\n      exp\n      swap1\n      div\n      0xff\n      and\n      dup2\n      jump\t// out\n        /* \"contracts/supply_chain.sol\":227:266  mapping(address => Actor) public actors */\n    tag_53:\n      mstore(0x20, 0x01)\n      dup1\n      0x00\n      mstore\n      keccak256(0x00, 0x40)\n      0x00\n      swap2\n      pop\n      swap1\n      pop\n      dup1\n      0x00\n      add\n      dup1\n      sload\n      tag_96\n      swap1\n      tag_97\n      jump\t// in\n    tag_96:\n      dup1\n      0x1f\n      add\n      0x20\n      dup1\n      swap2\n      div\n      mul\n      0x20\n      add\n      mload(0x40)\n      swap1\n      dup2\n      add\n      0x40\n      mstore\n      dup1\n      swap3\n      swap2\n      swap1\n      dup2\n      dup2\n      mstore\n      0x20\n      add\n      dup3\n      dup1\n      sload\n      tag_98\n      swap1\n      tag_97\n      jump\t// in\n    tag_98:\n      dup1\n      iszero\n      tag_99\n      jumpi\n      dup1\n      0x1f\n      lt\n      tag_100\n      jumpi\n      0x0100\n      dup1\n      dup4\n      sload\n      div\n      mul\n      dup4\n      mstore\n      swap2\n      0x20\n      add\n      swap2\n      jump(tag_99)\n    tag_100:\n      dup3\n      add\n      swap2\n      swap1\n      0x00\n      mstore\n      keccak256(0x00, 0x20)\n      swap1\n    tag_101:\n      dup2\n      sload\n      dup2\n      mstore\n      swap1\n      0x01\n      add\n      swap1\n      0x20\n      add\n      dup1\n      dup4\n      gt\n      tag_101\n      jumpi\n      dup3\n      swap1\n      sub\n      0x1f\n      and\n      dup3\n      add\n      swap2\n    tag_99:\n      pop\n      pop\n      pop\n      pop\n      pop\n      swap1\n      dup1\n      0x01\n      add\n      dup1\n      sload\n      tag_102\n      swap1\n      tag_97\n      jump\t// in\n    tag_102:\n      dup1\n      0x1f\n      add\n      0x20\n      dup1\n      swap2\n      div\n      mul\n      0x20\n      add\n      mload(0x40)\n      swap1\n      dup2\n      add\n      0x40\n      mstore\n      dup1\n      swap3\n      swap2\n      swap1\n      dup2\n      dup2\n      mstore\n      0x20\n      add\n      dup3\n      dup1\n      sload\n      tag_103\n      swap1\n      tag_97\n      jump\t// in\n    tag_103:\n      dup1\n      iszero\n      tag_104\n      jumpi\n      dup1\n      0x1f\n      lt\n      tag_105\n      jumpi\n      0x0100\n      dup1\n      dup4\n      sload\n      div\n      mul\n      dup4\n      mstore\n      swap2\n      0x20\n      add\n      swap2\n      jump(tag_104)\n    tag_105:\n      dup3\n      add\n      swap2\n      swap1\n      0x00\n      mstore\n      keccak256(0x00, 0x20)\n      swap1\n    tag_106:\n      dup2\n      sload\n      dup2\n      mstore\n      swap1\n      0x01\n      add\n      swap1\n      0x20\n      add\n      dup1\n      dup4\n      gt\n      tag_106\n      jumpi\n      dup3\n      swap1\n      sub\n      0x1f\n      and\n      dup3\n      add\n      swap2\n    tag_104:\n      pop\n      pop\n      pop\n      pop\n      pop\n      swap1\n      dup1\n      0x02\n      add\n      dup1\n      sload\n      tag_107\n      swap1\n      tag_97\n      jump\t// in\n    tag_107:\n      dup1\n      0x1f\n      add\n      0x20\n      dup1\n      swap2\n      div\n      mul\n      0x20\n      add\n      mload(0x40)\n      swap1\n      dup2\n      add\n      0x40\n      mstore\n      dup1\n      swap3\n      swap2\n      swap1\n      dup2\n      dup2\n      mstore\n      0x20\n      add\n      dup3\n      dup1\n      sload\n      tag_108\n      swap1\n      tag_97\n      jump\t// in\n    tag_108:\n      dup1\n      iszero\n      tag_109\n      jumpi\n      dup1\n      0x1f\n      lt\n      tag_110\n      jumpi\n      0x0100\n      dup1\n      dup4\n      sload\n      div\n      mul\n      dup4\n      mstore\n      swap2\n      0x20\n      add\n      swap2\n      jump(tag_109)\n    tag_110:\n      dup3\n      add\n      swap2\n      swap1\n      0x00\n      mstore\n      keccak256(0x00, 0x20)\n      swap1\n    tag_111:\n      dup2\n      sload\n      dup2\n      mstore\n      swap1\n      0x01\n      add\n      swap1\n      0x20\n      add\n      dup1\n      dup4\n      gt\n      tag_111\n      jumpi\n      dup3\n      swap1\n      sub\n      0x1f\n      and\n      dup3\n      add\n      swap2\n    tag_109:\n      pop\n      pop\n      pop\n      pop\n      pop\n      swap1\n      dup1\n      0x03\n      add\n      sload\n      swap1\n      pop\n      dup5\n      jump\t// out\n        /* \"#utility.yul\":7:82   */\n    tag_112:\n        /* \"#utility.yul\":40:46   */\n      0x00\n        /* \"#utility.yul\":73:75   */\n      0x40\n        /* \"#utility.yul\":67:76   */\n      mload\n        /* \"#utility.yul\":57:76   */\n      swap1\n      pop\n        /* \"#utility.yul\":7:82   */\n      swap1\n      jump\t// out\n        /* \"#utility.yul\":88:205   */\n    tag_113:\n        /* \"#utility.yul\":197:198   */\n      0x00\n        /* \"#utility.yul\":194:195   */\n      dup1\n        /* \"#utility.yul\":187:199   */\n      revert\n        /* \"#utility.yul\":211:328   */\n    tag_114:\n        /* \"#utility.yul\":320:321   */\n      0x00\n        /* \"#utility.yul\":317:318   */\n      dup1\n        /* \"#utility.yul\":310:322   */\n      revert\n        /* \"#utility.yul\":334:451   */\n    tag_115:\n        /* \"#utility.yul\":443:444   */\n      0x00\n        /* \"#utility.yul\":440:441   */\n      dup1\n        /* \"#utility.yul\":433:445   */\n      revert\n        /* \"#utility.yul\":457:574   */\n    tag_116:\n        /* \"#utility.yul\":566:567   */\n      0x00\n        /* \"#utility.yul\":563:564   */\n      dup1\n        /* \"#utility.yul\":556:568   */\n      revert\n        /* \"#utility.yul\":580:682   */\n    tag_117:\n        /* \"#utility.yul\":621:627   */\n      0x00\n        /* \"#utility.yul\":672:674   */\n      0x1f\n        /* \"#utility.yul\":668:675   */\n      not\n        /* \"#utility.yul\":663:665   */\n      0x1f\n        /* \"#utility.yul\":656:661   */\n      dup4\n        /* \"#utility.yul\":652:666   */\n      add\n        /* \"#utility.yul\":648:676   */\n      and\n        /* \"#utility.yul\":638:676   */\n      swap1\n      pop\n        /* \"#utility.yul\":580:682   */\n      swap2\n      swap1\n      pop\n      jump\t// out\n        /* \"#utility.yul\":688:868   */\n    tag_118:\n        /* \"#utility.yul\":736:813   */\n      0x4e487b7100000000000000000000000000000000000000000000000000000000\n        /* \"#utility.yul\":733:734   */\n      0x00\n        /* \"#utility.yul\":726:814   */\n      mstore\n        /* \"#utility.yul\":833:837   */\n      0x41\n        /* \"#utility.yul\":830:831   */\n      0x04\n        /* \"#utility.yul\":823:838   */\n      mstore\n        /* \"#utility.yul\":857:861   */\n      0x24\n        /* \"#utility.yul\":854:855   */\n      0x00\n        /* \"#utility.yul\":847:862   */\n      revert\n        /* \"#utility.yul\":874:1155   */\n    tag_119:\n        /* \"#utility.yul\":957:984   */\n      tag_183\n        /* \"#utility.yul\":979:983   */\n      dup3\n        /* \"#utility.yul\":957:984   */\n      tag_117\n      jump\t// in\n    tag_183:\n        /* \"#utility.yul\":949:955   */\n      dup2\n        /* \"#utility.yul\":945:985   */\n      add\n        /* \"#utility.yul\":1087:1093   */\n      dup2\n        /* \"#utility.yul\":1075:1085   */\n      dup2\n        /* \"#utility.yul\":1072:1094   */\n      lt\n        /* \"#utility.yul\":1051:1069   */\n      0xffffffffffffffff\n        /* \"#utility.yul\":1039:1049   */\n      dup3\n        /* \"#utility.yul\":1036:1070   */\n      gt\n        /* \"#utility.yul\":1033:1095   */\n      or\n        /* \"#utility.yul\":1030:1118   */\n      iszero\n      tag_184\n      jumpi\n        /* \"#utility.yul\":1098:1116   */\n      tag_185\n      tag_118\n      jump\t// in\n    tag_185:\n        /* \"#utility.yul\":1030:1118   */\n    tag_184:\n        /* \"#utility.yul\":1138:1148   */\n      dup1\n        /* \"#utility.yul\":1134:1136   */\n      0x40\n        /* \"#utility.yul\":1127:1149   */\n      mstore\n        /* \"#utility.yul\":917:1155   */\n      pop\n        /* \"#utility.yul\":874:1155   */\n      pop\n      pop\n      jump\t// out\n        /* \"#utility.yul\":1161:1290   */\n    tag_120:\n        /* \"#utility.yul\":1195:1201   */\n      0x00\n        /* \"#utility.yul\":1222:1242   */\n      tag_187\n      tag_112\n      jump\t// in\n    tag_187:\n        /* \"#utility.yul\":1212:1242   */\n      swap1\n      pop\n        /* \"#utility.yul\":1251:1284   */\n      tag_188\n        /* \"#utility.yul\":1279:1283   */\n      dup3\n        /* \"#utility.yul\":1271:1277   */\n      dup3\n        /* \"#utility.yul\":1251:1284   */\n      tag_119\n      jump\t// in\n    tag_188:\n        /* \"#utility.yul\":1161:1290   */\n      swap2\n      swap1\n      pop\n      jump\t// out\n        /* \"#utility.yul\":1296:1604   */\n    tag_121:\n        /* \"#utility.yul\":1358:1362   */\n      0x00\n        /* \"#utility.yul\":1448:1466   */\n      0xffffffffffffffff\n        /* \"#utility.yul\":1440:1446   */\n      dup3\n        /* \"#utility.yul\":1437:1467   */\n      gt\n        /* \"#utility.yul\":1434:1490   */\n      iszero\n      tag_190\n      jumpi\n        /* \"#utility.yul\":1470:1488   */\n      tag_191\n      tag_118\n      jump\t// in\n    tag_191:\n        /* \"#utility.yul\":1434:1490   */\n    tag_190:\n        /* \"#utility.yul\":1508:1537   */\n      tag_192\n        /* \"#utility.yul\":1530:1536   */\n      dup3\n        /* \"#utility.yul\":1508:1537   */\n      tag_117\n      jump\t// in\n    tag_192:\n        /* \"#utility.yul\":1500:1537   */\n      swap1\n      pop\n        /* \"#utility.yul\":1592:1596   */\n      0x20\n        /* \"#utility.yul\":1586:1590   */\n      dup2\n        /* \"#utility.yul\":1582:1597   */\n      add\n        /* \"#utility.yul\":1574:1597   */\n      swap1\n      pop\n        /* \"#utility.yul\":1296:1604   */\n      swap2\n      swap1\n      pop\n      jump\t// out\n        /* \"#utility.yul\":1610:1756   */\n    tag_122:\n        /* \"#utility.yul\":1707:1713   */\n      dup3\n        /* \"#utility.yul\":1702:1705   */\n      dup2\n        /* \"#utility.yul\":1697:1700   */\n      dup4\n        /* \"#utility.yul\":1684:1714   */\n      calldatacopy\n        /* \"#utility.yul\":1748:1749   */\n      0x00\n        /* \"#utility.yul\":1739:1745   */\n      dup4\n        /* \"#utility.yul\":1734:1737   */\n      dup4\n        /* \"#utility.yul\":1730:1746   */\n      add\n        /* \"#utility.yul\":1723:1750   */\n      mstore\n        /* \"#utility.yul\":1610:1756   */\n      pop\n      pop\n      pop\n      jump\t// out\n        /* \"#utility.yul\":1762:2187   */\n    tag_123:\n        /* \"#utility.yul\":1840:1845   */\n      0x00\n        /* \"#utility.yul\":1865:1931   */\n      tag_195\n        /* \"#utility.yul\":1881:1930   */\n      tag_196\n        /* \"#utility.yul\":1923:1929   */\n      dup5\n        /* \"#utility.yul\":1881:1930   */\n      tag_121\n      jump\t// in\n    tag_196:\n        /* \"#utility.yul\":1865:1931   */\n      tag_120\n      jump\t// in\n    tag_195:\n        /* \"#utility.yul\":1856:1931   */\n      swap1\n      pop\n        /* \"#utility.yul\":1954:1960   */\n      dup3\n        /* \"#utility.yul\":1947:1952   */\n      dup2\n        /* \"#utility.yul\":1940:1961   */\n      mstore\n        /* \"#utility.yul\":1992:1996   */\n      0x20\n        /* \"#utility.yul\":1985:1990   */\n      dup2\n        /* \"#utility.yul\":1981:1997   */\n      add\n        /* \"#utility.yul\":2030:2033   */\n      dup5\n        /* \"#utility.yul\":2021:2027   */\n      dup5\n        /* \"#utility.yul\":2016:2019   */\n      dup5\n        /* \"#utility.yul\":2012:2028   */\n      add\n        /* \"#utility.yul\":2009:2034   */\n      gt\n        /* \"#utility.yul\":2006:2118   */\n      iszero\n      tag_197\n      jumpi\n        /* \"#utility.yul\":2037:2116   */\n      tag_198\n      tag_116\n      jump\t// in\n    tag_198:\n        /* \"#utility.yul\":2006:2118   */\n    tag_197:\n        /* \"#utility.yul\":2127:2181   */\n      tag_199\n        /* \"#utility.yul\":2174:2180   */\n      dup5\n        /* \"#utility.yul\":2169:2172   */\n      dup3\n        /* \"#utility.yul\":2164:2167   */\n      dup6\n        /* \"#utility.yul\":2127:2181   */\n      tag_122\n      jump\t// in\n    tag_199:\n        /* \"#utility.yul\":1846:2187   */\n      pop\n        /* \"#utility.yul\":1762:2187   */\n      swap4\n      swap3\n      pop\n      pop\n      pop\n      jump\t// out\n        /* \"#utility.yul\":2207:2547   */\n    tag_124:\n        /* \"#utility.yul\":2263:2268   */\n      0x00\n        /* \"#utility.yul\":2312:2315   */\n      dup3\n        /* \"#utility.yul\":2305:2309   */\n      0x1f\n        /* \"#utility.yul\":2297:2303   */\n      dup4\n        /* \"#utility.yul\":2293:2310   */\n      add\n        /* \"#utility.yul\":2289:2316   */\n      slt\n        /* \"#utility.yul\":2279:2401   */\n      tag_201\n      jumpi\n        /* \"#utility.yul\":2320:2399   */\n      tag_202\n      tag_115\n      jump\t// in\n    tag_202:\n        /* \"#utility.yul\":2279:2401   */\n    tag_201:\n        /* \"#utility.yul\":2437:2443   */\n      dup2\n        /* \"#utility.yul\":2424:2444   */\n      calldataload\n        /* \"#utility.yul\":2462:2541   */\n      tag_203\n        /* \"#utility.yul\":2537:2540   */\n      dup5\n        /* \"#utility.yul\":2529:2535   */\n      dup3\n        /* \"#utility.yul\":2522:2526   */\n      0x20\n        /* \"#utility.yul\":2514:2520   */\n      dup7\n        /* \"#utility.yul\":2510:2527   */\n      add\n        /* \"#utility.yul\":2462:2541   */\n      tag_123\n      jump\t// in\n    tag_203:\n        /* \"#utility.yul\":2453:2541   */\n      swap2\n      pop\n        /* \"#utility.yul\":2269:2547   */\n      pop\n        /* \"#utility.yul\":2207:2547   */\n      swap3\n      swap2\n      pop\n      pop\n      jump\t// out\n        /* \"#utility.yul\":2553:2630   */\n    tag_125:\n        /* \"#utility.yul\":2590:2597   */\n      0x00\n        /* \"#utility.yul\":2619:2624   */\n      dup2\n        /* \"#utility.yul\":2608:2624   */\n      swap1\n      pop\n        /* \"#utility.yul\":2553:2630   */\n      swap2\n      swap1\n      pop\n      jump\t// out\n        /* \"#utility.yul\":2636:2758   */\n    tag_126:\n        /* \"#utility.yul\":2709:2733   */\n      tag_206\n        /* \"#utility.yul\":2727:2732   */\n      dup2\n        /* \"#utility.yul\":2709:2733   */\n      tag_125\n      jump\t// in\n    tag_206:\n        /* \"#utility.yul\":2702:2707   */\n      dup2\n        /* \"#utility.yul\":2699:2734   */\n      eq\n        /* \"#utility.yul\":2689:2752   */\n      tag_207\n      jumpi\n        /* \"#utility.yul\":2748:2749   */\n      0x00\n        /* \"#utility.yul\":2745:2746   */\n      dup1\n        /* \"#utility.yul\":2738:2750   */\n      revert\n        /* \"#utility.yul\":2689:2752   */\n    tag_207:\n        /* \"#utility.yul\":2636:2758   */\n      pop\n      jump\t// out\n        /* \"#utility.yul\":2764:2903   */\n    tag_127:\n        /* \"#utility.yul\":2810:2815   */\n      0x00\n        /* \"#utility.yul\":2848:2854   */\n      dup2\n        /* \"#utility.yul\":2835:2855   */\n      calldataload\n        /* \"#utility.yul\":2826:2855   */\n      swap1\n      pop\n        /* \"#utility.yul\":2864:2897   */\n      tag_209\n        /* \"#utility.yul\":2891:2896   */\n      dup2\n        /* \"#utility.yul\":2864:2897   */\n      tag_126\n      jump\t// in\n    tag_209:\n        /* \"#utility.yul\":2764:2903   */\n      swap3\n      swap2\n      pop\n      pop\n      jump\t// out\n        /* \"#utility.yul\":2909:4214   */\n    tag_15:\n        /* \"#utility.yul\":3025:3031   */\n      0x00\n        /* \"#utility.yul\":3033:3039   */\n      dup1\n        /* \"#utility.yul\":3041:3047   */\n      0x00\n        /* \"#utility.yul\":3049:3055   */\n      dup1\n        /* \"#utility.yul\":3098:3101   */\n      0x80\n        /* \"#utility.yul\":3086:3095   */\n      dup6\n        /* \"#utility.yul\":3077:3084   */\n      dup8\n        /* \"#utility.yul\":3073:3096   */\n      sub\n        /* \"#utility.yul\":3069:3102   */\n      slt\n        /* \"#utility.yul\":3066:3186   */\n      iszero\n      tag_211\n      jumpi\n        /* \"#utility.yul\":3105:3184   */\n      tag_212\n      tag_113\n      jump\t// in\n    tag_212:\n        /* \"#utility.yul\":3066:3186   */\n    tag_211:\n        /* \"#utility.yul\":3253:3254   */\n      0x00\n        /* \"#utility.yul\":3242:3251   */\n      dup6\n        /* \"#utility.yul\":3238:3255   */\n      add\n        /* \"#utility.yul\":3225:3256   */\n      calldataload\n        /* \"#utility.yul\":3283:3301   */\n      0xffffffffffffffff\n        /* \"#utility.yul\":3275:3281   */\n      dup2\n        /* \"#utility.yul\":3272:3302   */\n      gt\n        /* \"#utility.yul\":3269:3386   */\n      iszero\n      tag_213\n      jumpi\n        /* \"#utility.yul\":3305:3384   */\n      tag_214\n      tag_114\n      jump\t// in\n    tag_214:\n        /* \"#utility.yul\":3269:3386   */\n    tag_213:\n        /* \"#utility.yul\":3410:3473   */\n      tag_215\n        /* \"#utility.yul\":3465:3472   */\n      dup8\n        /* \"#utility.yul\":3456:3462   */\n      dup3\n        /* \"#utility.yul\":3445:3454   */\n      dup9\n        /* \"#utility.yul\":3441:3463   */\n      add\n        /* \"#utility.yul\":3410:3473   */\n      tag_124\n      jump\t// in\n    tag_215:\n        /* \"#utility.yul\":3400:3473   */\n      swap5\n      pop\n        /* \"#utility.yul\":3196:3483   */\n      pop\n        /* \"#utility.yul\":3550:3552   */\n      0x20\n        /* \"#utility.yul\":3539:3548   */\n      dup6\n        /* \"#utility.yul\":3535:3553   */\n      add\n        /* \"#utility.yul\":3522:3554   */\n      calldataload\n        /* \"#utility.yul\":3581:3599   */\n      0xffffffffffffffff\n        /* \"#utility.yul\":3573:3579   */\n      dup2\n        /* \"#utility.yul\":3570:3600   */\n      gt\n        /* \"#utility.yul\":3567:3684   */\n      iszero\n      tag_216\n      jumpi\n        /* \"#utility.yul\":3603:3682   */\n      tag_217\n      tag_114\n      jump\t// in\n    tag_217:\n        /* \"#utility.yul\":3567:3684   */\n    tag_216:\n        /* \"#utility.yul\":3708:3771   */\n      tag_218\n        /* \"#utility.yul\":3763:3770   */\n      dup8\n        /* \"#utility.yul\":3754:3760   */\n      dup3\n        /* \"#utility.yul\":3743:3752   */\n      dup9\n        /* \"#utility.yul\":3739:3761   */\n      add\n        /* \"#utility.yul\":3708:3771   */\n      tag_124\n      jump\t// in\n    tag_218:\n        /* \"#utility.yul\":3698:3771   */\n      swap4\n      pop\n        /* \"#utility.yul\":3493:3781   */\n      pop\n        /* \"#utility.yul\":3848:3850   */\n      0x40\n        /* \"#utility.yul\":3837:3846   */\n      dup6\n        /* \"#utility.yul\":3833:3851   */\n      add\n        /* \"#utility.yul\":3820:3852   */\n      calldataload\n        /* \"#utility.yul\":3879:3897   */\n      0xffffffffffffffff\n        /* \"#utility.yul\":3871:3877   */\n      dup2\n        /* \"#utility.yul\":3868:3898   */\n      gt\n        /* \"#utility.yul\":3865:3982   */\n      iszero\n      tag_219\n      jumpi\n        /* \"#utility.yul\":3901:3980   */\n      tag_220\n      tag_114\n      jump\t// in\n    tag_220:\n        /* \"#utility.yul\":3865:3982   */\n    tag_219:\n        /* \"#utility.yul\":4006:4069   */\n      tag_221\n        /* \"#utility.yul\":4061:4068   */\n      dup8\n        /* \"#utility.yul\":4052:4058   */\n      dup3\n        /* \"#utility.yul\":4041:4050   */\n      dup9\n        /* \"#utility.yul\":4037:4059   */\n      add\n        /* \"#utility.yul\":4006:4069   */\n      tag_124\n      jump\t// in\n    tag_221:\n        /* \"#utility.yul\":3996:4069   */\n      swap3\n      pop\n        /* \"#utility.yul\":3791:4079   */\n      pop\n        /* \"#utility.yul\":4118:4120   */\n      0x60\n        /* \"#utility.yul\":4144:4197   */\n      tag_222\n        /* \"#utility.yul\":4189:4196   */\n      dup8\n        /* \"#utility.yul\":4180:4186   */\n      dup3\n        /* \"#utility.yul\":4169:4178   */\n      dup9\n        /* \"#utility.yul\":4165:4187   */\n      add\n        /* \"#utility.yul\":4144:4197   */\n      tag_127\n      jump\t// in\n    tag_222:\n        /* \"#utility.yul\":4134:4197   */\n      swap2\n      pop\n        /* \"#utility.yul\":4089:4207   */\n      pop\n        /* \"#utility.yul\":2909:4214   */\n      swap3\n      swap6\n      swap2\n      swap5\n      pop\n      swap3\n      pop\n      jump\t// out\n        /* \"#utility.yul\":4220:4297   */\n    tag_128:\n        /* \"#utility.yul\":4257:4264   */\n      0x00\n        /* \"#utility.yul\":4286:4291   */\n      dup2\n        /* \"#utility.yul\":4275:4291   */\n      swap1\n      pop\n        /* \"#utility.yul\":4220:4297   */\n      swap2\n      swap1\n      pop\n      jump\t// out\n        /* \"#utility.yul\":4303:4425   */\n    tag_129:\n        /* \"#utility.yul\":4376:4400   */\n      tag_225\n        /* \"#utility.yul\":4394:4399   */\n      dup2\n        /* \"#utility.yul\":4376:4400   */\n      tag_128\n      jump\t// in\n    tag_225:\n        /* \"#utility.yul\":4369:4374   */\n      dup2\n        /* \"#utility.yul\":4366:4401   */\n      eq\n        /* \"#utility.yul\":4356:4419   */\n      tag_226\n      jumpi\n        /* \"#utility.yul\":4415:4416   */\n      0x00\n        /* \"#utility.yul\":4412:4413   */\n      dup1\n        /* \"#utility.yul\":4405:4417   */\n      revert\n        /* \"#utility.yul\":4356:4419   */\n    tag_226:\n        /* \"#utility.yul\":4303:4425   */\n      pop\n      jump\t// out\n        /* \"#utility.yul\":4431:4570   */\n    tag_130:\n        /* \"#utility.yul\":4477:4482   */\n      0x00\n        /* \"#utility.yul\":4515:4521   */\n      dup2\n        /* \"#utility.yul\":4502:4522   */\n      calldataload\n        /* \"#utility.yul\":4493:4522   */\n      swap1\n      pop\n        /* \"#utility.yul\":4531:4564   */\n      tag_228\n        /* \"#utility.yul\":4558:4563   */\n      dup2\n        /* \"#utility.yul\":4531:4564   */\n      tag_129\n      jump\t// in\n    tag_228:\n        /* \"#utility.yul\":4431:4570   */\n      swap3\n      swap2\n      pop\n      pop\n      jump\t// out\n        /* \"#utility.yul\":4576:4666   */\n    tag_131:\n        /* \"#utility.yul\":4610:4617   */\n      0x00\n        /* \"#utility.yul\":4653:4658   */\n      dup2\n        /* \"#utility.yul\":4646:4659   */\n      iszero\n        /* \"#utility.yul\":4639:4660   */\n      iszero\n        /* \"#utility.yul\":4628:4660   */\n      swap1\n      pop\n        /* \"#utility.yul\":4576:4666   */\n      swap2\n      swap1\n      pop\n      jump\t// out\n        /* \"#utility.yul\":4672:4788   */\n    tag_132:\n        /* \"#utility.yul\":4742:4763   */\n      tag_231\n        /* \"#utility.yul\":4757:4762   */\n      dup2\n        /* \"#utility.yul\":4742:4763   */\n      tag_131\n      jump\t// in\n    tag_231:\n        /* \"#utility.yul\":4735:4740   */\n      dup2\n        /* \"#utility.yul\":4732:4764   */\n      eq\n        /* \"#utility.yul\":4722:4782   */\n      tag_232\n      jumpi\n        /* \"#utility.yul\":4778:4779   */\n      0x00\n        /* \"#utility.yul\":4775:4776   */\n      dup1\n        /* \"#utility.yul\":4768:4780   */\n      revert\n        /* \"#utility.yul\":4722:4782   */\n    tag_232:\n        /* \"#utility.yul\":4672:4788   */\n      pop\n      jump\t// out\n        /* \"#utility.yul\":4794:4927   */\n    tag_133:\n        /* \"#utility.yul\":4837:4842   */\n      0x00\n        /* \"#utility.yul\":4875:4881   */\n      dup2\n        /* \"#utility.yul\":4862:4882   */\n      calldataload\n        /* \"#utility.yul\":4853:4882   */\n      swap1\n      pop\n        /* \"#utility.yul\":4891:4921   */\n      tag_234\n        /* \"#utility.yul\":4915:4920   */\n      dup2\n        /* \"#utility.yul\":4891:4921   */\n      tag_132\n      jump\t// in\n    tag_234:\n        /* \"#utility.yul\":4794:4927   */\n      swap3\n      swap2\n      pop\n      pop\n      jump\t// out\n        /* \"#utility.yul\":4933:5401   */\n    tag_19:\n        /* \"#utility.yul\":4998:5004   */\n      0x00\n        /* \"#utility.yul\":5006:5012   */\n      dup1\n        /* \"#utility.yul\":5055:5057   */\n      0x40\n        /* \"#utility.yul\":5043:5052   */\n      dup4\n        /* \"#utility.yul\":5034:5041   */\n      dup6\n        /* \"#utility.yul\":5030:5053   */\n      sub\n        /* \"#utility.yul\":5026:5058   */\n      slt\n        /* \"#utility.yul\":5023:5142   */\n      iszero\n      tag_236\n      jumpi\n        /* \"#utility.yul\":5061:5140   */\n      tag_237\n      tag_113\n      jump\t// in\n    tag_237:\n        /* \"#utility.yul\":5023:5142   */\n    tag_236:\n        /* \"#utility.yul\":5181:5182   */\n      0x00\n        /* \"#utility.yul\":5206:5259   */\n      tag_238\n        /* \"#utility.yul\":5251:5258   */\n      dup6\n        /* \"#utility.yul\":5242:5248   */\n      dup3\n        /* \"#utility.yul\":5231:5240   */\n      dup7\n        /* \"#utility.yul\":5227:5249   */\n      add\n        /* \"#utility.yul\":5206:5259   */\n      tag_130\n      jump\t// in\n    tag_238:\n        /* \"#utility.yul\":5196:5259   */\n      swap3\n      pop\n        /* \"#utility.yul\":5152:5269   */\n      pop\n        /* \"#utility.yul\":5308:5310   */\n      0x20\n        /* \"#utility.yul\":5334:5384   */\n      tag_239\n        /* \"#utility.yul\":5376:5383   */\n      dup6\n        /* \"#utility.yul\":5367:5373   */\n      dup3\n        /* \"#utility.yul\":5356:5365   */\n      dup7\n        /* \"#utility.yul\":5352:5374   */\n      add\n        /* \"#utility.yul\":5334:5384   */\n      tag_133\n      jump\t// in\n    tag_239:\n        /* \"#utility.yul\":5324:5384   */\n      swap2\n      pop\n        /* \"#utility.yul\":5279:5394   */\n      pop\n        /* \"#utility.yul\":4933:5401   */\n      swap3\n      pop\n      swap3\n      swap1\n      pop\n      jump\t// out\n        /* \"#utility.yul\":5407:6026   */\n    tag_23:\n        /* \"#utility.yul\":5484:5490   */\n      0x00\n        /* \"#utility.yul\":5492:5498   */\n      dup1\n        /* \"#utility.yul\":5500:5506   */\n      0x00\n        /* \"#utility.yul\":5549:5551   */\n      0x60\n        /* \"#utility.yul\":5537:5546   */\n      dup5\n        /* \"#utility.yul\":5528:5535   */\n      dup7\n        /* \"#utility.yul\":5524:5547   */\n      sub\n        /* \"#utility.yul\":5520:5552   */\n      slt\n        /* \"#utility.yul\":5517:5636   */\n      iszero\n      tag_241\n      jumpi\n        /* \"#utility.yul\":5555:5634   */\n      tag_242\n      tag_113\n      jump\t// in\n    tag_242:\n        /* \"#utility.yul\":5517:5636   */\n    tag_241:\n        /* \"#utility.yul\":5675:5676   */\n      0x00\n        /* \"#utility.yul\":5700:5753   */\n      tag_243\n        /* \"#utility.yul\":5745:5752   */\n      dup7\n        /* \"#utility.yul\":5736:5742   */\n      dup3\n        /* \"#utility.yul\":5725:5734   */\n      dup8\n        /* \"#utility.yul\":5721:5743   */\n      add\n        /* \"#utility.yul\":5700:5753   */\n      tag_127\n      jump\t// in\n    tag_243:\n        /* \"#utility.yul\":5690:5753   */\n      swap4\n      pop\n        /* \"#utility.yul\":5646:5763   */\n      pop\n        /* \"#utility.yul\":5802:5804   */\n      0x20\n        /* \"#utility.yul\":5828:5881   */\n      tag_244\n        /* \"#utility.yul\":5873:5880   */\n      dup7\n        /* \"#utility.yul\":5864:5870   */\n      dup3\n        /* \"#utility.yul\":5853:5862   */\n      dup8\n        /* \"#utility.yul\":5849:5871   */\n      add\n        /* \"#utility.yul\":5828:5881   */\n      tag_127\n      jump\t// in\n    tag_244:\n        /* \"#utility.yul\":5818:5881   */\n      swap3\n      pop\n        /* \"#utility.yul\":5773:5891   */\n      pop\n        /* \"#utility.yul\":5930:5932   */\n      0x40\n        /* \"#utility.yul\":5956:6009   */\n      tag_245\n        /* \"#utility.yul\":6001:6008   */\n      dup7\n        /* \"#utility.yul\":5992:5998   */\n      dup3\n        /* \"#utility.yul\":5981:5990   */\n      dup8\n        /* \"#utility.yul\":5977:5999   */\n      add\n        /* \"#utility.yul\":5956:6009   */\n      tag_127\n      jump\t// in\n    tag_245:\n        /* \"#utility.yul\":5946:6009   */\n      swap2\n      pop\n        /* \"#utility.yul\":5901:6019   */\n      pop\n        /* \"#utility.yul\":5407:6026   */\n      swap3\n      pop\n      swap3\n      pop\n      swap3\n      jump\t// out\n        /* \"#utility.yul\":6032:6150   */\n    tag_134:\n        /* \"#utility.yul\":6119:6143   */\n      tag_247\n        /* \"#utility.yul\":6137:6142   */\n      dup2\n        /* \"#utility.yul\":6119:6143   */\n      tag_125\n      jump\t// in\n    tag_247:\n        /* \"#utility.yul\":6114:6117   */\n      dup3\n        /* \"#utility.yul\":6107:6144   */\n      mstore\n        /* \"#utility.yul\":6032:6150   */\n      pop\n      pop\n      jump\t// out\n        /* \"#utility.yul\":6156:6378   */\n    tag_26:\n        /* \"#utility.yul\":6249:6253   */\n      0x00\n        /* \"#utility.yul\":6287:6289   */\n      0x20\n        /* \"#utility.yul\":6276:6285   */\n      dup3\n        /* \"#utility.yul\":6272:6290   */\n      add\n        /* \"#utility.yul\":6264:6290   */\n      swap1\n      pop\n        /* \"#utility.yul\":6300:6371   */\n      tag_249\n        /* \"#utility.yul\":6368:6369   */\n      0x00\n        /* \"#utility.yul\":6357:6366   */\n      dup4\n        /* \"#utility.yul\":6353:6370   */\n      add\n        /* \"#utility.yul\":6344:6350   */\n      dup5\n        /* \"#utility.yul\":6300:6371   */\n      tag_134\n      jump\t// in\n    tag_249:\n        /* \"#utility.yul\":6156:6378   */\n      swap3\n      swap2\n      pop\n      pop\n      jump\t// out\n        /* \"#utility.yul\":6384:6510   */\n    tag_135:\n        /* \"#utility.yul\":6421:6428   */\n      0x00\n        /* \"#utility.yul\":6461:6503   */\n      0xffffffffffffffffffffffffffffffffffffffff\n        /* \"#utility.yul\":6454:6459   */\n      dup3\n        /* \"#utility.yul\":6450:6504   */\n      and\n        /* \"#utility.yul\":6439:6504   */\n      swap1\n      pop\n        /* \"#utility.yul\":6384:6510   */\n      swap2\n      swap1\n      pop\n      jump\t// out\n        /* \"#utility.yul\":6516:6612   */\n    tag_136:\n        /* \"#utility.yul\":6553:6560   */\n      0x00\n        /* \"#utility.yul\":6582:6606   */\n      tag_252\n        /* \"#utility.yul\":6600:6605   */\n      dup3\n        /* \"#utility.yul\":6582:6606   */\n      tag_135\n      jump\t// in\n    tag_252:\n        /* \"#utility.yul\":6571:6606   */\n      swap1\n      pop\n        /* \"#utility.yul\":6516:6612   */\n      swap2\n      swap1\n      pop\n      jump\t// out\n        /* \"#utility.yul\":6618:6740   */\n    tag_137:\n        /* \"#utility.yul\":6691:6715   */\n      tag_254\n        /* \"#utility.yul\":6709:6714   */\n      dup2\n        /* \"#utility.yul\":6691:6715   */\n      tag_136\n      jump\t// in\n    tag_254:\n        /* \"#utility.yul\":6684:6689   */\n      dup2\n        /* \"#utility.yul\":6681:6716   */\n      eq\n        /* \"#utility.yul\":6671:6734   */\n      tag_255\n      jumpi\n        /* \"#utility.yul\":6730:6731   */\n      0x00\n        /* \"#utility.yul\":6727:6728   */\n      dup1\n        /* \"#utility.yul\":6720:6732   */\n      revert\n        /* \"#utility.yul\":6671:6734   */\n    tag_255:\n        /* \"#utility.yul\":6618:6740   */\n      pop\n      jump\t// out\n        /* \"#utility.yul\":6746:6885   */\n    tag_138:\n        /* \"#utility.yul\":6792:6797   */\n      0x00\n        /* \"#utility.yul\":6830:6836   */\n      dup2\n        /* \"#utility.yul\":6817:6837   */\n      calldataload\n        /* \"#utility.yul\":6808:6837   */\n      swap1\n      pop\n        /* \"#utility.yul\":6846:6879   */\n      tag_257\n        /* \"#utility.yul\":6873:6878   */\n      dup2\n        /* \"#utility.yul\":6846:6879   */\n      tag_137\n      jump\t// in\n    tag_257:\n        /* \"#utility.yul\":6746:6885   */\n      swap3\n      swap2\n      pop\n      pop\n      jump\t// out\n        /* \"#utility.yul\":6891:7510   */\n    tag_33:\n        /* \"#utility.yul\":6968:6974   */\n      0x00\n        /* \"#utility.yul\":6976:6982   */\n      dup1\n        /* \"#utility.yul\":6984:6990   */\n      0x00\n        /* \"#utility.yul\":7033:7035   */\n      0x60\n        /* \"#utility.yul\":7021:7030   */\n      dup5\n        /* \"#utility.yul\":7012:7019   */\n      dup7\n        /* \"#utility.yul\":7008:7031   */\n      sub\n        /* \"#utility.yul\":7004:7036   */\n      slt\n        /* \"#utility.yul\":7001:7120   */\n      iszero\n      tag_259\n      jumpi\n        /* \"#utility.yul\":7039:7118   */\n      tag_260\n      tag_113\n      jump\t// in\n    tag_260:\n        /* \"#utility.yul\":7001:7120   */\n    tag_259:\n        /* \"#utility.yul\":7159:7160   */\n      0x00\n        /* \"#utility.yul\":7184:7237   */\n      tag_261\n        /* \"#utility.yul\":7229:7236   */\n      dup7\n        /* \"#utility.yul\":7220:7226   */\n      dup3\n        /* \"#utility.yul\":7209:7218   */\n      dup8\n        /* \"#utility.yul\":7205:7227   */\n      add\n        /* \"#utility.yul\":7184:7237   */\n      tag_138\n      jump\t// in\n    tag_261:\n        /* \"#utility.yul\":7174:7237   */\n      swap4\n      pop\n        /* \"#utility.yul\":7130:7247   */\n      pop\n        /* \"#utility.yul\":7286:7288   */\n      0x20\n        /* \"#utility.yul\":7312:7365   */\n      tag_262\n        /* \"#utility.yul\":7357:7364   */\n      dup7\n        /* \"#utility.yul\":7348:7354   */\n      dup3\n        /* \"#utility.yul\":7337:7346   */\n      dup8\n        /* \"#utility.yul\":7333:7355   */\n      add\n        /* \"#utility.yul\":7312:7365   */\n      tag_138\n      jump\t// in\n    tag_262:\n        /* \"#utility.yul\":7302:7365   */\n      swap3\n      pop\n        /* \"#utility.yul\":7257:7375   */\n      pop\n        /* \"#utility.yul\":7414:7416   */\n      0x40\n        /* \"#utility.yul\":7440:7493   */\n      tag_263\n        /* \"#utility.yul\":7485:7492   */\n      dup7\n        /* \"#utility.yul\":7476:7482   */\n      dup3\n        /* \"#utility.yul\":7465:7474   */\n      dup8\n        /* \"#utility.yul\":7461:7483   */\n      add\n        /* \"#utility.yul\":7440:7493   */\n      tag_127\n      jump\t// in\n    tag_263:\n        /* \"#utility.yul\":7430:7493   */\n      swap2\n      pop\n        /* \"#utility.yul\":7385:7503   */\n      pop\n        /* \"#utility.yul\":6891:7510   */\n      swap3\n      pop\n      swap3\n      pop\n      swap3\n      jump\t// out\n        /* \"#utility.yul\":7516:7634   */\n    tag_139:\n        /* \"#utility.yul\":7603:7627   */\n      tag_265\n        /* \"#utility.yul\":7621:7626   */\n      dup2\n        /* \"#utility.yul\":7603:7627   */\n      tag_136\n      jump\t// in\n    tag_265:\n        /* \"#utility.yul\":7598:7601   */\n      dup3\n        /* \"#utility.yul\":7591:7628   */\n      mstore\n        /* \"#utility.yul\":7516:7634   */\n      pop\n      pop\n      jump\t// out\n        /* \"#utility.yul\":7640:7862   */\n    tag_38:\n        /* \"#utility.yul\":7733:7737   */\n      0x00\n        /* \"#utility.yul\":7771:7773   */\n      0x20\n        /* \"#utility.yul\":7760:7769   */\n      dup3\n        /* \"#utility.yul\":7756:7774   */\n      add\n        /* \"#utility.yul\":7748:7774   */\n      swap1\n      pop\n        /* \"#utility.yul\":7784:7855   */\n      tag_267\n        /* \"#utility.yul\":7852:7853   */\n      0x00\n        /* \"#utility.yul\":7841:7850   */\n      dup4\n        /* \"#utility.yul\":7837:7854   */\n      add\n        /* \"#utility.yul\":7828:7834   */\n      dup5\n        /* \"#utility.yul\":7784:7855   */\n      tag_139\n      jump\t// in\n    tag_267:\n        /* \"#utility.yul\":7640:7862   */\n      swap3\n      swap2\n      pop\n      pop\n      jump\t// out\n        /* \"#utility.yul\":7868:8633   */\n    tag_41:\n        /* \"#utility.yul\":7954:7960   */\n      0x00\n        /* \"#utility.yul\":7962:7968   */\n      dup1\n        /* \"#utility.yul\":7970:7976   */\n      0x00\n        /* \"#utility.yul\":7978:7984   */\n      dup1\n        /* \"#utility.yul\":8027:8030   */\n      0x80\n        /* \"#utility.yul\":8015:8024   */\n      dup6\n        /* \"#utility.yul\":8006:8013   */\n      dup8\n        /* \"#utility.yul\":8002:8025   */\n      sub\n        /* \"#utility.yul\":7998:8031   */\n      slt\n        /* \"#utility.yul\":7995:8115   */\n      iszero\n      tag_269\n      jumpi\n        /* \"#utility.yul\":8034:8113   */\n      tag_270\n      tag_113\n      jump\t// in\n    tag_270:\n        /* \"#utility.yul\":7995:8115   */\n    tag_269:\n        /* \"#utility.yul\":8154:8155   */\n      0x00\n        /* \"#utility.yul\":8179:8232   */\n      tag_271\n        /* \"#utility.yul\":8224:8231   */\n      dup8\n        /* \"#utility.yul\":8215:8221   */\n      dup3\n        /* \"#utility.yul\":8204:8213   */\n      dup9\n        /* \"#utility.yul\":8200:8222   */\n      add\n        /* \"#utility.yul\":8179:8232   */\n      tag_127\n      jump\t// in\n    tag_271:\n        /* \"#utility.yul\":8169:8232   */\n      swap5\n      pop\n        /* \"#utility.yul\":8125:8242   */\n      pop\n        /* \"#utility.yul\":8281:8283   */\n      0x20\n        /* \"#utility.yul\":8307:8360   */\n      tag_272\n        /* \"#utility.yul\":8352:8359   */\n      dup8\n        /* \"#utility.yul\":8343:8349   */\n      dup3\n        /* \"#utility.yul\":8332:8341   */\n      dup9\n        /* \"#utility.yul\":8328:8350   */\n      add\n        /* \"#utility.yul\":8307:8360   */\n      tag_138\n      jump\t// in\n    tag_272:\n        /* \"#utility.yul\":8297:8360   */\n      swap4\n      pop\n        /* \"#utility.yul\":8252:8370   */\n      pop\n        /* \"#utility.yul\":8409:8411   */\n      0x40\n        /* \"#utility.yul\":8435:8488   */\n      tag_273\n        /* \"#utility.yul\":8480:8487   */\n      dup8\n        /* \"#utility.yul\":8471:8477   */\n      dup3\n        /* \"#utility.yul\":8460:8469   */\n      dup9\n        /* \"#utility.yul\":8456:8478   */\n      add\n        /* \"#utility.yul\":8435:8488   */\n      tag_138\n      jump\t// in\n    tag_273:\n        /* \"#utility.yul\":8425:8488   */\n      swap3\n      pop\n        /* \"#utility.yul\":8380:8498   */\n      pop\n        /* \"#utility.yul\":8537:8539   */\n      0x60\n        /* \"#utility.yul\":8563:8616   */\n      tag_274\n        /* \"#utility.yul\":8608:8615   */\n      dup8\n        /* \"#utility.yul\":8599:8605   */\n      dup3\n        /* \"#utility.yul\":8588:8597   */\n      dup9\n        /* \"#utility.yul\":8584:8606   */\n      add\n        /* \"#utility.yul\":8563:8616   */\n      tag_127\n      jump\t// in\n    tag_274:\n        /* \"#utility.yul\":8553:8616   */\n      swap2\n      pop\n        /* \"#utility.yul\":8508:8626   */\n      pop\n        /* \"#utility.yul\":7868:8633   */\n      swap3\n      swap6\n      swap2\n      swap5\n      pop\n      swap3\n      pop\n      jump\t// out\n        /* \"#utility.yul\":8639:8757   */\n    tag_140:\n        /* \"#utility.yul\":8726:8750   */\n      tag_276\n        /* \"#utility.yul\":8744:8749   */\n      dup2\n        /* \"#utility.yul\":8726:8750   */\n      tag_128\n      jump\t// in\n    tag_276:\n        /* \"#utility.yul\":8721:8724   */\n      dup3\n        /* \"#utility.yul\":8714:8751   */\n      mstore\n        /* \"#utility.yul\":8639:8757   */\n      pop\n      pop\n      jump\t// out\n        /* \"#utility.yul\":8763:8985   */\n    tag_44:\n        /* \"#utility.yul\":8856:8860   */\n      0x00\n        /* \"#utility.yul\":8894:8896   */\n      0x20\n        /* \"#utility.yul\":8883:8892   */\n      dup3\n        /* \"#utility.yul\":8879:8897   */\n      add\n        /* \"#utility.yul\":8871:8897   */\n      swap1\n      pop\n        /* \"#utility.yul\":8907:8978   */\n      tag_278\n        /* \"#utility.yul\":8975:8976   */\n      0x00\n        /* \"#utility.yul\":8964:8973   */\n      dup4\n        /* \"#utility.yul\":8960:8977   */\n      add\n        /* \"#utility.yul\":8951:8957   */\n      dup5\n        /* \"#utility.yul\":8907:8978   */\n      tag_140\n      jump\t// in\n    tag_278:\n        /* \"#utility.yul\":8763:8985   */\n      swap3\n      swap2\n      pop\n      pop\n      jump\t// out\n        /* \"#utility.yul\":8991:9320   */\n    tag_47:\n        /* \"#utility.yul\":9050:9056   */\n      0x00\n        /* \"#utility.yul\":9099:9101   */\n      0x20\n        /* \"#utility.yul\":9087:9096   */\n      dup3\n        /* \"#utility.yul\":9078:9085   */\n      dup5\n        /* \"#utility.yul\":9074:9097   */\n      sub\n        /* \"#utility.yul\":9070:9102   */\n      slt\n        /* \"#utility.yul\":9067:9186   */\n      iszero\n      tag_280\n      jumpi\n        /* \"#utility.yul\":9105:9184   */\n      tag_281\n      tag_113\n      jump\t// in\n    tag_281:\n        /* \"#utility.yul\":9067:9186   */\n    tag_280:\n        /* \"#utility.yul\":9225:9226   */\n      0x00\n        /* \"#utility.yul\":9250:9303   */\n      tag_282\n        /* \"#utility.yul\":9295:9302   */\n      dup5\n        /* \"#utility.yul\":9286:9292   */\n      dup3\n        /* \"#utility.yul\":9275:9284   */\n      dup6\n        /* \"#utility.yul\":9271:9293   */\n      add\n        /* \"#utility.yul\":9250:9303   */\n      tag_138\n      jump\t// in\n    tag_282:\n        /* \"#utility.yul\":9240:9303   */\n      swap2\n      pop\n        /* \"#utility.yul\":9196:9313   */\n      pop\n        /* \"#utility.yul\":8991:9320   */\n      swap3\n      swap2\n      pop\n      pop\n      jump\t// out\n        /* \"#utility.yul\":9326:9435   */\n    tag_141:\n        /* \"#utility.yul\":9407:9428   */\n      tag_284\n        /* \"#utility.yul\":9422:9427   */\n      dup2\n        /* \"#utility.yul\":9407:9428   */\n      tag_131\n      jump\t// in\n    tag_284:\n        /* \"#utility.yul\":9402:9405   */\n      dup3\n        /* \"#utility.yul\":9395:9429   */\n      mstore\n        /* \"#utility.yul\":9326:9435   */\n      pop\n      pop\n      jump\t// out\n        /* \"#utility.yul\":9441:9651   */\n    tag_50:\n        /* \"#utility.yul\":9528:9532   */\n      0x00\n        /* \"#utility.yul\":9566:9568   */\n      0x20\n        /* \"#utility.yul\":9555:9564   */\n      dup3\n        /* \"#utility.yul\":9551:9569   */\n      add\n        /* \"#utility.yul\":9543:9569   */\n      swap1\n      pop\n        /* \"#utility.yul\":9579:9644   */\n      tag_286\n        /* \"#utility.yul\":9641:9642   */\n      0x00\n        /* \"#utility.yul\":9630:9639   */\n      dup4\n        /* \"#utility.yul\":9626:9643   */\n      add\n        /* \"#utility.yul\":9617:9623   */\n      dup5\n        /* \"#utility.yul\":9579:9644   */\n      tag_141\n      jump\t// in\n    tag_286:\n        /* \"#utility.yul\":9441:9651   */\n      swap3\n      swap2\n      pop\n      pop\n      jump\t// out\n        /* \"#utility.yul\":9657:9756   */\n    tag_142:\n        /* \"#utility.yul\":9709:9715   */\n      0x00\n        /* \"#utility.yul\":9743:9748   */\n      dup2\n        /* \"#utility.yul\":9737:9749   */\n      mload\n        /* \"#utility.yul\":9727:9749   */\n      swap1\n      pop\n        /* \"#utility.yul\":9657:9756   */\n      swap2\n      swap1\n      pop\n      jump\t// out\n        /* \"#utility.yul\":9762:9931   */\n    tag_143:\n        /* \"#utility.yul\":9846:9857   */\n      0x00\n        /* \"#utility.yul\":9880:9886   */\n      dup3\n        /* \"#utility.yul\":9875:9878   */\n      dup3\n        /* \"#utility.yul\":9868:9887   */\n      mstore\n        /* \"#utility.yul\":9920:9924   */\n      0x20\n        /* \"#utility.yul\":9915:9918   */\n      dup3\n        /* \"#utility.yul\":9911:9925   */\n      add\n        /* \"#utility.yul\":9896:9925   */\n      swap1\n      pop\n        /* \"#utility.yul\":9762:9931   */\n      swap3\n      swap2\n      pop\n      pop\n      jump\t// out\n        /* \"#utility.yul\":9937:10183   */\n    tag_144:\n        /* \"#utility.yul\":10018:10019   */\n      0x00\n        /* \"#utility.yul\":10028:10141   */\n    tag_290:\n        /* \"#utility.yul\":10042:10048   */\n      dup4\n        /* \"#utility.yul\":10039:10040   */\n      dup2\n        /* \"#utility.yul\":10036:10049   */\n      lt\n        /* \"#utility.yul\":10028:10141   */\n      iszero\n      tag_292\n      jumpi\n        /* \"#utility.yul\":10127:10128   */\n      dup1\n        /* \"#utility.yul\":10122:10125   */\n      dup3\n        /* \"#utility.yul\":10118:10129   */\n      add\n        /* \"#utility.yul\":10112:10130   */\n      mload\n        /* \"#utility.yul\":10108:10109   */\n      dup2\n        /* \"#utility.yul\":10103:10106   */\n      dup5\n        /* \"#utility.yul\":10099:10110   */\n      add\n        /* \"#utility.yul\":10092:10131   */\n      mstore\n        /* \"#utility.yul\":10064:10066   */\n      0x20\n        /* \"#utility.yul\":10061:10062   */\n      dup2\n        /* \"#utility.yul\":10057:10067   */\n      add\n        /* \"#utility.yul\":10052:10067   */\n      swap1\n      pop\n        /* \"#utility.yul\":10028:10141   */\n      jump(tag_290)\n    tag_292:\n        /* \"#utility.yul\":10175:10176   */\n      0x00\n        /* \"#utility.yul\":10166:10172   */\n      dup5\n        /* \"#utility.yul\":10161:10164   */\n      dup5\n        /* \"#utility.yul\":10157:10173   */\n      add\n        /* \"#utility.yul\":10150:10177   */\n      mstore\n        /* \"#utility.yul\":9999:10183   */\n      pop\n        /* \"#utility.yul\":9937:10183   */\n      pop\n      pop\n      pop\n      jump\t// out\n        /* \"#utility.yul\":10189:10566   */\n    tag_145:\n        /* \"#utility.yul\":10277:10280   */\n      0x00\n        /* \"#utility.yul\":10305:10344   */\n      tag_294\n        /* \"#utility.yul\":10338:10343   */\n      dup3\n        /* \"#utility.yul\":10305:10344   */\n      tag_142\n      jump\t// in\n    tag_294:\n        /* \"#utility.yul\":10360:10431   */\n      tag_295\n        /* \"#utility.yul\":10424:10430   */\n      dup2\n        /* \"#utility.yul\":10419:10422   */\n      dup6\n        /* \"#utility.yul\":10360:10431   */\n      tag_143\n      jump\t// in\n    tag_295:\n        /* \"#utility.yul\":10353:10431   */\n      swap4\n      pop\n        /* \"#utility.yul\":10440:10505   */\n      tag_296\n        /* \"#utility.yul\":10498:10504   */\n      dup2\n        /* \"#utility.yul\":10493:10496   */\n      dup6\n        /* \"#utility.yul\":10486:10490   */\n      0x20\n        /* \"#utility.yul\":10479:10484   */\n      dup7\n        /* \"#utility.yul\":10475:10491   */\n      add\n        /* \"#utility.yul\":10440:10505   */\n      tag_144\n      jump\t// in\n    tag_296:\n        /* \"#utility.yul\":10530:10559   */\n      tag_297\n        /* \"#utility.yul\":10552:10558   */\n      dup2\n        /* \"#utility.yul\":10530:10559   */\n      tag_117\n      jump\t// in\n    tag_297:\n        /* \"#utility.yul\":10525:10528   */\n      dup5\n        /* \"#utility.yul\":10521:10560   */\n      add\n        /* \"#utility.yul\":10514:10560   */\n      swap2\n      pop\n        /* \"#utility.yul\":10281:10566   */\n      pop\n        /* \"#utility.yul\":10189:10566   */\n      swap3\n      swap2\n      pop\n      pop\n      jump\t// out\n        /* \"#utility.yul\":10572:11398   */\n    tag_55:\n        /* \"#utility.yul\":10809:10813   */\n      0x00\n        /* \"#utility.yul\":10847:10850   */\n      0x80\n        /* \"#utility.yul\":10836:10845   */\n      dup3\n        /* \"#utility.yul\":10832:10851   */\n      add\n        /* \"#utility.yul\":10824:10851   */\n      swap1\n      pop\n        /* \"#utility.yul\":10897:10906   */\n      dup2\n        /* \"#utility.yul\":10891:10895   */\n      dup2\n        /* \"#utility.yul\":10887:10907   */\n      sub\n        /* \"#utility.yul\":10883:10884   */\n      0x00\n        /* \"#utility.yul\":10872:10881   */\n      dup4\n        /* \"#utility.yul\":10868:10885   */\n      add\n        /* \"#utility.yul\":10861:10908   */\n      mstore\n        /* \"#utility.yul\":10925:11003   */\n      tag_299\n        /* \"#utility.yul\":10998:11002   */\n      dup2\n        /* \"#utility.yul\":10989:10995   */\n      dup8\n        /* \"#utility.yul\":10925:11003   */\n      tag_145\n      jump\t// in\n    tag_299:\n        /* \"#utility.yul\":10917:11003   */\n      swap1\n      pop\n        /* \"#utility.yul\":11050:11059   */\n      dup2\n        /* \"#utility.yul\":11044:11048   */\n      dup2\n        /* \"#utility.yul\":11040:11060   */\n      sub\n        /* \"#utility.yul\":11035:11037   */\n      0x20\n        /* \"#utility.yul\":11024:11033   */\n      dup4\n        /* \"#utility.yul\":11020:11038   */\n      add\n        /* \"#utility.yul\":11013:11061   */\n      mstore\n        /* \"#utility.yul\":11078:11156   */\n      tag_300\n        /* \"#utility.yul\":11151:11155   */\n      dup2\n        /* \"#utility.yul\":11142:11148   */\n      dup7\n        /* \"#utility.yul\":11078:11156   */\n      tag_145\n      jump\t// in\n    tag_300:\n        /* \"#utility.yul\":11070:11156   */\n      swap1\n      pop\n        /* \"#utility.yul\":11203:11212   */\n      dup2\n        /* \"#utility.yul\":11197:11201   */\n      dup2\n        /* \"#utility.yul\":11193:11213   */\n      sub\n        /* \"#utility.yul\":11188:11190   */\n      0x40\n        /* \"#utility.yul\":11177:11186   */\n      dup4\n        /* \"#utility.yul\":11173:11191   */\n      add\n        /* \"#utility.yul\":11166:11214   */\n      mstore\n        /* \"#utility.yul\":11231:11309   */\n      tag_301\n        /* \"#utility.yul\":11304:11308   */\n      dup2\n        /* \"#utility.yul\":11295:11301   */\n      dup6\n        /* \"#utility.yul\":11231:11309   */\n      tag_145\n      jump\t// in\n    tag_301:\n        /* \"#utility.yul\":11223:11309   */\n      swap1\n      pop\n        /* \"#utility.yul\":11319:11391   */\n      tag_302\n        /* \"#utility.yul\":11387:11389   */\n      0x60\n        /* \"#utility.yul\":11376:11385   */\n      dup4\n        /* \"#utility.yul\":11372:11390   */\n      add\n        /* \"#utility.yul\":11363:11369   */\n      dup5\n        /* \"#utility.yul\":11319:11391   */\n      tag_134\n      jump\t// in\n    tag_302:\n        /* \"#utility.yul\":10572:11398   */\n      swap6\n      swap5\n      pop\n      pop\n      pop\n      pop\n      pop\n      jump\t// out\n        /* \"#utility.yul\":11404:11578   */\n    tag_146:\n        /* \"#utility.yul\":11544:11570   */\n      0x4163746f7220616c726561647920726567697374657265640000000000000000\n        /* \"#utility.yul\":11540:11541   */\n      0x00\n        /* \"#utility.yul\":11532:11538   */\n      dup3\n        /* \"#utility.yul\":11528:11542   */\n      add\n        /* \"#utility.yul\":11521:11571   */\n      mstore\n        /* \"#utility.yul\":11404:11578   */\n      pop\n      jump\t// out\n        /* \"#utility.yul\":11584:11950   */\n    tag_147:\n        /* \"#utility.yul\":11726:11729   */\n      0x00\n        /* \"#utility.yul\":11747:11814   */\n      tag_305\n        /* \"#utility.yul\":11811:11813   */\n      0x18\n        /* \"#utility.yul\":11806:11809   */\n      dup4\n        /* \"#utility.yul\":11747:11814   */\n      tag_143\n      jump\t// in\n    tag_305:\n        /* \"#utility.yul\":11740:11814   */\n      swap2\n      pop\n        /* \"#utility.yul\":11823:11916   */\n      tag_306\n        /* \"#utility.yul\":11912:11915   */\n      dup3\n        /* \"#utility.yul\":11823:11916   */\n      tag_146\n      jump\t// in\n    tag_306:\n        /* \"#utility.yul\":11941:11943   */\n      0x20\n        /* \"#utility.yul\":11936:11939   */\n      dup3\n        /* \"#utility.yul\":11932:11944   */\n      add\n        /* \"#utility.yul\":11925:11944   */\n      swap1\n      pop\n        /* \"#utility.yul\":11584:11950   */\n      swap2\n      swap1\n      pop\n      jump\t// out\n        /* \"#utility.yul\":11956:12375   */\n    tag_59:\n        /* \"#utility.yul\":12122:12126   */\n      0x00\n        /* \"#utility.yul\":12160:12162   */\n      0x20\n        /* \"#utility.yul\":12149:12158   */\n      dup3\n        /* \"#utility.yul\":12145:12163   */\n      add\n        /* \"#utility.yul\":12137:12163   */\n      swap1\n      pop\n        /* \"#utility.yul\":12209:12218   */\n      dup2\n        /* \"#utility.yul\":12203:12207   */\n      dup2\n        /* \"#utility.yul\":12199:12219   */\n      sub\n        /* \"#utility.yul\":12195:12196   */\n      0x00\n        /* \"#utility.yul\":12184:12193   */\n      dup4\n        /* \"#utility.yul\":12180:12197   */\n      add\n        /* \"#utility.yul\":12173:12220   */\n      mstore\n        /* \"#utility.yul\":12237:12368   */\n      tag_308\n        /* \"#utility.yul\":12363:12367   */\n      dup2\n        /* \"#utility.yul\":12237:12368   */\n      tag_147\n      jump\t// in\n    tag_308:\n        /* \"#utility.yul\":12229:12368   */\n      swap1\n      pop\n        /* \"#utility.yul\":11956:12375   */\n      swap2\n      swap1\n      pop\n      jump\t// out\n        /* \"#utility.yul\":12381:12561   */\n    tag_148:\n        /* \"#utility.yul\":12429:12506   */\n      0x4e487b7100000000000000000000000000000000000000000000000000000000\n        /* \"#utility.yul\":12426:12427   */\n      0x00\n        /* \"#utility.yul\":12419:12507   */\n      mstore\n        /* \"#utility.yul\":12526:12530   */\n      0x22\n        /* \"#utility.yul\":12523:12524   */\n      0x04\n        /* \"#utility.yul\":12516:12531   */\n      mstore\n        /* \"#utility.yul\":12550:12554   */\n      0x24\n        /* \"#utility.yul\":12547:12548   */\n      0x00\n        /* \"#utility.yul\":12540:12555   */\n      revert\n        /* \"#utility.yul\":12567:12887   */\n    tag_97:\n        /* \"#utility.yul\":12611:12617   */\n      0x00\n        /* \"#utility.yul\":12648:12649   */\n      0x02\n        /* \"#utility.yul\":12642:12646   */\n      dup3\n        /* \"#utility.yul\":12638:12650   */\n      div\n        /* \"#utility.yul\":12628:12650   */\n      swap1\n      pop\n        /* \"#utility.yul\":12695:12696   */\n      0x01\n        /* \"#utility.yul\":12689:12693   */\n      dup3\n        /* \"#utility.yul\":12685:12697   */\n      and\n        /* \"#utility.yul\":12716:12734   */\n      dup1\n        /* \"#utility.yul\":12706:12787   */\n      tag_311\n      jumpi\n        /* \"#utility.yul\":12772:12776   */\n      0x7f\n        /* \"#utility.yul\":12764:12770   */\n      dup3\n        /* \"#utility.yul\":12760:12777   */\n      and\n        /* \"#utility.yul\":12750:12777   */\n      swap2\n      pop\n        /* \"#utility.yul\":12706:12787   */\n    tag_311:\n        /* \"#utility.yul\":12834:12836   */\n      0x20\n        /* \"#utility.yul\":12826:12832   */\n      dup3\n        /* \"#utility.yul\":12823:12837   */\n      lt\n        /* \"#utility.yul\":12803:12821   */\n      dup2\n        /* \"#utility.yul\":12800:12838   */\n      sub\n        /* \"#utility.yul\":12797:12881   */\n      tag_312\n      jumpi\n        /* \"#utility.yul\":12853:12871   */\n      tag_313\n      tag_148\n      jump\t// in\n    tag_313:\n        /* \"#utility.yul\":12797:12881   */\n    tag_312:\n        /* \"#utility.yul\":12618:12887   */\n      pop\n        /* \"#utility.yul\":12567:12887   */\n      swap2\n      swap1\n      pop\n      jump\t// out\n        /* \"#utility.yul\":12893:13034   */\n    tag_149:\n        /* \"#utility.yul\":12942:12946   */\n      0x00\n        /* \"#utility.yul\":12965:12968   */\n      dup2\n        /* \"#utility.yul\":12957:12968   */\n      swap1\n      pop\n        /* \"#utility.yul\":12988:12991   */\n      dup2\n        /* \"#utility.yul\":12985:12986   */\n      0x00\n        /* \"#utility.yul\":12978:12992   */\n      mstore\n        /* \"#utility.yul\":13022:13026   */\n      0x20\n        /* \"#utility.yul\":13019:13020   */\n      0x00\n        /* \"#utility.yul\":13009:13027   */\n      keccak256\n        /* \"#utility.yul\":13001:13027   */\n      swap1\n      pop\n        /* \"#utility.yul\":12893:13034   */\n      swap2\n      swap1\n      pop\n      jump\t// out\n        /* \"#utility.yul\":13040:13133   */\n    tag_150:\n        /* \"#utility.yul\":13077:13083   */\n      0x00\n        /* \"#utility.yul\":13124:13126   */\n      0x20\n        /* \"#utility.yul\":13119:13121   */\n      0x1f\n        /* \"#utility.yul\":13112:13117   */\n      dup4\n        /* \"#utility.yul\":13108:13122   */\n      add\n        /* \"#utility.yul\":13104:13127   */\n      div\n        /* \"#utility.yul\":13094:13127   */\n      swap1\n      pop\n        /* \"#utility.yul\":13040:13133   */\n      swap2\n      swap1\n      pop\n      jump\t// out\n        /* \"#utility.yul\":13139:13246   */\n    tag_151:\n        /* \"#utility.yul\":13183:13191   */\n      0x00\n        /* \"#utility.yul\":13233:13238   */\n      dup3\n        /* \"#utility.yul\":13227:13231   */\n      dup3\n        /* \"#utility.yul\":13223:13239   */\n      shl\n        /* \"#utility.yul\":13202:13239   */\n      swap1\n      pop\n        /* \"#utility.yul\":13139:13246   */\n      swap3\n      swap2\n      pop\n      pop\n      jump\t// out\n        /* \"#utility.yul\":13252:13645   */\n    tag_152:\n        /* \"#utility.yul\":13321:13327   */\n      0x00\n        /* \"#utility.yul\":13371:13372   */\n      0x08\n        /* \"#utility.yul\":13359:13369   */\n      dup4\n        /* \"#utility.yul\":13355:13373   */\n      mul\n        /* \"#utility.yul\":13394:13491   */\n      tag_318\n        /* \"#utility.yul\":13424:13490   */\n      0xffffffffffffffffffffffffffffffffffffffffffffffffffffffffffffffff\n        /* \"#utility.yul\":13413:13422   */\n      dup3\n        /* \"#utility.yul\":13394:13491   */\n      tag_151\n      jump\t// in\n    tag_318:\n        /* \"#utility.yul\":13512:13551   */\n      tag_319\n        /* \"#utility.yul\":13542:13550   */\n      dup7\n        /* \"#utility.yul\":13531:13540   */\n      dup4\n        /* \"#utility.yul\":13512:13551   */\n      tag_151\n      jump\t// in\n    tag_319:\n        /* \"#utility.yul\":13500:13551   */\n      swap6\n      pop\n        /* \"#utility.yul\":13584:13588   */\n      dup1\n        /* \"#utility.yul\":13580:13589   */\n      not\n        /* \"#utility.yul\":13573:13578   */\n      dup5\n        /* \"#utility.yul\":13569:13590   */\n      and\n        /* \"#utility.yul\":13560:13590   */\n      swap4\n      pop\n        /* \"#utility.yul\":13633:13637   */\n      dup1\n        /* \"#utility.yul\":13623:13631   */\n      dup7\n        /* \"#utility.yul\":13619:13638   */\n      and\n        /* \"#utility.yul\":13612:13617   */\n      dup5\n        /* \"#utility.yul\":13609:13639   */\n      or\n        /* \"#utility.yul\":13599:13639   */\n      swap3\n      pop\n        /* \"#utility.yul\":13328:13645   */\n      pop\n      pop\n        /* \"#utility.yul\":13252:13645   */\n      swap4\n      swap3\n      pop\n      pop\n      pop\n      jump\t// out\n        /* \"#utility.yul\":13651:13711   */\n    tag_153:\n        /* \"#utility.yul\":13679:13682   */\n      0x00\n        /* \"#utility.yul\":13700:13705   */\n      dup2\n        /* \"#utility.yul\":13693:13705   */\n      swap1\n      pop\n        /* \"#utility.yul\":13651:13711   */\n      swap2\n      swap1\n      pop\n      jump\t// out\n        /* \"#utility.yul\":13717:13859   */\n    tag_154:\n        /* \"#utility.yul\":13767:13776   */\n      0x00\n        /* \"#utility.yul\":13800:13853   */\n      tag_322\n        /* \"#utility.yul\":13818:13852   */\n      tag_323\n        /* \"#utility.yul\":13827:13851   */\n      tag_324\n        /* \"#utility.yul\":13845:13850   */\n      dup5\n        /* \"#utility.yul\":13827:13851   */\n      tag_125\n      jump\t// in\n    tag_324:\n        /* \"#utility.yul\":13818:13852   */\n      tag_153\n      jump\t// in\n    tag_323:\n        /* \"#utility.yul\":13800:13853   */\n      tag_125\n      jump\t// in\n    tag_322:\n        /* \"#utility.yul\":13787:13853   */\n      swap1\n      pop\n        /* \"#utility.yul\":13717:13859   */\n      swap2\n      swap1\n      pop\n      jump\t// out\n        /* \"#utility.yul\":13865:13940   */\n    tag_155:\n        /* \"#utility.yul\":13908:13911   */\n      0x00\n        /* \"#utility.yul\":13929:13934   */\n      dup2\n        /* \"#utility.yul\":13922:13934   */\n      swap1\n      pop\n        /* \"#utility.yul\":13865:13940   */\n      swap2\n      swap1\n      pop\n      jump\t// out\n        /* \"#utility.yul\":13946:14215   */\n    tag_156:\n        /* \"#utility.yul\":14056:14095   */\n      tag_327\n        /* \"#utility.yul\":14087:14094   */\n      dup4\n        /* \"#utility.yul\":14056:14095   */\n      tag_154\n      jump\t// in\n    tag_327:\n        /* \"#utility.yul\":14117:14208   */\n      tag_328\n        /* \"#utility.yul\":14166:14207   */\n      tag_329\n        /* \"#utility.yul\":14190:14206   */\n      dup3\n        /* \"#utility.yul\":14166:14207   */\n      tag_155\n      jump\t// in\n    tag_329:\n        /* \"#utility.yul\":14158:14164   */\n      dup5\n        /* \"#utility.yul\":14151:14155   */\n      dup5\n        /* \"#utility.yul\":14145:14156   */\n      sload\n        /* \"#utility.yul\":14117:14208   */\n      tag_152\n      jump\t// in\n    tag_328:\n        /* \"#utility.yul\":14111:14115   */\n      dup3\n        /* \"#utility.yul\":14104:14209   */\n      sstore\n        /* \"#utility.yul\":14022:14215   */\n      pop\n        /* \"#utility.yul\":13946:14215   */\n      pop\n      pop\n      pop\n      jump\t// out\n        /* \"#utility.yul\":14221:14294   */\n    tag_157:\n        /* \"#utility.yul\":14266:14269   */\n      0x00\n        /* \"#utility.yul\":14221:14294   */\n      swap1\n      jump\t// out\n        /* \"#utility.yul\":14300:14489   */\n    tag_158:\n        /* \"#utility.yul\":14377:14409   */\n      tag_332\n      tag_157\n      jump\t// in\n    tag_332:\n        /* \"#utility.yul\":14418:14483   */\n      tag_333\n        /* \"#utility.yul\":14476:14482   */\n      dup2\n        /* \"#utility.yul\":14468:14474   */\n      dup5\n        /* \"#utility.yul\":14462:14466   */\n      dup5\n        /* \"#utility.yul\":14418:14483   */\n      tag_156\n      jump\t// in\n    tag_333:\n        /* \"#utility.yul\":14353:14489   */\n      pop\n        /* \"#utility.yul\":14300:14489   */\n      pop\n      pop\n      jump\t// out\n        /* \"#utility.yul\":14495:14681   */\n    tag_159:\n        /* \"#utility.yul\":14555:14675   */\n    tag_335:\n        /* \"#utility.yul\":14572:14575   */\n      dup2\n        /* \"#utility.yul\":14565:14570   */\n      dup2\n        /* \"#utility.yul\":14562:14576   */\n      lt\n        /* \"#utility.yul\":14555:14675   */\n      iszero\n      tag_337\n      jumpi\n        /* \"#utility.yul\":14626:14665   */\n      tag_338\n        /* \"#utility.yul\":14663:14664   */\n      0x00\n        /* \"#utility.yul\":14656:14661   */\n      dup3\n        /* \"#utility.yul\":14626:14665   */\n      tag_158\n      jump\t// in\n    tag_338:\n        /* \"#utility.yul\":14599:14600   */\n      0x01\n        /* \"#utility.yul\":14592:14597   */\n      dup2\n        /* \"#utility.yul\":14588:14601   */\n      add\n        /* \"#utility.yul\":14579:14601   */\n      swap1\n      pop\n        /* \"#utility.yul\":14555:14675   */\n      jump(tag_335)\n    tag_337:\n        /* \"#utility.yul\":14495:14681   */\n      pop\n      pop\n      jump\t// out\n        /* \"#utility.yul\":14687:15230   */\n    tag_160:\n        /* \"#utility.yul\":14788:14790   */\n      0x1f\n        /* \"#utility.yul\":14783:14786   */\n      dup3\n        /* \"#utility.yul\":14780:14791   */\n      gt\n        /* \"#utility.yul\":14777:15223   */\n      iszero\n      tag_340\n      jumpi\n        /* \"#utility.yul\":14822:14860   */\n      tag_341\n        /* \"#utility.yul\":14854:14859   */\n      dup2\n        /* \"#utility.yul\":14822:14860   */\n      tag_149\n      jump\t// in\n    tag_341:\n        /* \"#utility.yul\":14906:14935   */\n      tag_342\n        /* \"#utility.yul\":14924:14934   */\n      dup5\n        /* \"#utility.yul\":14906:14935   */\n      tag_150\n      jump\t// in\n    tag_342:\n        /* \"#utility.yul\":14896:14904   */\n      dup2\n        /* \"#utility.yul\":14892:14936   */\n      add\n        /* \"#utility.yul\":15089:15091   */\n      0x20\n        /* \"#utility.yul\":15077:15087   */\n      dup6\n        /* \"#utility.yul\":15074:15092   */\n      lt\n        /* \"#utility.yul\":15071:15120   */\n      iszero\n      tag_343\n      jumpi\n        /* \"#utility.yul\":15110:15118   */\n      dup2\n        /* \"#utility.yul\":15095:15118   */\n      swap1\n      pop\n        /* \"#utility.yul\":15071:15120   */\n    tag_343:\n        /* \"#utility.yul\":15133:15213   */\n      tag_344\n        /* \"#utility.yul\":15189:15211   */\n      tag_345\n        /* \"#utility.yul\":15207:15210   */\n      dup6\n        /* \"#utility.yul\":15189:15211   */\n      tag_150\n      jump\t// in\n    tag_345:\n        /* \"#utility.yul\":15179:15187   */\n      dup4\n        /* \"#utility.yul\":15175:15212   */\n      add\n        /* \"#utility.yul\":15162:15173   */\n      dup3\n        /* \"#utility.yul\":15133:15213   */\n      tag_159\n      jump\t// in\n    tag_344:\n        /* \"#utility.yul\":14792:15223   */\n      pop\n      pop\n        /* \"#utility.yul\":14777:15223   */\n    tag_340:\n        /* \"#utility.yul\":14687:15230   */\n      pop\n      pop\n      pop\n      jump\t// out\n        /* \"#utility.yul\":15236:15353   */\n    tag_161:\n        /* \"#utility.yul\":15290:15298   */\n      0x00\n        /* \"#utility.yul\":15340:15345   */\n      dup3\n        /* \"#utility.yul\":15334:15338   */\n      dup3\n        /* \"#utility.yul\":15330:15346   */\n      shr\n        /* \"#utility.yul\":15309:15346   */\n      swap1\n      pop\n        /* \"#utility.yul\":15236:15353   */\n      swap3\n      swap2\n      pop\n      pop\n      jump\t// out\n        /* \"#utility.yul\":15359:15528   */\n    tag_162:\n        /* \"#utility.yul\":15403:15409   */\n      0x00\n        /* \"#utility.yul\":15436:15487   */\n      tag_348\n        /* \"#utility.yul\":15484:15485   */\n      0x00\n        /* \"#utility.yul\":15480:15486   */\n      not\n        /* \"#utility.yul\":15472:15477   */\n      dup5\n        /* \"#utility.yul\":15469:15470   */\n      0x08\n        /* \"#utility.yul\":15465:15478   */\n      mul\n        /* \"#utility.yul\":15436:15487   */\n      tag_161\n      jump\t// in\n    tag_348:\n        /* \"#utility.yul\":15432:15488   */\n      not\n        /* \"#utility.yul\":15517:15521   */\n      dup1\n        /* \"#utility.yul\":15511:15515   */\n      dup4\n        /* \"#utility.yul\":15507:15522   */\n      and\n        /* \"#utility.yul\":15497:15522   */\n      swap2\n      pop\n        /* \"#utility.yul\":15410:15528   */\n      pop\n        /* \"#utility.yul\":15359:15528   */\n      swap3\n      swap2\n      pop\n      pop\n      jump\t// out\n        /* \"#utility.yul\":15533:15828   */\n    tag_163:\n        /* \"#utility.yul\":15609:15613   */\n      0x00\n        /* \"#utility.yul\":15755:15784   */\n      tag_350\n        /* \"#utility.yul\":15780:15783   */\n      dup4\n        /* \"#utility.yul\":15774:15778   */\n      dup4\n        /* \"#utility.yul\":15755:15784   */\n      tag_162\n      jump\t// in\n    tag_350:\n        /* \"#utility.yul\":15747:15784   */\n      swap2\n      pop\n        /* \"#utility.yul\":15817:15820   */\n      dup3\n        /* \"#utility.yul\":15814:15815   */\n      0x02\n        /* \"#utility.yul\":15810:15821   */\n      mul\n        /* \"#utility.yul\":15804:15808   */\n      dup3\n        /* \"#utility.yul\":15801:15822   */\n      or\n        /* \"#utility.yul\":15793:15822   */\n      swap1\n      pop\n        /* \"#utility.yul\":15533:15828   */\n      swap3\n      swap2\n      pop\n      pop\n      jump\t// out\n        /* \"#utility.yul\":15833:17228   */\n    tag_61:\n        /* \"#utility.yul\":15950:15987   */\n      tag_352\n        /* \"#utility.yul\":15983:15986   */\n      dup3\n        /* \"#utility.yul\":15950:15987   */\n      tag_142\n      jump\t// in\n    tag_352:\n        /* \"#utility.yul\":16052:16070   */\n      0xffffffffffffffff\n        /* \"#utility.yul\":16044:16050   */\n      dup2\n        /* \"#utility.yul\":16041:16071   */\n      gt\n        /* \"#utility.yul\":16038:16094   */\n      iszero\n      tag_353\n      jumpi\n        /* \"#utility.yul\":16074:16092   */\n      tag_354\n      tag_118\n      jump\t// in\n    tag_354:\n        /* \"#utility.yul\":16038:16094   */\n    tag_353:\n        /* \"#utility.yul\":16118:16156   */\n      tag_355\n        /* \"#utility.yul\":16150:16154   */\n      dup3\n        /* \"#utility.yul\":16144:16155   */\n      sload\n        /* \"#utility.yul\":16118:16156   */\n      tag_97\n      jump\t// in\n    tag_355:\n        /* \"#utility.yul\":16203:16270   */\n      tag_356\n        /* \"#utility.yul\":16263:16269   */\n      dup3\n        /* \"#utility.yul\":16255:16261   */\n      dup3\n        /* \"#utility.yul\":16249:16253   */\n      dup6\n        /* \"#utility.yul\":16203:16270   */\n      tag_160\n      jump\t// in\n    tag_356:\n        /* \"#utility.yul\":16297:16298   */\n      0x00\n        /* \"#utility.yul\":16321:16325   */\n      0x20\n        /* \"#utility.yul\":16308:16325   */\n      swap1\n      pop\n        /* \"#utility.yul\":16353:16355   */\n      0x1f\n        /* \"#utility.yul\":16345:16351   */\n      dup4\n        /* \"#utility.yul\":16342:16356   */\n      gt\n        /* \"#utility.yul\":16370:16371   */\n      0x01\n        /* \"#utility.yul\":16365:16983   */\n      dup2\n      eq\n      tag_358\n      jumpi\n        /* \"#utility.yul\":17027:17028   */\n      0x00\n        /* \"#utility.yul\":17044:17050   */\n      dup5\n        /* \"#utility.yul\":17041:17118   */\n      iszero\n      tag_359\n      jumpi\n        /* \"#utility.yul\":17093:17102   */\n      dup3\n        /* \"#utility.yul\":17088:17091   */\n      dup8\n        /* \"#utility.yul\":17084:17103   */\n      add\n        /* \"#utility.yul\":17078:17104   */\n      mload\n        /* \"#utility.yul\":17069:17104   */\n      swap1\n      pop\n        /* \"#utility.yul\":17041:17118   */\n    tag_359:\n        /* \"#utility.yul\":17144:17211   */\n      tag_360\n        /* \"#utility.yul\":17204:17210   */\n      dup6\n        /* \"#utility.yul\":17197:17202   */\n      dup3\n        /* \"#utility.yul\":17144:17211   */\n      tag_163\n      jump\t// in\n    tag_360:\n        /* \"#utility.yul\":17138:17142   */\n      dup7\n        /* \"#utility.yul\":17131:17212   */\n      sstore\n        /* \"#utility.yul\":17000:17222   */\n      pop\n        /* \"#utility.yul\":16335:17222   */\n      jump(tag_357)\n        /* \"#utility.yul\":16365:16983   */\n    tag_358:\n        /* \"#utility.yul\":16417:16421   */\n      0x1f\n        /* \"#utility.yul\":16413:16422   */\n      not\n        /* \"#utility.yul\":16405:16411   */\n      dup5\n        /* \"#utility.yul\":16401:16423   */\n      and\n        /* \"#utility.yul\":16451:16488   */\n      tag_361\n        /* \"#utility.yul\":16483:16487   */\n      dup7\n        /* \"#utility.yul\":16451:16488   */\n      tag_149\n      jump\t// in\n    tag_361:\n        /* \"#utility.yul\":16510:16511   */\n      0x00\n        /* \"#utility.yul\":16524:16732   */\n    tag_362:\n        /* \"#utility.yul\":16538:16545   */\n      dup3\n        /* \"#utility.yul\":16535:16536   */\n      dup2\n        /* \"#utility.yul\":16532:16546   */\n      lt\n        /* \"#utility.yul\":16524:16732   */\n      iszero\n      tag_364\n      jumpi\n        /* \"#utility.yul\":16617:16626   */\n      dup5\n        /* \"#utility.yul\":16612:16615   */\n      dup10\n        /* \"#utility.yul\":16608:16627   */\n      add\n        /* \"#utility.yul\":16602:16628   */\n      mload\n        /* \"#utility.yul\":16594:16600   */\n      dup3\n        /* \"#utility.yul\":16587:16629   */\n      sstore\n        /* \"#utility.yul\":16668:16669   */\n      0x01\n        /* \"#utility.yul\":16660:16666   */\n      dup3\n        /* \"#utility.yul\":16656:16670   */\n      add\n        /* \"#utility.yul\":16646:16670   */\n      swap2\n      pop\n        /* \"#utility.yul\":16715:16717   */\n      0x20\n        /* \"#utility.yul\":16704:16713   */\n      dup6\n        /* \"#utility.yul\":16700:16718   */\n      add\n        /* \"#utility.yul\":16687:16718   */\n      swap5\n      pop\n        /* \"#utility.yul\":16561:16565   */\n      0x20\n        /* \"#utility.yul\":16558:16559   */\n      dup2\n        /* \"#utility.yul\":16554:16566   */\n      add\n        /* \"#utility.yul\":16549:16566   */\n      swap1\n      pop\n        /* \"#utility.yul\":16524:16732   */\n      jump(tag_362)\n    tag_364:\n        /* \"#utility.yul\":16760:16766   */\n      dup7\n        /* \"#utility.yul\":16751:16758   */\n      dup4\n        /* \"#utility.yul\":16748:16767   */\n      lt\n        /* \"#utility.yul\":16745:16924   */\n      iszero\n      tag_365\n      jumpi\n        /* \"#utility.yul\":16818:16827   */\n      dup5\n        /* \"#utility.yul\":16813:16816   */\n      dup10\n        /* \"#utility.yul\":16809:16828   */\n      add\n        /* \"#utility.yul\":16803:16829   */\n      mload\n        /* \"#utility.yul\":16861:16909   */\n      tag_366\n        /* \"#utility.yul\":16903:16907   */\n      0x1f\n        /* \"#utility.yul\":16895:16901   */\n      dup10\n        /* \"#utility.yul\":16891:16908   */\n      and\n        /* \"#utility.yul\":16880:16889   */\n      dup3\n        /* \"#utility.yul\":16861:16909   */\n      tag_162\n      jump\t// in\n    tag_366:\n        /* \"#utility.yul\":16853:16859   */\n      dup4\n        /* \"#utility.yul\":16846:16910   */\n      sstore\n        /* \"#utility.yul\":16768:16924   */\n      pop\n        /* \"#utility.yul\":16745:16924   */\n    tag_365:\n        /* \"#utility.yul\":16970:16971   */\n      0x01\n        /* \"#utility.yul\":16966:16967   */\n      0x02\n        /* \"#utility.yul\":16958:16964   */\n      dup9\n        /* \"#utility.yul\":16954:16968   */\n      mul\n        /* \"#utility.yul\":16950:16972   */\n      add\n        /* \"#utility.yul\":16944:16948   */\n      dup9\n        /* \"#utility.yul\":16937:16973   */\n      sstore\n        /* \"#utility.yul\":16372:16983   */\n      pop\n      pop\n      pop\n        /* \"#utility.yul\":16335:17222   */\n    tag_357:\n      pop\n        /* \"#utility.yul\":15925:17228   */\n      pop\n      pop\n      pop\n        /* \"#utility.yul\":15833:17228   */\n      pop\n      pop\n      jump\t// out\n        /* \"#utility.yul\":17234:17554   */\n    tag_67:\n        /* \"#utility.yul\":17349:17353   */\n      0x00\n        /* \"#utility.yul\":17387:17389   */\n      0x40\n        /* \"#utility.yul\":17376:17385   */\n      dup3\n        /* \"#utility.yul\":17372:17390   */\n      add\n        /* \"#utility.yul\":17364:17390   */\n      swap1\n      pop\n        /* \"#utility.yul\":17400:17471   */\n      tag_368\n        /* \"#utility.yul\":17468:17469   */\n      0x00\n        /* \"#utility.yul\":17457:17466   */\n      dup4\n        /* \"#utility.yul\":17453:17470   */\n      add\n        /* \"#utility.yul\":17444:17450   */\n      dup6\n        /* \"#utility.yul\":17400:17471   */\n      tag_140\n      jump\t// in\n    tag_368:\n        /* \"#utility.yul\":17481:17547   */\n      tag_369\n        /* \"#utility.yul\":17543:17545   */\n      0x20\n        /* \"#utility.yul\":17532:17541   */\n      dup4\n        /* \"#utility.yul\":17528:17546   */\n      add\n        /* \"#utility.yul\":17519:17525   */\n      dup5\n        /* \"#utility.yul\":17481:17547   */\n      tag_141\n      jump\t// in\n    tag_369:\n        /* \"#utility.yul\":17234:17554   */\n      swap4\n      swap3\n      pop\n      pop\n      pop\n      jump\t// out\n        /* \"#utility.yul\":17560:17740   */\n    tag_164:\n        /* \"#utility.yul\":17608:17685   */\n      0x4e487b7100000000000000000000000000000000000000000000000000000000\n        /* \"#utility.yul\":17605:17606   */\n      0x00\n        /* \"#utility.yul\":17598:17686   */\n      mstore\n        /* \"#utility.yul\":17705:17709   */\n      0x11\n        /* \"#utility.yul\":17702:17703   */\n      0x04\n        /* \"#utility.yul\":17695:17710   */\n      mstore\n        /* \"#utility.yul\":17729:17733   */\n      0x24\n        /* \"#utility.yul\":17726:17727   */\n      0x00\n        /* \"#utility.yul\":17719:17734   */\n      revert\n        /* \"#utility.yul\":17746:18156   */\n    tag_70:\n        /* \"#utility.yul\":17786:17793   */\n      0x00\n        /* \"#utility.yul\":17809:17829   */\n      tag_372\n        /* \"#utility.yul\":17827:17828   */\n      dup3\n        /* \"#utility.yul\":17809:17829   */\n      tag_125\n      jump\t// in\n    tag_372:\n        /* \"#utility.yul\":17804:17829   */\n      swap2\n      pop\n        /* \"#utility.yul\":17843:17863   */\n      tag_373\n        /* \"#utility.yul\":17861:17862   */\n      dup4\n        /* \"#utility.yul\":17843:17863   */\n      tag_125\n      jump\t// in\n    tag_373:\n        /* \"#utility.yul\":17838:17863   */\n      swap3\n      pop\n        /* \"#utility.yul\":17898:17899   */\n      dup3\n        /* \"#utility.yul\":17895:17896   */\n      dup3\n        /* \"#utility.yul\":17891:17900   */\n      mul\n        /* \"#utility.yul\":17920:17950   */\n      tag_374\n        /* \"#utility.yul\":17938:17949   */\n      dup2\n        /* \"#utility.yul\":17920:17950   */\n      tag_125\n      jump\t// in\n    tag_374:\n        /* \"#utility.yul\":17909:17950   */\n      swap2\n      pop\n        /* \"#utility.yul\":18099:18100   */\n      dup3\n        /* \"#utility.yul\":18090:18097   */\n      dup3\n        /* \"#utility.yul\":18086:18101   */\n      div\n        /* \"#utility.yul\":18083:18084   */\n      dup5\n        /* \"#utility.yul\":18080:18102   */\n      eq\n        /* \"#utility.yul\":18060:18061   */\n      dup4\n        /* \"#utility.yul\":18053:18062   */\n      iszero\n        /* \"#utility.yul\":18033:18116   */\n      or\n        /* \"#utility.yul\":18010:18149   */\n      tag_375\n      jumpi\n        /* \"#utility.yul\":18129:18147   */\n      tag_376\n      tag_164\n      jump\t// in\n    tag_376:\n        /* \"#utility.yul\":18010:18149   */\n    tag_375:\n        /* \"#utility.yul\":17794:18156   */\n      pop\n        /* \"#utility.yul\":17746:18156   */\n      swap3\n      swap2\n      pop\n      pop\n      jump\t// out\n        /* \"#utility.yul\":18162:18342   */\n    tag_165:\n        /* \"#utility.yul\":18210:18287   */\n      0x4e487b7100000000000000000000000000000000000000000000000000000000\n        /* \"#utility.yul\":18207:18208   */\n      0x00\n        /* \"#utility.yul\":18200:18288   */\n      mstore\n        /* \"#utility.yul\":18307:18311   */\n      0x12\n        /* \"#utility.yul\":18304:18305   */\n      0x04\n        /* \"#utility.yul\":18297:18312   */\n      mstore\n        /* \"#utility.yul\":18331:18335   */\n      0x24\n        /* \"#utility.yul\":18328:18329   */\n      0x00\n        /* \"#utility.yul\":18321:18336   */\n      revert\n        /* \"#utility.yul\":18348:18533   */\n    tag_72:\n        /* \"#utility.yul\":18388:18389   */\n      0x00\n        /* \"#utility.yul\":18405:18425   */\n      tag_379\n        /* \"#utility.yul\":18423:18424   */\n      dup3\n        /* \"#utility.yul\":18405:18425   */\n      tag_125\n      jump\t// in\n    tag_379:\n        /* \"#utility.yul\":18400:18425   */\n      swap2\n      pop\n        /* \"#utility.yul\":18439:18459   */\n      tag_380\n        /* \"#utility.yul\":18457:18458   */\n      dup4\n        /* \"#utility.yul\":18439:18459   */\n      tag_125\n      jump\t// in\n    tag_380:\n        /* \"#utility.yul\":18434:18459   */\n      swap3\n      pop\n        /* \"#utility.yul\":18478:18479   */\n      dup3\n        /* \"#utility.yul\":18468:18503   */\n      tag_381\n      jumpi\n        /* \"#utility.yul\":18483:18501   */\n      tag_382\n      tag_165\n      jump\t// in\n    tag_382:\n        /* \"#utility.yul\":18468:18503   */\n    tag_381:\n        /* \"#utility.yul\":18525:18526   */\n      dup3\n        /* \"#utility.yul\":18522:18523   */\n      dup3\n        /* \"#utility.yul\":18518:18527   */\n      div\n        /* \"#utility.yul\":18513:18527   */\n      swap1\n      pop\n        /* \"#utility.yul\":18348:18533   */\n      swap3\n      swap2\n      pop\n      pop\n      jump\t// out\n        /* \"#utility.yul\":18539:18730   */\n    tag_78:\n        /* \"#utility.yul\":18579:18582   */\n      0x00\n        /* \"#utility.yul\":18598:18618   */\n      tag_384\n        /* \"#utility.yul\":18616:18617   */\n      dup3\n        /* \"#utility.yul\":18598:18618   */\n      tag_125\n      jump\t// in\n    tag_384:\n        /* \"#utility.yul\":18593:18618   */\n      swap2\n      pop\n        /* \"#utility.yul\":18632:18652   */\n      tag_385\n        /* \"#utility.yul\":18650:18651   */\n      dup4\n        /* \"#utility.yul\":18632:18652   */\n      tag_125\n      jump\t// in\n    tag_385:\n        /* \"#utility.yul\":18627:18652   */\n      swap3\n      pop\n        /* \"#utility.yul\":18675:18676   */\n      dup3\n        /* \"#utility.yul\":18672:18673   */\n      dup3\n        /* \"#utility.yul\":18668:18677   */\n      add\n        /* \"#utility.yul\":18661:18677   */\n      swap1\n      pop\n        /* \"#utility.yul\":18696:18699   */\n      dup1\n        /* \"#utility.yul\":18693:18694   */\n      dup3\n        /* \"#utility.yul\":18690:18700   */\n      gt\n        /* \"#utility.yul\":18687:18723   */\n      iszero\n      tag_386\n      jumpi\n        /* \"#utility.yul\":18703:18721   */\n      tag_387\n      tag_164\n      jump\t// in\n    tag_387:\n        /* \"#utility.yul\":18687:18723   */\n    tag_386:\n        /* \"#utility.yul\":18539:18730   */\n      swap3\n      swap2\n      pop\n      pop\n      jump\t// out\n        /* \"#utility.yul\":18736:18917   */\n    tag_166:\n        /* \"#utility.yul\":18876:18909   */\n      0x4f6e6c7920746865206f776e65722063616e2065786563757465207468697300\n        /* \"#utility.yul\":18872:18873   */\n      0x00\n        /* \"#utility.yul\":18864:18870   */\n      dup3\n        /* \"#utility.yul\":18860:18874   */\n      add\n        /* \"#utility.yul\":18853:18910   */\n      mstore\n        /* \"#utility.yul\":18736:18917   */\n      pop\n      jump\t// out\n        /* \"#utility.yul\":18923:19289   */\n    tag_167:\n        /* \"#utility.yul\":19065:19068   */\n      0x00\n        /* \"#utility.yul\":19086:19153   */\n      tag_390\n        /* \"#utility.yul\":19150:19152   */\n      0x1f\n        /* \"#utility.yul\":19145:19148   */\n      dup4\n        /* \"#utility.yul\":19086:19153   */\n      tag_143\n      jump\t// in\n    tag_390:\n        /* \"#utility.yul\":19079:19153   */\n      swap2\n      pop\n        /* \"#utility.yul\":19162:19255   */\n      tag_391\n        /* \"#utility.yul\":19251:19254   */\n      dup3\n        /* \"#utility.yul\":19162:19255   */\n      tag_166\n      jump\t// in\n    tag_391:\n        /* \"#utility.yul\":19280:19282   */\n      0x20\n        /* \"#utility.yul\":19275:19278   */\n      dup3\n        /* \"#utility.yul\":19271:19283   */\n      add\n        /* \"#utility.yul\":19264:19283   */\n      swap1\n      pop\n        /* \"#utility.yul\":18923:19289   */\n      swap2\n      swap1\n      pop\n      jump\t// out\n        /* \"#utility.yul\":19295:19714   */\n    tag_88:\n        /* \"#utility.yul\":19461:19465   */\n      0x00\n        /* \"#utility.yul\":19499:19501   */\n      0x20\n        /* \"#utility.yul\":19488:19497   */\n      dup3\n        /* \"#utility.yul\":19484:19502   */\n      add\n        /* \"#utility.yul\":19476:19502   */\n      swap1\n      pop\n        /* \"#utility.yul\":19548:19557   */\n      dup2\n        /* \"#utility.yul\":19542:19546   */\n      dup2\n        /* \"#utility.yul\":19538:19558   */\n      sub\n        /* \"#utility.yul\":19534:19535   */\n      0x00\n        /* \"#utility.yul\":19523:19532   */\n      dup4\n        /* \"#utility.yul\":19519:19536   */\n      add\n        /* \"#utility.yul\":19512:19559   */\n      mstore\n        /* \"#utility.yul\":19576:19707   */\n      tag_393\n        /* \"#utility.yul\":19702:19706   */\n      dup2\n        /* \"#utility.yul\":19576:19707   */\n      tag_167\n      jump\t// in\n    tag_393:\n        /* \"#utility.yul\":19568:19707   */\n      swap1\n      pop\n        /* \"#utility.yul\":19295:19714   */\n      swap2\n      swap1\n      pop\n      jump\t// out\n        /* \"#utility.yul\":19720:19799   */\n    tag_168:\n        /* \"#utility.yul\":19759:19766   */\n      0x00\n        /* \"#utility.yul\":19788:19793   */\n      dup2\n        /* \"#utility.yul\":19777:19793   */\n      swap1\n      pop\n        /* \"#utility.yul\":19720:19799   */\n      swap2\n      swap1\n      pop\n      jump\t// out\n        /* \"#utility.yul\":19805:19962   */\n    tag_169:\n        /* \"#utility.yul\":19910:19955   */\n      tag_396\n        /* \"#utility.yul\":19930:19954   */\n      tag_397\n        /* \"#utility.yul\":19948:19953   */\n      dup3\n        /* \"#utility.yul\":19930:19954   */\n      tag_125\n      jump\t// in\n    tag_397:\n        /* \"#utility.yul\":19910:19955   */\n      tag_168\n      jump\t// in\n    tag_396:\n        /* \"#utility.yul\":19905:19908   */\n      dup3\n        /* \"#utility.yul\":19898:19956   */\n      mstore\n        /* \"#utility.yul\":19805:19962   */\n      pop\n      pop\n      jump\t// out\n        /* \"#utility.yul\":19968:20062   */\n    tag_170:\n        /* \"#utility.yul\":20001:20009   */\n      0x00\n        /* \"#utility.yul\":20049:20054   */\n      dup2\n        /* \"#utility.yul\":20045:20047   */\n      0x60\n        /* \"#utility.yul\":20041:20055   */\n      shl\n        /* \"#utility.yul\":20020:20055   */\n      swap1\n      pop\n        /* \"#utility.yul\":19968:20062   */\n      swap2\n      swap1\n      pop\n      jump\t// out\n        /* \"#utility.yul\":20068:20162   */\n    tag_171:\n        /* \"#utility.yul\":20107:20114   */\n      0x00\n        /* \"#utility.yul\":20136:20156   */\n      tag_400\n        /* \"#utility.yul\":20150:20155   */\n      dup3\n        /* \"#utility.yul\":20136:20156   */\n      tag_170\n      jump\t// in\n    tag_400:\n        /* \"#utility.yul\":20125:20156   */\n      swap1\n      pop\n        /* \"#utility.yul\":20068:20162   */\n      swap2\n      swap1\n      pop\n      jump\t// out\n        /* \"#utility.yul\":20168:20268   */\n    tag_172:\n        /* \"#utility.yul\":20207:20214   */\n      0x00\n        /* \"#utility.yul\":20236:20262   */\n      tag_402\n        /* \"#utility.yul\":20256:20261   */\n      dup3\n        /* \"#utility.yul\":20236:20262   */\n      tag_171\n      jump\t// in\n    tag_402:\n        /* \"#utility.yul\":20225:20262   */\n      swap1\n      pop\n        /* \"#utility.yul\":20168:20268   */\n      swap2\n      swap1\n      pop\n      jump\t// out\n        /* \"#utility.yul\":20274:20431   */\n    tag_173:\n        /* \"#utility.yul\":20379:20424   */\n      tag_404\n        /* \"#utility.yul\":20399:20423   */\n      tag_405\n        /* \"#utility.yul\":20417:20422   */\n      dup3\n        /* \"#utility.yul\":20399:20423   */\n      tag_136\n      jump\t// in\n    tag_405:\n        /* \"#utility.yul\":20379:20424   */\n      tag_172\n      jump\t// in\n    tag_404:\n        /* \"#utility.yul\":20374:20377   */\n      dup3\n        /* \"#utility.yul\":20367:20425   */\n      mstore\n        /* \"#utility.yul\":20274:20431   */\n      pop\n      pop\n      jump\t// out\n        /* \"#utility.yul\":20437:21116   */\n    tag_93:\n        /* \"#utility.yul\":20633:20636   */\n      0x00\n        /* \"#utility.yul\":20648:20723   */\n      tag_407\n        /* \"#utility.yul\":20719:20722   */\n      dup3\n        /* \"#utility.yul\":20710:20716   */\n      dup8\n        /* \"#utility.yul\":20648:20723   */\n      tag_169\n      jump\t// in\n    tag_407:\n        /* \"#utility.yul\":20748:20750   */\n      0x20\n        /* \"#utility.yul\":20743:20746   */\n      dup3\n        /* \"#utility.yul\":20739:20751   */\n      add\n        /* \"#utility.yul\":20732:20751   */\n      swap2\n      pop\n        /* \"#utility.yul\":20761:20836   */\n      tag_408\n        /* \"#utility.yul\":20832:20835   */\n      dup3\n        /* \"#utility.yul\":20823:20829   */\n      dup7\n        /* \"#utility.yul\":20761:20836   */\n      tag_173\n      jump\t// in\n    tag_408:\n        /* \"#utility.yul\":20861:20863   */\n      0x14\n        /* \"#utility.yul\":20856:20859   */\n      dup3\n        /* \"#utility.yul\":20852:20864   */\n      add\n        /* \"#utility.yul\":20845:20864   */\n      swap2\n      pop\n        /* \"#utility.yul\":20874:20949   */\n      tag_409\n        /* \"#utility.yul\":20945:20948   */\n      dup3\n        /* \"#utility.yul\":20936:20942   */\n      dup6\n        /* \"#utility.yul\":20874:20949   */\n      tag_173\n      jump\t// in\n    tag_409:\n        /* \"#utility.yul\":20974:20976   */\n      0x14\n        /* \"#utility.yul\":20969:20972   */\n      dup3\n        /* \"#utility.yul\":20965:20977   */\n      add\n        /* \"#utility.yul\":20958:20977   */\n      swap2\n      pop\n        /* \"#utility.yul\":20987:21062   */\n      tag_410\n        /* \"#utility.yul\":21058:21061   */\n      dup3\n        /* \"#utility.yul\":21049:21055   */\n      dup5\n        /* \"#utility.yul\":20987:21062   */\n      tag_169\n      jump\t// in\n    tag_410:\n        /* \"#utility.yul\":21087:21089   */\n      0x20\n        /* \"#utility.yul\":21082:21085   */\n      dup3\n        /* \"#utility.yul\":21078:21090   */\n      add\n        /* \"#utility.yul\":21071:21090   */\n      swap2\n      pop\n        /* \"#utility.yul\":21107:21110   */\n      dup2\n        /* \"#utility.yul\":21100:21110   */\n      swap1\n      pop\n        /* \"#utility.yul\":20437:21116   */\n      swap6\n      swap5\n      pop\n      pop\n      pop\n      pop\n      pop\n      jump\t// out\n        /* \"#utility.yul\":21122:21885   */\n    tag_95:\n        /* \"#utility.yul\":21349:21353   */\n      0x00\n        /* \"#utility.yul\":21387:21390   */\n      0xc0\n        /* \"#utility.yul\":21376:21385   */\n      dup3\n        /* \"#utility.yul\":21372:21391   */\n      add\n        /* \"#utility.yul\":21364:21391   */\n      swap1\n      pop\n        /* \"#utility.yul\":21401:21472   */\n      tag_412\n        /* \"#utility.yul\":21469:21470   */\n      0x00\n        /* \"#utility.yul\":21458:21467   */\n      dup4\n        /* \"#utility.yul\":21454:21471   */\n      add\n        /* \"#utility.yul\":21445:21451   */\n      dup10\n        /* \"#utility.yul\":21401:21472   */\n      tag_140\n      jump\t// in\n    tag_412:\n        /* \"#utility.yul\":21482:21554   */\n      tag_413\n        /* \"#utility.yul\":21550:21552   */\n      0x20\n        /* \"#utility.yul\":21539:21548   */\n      dup4\n        /* \"#utility.yul\":21535:21553   */\n      add\n        /* \"#utility.yul\":21526:21532   */\n      dup9\n        /* \"#utility.yul\":21482:21554   */\n      tag_134\n      jump\t// in\n    tag_413:\n        /* \"#utility.yul\":21564:21636   */\n      tag_414\n        /* \"#utility.yul\":21632:21634   */\n      0x40\n        /* \"#utility.yul\":21621:21630   */\n      dup4\n        /* \"#utility.yul\":21617:21635   */\n      add\n        /* \"#utility.yul\":21608:21614   */\n      dup8\n        /* \"#utility.yul\":21564:21636   */\n      tag_139\n      jump\t// in\n    tag_414:\n        /* \"#utility.yul\":21646:21718   */\n      tag_415\n        /* \"#utility.yul\":21714:21716   */\n      0x60\n        /* \"#utility.yul\":21703:21712   */\n      dup4\n        /* \"#utility.yul\":21699:21717   */\n      add\n        /* \"#utility.yul\":21690:21696   */\n      dup7\n        /* \"#utility.yul\":21646:21718   */\n      tag_139\n      jump\t// in\n    tag_415:\n        /* \"#utility.yul\":21728:21801   */\n      tag_416\n        /* \"#utility.yul\":21796:21799   */\n      0x80\n        /* \"#utility.yul\":21785:21794   */\n      dup4\n        /* \"#utility.yul\":21781:21800   */\n      add\n        /* \"#utility.yul\":21772:21778   */\n      dup6\n        /* \"#utility.yul\":21728:21801   */\n      tag_134\n      jump\t// in\n    tag_416:\n        /* \"#utility.yul\":21811:21878   */\n      tag_417\n        /* \"#utility.yul\":21873:21876   */\n      0xa0\n        /* \"#utility.yul\":21862:21871   */\n      dup4\n        /* \"#utility.yul\":21858:21877   */\n      add\n        /* \"#utility.yul\":21849:21855   */\n      dup5\n        /* \"#utility.yul\":21811:21878   */\n      tag_141\n      jump\t// in\n    tag_417:\n        /* \"#utility.yul\":21122:21885   */\n      swap8\n      swap7\n      pop\n      pop\n      pop\n      pop\n      pop\n      pop\n      pop\n      jump\t// out\n\n    auxdata: 0xa2646970667358221220db18e34007b26d1cfbe9df1bc3e52b54c260770750e2fd541f4df0233ad475e664736f6c63430008160033\n}\n",
				"bytecode": {
					"linkReferences": {},
					"object": "608060405234801561000f575f80fd5b50335f806101000a81548173ffffffffffffffffffffffffffffffffffffffff021916908373ffffffffffffffffffffffffffffffffffffffff1602179055506114178061005c5f395ff3fe608060405234801561000f575f80fd5b5060043610610091575f3560e01c806387e660d31161006457806387e660d31461012d5780638da5cb5b14610149578063bbebfbf814610167578063e5981f7a14610197578063eaa66a3c146101c757610091565b806302110d25146100955780635dba37cb146100b15780636b01fba6146100cd5780637d08d81d146100fd575b5f80fd5b6100af60048036038101906100aa91906109b9565b6101fa565b005b6100cb60048036038101906100c69190610ad9565b6103de565b005b6100e760048036038101906100e29190610b17565b61041b565b6040516100f49190610b76565b60405180910390f35b61011760048036038101906101129190610b17565b61043c565b6040516101249190610b76565b60405180910390f35b61014760048036038101906101429190610be9565b6104c6565b005b6101516105bd565b60405161015e9190610c48565b60405180910390f35b610181600480360381019061017c9190610c61565b6105e0565b60405161018e9190610cd4565b60405180910390f35b6101b160048036038101906101ac9190610ced565b61065e565b6040516101be9190610d27565b60405180910390f35b6101e160048036038101906101dc9190610ced565b61067b565b6040516101f19493929190610dba565b60405180910390f35b60025f3373ffffffffffffffffffffffffffffffffffffffff1673ffffffffffffffffffffffffffffffffffffffff1681526020019081526020015f205f9054906101000a900460ff1615610284576040517f08c379a000000000000000000000000000000000000000000000000000000000815260040161027b90610e5c565b60405180910390fd5b60405180608001604052808581526020018481526020018381526020018281525060015f3373ffffffffffffffffffffffffffffffffffffffff1673ffffffffffffffffffffffffffffffffffffffff1681526020019081526020015f205f820151815f0190816102f59190611074565b50602082015181600101908161030b9190611074565b5060408201518160020190816103219190611074565b5060608201518160030155905050600160025f3373ffffffffffffffffffffffffffffffffffffffff1673ffffffffffffffffffffffffffffffffffffffff1681526020019081526020015f205f6101000a81548160ff0219169083151502179055503373ffffffffffffffffffffffffffffffffffffffff167f60bc4d8bb7fd4551e3fb969811d8a395873a5936f32a1965dd4331f84043a49e858585856040516103d09493929190610dba565b60405180910390a250505050565b7f331f401024904122c4b07b629e53f6c416d0aed7f111c0004eab033f2e13e8a4828260405161040f929190611143565b60405180910390a15050565b5f8282856104299190611197565b6104339190611205565b90509392505050565b5f80828486600261044d9190611197565b6104579190611197565b6104619190611205565b90505f60026001836104739190611235565b61047d9190611205565b90505f8290505b808210156104b957819050600282838561049e9190611205565b6104a89190611235565b6104b29190611205565b9150610484565b8093505050509392505050565b5f8054906101000a900473ffffffffffffffffffffffffffffffffffffffff1673ffffffffffffffffffffffffffffffffffffffff163373ffffffffffffffffffffffffffffffffffffffff1614610553576040517f08c379a000000000000000000000000000000000000000000000000000000000815260040161054a906112b2565b60405180910390fd5b8173ffffffffffffffffffffffffffffffffffffffff168373ffffffffffffffffffffffffffffffffffffffff167fb03a765902deae82ba76b0b34a0d8519ba0b10952576f134ee3cc1cdd9a7e633836040516105b09190610b76565b60405180910390a3505050565b5f8054906101000a900473ffffffffffffffffffffffffffffffffffffffff1681565b5f80858585856040516020016105f99493929190611335565b6040516020818303038152906040528051906020012090507f80d4542edfa853e74e670ddc8e6925d88b43c1c8ac870652ad051227cbc1716781878787875f60405161064a96959493929190611382565b60405180910390a180915050949350505050565b6002602052805f5260405f205f915054906101000a900460ff1681565b6001602052805f5260405f205f91509050805f01805461069a90610ea7565b80601f01602080910402602001604051908101604052809291908181526020018280546106c690610ea7565b80156107115780601f106106e857610100808354040283529160200191610711565b820191905f5260205f20905b8154815290600101906020018083116106f457829003601f168201915b50505050509080600101805461072690610ea7565b80601f016020809104026020016040519081016040528092919081815260200182805461075290610ea7565b801561079d5780601f106107745761010080835404028352916020019161079d565b820191905f5260205f20905b81548152906001019060200180831161078057829003601f168201915b5050505050908060020180546107b290610ea7565b80601f01602080910402602001604051908101604052809291908181526020018280546107de90610ea7565b80156108295780601f1061080057610100808354040283529160200191610829565b820191905f5260205f20905b81548152906001019060200180831161080c57829003601f168201915b5050505050908060030154905084565b5f604051905090565b5f80fd5b5f80fd5b5f80fd5b5f80fd5b5f601f19601f8301169050919050565b7f4e487b71000000000000000000000000000000000000000000000000000000005f52604160045260245ffd5b61089882610852565b810181811067ffffffffffffffff821117156108b7576108b6610862565b5b80604052505050565b5f6108c9610839565b90506108d5828261088f565b919050565b5f67ffffffffffffffff8211156108f4576108f3610862565b5b6108fd82610852565b9050602081019050919050565b828183375f83830152505050565b5f61092a610925846108da565b6108c0565b9050828152602081018484840111156109465761094561084e565b5b61095184828561090a565b509392505050565b5f82601f83011261096d5761096c61084a565b5b813561097d848260208601610918565b91505092915050565b5f819050919050565b61099881610986565b81146109a2575f80fd5b50565b5f813590506109b38161098f565b92915050565b5f805f80608085870312156109d1576109d0610842565b5b5f85013567ffffffffffffffff8111156109ee576109ed610846565b5b6109fa87828801610959565b945050602085013567ffffffffffffffff811115610a1b57610a1a610846565b5b610a2787828801610959565b935050604085013567ffffffffffffffff811115610a4857610a47610846565b5b610a5487828801610959565b9250506060610a65878288016109a5565b91505092959194509250565b5f819050919050565b610a8381610a71565b8114610a8d575f80fd5b50565b5f81359050610a9e81610a7a565b92915050565b5f8115159050919050565b610ab881610aa4565b8114610ac2575f80fd5b50565b5f81359050610ad381610aaf565b92915050565b5f8060408385031215610aef57610aee610842565b5b5f610afc85828601610a90565b9250506020610b0d85828601610ac5565b9150509250929050565b5f805f60608486031215610b2e57610b2d610842565b5b5f610b3b868287016109a5565b9350506020610b4c868287016109a5565b9250506040610b5d868287016109a5565b9150509250925092565b610b7081610986565b82525050565b5f602082019050610b895f830184610b67565b92915050565b5f73ffffffffffffffffffffffffffffffffffffffff82169050919050565b5f610bb882610b8f565b9050919050565b610bc881610bae565b8114610bd2575f80fd5b50565b5f81359050610be381610bbf565b92915050565b5f805f60608486031215610c0057610bff610842565b5b5f610c0d86828701610bd5565b9350506020610c1e86828701610bd5565b9250506040610c2f868287016109a5565b9150509250925092565b610c4281610bae565b82525050565b5f602082019050610c5b5f830184610c39565b92915050565b5f805f8060808587031215610c7957610c78610842565b5b5f610c86878288016109a5565b9450506020610c9787828801610bd5565b9350506040610ca887828801610bd5565b9250506060610cb9878288016109a5565b91505092959194509250565b610cce81610a71565b82525050565b5f602082019050610ce75f830184610cc5565b92915050565b5f60208284031215610d0257610d01610842565b5b5f610d0f84828501610bd5565b91505092915050565b610d2181610aa4565b82525050565b5f602082019050610d3a5f830184610d18565b92915050565b5f81519050919050565b5f82825260208201905092915050565b5f5b83811015610d77578082015181840152602081019050610d5c565b5f8484015250505050565b5f610d8c82610d40565b610d968185610d4a565b9350610da6818560208601610d5a565b610daf81610852565b840191505092915050565b5f6080820190508181035f830152610dd28187610d82565b90508181036020830152610de68186610d82565b90508181036040830152610dfa8185610d82565b9050610e096060830184610b67565b95945050505050565b7f4163746f7220616c7265616479207265676973746572656400000000000000005f82015250565b5f610e46601883610d4a565b9150610e5182610e12565b602082019050919050565b5f6020820190508181035f830152610e7381610e3a565b9050919050565b7f4e487b71000000000000000000000000000000000000000000000000000000005f52602260045260245ffd5b5f6002820490506001821680610ebe57607f821691505b602082108103610ed157610ed0610e7a565b5b50919050565b5f819050815f5260205f209050919050565b5f6020601f8301049050919050565b5f82821b905092915050565b5f60088302610f337fffffffffffffffffffffffffffffffffffffffffffffffffffffffffffffffff82610ef8565b610f3d8683610ef8565b95508019841693508086168417925050509392505050565b5f819050919050565b5f610f78610f73610f6e84610986565b610f55565b610986565b9050919050565b5f819050919050565b610f9183610f5e565b610fa5610f9d82610f7f565b848454610f04565b825550505050565b5f90565b610fb9610fad565b610fc4818484610f88565b505050565b5b81811015610fe757610fdc5f82610fb1565b600181019050610fca565b5050565b601f82111561102c57610ffd81610ed7565b61100684610ee9565b81016020851015611015578190505b61102961102185610ee9565b830182610fc9565b50505b505050565b5f82821c905092915050565b5f61104c5f1984600802611031565b1980831691505092915050565b5f611064838361103d565b9150826002028217905092915050565b61107d82610d40565b67ffffffffffffffff81111561109657611095610862565b5b6110a08254610ea7565b6110ab828285610feb565b5f60209050601f8311600181146110dc575f84156110ca578287015190505b6110d48582611059565b86555061113b565b601f1984166110ea86610ed7565b5f5b82811015611111578489015182556001820191506020850194506020810190506110ec565b8683101561112e578489015161112a601f89168261103d565b8355505b6001600288020188555050505b505050505050565b5f6040820190506111565f830185610cc5565b6111636020830184610d18565b9392505050565b7f4e487b71000000000000000000000000000000000000000000000000000000005f52601160045260245ffd5b5f6111a182610986565b91506111ac83610986565b92508282026111ba81610986565b915082820484148315176111d1576111d061116a565b5b5092915050565b7f4e487b71000000000000000000000000000000000000000000000000000000005f52601260045260245ffd5b5f61120f82610986565b915061121a83610986565b92508261122a576112296111d8565b5b828204905092915050565b5f61123f82610986565b915061124a83610986565b92508282019050808211156112625761126161116a565b5b92915050565b7f4f6e6c7920746865206f776e65722063616e20657865637574652074686973005f82015250565b5f61129c601f83610d4a565b91506112a782611268565b602082019050919050565b5f6020820190508181035f8301526112c981611290565b9050919050565b5f819050919050565b6112ea6112e582610986565b6112d0565b82525050565b5f8160601b9050919050565b5f611306826112f0565b9050919050565b5f611317826112fc565b9050919050565b61132f61132a82610bae565b61130d565b82525050565b5f61134082876112d9565b602082019150611350828661131e565b601482019150611360828561131e565b60148201915061137082846112d9565b60208201915081905095945050505050565b5f60c0820190506113955f830189610cc5565b6113a26020830188610b67565b6113af6040830187610c39565b6113bc6060830186610c39565b6113c96080830185610b67565b6113d660a0830184610d18565b97965050505050505056fea2646970667358221220db18e34007b26d1cfbe9df1bc3e52b54c260770750e2fd541f4df0233ad475e664736f6c63430008160033",
					"opcodes": "PUSH1 0x80 PUSH1 0x40 MSTORE CALLVALUE DUP1 ISZERO PUSH2 0xF JUMPI PUSH0 DUP1 REVERT JUMPDEST POP CALLER PUSH0 DUP1 PUSH2 0x100 EXP DUP2 SLOAD DUP2 PUSH20 0xFFFFFFFFFFFFFFFFFFFFFFFFFFFFFFFFFFFFFFFF MUL NOT AND SWAP1 DUP4 PUSH20 0xFFFFFFFFFFFFFFFFFFFFFFFFFFFFFFFFFFFFFFFF AND MUL OR SWAP1 SSTORE POP PUSH2 0x1417 DUP1 PUSH2 0x5C PUSH0 CODECOPY PUSH0 RETURN INVALID PUSH1 0x80 PUSH1 0x40 MSTORE CALLVALUE DUP1 ISZERO PUSH2 0xF JUMPI PUSH0 DUP1 REVERT JUMPDEST POP PUSH1 0x4 CALLDATASIZE LT PUSH2 0x91 JUMPI PUSH0 CALLDATALOAD PUSH1 0xE0 SHR DUP1 PUSH4 0x87E660D3 GT PUSH2 0x64 JUMPI DUP1 PUSH4 0x87E660D3 EQ PUSH2 0x12D JUMPI DUP1 PUSH4 0x8DA5CB5B EQ PUSH2 0x149 JUMPI DUP1 PUSH4 0xBBEBFBF8 EQ PUSH2 0x167 JUMPI DUP1 PUSH4 0xE5981F7A EQ PUSH2 0x197 JUMPI DUP1 PUSH4 0xEAA66A3C EQ PUSH2 0x1C7 JUMPI PUSH2 0x91 JUMP JUMPDEST DUP1 PUSH4 0x2110D25 EQ PUSH2 0x95 JUMPI DUP1 PUSH4 0x5DBA37CB EQ PUSH2 0xB1 JUMPI DUP1 PUSH4 0x6B01FBA6 EQ PUSH2 0xCD JUMPI DUP1 PUSH4 0x7D08D81D EQ PUSH2 0xFD JUMPI JUMPDEST PUSH0 DUP1 REVERT JUMPDEST PUSH2 0xAF PUSH1 0x4 DUP1 CALLDATASIZE SUB DUP2 ADD SWAP1 PUSH2 0xAA SWAP2 SWAP1 PUSH2 0x9B9 JUMP JUMPDEST PUSH2 0x1FA JUMP JUMPDEST STOP JUMPDEST PUSH2 0xCB PUSH1 0x4 DUP1 CALLDATASIZE SUB DUP2 ADD SWAP1 PUSH2 0xC6 SWAP2 SWAP1 PUSH2 0xAD9 JUMP JUMPDEST PUSH2 0x3DE JUMP JUMPDEST STOP JUMPDEST PUSH2 0xE7 PUSH1 0x4 DUP1 CALLDATASIZE SUB DUP2 ADD SWAP1 PUSH2 0xE2 SWAP2 SWAP1 PUSH2 0xB17 JUMP JUMPDEST PUSH2 0x41B JUMP JUMPDEST PUSH1 0x40 MLOAD PUSH2 0xF4 SWAP2 SWAP1 PUSH2 0xB76 JUMP JUMPDEST PUSH1 0x40 MLOAD DUP1 SWAP2 SUB SWAP1 RETURN JUMPDEST PUSH2 0x117 PUSH1 0x4 DUP1 CALLDATASIZE SUB DUP2 ADD SWAP1 PUSH2 0x112 SWAP2 SWAP1 PUSH2 0xB17 JUMP JUMPDEST PUSH2 0x43C JUMP JUMPDEST PUSH1 0x40 MLOAD PUSH2 0x124 SWAP2 SWAP1 PUSH2 0xB76 JUMP JUMPDEST PUSH1 0x40 MLOAD DUP1 SWAP2 SUB SWAP1 RETURN JUMPDEST PUSH2 0x147 PUSH1 0x4 DUP1 CALLDATASIZE SUB DUP2 ADD SWAP1 PUSH2 0x142 SWAP2 SWAP1 PUSH2 0xBE9 JUMP JUMPDEST PUSH2 0x4C6 JUMP JUMPDEST STOP JUMPDEST PUSH2 0x151 PUSH2 0x5BD JUMP JUMPDEST PUSH1 0x40 MLOAD PUSH2 0x15E SWAP2 SWAP1 PUSH2 0xC48 JUMP JUMPDEST PUSH1 0x40 MLOAD DUP1 SWAP2 SUB SWAP1 RETURN JUMPDEST PUSH2 0x181 PUSH1 0x4 DUP1 CALLDATASIZE SUB DUP2 ADD SWAP1 PUSH2 0x17C SWAP2 SWAP1 PUSH2 0xC61 JUMP JUMPDEST PUSH2 0x5E0 JUMP JUMPDEST PUSH1 0x40 MLOAD PUSH2 0x18E SWAP2 SWAP1 PUSH2 0xCD4 JUMP JUMPDEST PUSH1 0x40 MLOAD DUP1 SWAP2 SUB SWAP1 RETURN JUMPDEST PUSH2 0x1B1 PUSH1 0x4 DUP1 CALLDATASIZE SUB DUP2 ADD SWAP1 PUSH2 0x1AC SWAP2 SWAP1 PUSH2 0xCED JUMP JUMPDEST PUSH2 0x65E JUMP JUMPDEST PUSH1 0x40 MLOAD PUSH2 0x1BE SWAP2 SWAP1 PUSH2 0xD27 JUMP JUMPDEST PUSH1 0x40 MLOAD DUP1 SWAP2 SUB SWAP1 RETURN JUMPDEST PUSH2 0x1E1 PUSH1 0x4 DUP1 CALLDATASIZE SUB DUP2 ADD SWAP1 PUSH2 0x1DC SWAP2 SWAP1 PUSH2 0xCED JUMP JUMPDEST PUSH2 0x67B JUMP JUMPDEST PUSH1 0x40 MLOAD PUSH2 0x1F1 SWAP5 SWAP4 SWAP3 SWAP2 SWAP1 PUSH2 0xDBA JUMP JUMPDEST PUSH1 0x40 MLOAD DUP1 SWAP2 SUB SWAP1 RETURN JUMPDEST PUSH1 0x2 PUSH0 CALLER PUSH20 0xFFFFFFFFFFFFFFFFFFFFFFFFFFFFFFFFFFFFFFFF AND PUSH20 0xFFFFFFFFFFFFFFFFFFFFFFFFFFFFFFFFFFFFFFFF AND DUP2 MSTORE PUSH1 0x20 ADD SWAP1 DUP2 MSTORE PUSH1 0x20 ADD PUSH0 KECCAK256 PUSH0 SWAP1 SLOAD SWAP1 PUSH2 0x100 EXP SWAP1 DIV PUSH1 0xFF AND ISZERO PUSH2 0x284 JUMPI PUSH1 0x40 MLOAD PUSH32 0x8C379A000000000000000000000000000000000000000000000000000000000 DUP2 MSTORE PUSH1 0x4 ADD PUSH2 0x27B SWAP1 PUSH2 0xE5C JUMP JUMPDEST PUSH1 0x40 MLOAD DUP1 SWAP2 SUB SWAP1 REVERT JUMPDEST PUSH1 0x40 MLOAD DUP1 PUSH1 0x80 ADD PUSH1 0x40 MSTORE DUP1 DUP6 DUP2 MSTORE PUSH1 0x20 ADD DUP5 DUP2 MSTORE PUSH1 0x20 ADD DUP4 DUP2 MSTORE PUSH1 0x20 ADD DUP3 DUP2 MSTORE POP PUSH1 0x1 PUSH0 CALLER PUSH20 0xFFFFFFFFFFFFFFFFFFFFFFFFFFFFFFFFFFFFFFFF AND PUSH20 0xFFFFFFFFFFFFFFFFFFFFFFFFFFFFFFFFFFFFFFFF AND DUP2 MSTORE PUSH1 0x20 ADD SWAP1 DUP2 MSTORE PUSH1 0x20 ADD PUSH0 KECCAK256 PUSH0 DUP3 ADD MLOAD DUP2 PUSH0 ADD SWAP1 DUP2 PUSH2 0x2F5 SWAP2 SWAP1 PUSH2 0x1074 JUMP JUMPDEST POP PUSH1 0x20 DUP3 ADD MLOAD DUP2 PUSH1 0x1 ADD SWAP1 DUP2 PUSH2 0x30B SWAP2 SWAP1 PUSH2 0x1074 JUMP JUMPDEST POP PUSH1 0x40 DUP3 ADD MLOAD DUP2 PUSH1 0x2 ADD SWAP1 DUP2 PUSH2 0x321 SWAP2 SWAP1 PUSH2 0x1074 JUMP JUMPDEST POP PUSH1 0x60 DUP3 ADD MLOAD DUP2 PUSH1 0x3 ADD SSTORE SWAP1 POP POP PUSH1 0x1 PUSH1 0x2 PUSH0 CALLER PUSH20 0xFFFFFFFFFFFFFFFFFFFFFFFFFFFFFFFFFFFFFFFF AND PUSH20 0xFFFFFFFFFFFFFFFFFFFFFFFFFFFFFFFFFFFFFFFF AND DUP2 MSTORE PUSH1 0x20 ADD SWAP1 DUP2 MSTORE PUSH1 0x20 ADD PUSH0 KECCAK256 PUSH0 PUSH2 0x100 EXP DUP2 SLOAD DUP2 PUSH1 0xFF MUL NOT AND SWAP1 DUP4 ISZERO ISZERO MUL OR SWAP1 SSTORE POP CALLER PUSH20 0xFFFFFFFFFFFFFFFFFFFFFFFFFFFFFFFFFFFFFFFF AND PUSH32 0x60BC4D8BB7FD4551E3FB969811D8A395873A5936F32A1965DD4331F84043A49E DUP6 DUP6 DUP6 DUP6 PUSH1 0x40 MLOAD PUSH2 0x3D0 SWAP5 SWAP4 SWAP3 SWAP2 SWAP1 PUSH2 0xDBA JUMP JUMPDEST PUSH1 0x40 MLOAD DUP1 SWAP2 SUB SWAP1 LOG2 POP POP POP POP JUMP JUMPDEST PUSH32 0x331F401024904122C4B07B629E53F6C416D0AED7F111C0004EAB033F2E13E8A4 DUP3 DUP3 PUSH1 0x40 MLOAD PUSH2 0x40F SWAP3 SWAP2 SWAP1 PUSH2 0x1143 JUMP JUMPDEST PUSH1 0x40 MLOAD DUP1 SWAP2 SUB SWAP1 LOG1 POP POP JUMP JUMPDEST PUSH0 DUP3 DUP3 DUP6 PUSH2 0x429 SWAP2 SWAP1 PUSH2 0x1197 JUMP JUMPDEST PUSH2 0x433 SWAP2 SWAP1 PUSH2 0x1205 JUMP JUMPDEST SWAP1 POP SWAP4 SWAP3 POP POP POP JUMP JUMPDEST PUSH0 DUP1 DUP3 DUP5 DUP7 PUSH1 0x2 PUSH2 0x44D SWAP2 SWAP1 PUSH2 0x1197 JUMP JUMPDEST PUSH2 0x457 SWAP2 SWAP1 PUSH2 0x1197 JUMP JUMPDEST PUSH2 0x461 SWAP2 SWAP1 PUSH2 0x1205 JUMP JUMPDEST SWAP1 POP PUSH0 PUSH1 0x2 PUSH1 0x1 DUP4 PUSH2 0x473 SWAP2 SWAP1 PUSH2 0x1235 JUMP JUMPDEST PUSH2 0x47D SWAP2 SWAP1 PUSH2 0x1205 JUMP JUMPDEST SWAP1 POP PUSH0 DUP3 SWAP1 POP JUMPDEST DUP1 DUP3 LT ISZERO PUSH2 0x4B9 JUMPI DUP2 SWAP1 POP PUSH1 0x2 DUP3 DUP4 DUP6 PUSH2 0x49E SWAP2 SWAP1 PUSH2 0x1205 JUMP JUMPDEST PUSH2 0x4A8 SWAP2 SWAP1 PUSH2 0x1235 JUMP JUMPDEST PUSH2 0x4B2 SWAP2 SWAP1 PUSH2 0x1205 JUMP JUMPDEST SWAP2 POP PUSH2 0x484 JUMP JUMPDEST DUP1 SWAP4 POP POP POP POP SWAP4 SWAP3 POP POP POP JUMP JUMPDEST PUSH0 DUP1 SLOAD SWAP1 PUSH2 0x100 EXP SWAP1 DIV PUSH20 0xFFFFFFFFFFFFFFFFFFFFFFFFFFFFFFFFFFFFFFFF AND PUSH20 0xFFFFFFFFFFFFFFFFFFFFFFFFFFFFFFFFFFFFFFFF AND CALLER PUSH20 0xFFFFFFFFFFFFFFFFFFFFFFFFFFFFFFFFFFFFFFFF AND EQ PUSH2 0x553 JUMPI PUSH1 0x40 MLOAD PUSH32 0x8C379A000000000000000000000000000000000000000000000000000000000 DUP2 MSTORE PUSH1 0x4 ADD PUSH2 0x54A SWAP1 PUSH2 0x12B2 JUMP JUMPDEST PUSH1 0x40 MLOAD DUP1 SWAP2 SUB SWAP1 REVERT JUMPDEST DUP2 PUSH20 0xFFFFFFFFFFFFFFFFFFFFFFFFFFFFFFFFFFFFFFFF AND DUP4 PUSH20 0xFFFFFFFFFFFFFFFFFFFFFFFFFFFFFFFFFFFFFFFF AND PUSH32 0xB03A765902DEAE82BA76B0B34A0D8519BA0B10952576F134EE3CC1CDD9A7E633 DUP4 PUSH1 0x40 MLOAD PUSH2 0x5B0 SWAP2 SWAP1 PUSH2 0xB76 JUMP JUMPDEST PUSH1 0x40 MLOAD DUP1 SWAP2 SUB SWAP1 LOG3 POP POP POP JUMP JUMPDEST PUSH0 DUP1 SLOAD SWAP1 PUSH2 0x100 EXP SWAP1 DIV PUSH20 0xFFFFFFFFFFFFFFFFFFFFFFFFFFFFFFFFFFFFFFFF AND DUP2 JUMP JUMPDEST PUSH0 DUP1 DUP6 DUP6 DUP6 DUP6 PUSH1 0x40 MLOAD PUSH1 0x20 ADD PUSH2 0x5F9 SWAP5 SWAP4 SWAP3 SWAP2 SWAP1 PUSH2 0x1335 JUMP JUMPDEST PUSH1 0x40 MLOAD PUSH1 0x20 DUP2 DUP4 SUB SUB DUP2 MSTORE SWAP1 PUSH1 0x40 MSTORE DUP1 MLOAD SWAP1 PUSH1 0x20 ADD KECCAK256 SWAP1 POP PUSH32 0x80D4542EDFA853E74E670DDC8E6925D88B43C1C8AC870652AD051227CBC17167 DUP2 DUP8 DUP8 DUP8 DUP8 PUSH0 PUSH1 0x40 MLOAD PUSH2 0x64A SWAP7 SWAP6 SWAP5 SWAP4 SWAP3 SWAP2 SWAP1 PUSH2 0x1382 JUMP JUMPDEST PUSH1 0x40 MLOAD DUP1 SWAP2 SUB SWAP1 LOG1 DUP1 SWAP2 POP POP SWAP5 SWAP4 POP POP POP POP JUMP JUMPDEST PUSH1 0x2 PUSH1 0x20 MSTORE DUP1 PUSH0 MSTORE PUSH1 0x40 PUSH0 KECCAK256 PUSH0 SWAP2 POP SLOAD SWAP1 PUSH2 0x100 EXP SWAP1 DIV PUSH1 0xFF AND DUP2 JUMP JUMPDEST PUSH1 0x1 PUSH1 0x20 MSTORE DUP1 PUSH0 MSTORE PUSH1 0x40 PUSH0 KECCAK256 PUSH0 SWAP2 POP SWAP1 POP DUP1 PUSH0 ADD DUP1 SLOAD PUSH2 0x69A SWAP1 PUSH2 0xEA7 JUMP JUMPDEST DUP1 PUSH1 0x1F ADD PUSH1 0x20 DUP1 SWAP2 DIV MUL PUSH1 0x20 ADD PUSH1 0x40 MLOAD SWAP1 DUP2 ADD PUSH1 0x40 MSTORE DUP1 SWAP3 SWAP2 SWAP1 DUP2 DUP2 MSTORE PUSH1 0x20 ADD DUP3 DUP1 SLOAD PUSH2 0x6C6 SWAP1 PUSH2 0xEA7 JUMP JUMPDEST DUP1 ISZERO PUSH2 0x711 JUMPI DUP1 PUSH1 0x1F LT PUSH2 0x6E8 JUMPI PUSH2 0x100 DUP1 DUP4 SLOAD DIV MUL DUP4 MSTORE SWAP2 PUSH1 0x20 ADD SWAP2 PUSH2 0x711 JUMP JUMPDEST DUP3 ADD SWAP2 SWAP1 PUSH0 MSTORE PUSH1 0x20 PUSH0 KECCAK256 SWAP1 JUMPDEST DUP2 SLOAD DUP2 MSTORE SWAP1 PUSH1 0x1 ADD SWAP1 PUSH1 0x20 ADD DUP1 DUP4 GT PUSH2 0x6F4 JUMPI DUP3 SWAP1 SUB PUSH1 0x1F AND DUP3 ADD SWAP2 JUMPDEST POP POP POP POP POP SWAP1 DUP1 PUSH1 0x1 ADD DUP1 SLOAD PUSH2 0x726 SWAP1 PUSH2 0xEA7 JUMP JUMPDEST DUP1 PUSH1 0x1F ADD PUSH1 0x20 DUP1 SWAP2 DIV MUL PUSH1 0x20 ADD PUSH1 0x40 MLOAD SWAP1 DUP2 ADD PUSH1 0x40 MSTORE DUP1 SWAP3 SWAP2 SWAP1 DUP2 DUP2 MSTORE PUSH1 0x20 ADD DUP3 DUP1 SLOAD PUSH2 0x752 SWAP1 PUSH2 0xEA7 JUMP JUMPDEST DUP1 ISZERO PUSH2 0x79D JUMPI DUP1 PUSH1 0x1F LT PUSH2 0x774 JUMPI PUSH2 0x100 DUP1 DUP4 SLOAD DIV MUL DUP4 MSTORE SWAP2 PUSH1 0x20 ADD SWAP2 PUSH2 0x79D JUMP JUMPDEST DUP3 ADD SWAP2 SWAP1 PUSH0 MSTORE PUSH1 0x20 PUSH0 KECCAK256 SWAP1 JUMPDEST DUP2 SLOAD DUP2 MSTORE SWAP1 PUSH1 0x1 ADD SWAP1 PUSH1 0x20 ADD DUP1 DUP4 GT PUSH2 0x780 JUMPI DUP3 SWAP1 SUB PUSH1 0x1F AND DUP3 ADD SWAP2 JUMPDEST POP POP POP POP POP SWAP1 DUP1 PUSH1 0x2 ADD DUP1 SLOAD PUSH2 0x7B2 SWAP1 PUSH2 0xEA7 JUMP JUMPDEST DUP1 PUSH1 0x1F ADD PUSH1 0x20 DUP1 SWAP2 DIV MUL PUSH1 0x20 ADD PUSH1 0x40 MLOAD SWAP1 DUP2 ADD PUSH1 0x40 MSTORE DUP1 SWAP3 SWAP2 SWAP1 DUP2 DUP2 MSTORE PUSH1 0x20 ADD DUP3 DUP1 SLOAD PUSH2 0x7DE SWAP1 PUSH2 0xEA7 JUMP JUMPDEST DUP1 ISZERO PUSH2 0x829 JUMPI DUP1 PUSH1 0x1F LT PUSH2 0x800 JUMPI PUSH2 0x100 DUP1 DUP4 SLOAD DIV MUL DUP4 MSTORE SWAP2 PUSH1 0x20 ADD SWAP2 PUSH2 0x829 JUMP JUMPDEST DUP3 ADD SWAP2 SWAP1 PUSH0 MSTORE PUSH1 0x20 PUSH0 KECCAK256 SWAP1 JUMPDEST DUP2 SLOAD DUP2 MSTORE SWAP1 PUSH1 0x1 ADD SWAP1 PUSH1 0x20 ADD DUP1 DUP4 GT PUSH2 0x80C JUMPI DUP3 SWAP1 SUB PUSH1 0x1F AND DUP3 ADD SWAP2 JUMPDEST POP POP POP POP POP SWAP1 DUP1 PUSH1 0x3 ADD SLOAD SWAP1 POP DUP5 JUMP JUMPDEST PUSH0 PUSH1 0x40 MLOAD SWAP1 POP SWAP1 JUMP JUMPDEST PUSH0 DUP1 REVERT JUMPDEST PUSH0 DUP1 REVERT JUMPDEST PUSH0 DUP1 REVERT JUMPDEST PUSH0 DUP1 REVERT JUMPDEST PUSH0 PUSH1 0x1F NOT PUSH1 0x1F DUP4 ADD AND SWAP1 POP SWAP2 SWAP1 POP JUMP JUMPDEST PUSH32 0x4E487B7100000000000000000000000000000000000000000000000000000000 PUSH0 MSTORE PUSH1 0x41 PUSH1 0x4 MSTORE PUSH1 0x24 PUSH0 REVERT JUMPDEST PUSH2 0x898 DUP3 PUSH2 0x852 JUMP JUMPDEST DUP2 ADD DUP2 DUP2 LT PUSH8 0xFFFFFFFFFFFFFFFF DUP3 GT OR ISZERO PUSH2 0x8B7 JUMPI PUSH2 0x8B6 PUSH2 0x862 JUMP JUMPDEST JUMPDEST DUP1 PUSH1 0x40 MSTORE POP POP POP JUMP JUMPDEST PUSH0 PUSH2 0x8C9 PUSH2 0x839 JUMP JUMPDEST SWAP1 POP PUSH2 0x8D5 DUP3 DUP3 PUSH2 0x88F JUMP JUMPDEST SWAP2 SWAP1 POP JUMP JUMPDEST PUSH0 PUSH8 0xFFFFFFFFFFFFFFFF DUP3 GT ISZERO PUSH2 0x8F4 JUMPI PUSH2 0x8F3 PUSH2 0x862 JUMP JUMPDEST JUMPDEST PUSH2 0x8FD DUP3 PUSH2 0x852 JUMP JUMPDEST SWAP1 POP PUSH1 0x20 DUP2 ADD SWAP1 POP SWAP2 SWAP1 POP JUMP JUMPDEST DUP3 DUP2 DUP4 CALLDATACOPY PUSH0 DUP4 DUP4 ADD MSTORE POP POP POP JUMP JUMPDEST PUSH0 PUSH2 0x92A PUSH2 0x925 DUP5 PUSH2 0x8DA JUMP JUMPDEST PUSH2 0x8C0 JUMP JUMPDEST SWAP1 POP DUP3 DUP2 MSTORE PUSH1 0x20 DUP2 ADD DUP5 DUP5 DUP5 ADD GT ISZERO PUSH2 0x946 JUMPI PUSH2 0x945 PUSH2 0x84E JUMP JUMPDEST JUMPDEST PUSH2 0x951 DUP5 DUP3 DUP6 PUSH2 0x90A JUMP JUMPDEST POP SWAP4 SWAP3 POP POP POP JUMP JUMPDEST PUSH0 DUP3 PUSH1 0x1F DUP4 ADD SLT PUSH2 0x96D JUMPI PUSH2 0x96C PUSH2 0x84A JUMP JUMPDEST JUMPDEST DUP2 CALLDATALOAD PUSH2 0x97D DUP5 DUP3 PUSH1 0x20 DUP7 ADD PUSH2 0x918 JUMP JUMPDEST SWAP2 POP POP SWAP3 SWAP2 POP POP JUMP JUMPDEST PUSH0 DUP2 SWAP1 POP SWAP2 SWAP1 POP JUMP JUMPDEST PUSH2 0x998 DUP2 PUSH2 0x986 JUMP JUMPDEST DUP2 EQ PUSH2 0x9A2 JUMPI PUSH0 DUP1 REVERT JUMPDEST POP JUMP JUMPDEST PUSH0 DUP2 CALLDATALOAD SWAP1 POP PUSH2 0x9B3 DUP2 PUSH2 0x98F JUMP JUMPDEST SWAP3 SWAP2 POP POP JUMP JUMPDEST PUSH0 DUP1 PUSH0 DUP1 PUSH1 0x80 DUP6 DUP8 SUB SLT ISZERO PUSH2 0x9D1 JUMPI PUSH2 0x9D0 PUSH2 0x842 JUMP JUMPDEST JUMPDEST PUSH0 DUP6 ADD CALLDATALOAD PUSH8 0xFFFFFFFFFFFFFFFF DUP2 GT ISZERO PUSH2 0x9EE JUMPI PUSH2 0x9ED PUSH2 0x846 JUMP JUMPDEST JUMPDEST PUSH2 0x9FA DUP8 DUP3 DUP9 ADD PUSH2 0x959 JUMP JUMPDEST SWAP5 POP POP PUSH1 0x20 DUP6 ADD CALLDATALOAD PUSH8 0xFFFFFFFFFFFFFFFF DUP2 GT ISZERO PUSH2 0xA1B JUMPI PUSH2 0xA1A PUSH2 0x846 JUMP JUMPDEST JUMPDEST PUSH2 0xA27 DUP8 DUP3 DUP9 ADD PUSH2 0x959 JUMP JUMPDEST SWAP4 POP POP PUSH1 0x40 DUP6 ADD CALLDATALOAD PUSH8 0xFFFFFFFFFFFFFFFF DUP2 GT ISZERO PUSH2 0xA48 JUMPI PUSH2 0xA47 PUSH2 0x846 JUMP JUMPDEST JUMPDEST PUSH2 0xA54 DUP8 DUP3 DUP9 ADD PUSH2 0x959 JUMP JUMPDEST SWAP3 POP POP PUSH1 0x60 PUSH2 0xA65 DUP8 DUP3 DUP9 ADD PUSH2 0x9A5 JUMP JUMPDEST SWAP2 POP POP SWAP3 SWAP6 SWAP2 SWAP5 POP SWAP3 POP JUMP JUMPDEST PUSH0 DUP2 SWAP1 POP SWAP2 SWAP1 POP JUMP JUMPDEST PUSH2 0xA83 DUP2 PUSH2 0xA71 JUMP JUMPDEST DUP2 EQ PUSH2 0xA8D JUMPI PUSH0 DUP1 REVERT JUMPDEST POP JUMP JUMPDEST PUSH0 DUP2 CALLDATALOAD SWAP1 POP PUSH2 0xA9E DUP2 PUSH2 0xA7A JUMP JUMPDEST SWAP3 SWAP2 POP POP JUMP JUMPDEST PUSH0 DUP2 ISZERO ISZERO SWAP1 POP SWAP2 SWAP1 POP JUMP JUMPDEST PUSH2 0xAB8 DUP2 PUSH2 0xAA4 JUMP JUMPDEST DUP2 EQ PUSH2 0xAC2 JUMPI PUSH0 DUP1 REVERT JUMPDEST POP JUMP JUMPDEST PUSH0 DUP2 CALLDATALOAD SWAP1 POP PUSH2 0xAD3 DUP2 PUSH2 0xAAF JUMP JUMPDEST SWAP3 SWAP2 POP POP JUMP JUMPDEST PUSH0 DUP1 PUSH1 0x40 DUP4 DUP6 SUB SLT ISZERO PUSH2 0xAEF JUMPI PUSH2 0xAEE PUSH2 0x842 JUMP JUMPDEST JUMPDEST PUSH0 PUSH2 0xAFC DUP6 DUP3 DUP7 ADD PUSH2 0xA90 JUMP JUMPDEST SWAP3 POP POP PUSH1 0x20 PUSH2 0xB0D DUP6 DUP3 DUP7 ADD PUSH2 0xAC5 JUMP JUMPDEST SWAP2 POP POP SWAP3 POP SWAP3 SWAP1 POP JUMP JUMPDEST PUSH0 DUP1 PUSH0 PUSH1 0x60 DUP5 DUP7 SUB SLT ISZERO PUSH2 0xB2E JUMPI PUSH2 0xB2D PUSH2 0x842 JUMP JUMPDEST JUMPDEST PUSH0 PUSH2 0xB3B DUP7 DUP3 DUP8 ADD PUSH2 0x9A5 JUMP JUMPDEST SWAP4 POP POP PUSH1 0x20 PUSH2 0xB4C DUP7 DUP3 DUP8 ADD PUSH2 0x9A5 JUMP JUMPDEST SWAP3 POP POP PUSH1 0x40 PUSH2 0xB5D DUP7 DUP3 DUP8 ADD PUSH2 0x9A5 JUMP JUMPDEST SWAP2 POP POP SWAP3 POP SWAP3 POP SWAP3 JUMP JUMPDEST PUSH2 0xB70 DUP2 PUSH2 0x986 JUMP JUMPDEST DUP3 MSTORE POP POP JUMP JUMPDEST PUSH0 PUSH1 0x20 DUP3 ADD SWAP1 POP PUSH2 0xB89 PUSH0 DUP4 ADD DUP5 PUSH2 0xB67 JUMP JUMPDEST SWAP3 SWAP2 POP POP JUMP JUMPDEST PUSH0 PUSH20 0xFFFFFFFFFFFFFFFFFFFFFFFFFFFFFFFFFFFFFFFF DUP3 AND SWAP1 POP SWAP2 SWAP1 POP JUMP JUMPDEST PUSH0 PUSH2 0xBB8 DUP3 PUSH2 0xB8F JUMP JUMPDEST SWAP1 POP SWAP2 SWAP1 POP JUMP JUMPDEST PUSH2 0xBC8 DUP2 PUSH2 0xBAE JUMP JUMPDEST DUP2 EQ PUSH2 0xBD2 JUMPI PUSH0 DUP1 REVERT JUMPDEST POP JUMP JUMPDEST PUSH0 DUP2 CALLDATALOAD SWAP1 POP PUSH2 0xBE3 DUP2 PUSH2 0xBBF JUMP JUMPDEST SWAP3 SWAP2 POP POP JUMP JUMPDEST PUSH0 DUP1 PUSH0 PUSH1 0x60 DUP5 DUP7 SUB SLT ISZERO PUSH2 0xC00 JUMPI PUSH2 0xBFF PUSH2 0x842 JUMP JUMPDEST JUMPDEST PUSH0 PUSH2 0xC0D DUP7 DUP3 DUP8 ADD PUSH2 0xBD5 JUMP JUMPDEST SWAP4 POP POP PUSH1 0x20 PUSH2 0xC1E DUP7 DUP3 DUP8 ADD PUSH2 0xBD5 JUMP JUMPDEST SWAP3 POP POP PUSH1 0x40 PUSH2 0xC2F DUP7 DUP3 DUP8 ADD PUSH2 0x9A5 JUMP JUMPDEST SWAP2 POP POP SWAP3 POP SWAP3 POP SWAP3 JUMP JUMPDEST PUSH2 0xC42 DUP2 PUSH2 0xBAE JUMP JUMPDEST DUP3 MSTORE POP POP JUMP JUMPDEST PUSH0 PUSH1 0x20 DUP3 ADD SWAP1 POP PUSH2 0xC5B PUSH0 DUP4 ADD DUP5 PUSH2 0xC39 JUMP JUMPDEST SWAP3 SWAP2 POP POP JUMP JUMPDEST PUSH0 DUP1 PUSH0 DUP1 PUSH1 0x80 DUP6 DUP8 SUB SLT ISZERO PUSH2 0xC79 JUMPI PUSH2 0xC78 PUSH2 0x842 JUMP JUMPDEST JUMPDEST PUSH0 PUSH2 0xC86 DUP8 DUP3 DUP9 ADD PUSH2 0x9A5 JUMP JUMPDEST SWAP5 POP POP PUSH1 0x20 PUSH2 0xC97 DUP8 DUP3 DUP9 ADD PUSH2 0xBD5 JUMP JUMPDEST SWAP4 POP POP PUSH1 0x40 PUSH2 0xCA8 DUP8 DUP3 DUP9 ADD PUSH2 0xBD5 JUMP JUMPDEST SWAP3 POP POP PUSH1 0x60 PUSH2 0xCB9 DUP8 DUP3 DUP9 ADD PUSH2 0x9A5 JUMP JUMPDEST SWAP2 POP POP SWAP3 SWAP6 SWAP2 SWAP5 POP SWAP3 POP JUMP JUMPDEST PUSH2 0xCCE DUP2 PUSH2 0xA71 JUMP JUMPDEST DUP3 MSTORE POP POP JUMP JUMPDEST PUSH0 PUSH1 0x20 DUP3 ADD SWAP1 POP PUSH2 0xCE7 PUSH0 DUP4 ADD DUP5 PUSH2 0xCC5 JUMP JUMPDEST SWAP3 SWAP2 POP POP JUMP JUMPDEST PUSH0 PUSH1 0x20 DUP3 DUP5 SUB SLT ISZERO PUSH2 0xD02 JUMPI PUSH2 0xD01 PUSH2 0x842 JUMP JUMPDEST JUMPDEST PUSH0 PUSH2 0xD0F DUP5 DUP3 DUP6 ADD PUSH2 0xBD5 JUMP JUMPDEST SWAP2 POP POP SWAP3 SWAP2 POP POP JUMP JUMPDEST PUSH2 0xD21 DUP2 PUSH2 0xAA4 JUMP JUMPDEST DUP3 MSTORE POP POP JUMP JUMPDEST PUSH0 PUSH1 0x20 DUP3 ADD SWAP1 POP PUSH2 0xD3A PUSH0 DUP4 ADD DUP5 PUSH2 0xD18 JUMP JUMPDEST SWAP3 SWAP2 POP POP JUMP JUMPDEST PUSH0 DUP2 MLOAD SWAP1 POP SWAP2 SWAP1 POP JUMP JUMPDEST PUSH0 DUP3 DUP3 MSTORE PUSH1 0x20 DUP3 ADD SWAP1 POP SWAP3 SWAP2 POP POP JUMP JUMPDEST PUSH0 JUMPDEST DUP4 DUP2 LT ISZERO PUSH2 0xD77 JUMPI DUP1 DUP3 ADD MLOAD DUP2 DUP5 ADD MSTORE PUSH1 0x20 DUP2 ADD SWAP1 POP PUSH2 0xD5C JUMP JUMPDEST PUSH0 DUP5 DUP5 ADD MSTORE POP POP POP POP JUMP JUMPDEST PUSH0 PUSH2 0xD8C DUP3 PUSH2 0xD40 JUMP JUMPDEST PUSH2 0xD96 DUP2 DUP6 PUSH2 0xD4A JUMP JUMPDEST SWAP4 POP PUSH2 0xDA6 DUP2 DUP6 PUSH1 0x20 DUP7 ADD PUSH2 0xD5A JUMP JUMPDEST PUSH2 0xDAF DUP2 PUSH2 0x852 JUMP JUMPDEST DUP5 ADD SWAP2 POP POP SWAP3 SWAP2 POP POP JUMP JUMPDEST PUSH0 PUSH1 0x80 DUP3 ADD SWAP1 POP DUP2 DUP2 SUB PUSH0 DUP4 ADD MSTORE PUSH2 0xDD2 DUP2 DUP8 PUSH2 0xD82 JUMP JUMPDEST SWAP1 POP DUP2 DUP2 SUB PUSH1 0x20 DUP4 ADD MSTORE PUSH2 0xDE6 DUP2 DUP7 PUSH2 0xD82 JUMP JUMPDEST SWAP1 POP DUP2 DUP2 SUB PUSH1 0x40 DUP4 ADD MSTORE PUSH2 0xDFA DUP2 DUP6 PUSH2 0xD82 JUMP JUMPDEST SWAP1 POP PUSH2 0xE09 PUSH1 0x60 DUP4 ADD DUP5 PUSH2 0xB67 JUMP JUMPDEST SWAP6 SWAP5 POP POP POP POP POP JUMP JUMPDEST PUSH32 0x4163746F7220616C726561647920726567697374657265640000000000000000 PUSH0 DUP3 ADD MSTORE POP JUMP JUMPDEST PUSH0 PUSH2 0xE46 PUSH1 0x18 DUP4 PUSH2 0xD4A JUMP JUMPDEST SWAP2 POP PUSH2 0xE51 DUP3 PUSH2 0xE12 JUMP JUMPDEST PUSH1 0x20 DUP3 ADD SWAP1 POP SWAP2 SWAP1 POP JUMP JUMPDEST PUSH0 PUSH1 0x20 DUP3 ADD SWAP1 POP DUP2 DUP2 SUB PUSH0 DUP4 ADD MSTORE PUSH2 0xE73 DUP2 PUSH2 0xE3A JUMP JUMPDEST SWAP1 POP SWAP2 SWAP1 POP JUMP JUMPDEST PUSH32 0x4E487B7100000000000000000000000000000000000000000000000000000000 PUSH0 MSTORE PUSH1 0x22 PUSH1 0x4 MSTORE PUSH1 0x24 PUSH0 REVERT JUMPDEST PUSH0 PUSH1 0x2 DUP3 DIV SWAP1 POP PUSH1 0x1 DUP3 AND DUP1 PUSH2 0xEBE JUMPI PUSH1 0x7F DUP3 AND SWAP2 POP JUMPDEST PUSH1 0x20 DUP3 LT DUP2 SUB PUSH2 0xED1 JUMPI PUSH2 0xED0 PUSH2 0xE7A JUMP JUMPDEST JUMPDEST POP SWAP2 SWAP1 POP JUMP JUMPDEST PUSH0 DUP2 SWAP1 POP DUP2 PUSH0 MSTORE PUSH1 0x20 PUSH0 KECCAK256 SWAP1 POP SWAP2 SWAP1 POP JUMP JUMPDEST PUSH0 PUSH1 0x20 PUSH1 0x1F DUP4 ADD DIV SWAP1 POP SWAP2 SWAP1 POP JUMP JUMPDEST PUSH0 DUP3 DUP3 SHL SWAP1 POP SWAP3 SWAP2 POP POP JUMP JUMPDEST PUSH0 PUSH1 0x8 DUP4 MUL PUSH2 0xF33 PUSH32 0xFFFFFFFFFFFFFFFFFFFFFFFFFFFFFFFFFFFFFFFFFFFFFFFFFFFFFFFFFFFFFFFF DUP3 PUSH2 0xEF8 JUMP JUMPDEST PUSH2 0xF3D DUP7 DUP4 PUSH2 0xEF8 JUMP JUMPDEST SWAP6 POP DUP1 NOT DUP5 AND SWAP4 POP DUP1 DUP7 AND DUP5 OR SWAP3 POP POP POP SWAP4 SWAP3 POP POP POP JUMP JUMPDEST PUSH0 DUP2 SWAP1 POP SWAP2 SWAP1 POP JUMP JUMPDEST PUSH0 PUSH2 0xF78 PUSH2 0xF73 PUSH2 0xF6E DUP5 PUSH2 0x986 JUMP JUMPDEST PUSH2 0xF55 JUMP JUMPDEST PUSH2 0x986 JUMP JUMPDEST SWAP1 POP SWAP2 SWAP1 POP JUMP JUMPDEST PUSH0 DUP2 SWAP1 POP SWAP2 SWAP1 POP JUMP JUMPDEST PUSH2 0xF91 DUP4 PUSH2 0xF5E JUMP JUMPDEST PUSH2 0xFA5 PUSH2 0xF9D DUP3 PUSH2 0xF7F JUMP JUMPDEST DUP5 DUP5 SLOAD PUSH2 0xF04 JUMP JUMPDEST DUP3 SSTORE POP POP POP POP JUMP JUMPDEST PUSH0 SWAP1 JUMP JUMPDEST PUSH2 0xFB9 PUSH2 0xFAD JUMP JUMPDEST PUSH2 0xFC4 DUP2 DUP5 DUP5 PUSH2 0xF88 JUMP JUMPDEST POP POP POP JUMP JUMPDEST JUMPDEST DUP2 DUP2 LT ISZERO PUSH2 0xFE7 JUMPI PUSH2 0xFDC PUSH0 DUP3 PUSH2 0xFB1 JUMP JUMPDEST PUSH1 0x1 DUP2 ADD SWAP1 POP PUSH2 0xFCA JUMP JUMPDEST POP POP JUMP JUMPDEST PUSH1 0x1F DUP3 GT ISZERO PUSH2 0x102C JUMPI PUSH2 0xFFD DUP2 PUSH2 0xED7 JUMP JUMPDEST PUSH2 0x1006 DUP5 PUSH2 0xEE9 JUMP JUMPDEST DUP2 ADD PUSH1 0x20 DUP6 LT ISZERO PUSH2 0x1015 JUMPI DUP2 SWAP1 POP JUMPDEST PUSH2 0x1029 PUSH2 0x1021 DUP6 PUSH2 0xEE9 JUMP JUMPDEST DUP4 ADD DUP3 PUSH2 0xFC9 JUMP JUMPDEST POP POP JUMPDEST POP POP POP JUMP JUMPDEST PUSH0 DUP3 DUP3 SHR SWAP1 POP SWAP3 SWAP2 POP POP JUMP JUMPDEST PUSH0 PUSH2 0x104C PUSH0 NOT DUP5 PUSH1 0x8 MUL PUSH2 0x1031 JUMP JUMPDEST NOT DUP1 DUP4 AND SWAP2 POP POP SWAP3 SWAP2 POP POP JUMP JUMPDEST PUSH0 PUSH2 0x1064 DUP4 DUP4 PUSH2 0x103D JUMP JUMPDEST SWAP2 POP DUP3 PUSH1 0x2 MUL DUP3 OR SWAP1 POP SWAP3 SWAP2 POP POP JUMP JUMPDEST PUSH2 0x107D DUP3 PUSH2 0xD40 JUMP JUMPDEST PUSH8 0xFFFFFFFFFFFFFFFF DUP2 GT ISZERO PUSH2 0x1096 JUMPI PUSH2 0x1095 PUSH2 0x862 JUMP JUMPDEST JUMPDEST PUSH2 0x10A0 DUP3 SLOAD PUSH2 0xEA7 JUMP JUMPDEST PUSH2 0x10AB DUP3 DUP3 DUP6 PUSH2 0xFEB JUMP JUMPDEST PUSH0 PUSH1 0x20 SWAP1 POP PUSH1 0x1F DUP4 GT PUSH1 0x1 DUP2 EQ PUSH2 0x10DC JUMPI PUSH0 DUP5 ISZERO PUSH2 0x10CA JUMPI DUP3 DUP8 ADD MLOAD SWAP1 POP JUMPDEST PUSH2 0x10D4 DUP6 DUP3 PUSH2 0x1059 JUMP JUMPDEST DUP7 SSTORE POP PUSH2 0x113B JUMP JUMPDEST PUSH1 0x1F NOT DUP5 AND PUSH2 0x10EA DUP7 PUSH2 0xED7 JUMP JUMPDEST PUSH0 JUMPDEST DUP3 DUP2 LT ISZERO PUSH2 0x1111 JUMPI DUP5 DUP10 ADD MLOAD DUP3 SSTORE PUSH1 0x1 DUP3 ADD SWAP2 POP PUSH1 0x20 DUP6 ADD SWAP5 POP PUSH1 0x20 DUP2 ADD SWAP1 POP PUSH2 0x10EC JUMP JUMPDEST DUP7 DUP4 LT ISZERO PUSH2 0x112E JUMPI DUP5 DUP10 ADD MLOAD PUSH2 0x112A PUSH1 0x1F DUP10 AND DUP3 PUSH2 0x103D JUMP JUMPDEST DUP4 SSTORE POP JUMPDEST PUSH1 0x1 PUSH1 0x2 DUP9 MUL ADD DUP9 SSTORE POP POP POP JUMPDEST POP POP POP POP POP POP JUMP JUMPDEST PUSH0 PUSH1 0x40 DUP3 ADD SWAP1 POP PUSH2 0x1156 PUSH0 DUP4 ADD DUP6 PUSH2 0xCC5 JUMP JUMPDEST PUSH2 0x1163 PUSH1 0x20 DUP4 ADD DUP5 PUSH2 0xD18 JUMP JUMPDEST SWAP4 SWAP3 POP POP POP JUMP JUMPDEST PUSH32 0x4E487B7100000000000000000000000000000000000000000000000000000000 PUSH0 MSTORE PUSH1 0x11 PUSH1 0x4 MSTORE PUSH1 0x24 PUSH0 REVERT JUMPDEST PUSH0 PUSH2 0x11A1 DUP3 PUSH2 0x986 JUMP JUMPDEST SWAP2 POP PUSH2 0x11AC DUP4 PUSH2 0x986 JUMP JUMPDEST SWAP3 POP DUP3 DUP3 MUL PUSH2 0x11BA DUP2 PUSH2 0x986 JUMP JUMPDEST SWAP2 POP DUP3 DUP3 DIV DUP5 EQ DUP4 ISZERO OR PUSH2 0x11D1 JUMPI PUSH2 0x11D0 PUSH2 0x116A JUMP JUMPDEST JUMPDEST POP SWAP3 SWAP2 POP POP JUMP JUMPDEST PUSH32 0x4E487B7100000000000000000000000000000000000000000000000000000000 PUSH0 MSTORE PUSH1 0x12 PUSH1 0x4 MSTORE PUSH1 0x24 PUSH0 REVERT JUMPDEST PUSH0 PUSH2 0x120F DUP3 PUSH2 0x986 JUMP JUMPDEST SWAP2 POP PUSH2 0x121A DUP4 PUSH2 0x986 JUMP JUMPDEST SWAP3 POP DUP3 PUSH2 0x122A JUMPI PUSH2 0x1229 PUSH2 0x11D8 JUMP JUMPDEST JUMPDEST DUP3 DUP3 DIV SWAP1 POP SWAP3 SWAP2 POP POP JUMP JUMPDEST PUSH0 PUSH2 0x123F DUP3 PUSH2 0x986 JUMP JUMPDEST SWAP2 POP PUSH2 0x124A DUP4 PUSH2 0x986 JUMP JUMPDEST SWAP3 POP DUP3 DUP3 ADD SWAP1 POP DUP1 DUP3 GT ISZERO PUSH2 0x1262 JUMPI PUSH2 0x1261 PUSH2 0x116A JUMP JUMPDEST JUMPDEST SWAP3 SWAP2 POP POP JUMP JUMPDEST PUSH32 0x4F6E6C7920746865206F776E65722063616E2065786563757465207468697300 PUSH0 DUP3 ADD MSTORE POP JUMP JUMPDEST PUSH0 PUSH2 0x129C PUSH1 0x1F DUP4 PUSH2 0xD4A JUMP JUMPDEST SWAP2 POP PUSH2 0x12A7 DUP3 PUSH2 0x1268 JUMP JUMPDEST PUSH1 0x20 DUP3 ADD SWAP1 POP SWAP2 SWAP1 POP JUMP JUMPDEST PUSH0 PUSH1 0x20 DUP3 ADD SWAP1 POP DUP2 DUP2 SUB PUSH0 DUP4 ADD MSTORE PUSH2 0x12C9 DUP2 PUSH2 0x1290 JUMP JUMPDEST SWAP1 POP SWAP2 SWAP1 POP JUMP JUMPDEST PUSH0 DUP2 SWAP1 POP SWAP2 SWAP1 POP JUMP JUMPDEST PUSH2 0x12EA PUSH2 0x12E5 DUP3 PUSH2 0x986 JUMP JUMPDEST PUSH2 0x12D0 JUMP JUMPDEST DUP3 MSTORE POP POP JUMP JUMPDEST PUSH0 DUP2 PUSH1 0x60 SHL SWAP1 POP SWAP2 SWAP1 POP JUMP JUMPDEST PUSH0 PUSH2 0x1306 DUP3 PUSH2 0x12F0 JUMP JUMPDEST SWAP1 POP SWAP2 SWAP1 POP JUMP JUMPDEST PUSH0 PUSH2 0x1317 DUP3 PUSH2 0x12FC JUMP JUMPDEST SWAP1 POP SWAP2 SWAP1 POP JUMP JUMPDEST PUSH2 0x132F PUSH2 0x132A DUP3 PUSH2 0xBAE JUMP JUMPDEST PUSH2 0x130D JUMP JUMPDEST DUP3 MSTORE POP POP JUMP JUMPDEST PUSH0 PUSH2 0x1340 DUP3 DUP8 PUSH2 0x12D9 JUMP JUMPDEST PUSH1 0x20 DUP3 ADD SWAP2 POP PUSH2 0x1350 DUP3 DUP7 PUSH2 0x131E JUMP JUMPDEST PUSH1 0x14 DUP3 ADD SWAP2 POP PUSH2 0x1360 DUP3 DUP6 PUSH2 0x131E JUMP JUMPDEST PUSH1 0x14 DUP3 ADD SWAP2 POP PUSH2 0x1370 DUP3 DUP5 PUSH2 0x12D9 JUMP JUMPDEST PUSH1 0x20 DUP3 ADD SWAP2 POP DUP2 SWAP1 POP SWAP6 SWAP5 POP POP POP POP POP JUMP JUMPDEST PUSH0 PUSH1 0xC0 DUP3 ADD SWAP1 POP PUSH2 0x1395 PUSH0 DUP4 ADD DUP10 PUSH2 0xCC5 JUMP JUMPDEST PUSH2 0x13A2 PUSH1 0x20 DUP4 ADD DUP9 PUSH2 0xB67 JUMP JUMPDEST PUSH2 0x13AF PUSH1 0x40 DUP4 ADD DUP8 PUSH2 0xC39 JUMP JUMPDEST PUSH2 0x13BC PUSH1 0x60 DUP4 ADD DUP7 PUSH2 0xC39 JUMP JUMPDEST PUSH2 0x13C9 PUSH1 0x80 DUP4 ADD DUP6 PUSH2 0xB67 JUMP JUMPDEST PUSH2 0x13D6 PUSH1 0xA0 DUP4 ADD DUP5 PUSH2 0xD18 JUMP JUMPDEST SWAP8 SWAP7 POP POP POP POP POP POP POP JUMP INVALID LOG2 PUSH5 0x6970667358 0x22 SLT KECCAK256 0xDB XOR 0xE3 BLOCKHASH SMOD 0xB2 PUSH14 0x1CFBE9DF1BC3E52B54C260770750 0xE2 REVERT SLOAD 0x1F 0x4D CREATE 0x23 GASPRICE 0xD4 PUSH22 0xE664736F6C6343000816003300000000000000000000 "
				},
				"gasEstimates": {
					"creation": {
						"codeDepositCost": "1028600",
						"executionCost": "25330",
						"totalCost": "1053930"
					},
					"external": {
						"acceptOrder(bytes32,bool)": "infinite",
						"actors(address)": "infinite",
						"calculateEconomicOrderQuantity(uint256,uint256,uint256)": "infinite",
						"calculateReorderPoint(uint256,uint256,uint256)": "infinite",
						"createOrder(uint256,address,address,uint256)": "infinite",
						"makePayment(address,address,uint256)": "infinite",
						"owner()": "2527",
						"register(string,string,string,uint256)": "infinite",
						"registeredActors(address)": "2899"
					}
				},
				"methodIdentifiers": {
					"acceptOrder(bytes32,bool)": "5dba37cb",
					"actors(address)": "eaa66a3c",
					"calculateEconomicOrderQuantity(uint256,uint256,uint256)": "7d08d81d",
					"calculateReorderPoint(uint256,uint256,uint256)": "6b01fba6",
					"createOrder(uint256,address,address,uint256)": "bbebfbf8",
					"makePayment(address,address,uint256)": "87e660d3",
					"owner()": "8da5cb5b",
					"register(string,string,string,uint256)": "02110d25",
					"registeredActors(address)": "e5981f7a"
				}
			},
			"storageLayout": {
				"storage": [
					{
						"astId": 3,
						"contract": "contracts/supply_chain.sol:SupplyChainManagement",
						"label": "owner",
						"offset": 0,
						"slot": "0",
						"type": "t_address"
					},
					{
						"astId": 17,
						"contract": "contracts/supply_chain.sol:SupplyChainManagement",
						"label": "actors",
						"offset": 0,
						"slot": "1",
						"type": "t_mapping(t_address,t_struct(Actor)12_storage)"
					},
					{
						"astId": 21,
						"contract": "contracts/supply_chain.sol:SupplyChainManagement",
						"label": "registeredActors",
						"offset": 0,
						"slot": "2",
						"type": "t_mapping(t_address,t_bool)"
					}
				],
				"types": {
					"t_address": {
						"encoding": "inplace",
						"label": "address",
						"numberOfBytes": "20"
					},
					"t_bool": {
						"encoding": "inplace",
						"label": "bool",
						"numberOfBytes": "1"
					},
					"t_mapping(t_address,t_bool)": {
						"encoding": "mapping",
						"key": "t_address",
						"label": "mapping(address => bool)",
						"numberOfBytes": "32",
						"value": "t_bool"
					},
					"t_mapping(t_address,t_struct(Actor)12_storage)": {
						"encoding": "mapping",
						"key": "t_address",
						"label": "mapping(address => struct SupplyChainManagement.Actor)",
						"numberOfBytes": "32",
						"value": "t_struct(Actor)12_storage"
					},
					"t_string_storage": {
						"encoding": "bytes",
						"label": "string",
						"numberOfBytes": "32"
					},
					"t_struct(Actor)12_storage": {
						"encoding": "inplace",
						"label": "struct SupplyChainManagement.Actor",
						"members": [
							{
								"astId": 5,
								"contract": "contracts/supply_chain.sol:SupplyChainManagement",
								"label": "actorType",
								"offset": 0,
								"slot": "0",
								"type": "t_string_storage"
							},
							{
								"astId": 7,
								"contract": "contracts/supply_chain.sol:SupplyChainManagement",
								"label": "name",
								"offset": 0,
								"slot": "1",
								"type": "t_string_storage"
							},
							{
								"astId": 9,
								"contract": "contracts/supply_chain.sol:SupplyChainManagement",
								"label": "region",
								"offset": 0,
								"slot": "2",
								"type": "t_string_storage"
							},
							{
								"astId": 11,
								"contract": "contracts/supply_chain.sol:SupplyChainManagement",
								"label": "nationalID",
								"offset": 0,
								"slot": "3",
								"type": "t_uint256"
							}
						],
						"numberOfBytes": "128"
					},
					"t_uint256": {
						"encoding": "inplace",
						"label": "uint256",
						"numberOfBytes": "32"
					}
				}
			},
			"userdoc": {
				"kind": "user",
				"methods": {},
				"version": 1
			}
		}
	}
}