{
	"contracts/order.sol": {
		"Order": {
			"abi": [
				{
					"inputs": [
						{
							"internalType": "uint256",
							"name": "_order_id",
							"type": "uint256"
						},
						{
							"internalType": "uint256",
							"name": "_quantity",
							"type": "uint256"
						},
						{
							"internalType": "address",
							"name": "_orderer",
							"type": "address"
						},
						{
							"internalType": "address",
							"name": "_supplier",
							"type": "address"
						},
						{
							"internalType": "bool",
							"name": "_accepted",
							"type": "bool"
						}
					],
					"stateMutability": "nonpayable",
					"type": "constructor"
				},
				{
					"inputs": [],
					"name": "accept",
					"outputs": [],
					"stateMutability": "nonpayable",
					"type": "function"
				},
				{
					"inputs": [],
					"name": "get_order_id",
					"outputs": [
						{
							"internalType": "uint256",
							"name": "",
							"type": "uint256"
						}
					],
					"stateMutability": "view",
					"type": "function"
				},
				{
					"inputs": [],
					"name": "get_orderer",
					"outputs": [
						{
							"internalType": "address",
							"name": "",
							"type": "address"
						}
					],
					"stateMutability": "view",
					"type": "function"
				},
				{
					"inputs": [],
					"name": "get_quantity",
					"outputs": [
						{
							"internalType": "uint256",
							"name": "",
							"type": "uint256"
						}
					],
					"stateMutability": "view",
					"type": "function"
				},
				{
					"inputs": [],
					"name": "get_supplier",
					"outputs": [
						{
							"internalType": "address",
							"name": "",
							"type": "address"
						}
					],
					"stateMutability": "view",
					"type": "function"
				},
				{
					"inputs": [],
					"name": "is_accepted",
					"outputs": [
						{
							"internalType": "bool",
							"name": "",
							"type": "bool"
						}
					],
					"stateMutability": "view",
					"type": "function"
				}
			],
			"devdoc": {
				"kind": "dev",
				"methods": {},
				"version": 1
			},
			"evm": {
				"assembly": "    /* \"contracts/order.sol\":35:974  contract Order {... */\n  mstore(0x40, 0x80)\n    /* \"contracts/order.sol\":162:440  constructor(uint _order_id,... */\n  callvalue\n  dup1\n  iszero\n  tag_1\n  jumpi\n  0x00\n  dup1\n  revert\ntag_1:\n  pop\n  mload(0x40)\n  sub(codesize, bytecodeSize)\n  dup1\n  bytecodeSize\n  dup4\n  codecopy\n  dup2\n  dup2\n  add\n  0x40\n  mstore\n  dup2\n  add\n  swap1\n  tag_2\n  swap2\n  swap1\n  tag_3\n  jump\t// in\ntag_2:\n    /* \"contracts/order.sol\":301:310  _order_id */\n  dup5\n    /* \"contracts/order.sol\":290:298  order_id */\n  0x00\n    /* \"contracts/order.sol\":290:310  order_id = _order_id */\n  dup2\n  swap1\n  sstore\n  pop\n    /* \"contracts/order.sol\":332:341  _quantity */\n  dup4\n    /* \"contracts/order.sol\":321:329  quantity */\n  0x01\n    /* \"contracts/order.sol\":321:341  quantity = _quantity */\n  dup2\n  swap1\n  sstore\n  pop\n    /* \"contracts/order.sol\":362:370  _orderer */\n  dup3\n    /* \"contracts/order.sol\":352:359  orderer */\n  0x02\n  0x00\n    /* \"contracts/order.sol\":352:370  orderer = _orderer */\n  0x0100\n  exp\n  dup2\n  sload\n  dup2\n  0xffffffffffffffffffffffffffffffffffffffff\n  mul\n  not\n  and\n  swap1\n  dup4\n  0xffffffffffffffffffffffffffffffffffffffff\n  and\n  mul\n  or\n  swap1\n  sstore\n  pop\n    /* \"contracts/order.sol\":392:401  _supplier */\n  dup2\n    /* \"contracts/order.sol\":381:389  supplier */\n  0x03\n  0x00\n    /* \"contracts/order.sol\":381:401  supplier = _supplier */\n  0x0100\n  exp\n  dup2\n  sload\n  dup2\n  0xffffffffffffffffffffffffffffffffffffffff\n  mul\n  not\n  and\n  swap1\n  dup4\n  0xffffffffffffffffffffffffffffffffffffffff\n  and\n  mul\n  or\n  swap1\n  sstore\n  pop\n    /* \"contracts/order.sol\":423:432  _accepted */\n  dup1\n    /* \"contracts/order.sol\":412:420  accepted */\n  0x03\n  0x14\n    /* \"contracts/order.sol\":412:432  accepted = _accepted */\n  0x0100\n  exp\n  dup2\n  sload\n  dup2\n  0xff\n  mul\n  not\n  and\n  swap1\n  dup4\n  iszero\n  iszero\n  mul\n  or\n  swap1\n  sstore\n  pop\n    /* \"contracts/order.sol\":162:440  constructor(uint _order_id,... */\n  pop\n  pop\n  pop\n  pop\n  pop\n    /* \"contracts/order.sol\":35:974  contract Order {... */\n  jump(tag_6)\n    /* \"#utility.yul\":88:205   */\ntag_8:\n    /* \"#utility.yul\":197:198   */\n  0x00\n    /* \"#utility.yul\":194:195   */\n  dup1\n    /* \"#utility.yul\":187:199   */\n  revert\n    /* \"#utility.yul\":334:411   */\ntag_10:\n    /* \"#utility.yul\":371:378   */\n  0x00\n    /* \"#utility.yul\":400:405   */\n  dup2\n    /* \"#utility.yul\":389:405   */\n  swap1\n  pop\n    /* \"#utility.yul\":334:411   */\n  swap2\n  swap1\n  pop\n  jump\t// out\n    /* \"#utility.yul\":417:539   */\ntag_11:\n    /* \"#utility.yul\":490:514   */\n  tag_26\n    /* \"#utility.yul\":508:513   */\n  dup2\n    /* \"#utility.yul\":490:514   */\n  tag_10\n  jump\t// in\ntag_26:\n    /* \"#utility.yul\":483:488   */\n  dup2\n    /* \"#utility.yul\":480:515   */\n  eq\n    /* \"#utility.yul\":470:533   */\n  tag_27\n  jumpi\n    /* \"#utility.yul\":529:530   */\n  0x00\n    /* \"#utility.yul\":526:527   */\n  dup1\n    /* \"#utility.yul\":519:531   */\n  revert\n    /* \"#utility.yul\":470:533   */\ntag_27:\n    /* \"#utility.yul\":417:539   */\n  pop\n  jump\t// out\n    /* \"#utility.yul\":545:688   */\ntag_12:\n    /* \"#utility.yul\":602:607   */\n  0x00\n    /* \"#utility.yul\":633:639   */\n  dup2\n    /* \"#utility.yul\":627:640   */\n  mload\n    /* \"#utility.yul\":618:640   */\n  swap1\n  pop\n    /* \"#utility.yul\":649:682   */\n  tag_29\n    /* \"#utility.yul\":676:681   */\n  dup2\n    /* \"#utility.yul\":649:682   */\n  tag_11\n  jump\t// in\ntag_29:\n    /* \"#utility.yul\":545:688   */\n  swap3\n  swap2\n  pop\n  pop\n  jump\t// out\n    /* \"#utility.yul\":694:820   */\ntag_13:\n    /* \"#utility.yul\":731:738   */\n  0x00\n    /* \"#utility.yul\":771:813   */\n  0xffffffffffffffffffffffffffffffffffffffff\n    /* \"#utility.yul\":764:769   */\n  dup3\n    /* \"#utility.yul\":760:814   */\n  and\n    /* \"#utility.yul\":749:814   */\n  swap1\n  pop\n    /* \"#utility.yul\":694:820   */\n  swap2\n  swap1\n  pop\n  jump\t// out\n    /* \"#utility.yul\":826:922   */\ntag_14:\n    /* \"#utility.yul\":863:870   */\n  0x00\n    /* \"#utility.yul\":892:916   */\n  tag_32\n    /* \"#utility.yul\":910:915   */\n  dup3\n    /* \"#utility.yul\":892:916   */\n  tag_13\n  jump\t// in\ntag_32:\n    /* \"#utility.yul\":881:916   */\n  swap1\n  pop\n    /* \"#utility.yul\":826:922   */\n  swap2\n  swap1\n  pop\n  jump\t// out\n    /* \"#utility.yul\":928:1050   */\ntag_15:\n    /* \"#utility.yul\":1001:1025   */\n  tag_34\n    /* \"#utility.yul\":1019:1024   */\n  dup2\n    /* \"#utility.yul\":1001:1025   */\n  tag_14\n  jump\t// in\ntag_34:\n    /* \"#utility.yul\":994:999   */\n  dup2\n    /* \"#utility.yul\":991:1026   */\n  eq\n    /* \"#utility.yul\":981:1044   */\n  tag_35\n  jumpi\n    /* \"#utility.yul\":1040:1041   */\n  0x00\n    /* \"#utility.yul\":1037:1038   */\n  dup1\n    /* \"#utility.yul\":1030:1042   */\n  revert\n    /* \"#utility.yul\":981:1044   */\ntag_35:\n    /* \"#utility.yul\":928:1050   */\n  pop\n  jump\t// out\n    /* \"#utility.yul\":1056:1199   */\ntag_16:\n    /* \"#utility.yul\":1113:1118   */\n  0x00\n    /* \"#utility.yul\":1144:1150   */\n  dup2\n    /* \"#utility.yul\":1138:1151   */\n  mload\n    /* \"#utility.yul\":1129:1151   */\n  swap1\n  pop\n    /* \"#utility.yul\":1160:1193   */\n  tag_37\n    /* \"#utility.yul\":1187:1192   */\n  dup2\n    /* \"#utility.yul\":1160:1193   */\n  tag_15\n  jump\t// in\ntag_37:\n    /* \"#utility.yul\":1056:1199   */\n  swap3\n  swap2\n  pop\n  pop\n  jump\t// out\n    /* \"#utility.yul\":1205:1295   */\ntag_17:\n    /* \"#utility.yul\":1239:1246   */\n  0x00\n    /* \"#utility.yul\":1282:1287   */\n  dup2\n    /* \"#utility.yul\":1275:1288   */\n  iszero\n    /* \"#utility.yul\":1268:1289   */\n  iszero\n    /* \"#utility.yul\":1257:1289   */\n  swap1\n  pop\n    /* \"#utility.yul\":1205:1295   */\n  swap2\n  swap1\n  pop\n  jump\t// out\n    /* \"#utility.yul\":1301:1417   */\ntag_18:\n    /* \"#utility.yul\":1371:1392   */\n  tag_40\n    /* \"#utility.yul\":1386:1391   */\n  dup2\n    /* \"#utility.yul\":1371:1392   */\n  tag_17\n  jump\t// in\ntag_40:\n    /* \"#utility.yul\":1364:1369   */\n  dup2\n    /* \"#utility.yul\":1361:1393   */\n  eq\n    /* \"#utility.yul\":1351:1411   */\n  tag_41\n  jumpi\n    /* \"#utility.yul\":1407:1408   */\n  0x00\n    /* \"#utility.yul\":1404:1405   */\n  dup1\n    /* \"#utility.yul\":1397:1409   */\n  revert\n    /* \"#utility.yul\":1351:1411   */\ntag_41:\n    /* \"#utility.yul\":1301:1417   */\n  pop\n  jump\t// out\n    /* \"#utility.yul\":1423:1560   */\ntag_19:\n    /* \"#utility.yul\":1477:1482   */\n  0x00\n    /* \"#utility.yul\":1508:1514   */\n  dup2\n    /* \"#utility.yul\":1502:1515   */\n  mload\n    /* \"#utility.yul\":1493:1515   */\n  swap1\n  pop\n    /* \"#utility.yul\":1524:1554   */\n  tag_43\n    /* \"#utility.yul\":1548:1553   */\n  dup2\n    /* \"#utility.yul\":1524:1554   */\n  tag_18\n  jump\t// in\ntag_43:\n    /* \"#utility.yul\":1423:1560   */\n  swap3\n  swap2\n  pop\n  pop\n  jump\t// out\n    /* \"#utility.yul\":1566:2537   */\ntag_3:\n    /* \"#utility.yul\":1669:1675   */\n  0x00\n    /* \"#utility.yul\":1677:1683   */\n  dup1\n    /* \"#utility.yul\":1685:1691   */\n  0x00\n    /* \"#utility.yul\":1693:1699   */\n  dup1\n    /* \"#utility.yul\":1701:1707   */\n  0x00\n    /* \"#utility.yul\":1750:1753   */\n  0xa0\n    /* \"#utility.yul\":1738:1747   */\n  dup7\n    /* \"#utility.yul\":1729:1736   */\n  dup9\n    /* \"#utility.yul\":1725:1748   */\n  sub\n    /* \"#utility.yul\":1721:1754   */\n  slt\n    /* \"#utility.yul\":1718:1838   */\n  iszero\n  tag_45\n  jumpi\n    /* \"#utility.yul\":1757:1836   */\n  tag_46\n  tag_8\n  jump\t// in\ntag_46:\n    /* \"#utility.yul\":1718:1838   */\ntag_45:\n    /* \"#utility.yul\":1877:1878   */\n  0x00\n    /* \"#utility.yul\":1902:1966   */\n  tag_47\n    /* \"#utility.yul\":1958:1965   */\n  dup9\n    /* \"#utility.yul\":1949:1955   */\n  dup3\n    /* \"#utility.yul\":1938:1947   */\n  dup10\n    /* \"#utility.yul\":1934:1956   */\n  add\n    /* \"#utility.yul\":1902:1966   */\n  tag_12\n  jump\t// in\ntag_47:\n    /* \"#utility.yul\":1892:1966   */\n  swap6\n  pop\n    /* \"#utility.yul\":1848:1976   */\n  pop\n    /* \"#utility.yul\":2015:2017   */\n  0x20\n    /* \"#utility.yul\":2041:2105   */\n  tag_48\n    /* \"#utility.yul\":2097:2104   */\n  dup9\n    /* \"#utility.yul\":2088:2094   */\n  dup3\n    /* \"#utility.yul\":2077:2086   */\n  dup10\n    /* \"#utility.yul\":2073:2095   */\n  add\n    /* \"#utility.yul\":2041:2105   */\n  tag_12\n  jump\t// in\ntag_48:\n    /* \"#utility.yul\":2031:2105   */\n  swap5\n  pop\n    /* \"#utility.yul\":1986:2115   */\n  pop\n    /* \"#utility.yul\":2154:2156   */\n  0x40\n    /* \"#utility.yul\":2180:2244   */\n  tag_49\n    /* \"#utility.yul\":2236:2243   */\n  dup9\n    /* \"#utility.yul\":2227:2233   */\n  dup3\n    /* \"#utility.yul\":2216:2225   */\n  dup10\n    /* \"#utility.yul\":2212:2234   */\n  add\n    /* \"#utility.yul\":2180:2244   */\n  tag_16\n  jump\t// in\ntag_49:\n    /* \"#utility.yul\":2170:2244   */\n  swap4\n  pop\n    /* \"#utility.yul\":2125:2254   */\n  pop\n    /* \"#utility.yul\":2293:2295   */\n  0x60\n    /* \"#utility.yul\":2319:2383   */\n  tag_50\n    /* \"#utility.yul\":2375:2382   */\n  dup9\n    /* \"#utility.yul\":2366:2372   */\n  dup3\n    /* \"#utility.yul\":2355:2364   */\n  dup10\n    /* \"#utility.yul\":2351:2373   */\n  add\n    /* \"#utility.yul\":2319:2383   */\n  tag_16\n  jump\t// in\ntag_50:\n    /* \"#utility.yul\":2309:2383   */\n  swap3\n  pop\n    /* \"#utility.yul\":2264:2393   */\n  pop\n    /* \"#utility.yul\":2432:2435   */\n  0x80\n    /* \"#utility.yul\":2459:2520   */\n  tag_51\n    /* \"#utility.yul\":2512:2519   */\n  dup9\n    /* \"#utility.yul\":2503:2509   */\n  dup3\n    /* \"#utility.yul\":2492:2501   */\n  dup10\n    /* \"#utility.yul\":2488:2510   */\n  add\n    /* \"#utility.yul\":2459:2520   */\n  tag_19\n  jump\t// in\ntag_51:\n    /* \"#utility.yul\":2449:2520   */\n  swap2\n  pop\n    /* \"#utility.yul\":2403:2530   */\n  pop\n    /* \"#utility.yul\":1566:2537   */\n  swap3\n  swap6\n  pop\n  swap3\n  swap6\n  swap1\n  swap4\n  pop\n  jump\t// out\n    /* \"contracts/order.sol\":35:974  contract Order {... */\ntag_6:\n  dataSize(sub_0)\n  dup1\n  dataOffset(sub_0)\n  0x00\n  codecopy\n  0x00\n  return\nstop\n\nsub_0: assembly {\n        /* \"contracts/order.sol\":35:974  contract Order {... */\n      mstore(0x40, 0x80)\n      callvalue\n      dup1\n      iszero\n      tag_1\n      jumpi\n      0x00\n      dup1\n      revert\n    tag_1:\n      pop\n      jumpi(tag_2, lt(calldatasize, 0x04))\n      shr(0xe0, calldataload(0x00))\n      dup1\n      0x2852b71c\n      eq\n      tag_3\n      jumpi\n      dup1\n      0x4224de69\n      eq\n      tag_4\n      jumpi\n      dup1\n      0x4613cf72\n      eq\n      tag_5\n      jumpi\n      dup1\n      0xbaf2d834\n      eq\n      tag_6\n      jumpi\n      dup1\n      0xe4849b23\n      eq\n      tag_7\n      jumpi\n      dup1\n      0xed0109a5\n      eq\n      tag_8\n      jumpi\n    tag_2:\n      0x00\n      dup1\n      revert\n        /* \"contracts/order.sol\":912:971  function accept() public {... */\n    tag_3:\n      tag_9\n      tag_10\n      jump\t// in\n    tag_9:\n      stop\n        /* \"contracts/order.sol\":726:814  function get_supplier() public  view returns(address) {... */\n    tag_4:\n      tag_11\n      tag_12\n      jump\t// in\n    tag_11:\n      mload(0x40)\n      tag_13\n      swap2\n      swap1\n      tag_14\n      jump\t// in\n    tag_13:\n      mload(0x40)\n      dup1\n      swap2\n      sub\n      swap1\n      return\n        /* \"contracts/order.sol\":822:906  function is_accepted() public  view returns(bool) {... */\n    tag_5:\n      tag_15\n      tag_16\n      jump\t// in\n    tag_15:\n      mload(0x40)\n      tag_17\n      swap2\n      swap1\n      tag_18\n      jump\t// in\n    tag_17:\n      mload(0x40)\n      dup1\n      swap2\n      sub\n      swap1\n      return\n        /* \"contracts/order.sol\":632:718  function get_orderer() public  view returns(address) {... */\n    tag_6:\n      tag_19\n      tag_20\n      jump\t// in\n    tag_19:\n      mload(0x40)\n      tag_21\n      swap2\n      swap1\n      tag_14\n      jump\t// in\n    tag_21:\n      mload(0x40)\n      dup1\n      swap2\n      sub\n      swap1\n      return\n        /* \"contracts/order.sol\":446:531  function get_order_id() public  view returns(uint) {... */\n    tag_7:\n      tag_22\n      tag_23\n      jump\t// in\n    tag_22:\n      mload(0x40)\n      tag_24\n      swap2\n      swap1\n      tag_25\n      jump\t// in\n    tag_24:\n      mload(0x40)\n      dup1\n      swap2\n      sub\n      swap1\n      return\n        /* \"contracts/order.sol\":539:624  function get_quantity() public  view returns(uint) {... */\n    tag_8:\n      tag_26\n      tag_27\n      jump\t// in\n    tag_26:\n      mload(0x40)\n      tag_28\n      swap2\n      swap1\n      tag_25\n      jump\t// in\n    tag_28:\n      mload(0x40)\n      dup1\n      swap2\n      sub\n      swap1\n      return\n        /* \"contracts/order.sol\":912:971  function accept() public {... */\n    tag_10:\n        /* \"contracts/order.sol\":959:963  true */\n      0x01\n        /* \"contracts/order.sol\":948:956  accepted */\n      0x03\n      0x14\n        /* \"contracts/order.sol\":948:963  accepted = true */\n      0x0100\n      exp\n      dup2\n      sload\n      dup2\n      0xff\n      mul\n      not\n      and\n      swap1\n      dup4\n      iszero\n      iszero\n      mul\n      or\n      swap1\n      sstore\n      pop\n        /* \"contracts/order.sol\":912:971  function accept() public {... */\n      jump\t// out\n        /* \"contracts/order.sol\":726:814  function get_supplier() public  view returns(address) {... */\n    tag_12:\n        /* \"contracts/order.sol\":771:778  address */\n      0x00\n        /* \"contracts/order.sol\":798:806  supplier */\n      0x03\n      0x00\n      swap1\n      sload\n      swap1\n      0x0100\n      exp\n      swap1\n      div\n      0xffffffffffffffffffffffffffffffffffffffff\n      and\n        /* \"contracts/order.sol\":791:806  return supplier */\n      swap1\n      pop\n        /* \"contracts/order.sol\":726:814  function get_supplier() public  view returns(address) {... */\n      swap1\n      jump\t// out\n        /* \"contracts/order.sol\":822:906  function is_accepted() public  view returns(bool) {... */\n    tag_16:\n        /* \"contracts/order.sol\":866:870  bool */\n      0x00\n        /* \"contracts/order.sol\":890:898  accepted */\n      0x03\n      0x14\n      swap1\n      sload\n      swap1\n      0x0100\n      exp\n      swap1\n      div\n      0xff\n      and\n        /* \"contracts/order.sol\":883:898  return accepted */\n      swap1\n      pop\n        /* \"contracts/order.sol\":822:906  function is_accepted() public  view returns(bool) {... */\n      swap1\n      jump\t// out\n        /* \"contracts/order.sol\":632:718  function get_orderer() public  view returns(address) {... */\n    tag_20:\n        /* \"contracts/order.sol\":676:683  address */\n      0x00\n        /* \"contracts/order.sol\":703:710  orderer */\n      0x02\n      0x00\n      swap1\n      sload\n      swap1\n      0x0100\n      exp\n      swap1\n      div\n      0xffffffffffffffffffffffffffffffffffffffff\n      and\n        /* \"contracts/order.sol\":696:710  return orderer */\n      swap1\n      pop\n        /* \"contracts/order.sol\":632:718  function get_orderer() public  view returns(address) {... */\n      swap1\n      jump\t// out\n        /* \"contracts/order.sol\":446:531  function get_order_id() public  view returns(uint) {... */\n    tag_23:\n        /* \"contracts/order.sol\":491:495  uint */\n      0x00\n        /* \"contracts/order.sol\":515:523  order_id */\n      dup1\n      sload\n        /* \"contracts/order.sol\":508:523  return order_id */\n      swap1\n      pop\n        /* \"contracts/order.sol\":446:531  function get_order_id() public  view returns(uint) {... */\n      swap1\n      jump\t// out\n        /* \"contracts/order.sol\":539:624  function get_quantity() public  view returns(uint) {... */\n    tag_27:\n        /* \"contracts/order.sol\":584:588  uint */\n      0x00\n        /* \"contracts/order.sol\":608:616  quantity */\n      sload(0x01)\n        /* \"contracts/order.sol\":601:616  return quantity */\n      swap1\n      pop\n        /* \"contracts/order.sol\":539:624  function get_quantity() public  view returns(uint) {... */\n      swap1\n      jump\t// out\n        /* \"#utility.yul\":7:133   */\n    tag_35:\n        /* \"#utility.yul\":44:51   */\n      0x00\n        /* \"#utility.yul\":84:126   */\n      0xffffffffffffffffffffffffffffffffffffffff\n        /* \"#utility.yul\":77:82   */\n      dup3\n        /* \"#utility.yul\":73:127   */\n      and\n        /* \"#utility.yul\":62:127   */\n      swap1\n      pop\n        /* \"#utility.yul\":7:133   */\n      swap2\n      swap1\n      pop\n      jump\t// out\n        /* \"#utility.yul\":139:235   */\n    tag_36:\n        /* \"#utility.yul\":176:183   */\n      0x00\n        /* \"#utility.yul\":205:229   */\n      tag_45\n        /* \"#utility.yul\":223:228   */\n      dup3\n        /* \"#utility.yul\":205:229   */\n      tag_35\n      jump\t// in\n    tag_45:\n        /* \"#utility.yul\":194:229   */\n      swap1\n      pop\n        /* \"#utility.yul\":139:235   */\n      swap2\n      swap1\n      pop\n      jump\t// out\n        /* \"#utility.yul\":241:359   */\n    tag_37:\n        /* \"#utility.yul\":328:352   */\n      tag_47\n        /* \"#utility.yul\":346:351   */\n      dup2\n        /* \"#utility.yul\":328:352   */\n      tag_36\n      jump\t// in\n    tag_47:\n        /* \"#utility.yul\":323:326   */\n      dup3\n        /* \"#utility.yul\":316:353   */\n      mstore\n        /* \"#utility.yul\":241:359   */\n      pop\n      pop\n      jump\t// out\n        /* \"#utility.yul\":365:587   */\n    tag_14:\n        /* \"#utility.yul\":458:462   */\n      0x00\n        /* \"#utility.yul\":496:498   */\n      0x20\n        /* \"#utility.yul\":485:494   */\n      dup3\n        /* \"#utility.yul\":481:499   */\n      add\n        /* \"#utility.yul\":473:499   */\n      swap1\n      pop\n        /* \"#utility.yul\":509:580   */\n      tag_49\n        /* \"#utility.yul\":577:578   */\n      0x00\n        /* \"#utility.yul\":566:575   */\n      dup4\n        /* \"#utility.yul\":562:579   */\n      add\n        /* \"#utility.yul\":553:559   */\n      dup5\n        /* \"#utility.yul\":509:580   */\n      tag_37\n      jump\t// in\n    tag_49:\n        /* \"#utility.yul\":365:587   */\n      swap3\n      swap2\n      pop\n      pop\n      jump\t// out\n        /* \"#utility.yul\":593:683   */\n    tag_38:\n        /* \"#utility.yul\":627:634   */\n      0x00\n        /* \"#utility.yul\":670:675   */\n      dup2\n        /* \"#utility.yul\":663:676   */\n      iszero\n        /* \"#utility.yul\":656:677   */\n      iszero\n        /* \"#utility.yul\":645:677   */\n      swap1\n      pop\n        /* \"#utility.yul\":593:683   */\n      swap2\n      swap1\n      pop\n      jump\t// out\n        /* \"#utility.yul\":689:798   */\n    tag_39:\n        /* \"#utility.yul\":770:791   */\n      tag_52\n        /* \"#utility.yul\":785:790   */\n      dup2\n        /* \"#utility.yul\":770:791   */\n      tag_38\n      jump\t// in\n    tag_52:\n        /* \"#utility.yul\":765:768   */\n      dup3\n        /* \"#utility.yul\":758:792   */\n      mstore\n        /* \"#utility.yul\":689:798   */\n      pop\n      pop\n      jump\t// out\n        /* \"#utility.yul\":804:1014   */\n    tag_18:\n        /* \"#utility.yul\":891:895   */\n      0x00\n        /* \"#utility.yul\":929:931   */\n      0x20\n        /* \"#utility.yul\":918:927   */\n      dup3\n        /* \"#utility.yul\":914:932   */\n      add\n        /* \"#utility.yul\":906:932   */\n      swap1\n      pop\n        /* \"#utility.yul\":942:1007   */\n      tag_54\n        /* \"#utility.yul\":1004:1005   */\n      0x00\n        /* \"#utility.yul\":993:1002   */\n      dup4\n        /* \"#utility.yul\":989:1006   */\n      add\n        /* \"#utility.yul\":980:986   */\n      dup5\n        /* \"#utility.yul\":942:1007   */\n      tag_39\n      jump\t// in\n    tag_54:\n        /* \"#utility.yul\":804:1014   */\n      swap3\n      swap2\n      pop\n      pop\n      jump\t// out\n        /* \"#utility.yul\":1020:1097   */\n    tag_40:\n        /* \"#utility.yul\":1057:1064   */\n      0x00\n        /* \"#utility.yul\":1086:1091   */\n      dup2\n        /* \"#utility.yul\":1075:1091   */\n      swap1\n      pop\n        /* \"#utility.yul\":1020:1097   */\n      swap2\n      swap1\n      pop\n      jump\t// out\n        /* \"#utility.yul\":1103:1221   */\n    tag_41:\n        /* \"#utility.yul\":1190:1214   */\n      tag_57\n        /* \"#utility.yul\":1208:1213   */\n      dup2\n        /* \"#utility.yul\":1190:1214   */\n      tag_40\n      jump\t// in\n    tag_57:\n        /* \"#utility.yul\":1185:1188   */\n      dup3\n        /* \"#utility.yul\":1178:1215   */\n      mstore\n        /* \"#utility.yul\":1103:1221   */\n      pop\n      pop\n      jump\t// out\n        /* \"#utility.yul\":1227:1449   */\n    tag_25:\n        /* \"#utility.yul\":1320:1324   */\n      0x00\n        /* \"#utility.yul\":1358:1360   */\n      0x20\n        /* \"#utility.yul\":1347:1356   */\n      dup3\n        /* \"#utility.yul\":1343:1361   */\n      add\n        /* \"#utility.yul\":1335:1361   */\n      swap1\n      pop\n        /* \"#utility.yul\":1371:1442   */\n      tag_59\n        /* \"#utility.yul\":1439:1440   */\n      0x00\n        /* \"#utility.yul\":1428:1437   */\n      dup4\n        /* \"#utility.yul\":1424:1441   */\n      add\n        /* \"#utility.yul\":1415:1421   */\n      dup5\n        /* \"#utility.yul\":1371:1442   */\n      tag_41\n      jump\t// in\n    tag_59:\n        /* \"#utility.yul\":1227:1449   */\n      swap3\n      swap2\n      pop\n      pop\n      jump\t// out\n\n    auxdata: 0xa26469706673582212200cc27c9a472cf2ffb1e5918d040858b78d8109e9cb4fdd1645bab785aeade4c464736f6c63430008160033\n}\n",
				"bytecode": {
					"linkReferences": {},
					"object": "608060405234801561001057600080fd5b506040516104df3803806104df833981810160405281019061003291906101b7565b846000819055508360018190555082600260006101000a81548173ffffffffffffffffffffffffffffffffffffffff021916908373ffffffffffffffffffffffffffffffffffffffff16021790555081600360006101000a81548173ffffffffffffffffffffffffffffffffffffffff021916908373ffffffffffffffffffffffffffffffffffffffff16021790555080600360146101000a81548160ff0219169083151502179055505050505050610232565b600080fd5b6000819050919050565b6100fe816100eb565b811461010957600080fd5b50565b60008151905061011b816100f5565b92915050565b600073ffffffffffffffffffffffffffffffffffffffff82169050919050565b600061014c82610121565b9050919050565b61015c81610141565b811461016757600080fd5b50565b60008151905061017981610153565b92915050565b60008115159050919050565b6101948161017f565b811461019f57600080fd5b50565b6000815190506101b18161018b565b92915050565b600080600080600060a086880312156101d3576101d26100e6565b5b60006101e18882890161010c565b95505060206101f28882890161010c565b94505060406102038882890161016a565b93505060606102148882890161016a565b9250506080610225888289016101a2565b9150509295509295909350565b61029e806102416000396000f3fe608060405234801561001057600080fd5b50600436106100625760003560e01c80632852b71c146100675780634224de69146100715780634613cf721461008f578063baf2d834146100ad578063e4849b23146100cb578063ed0109a5146100e9575b600080fd5b61006f610107565b005b610079610124565b60405161008691906101e3565b60405180910390f35b61009761014e565b6040516100a49190610219565b60405180910390f35b6100b5610165565b6040516100c291906101e3565b60405180910390f35b6100d361018f565b6040516100e0919061024d565b60405180910390f35b6100f1610198565b6040516100fe919061024d565b60405180910390f35b6001600360146101000a81548160ff021916908315150217905550565b6000600360009054906101000a900473ffffffffffffffffffffffffffffffffffffffff16905090565b6000600360149054906101000a900460ff16905090565b6000600260009054906101000a900473ffffffffffffffffffffffffffffffffffffffff16905090565b60008054905090565b6000600154905090565b600073ffffffffffffffffffffffffffffffffffffffff82169050919050565b60006101cd826101a2565b9050919050565b6101dd816101c2565b82525050565b60006020820190506101f860008301846101d4565b92915050565b60008115159050919050565b610213816101fe565b82525050565b600060208201905061022e600083018461020a565b92915050565b6000819050919050565b61024781610234565b82525050565b6000602082019050610262600083018461023e565b9291505056fea26469706673582212200cc27c9a472cf2ffb1e5918d040858b78d8109e9cb4fdd1645bab785aeade4c464736f6c63430008160033",
					"opcodes": "PUSH1 0x80 PUSH1 0x40 MSTORE CALLVALUE DUP1 ISZERO PUSH2 0x10 JUMPI PUSH1 0x0 DUP1 REVERT JUMPDEST POP PUSH1 0x40 MLOAD PUSH2 0x4DF CODESIZE SUB DUP1 PUSH2 0x4DF DUP4 CODECOPY DUP2 DUP2 ADD PUSH1 0x40 MSTORE DUP2 ADD SWAP1 PUSH2 0x32 SWAP2 SWAP1 PUSH2 0x1B7 JUMP JUMPDEST DUP5 PUSH1 0x0 DUP2 SWAP1 SSTORE POP DUP4 PUSH1 0x1 DUP2 SWAP1 SSTORE POP DUP3 PUSH1 0x2 PUSH1 0x0 PUSH2 0x100 EXP DUP2 SLOAD DUP2 PUSH20 0xFFFFFFFFFFFFFFFFFFFFFFFFFFFFFFFFFFFFFFFF MUL NOT AND SWAP1 DUP4 PUSH20 0xFFFFFFFFFFFFFFFFFFFFFFFFFFFFFFFFFFFFFFFF AND MUL OR SWAP1 SSTORE POP DUP2 PUSH1 0x3 PUSH1 0x0 PUSH2 0x100 EXP DUP2 SLOAD DUP2 PUSH20 0xFFFFFFFFFFFFFFFFFFFFFFFFFFFFFFFFFFFFFFFF MUL NOT AND SWAP1 DUP4 PUSH20 0xFFFFFFFFFFFFFFFFFFFFFFFFFFFFFFFFFFFFFFFF AND MUL OR SWAP1 SSTORE POP DUP1 PUSH1 0x3 PUSH1 0x14 PUSH2 0x100 EXP DUP2 SLOAD DUP2 PUSH1 0xFF MUL NOT AND SWAP1 DUP4 ISZERO ISZERO MUL OR SWAP1 SSTORE POP POP POP POP POP POP PUSH2 0x232 JUMP JUMPDEST PUSH1 0x0 DUP1 REVERT JUMPDEST PUSH1 0x0 DUP2 SWAP1 POP SWAP2 SWAP1 POP JUMP JUMPDEST PUSH2 0xFE DUP2 PUSH2 0xEB JUMP JUMPDEST DUP2 EQ PUSH2 0x109 JUMPI PUSH1 0x0 DUP1 REVERT JUMPDEST POP JUMP JUMPDEST PUSH1 0x0 DUP2 MLOAD SWAP1 POP PUSH2 0x11B DUP2 PUSH2 0xF5 JUMP JUMPDEST SWAP3 SWAP2 POP POP JUMP JUMPDEST PUSH1 0x0 PUSH20 0xFFFFFFFFFFFFFFFFFFFFFFFFFFFFFFFFFFFFFFFF DUP3 AND SWAP1 POP SWAP2 SWAP1 POP JUMP JUMPDEST PUSH1 0x0 PUSH2 0x14C DUP3 PUSH2 0x121 JUMP JUMPDEST SWAP1 POP SWAP2 SWAP1 POP JUMP JUMPDEST PUSH2 0x15C DUP2 PUSH2 0x141 JUMP JUMPDEST DUP2 EQ PUSH2 0x167 JUMPI PUSH1 0x0 DUP1 REVERT JUMPDEST POP JUMP JUMPDEST PUSH1 0x0 DUP2 MLOAD SWAP1 POP PUSH2 0x179 DUP2 PUSH2 0x153 JUMP JUMPDEST SWAP3 SWAP2 POP POP JUMP JUMPDEST PUSH1 0x0 DUP2 ISZERO ISZERO SWAP1 POP SWAP2 SWAP1 POP JUMP JUMPDEST PUSH2 0x194 DUP2 PUSH2 0x17F JUMP JUMPDEST DUP2 EQ PUSH2 0x19F JUMPI PUSH1 0x0 DUP1 REVERT JUMPDEST POP JUMP JUMPDEST PUSH1 0x0 DUP2 MLOAD SWAP1 POP PUSH2 0x1B1 DUP2 PUSH2 0x18B JUMP JUMPDEST SWAP3 SWAP2 POP POP JUMP JUMPDEST PUSH1 0x0 DUP1 PUSH1 0x0 DUP1 PUSH1 0x0 PUSH1 0xA0 DUP7 DUP9 SUB SLT ISZERO PUSH2 0x1D3 JUMPI PUSH2 0x1D2 PUSH2 0xE6 JUMP JUMPDEST JUMPDEST PUSH1 0x0 PUSH2 0x1E1 DUP9 DUP3 DUP10 ADD PUSH2 0x10C JUMP JUMPDEST SWAP6 POP POP PUSH1 0x20 PUSH2 0x1F2 DUP9 DUP3 DUP10 ADD PUSH2 0x10C JUMP JUMPDEST SWAP5 POP POP PUSH1 0x40 PUSH2 0x203 DUP9 DUP3 DUP10 ADD PUSH2 0x16A JUMP JUMPDEST SWAP4 POP POP PUSH1 0x60 PUSH2 0x214 DUP9 DUP3 DUP10 ADD PUSH2 0x16A JUMP JUMPDEST SWAP3 POP POP PUSH1 0x80 PUSH2 0x225 DUP9 DUP3 DUP10 ADD PUSH2 0x1A2 JUMP JUMPDEST SWAP2 POP POP SWAP3 SWAP6 POP SWAP3 SWAP6 SWAP1 SWAP4 POP JUMP JUMPDEST PUSH2 0x29E DUP1 PUSH2 0x241 PUSH1 0x0 CODECOPY PUSH1 0x0 RETURN INVALID PUSH1 0x80 PUSH1 0x40 MSTORE CALLVALUE DUP1 ISZERO PUSH2 0x10 JUMPI PUSH1 0x0 DUP1 REVERT JUMPDEST POP PUSH1 0x4 CALLDATASIZE LT PUSH2 0x62 JUMPI PUSH1 0x0 CALLDATALOAD PUSH1 0xE0 SHR DUP1 PUSH4 0x2852B71C EQ PUSH2 0x67 JUMPI DUP1 PUSH4 0x4224DE69 EQ PUSH2 0x71 JUMPI DUP1 PUSH4 0x4613CF72 EQ PUSH2 0x8F JUMPI DUP1 PUSH4 0xBAF2D834 EQ PUSH2 0xAD JUMPI DUP1 PUSH4 0xE4849B23 EQ PUSH2 0xCB JUMPI DUP1 PUSH4 0xED0109A5 EQ PUSH2 0xE9 JUMPI JUMPDEST PUSH1 0x0 DUP1 REVERT JUMPDEST PUSH2 0x6F PUSH2 0x107 JUMP JUMPDEST STOP JUMPDEST PUSH2 0x79 PUSH2 0x124 JUMP JUMPDEST PUSH1 0x40 MLOAD PUSH2 0x86 SWAP2 SWAP1 PUSH2 0x1E3 JUMP JUMPDEST PUSH1 0x40 MLOAD DUP1 SWAP2 SUB SWAP1 RETURN JUMPDEST PUSH2 0x97 PUSH2 0x14E JUMP JUMPDEST PUSH1 0x40 MLOAD PUSH2 0xA4 SWAP2 SWAP1 PUSH2 0x219 JUMP JUMPDEST PUSH1 0x40 MLOAD DUP1 SWAP2 SUB SWAP1 RETURN JUMPDEST PUSH2 0xB5 PUSH2 0x165 JUMP JUMPDEST PUSH1 0x40 MLOAD PUSH2 0xC2 SWAP2 SWAP1 PUSH2 0x1E3 JUMP JUMPDEST PUSH1 0x40 MLOAD DUP1 SWAP2 SUB SWAP1 RETURN JUMPDEST PUSH2 0xD3 PUSH2 0x18F JUMP JUMPDEST PUSH1 0x40 MLOAD PUSH2 0xE0 SWAP2 SWAP1 PUSH2 0x24D JUMP JUMPDEST PUSH1 0x40 MLOAD DUP1 SWAP2 SUB SWAP1 RETURN JUMPDEST PUSH2 0xF1 PUSH2 0x198 JUMP JUMPDEST PUSH1 0x40 MLOAD PUSH2 0xFE SWAP2 SWAP1 PUSH2 0x24D JUMP JUMPDEST PUSH1 0x40 MLOAD DUP1 SWAP2 SUB SWAP1 RETURN JUMPDEST PUSH1 0x1 PUSH1 0x3 PUSH1 0x14 PUSH2 0x100 EXP DUP2 SLOAD DUP2 PUSH1 0xFF MUL NOT AND SWAP1 DUP4 ISZERO ISZERO MUL OR SWAP1 SSTORE POP JUMP JUMPDEST PUSH1 0x0 PUSH1 0x3 PUSH1 0x0 SWAP1 SLOAD SWAP1 PUSH2 0x100 EXP SWAP1 DIV PUSH20 0xFFFFFFFFFFFFFFFFFFFFFFFFFFFFFFFFFFFFFFFF AND SWAP1 POP SWAP1 JUMP JUMPDEST PUSH1 0x0 PUSH1 0x3 PUSH1 0x14 SWAP1 SLOAD SWAP1 PUSH2 0x100 EXP SWAP1 DIV PUSH1 0xFF AND SWAP1 POP SWAP1 JUMP JUMPDEST PUSH1 0x0 PUSH1 0x2 PUSH1 0x0 SWAP1 SLOAD SWAP1 PUSH2 0x100 EXP SWAP1 DIV PUSH20 0xFFFFFFFFFFFFFFFFFFFFFFFFFFFFFFFFFFFFFFFF AND SWAP1 POP SWAP1 JUMP JUMPDEST PUSH1 0x0 DUP1 SLOAD SWAP1 POP SWAP1 JUMP JUMPDEST PUSH1 0x0 PUSH1 0x1 SLOAD SWAP1 POP SWAP1 JUMP JUMPDEST PUSH1 0x0 PUSH20 0xFFFFFFFFFFFFFFFFFFFFFFFFFFFFFFFFFFFFFFFF DUP3 AND SWAP1 POP SWAP2 SWAP1 POP JUMP JUMPDEST PUSH1 0x0 PUSH2 0x1CD DUP3 PUSH2 0x1A2 JUMP JUMPDEST SWAP1 POP SWAP2 SWAP1 POP JUMP JUMPDEST PUSH2 0x1DD DUP2 PUSH2 0x1C2 JUMP JUMPDEST DUP3 MSTORE POP POP JUMP JUMPDEST PUSH1 0x0 PUSH1 0x20 DUP3 ADD SWAP1 POP PUSH2 0x1F8 PUSH1 0x0 DUP4 ADD DUP5 PUSH2 0x1D4 JUMP JUMPDEST SWAP3 SWAP2 POP POP JUMP JUMPDEST PUSH1 0x0 DUP2 ISZERO ISZERO SWAP1 POP SWAP2 SWAP1 POP JUMP JUMPDEST PUSH2 0x213 DUP2 PUSH2 0x1FE JUMP JUMPDEST DUP3 MSTORE POP POP JUMP JUMPDEST PUSH1 0x0 PUSH1 0x20 DUP3 ADD SWAP1 POP PUSH2 0x22E PUSH1 0x0 DUP4 ADD DUP5 PUSH2 0x20A JUMP JUMPDEST SWAP3 SWAP2 POP POP JUMP JUMPDEST PUSH1 0x0 DUP2 SWAP1 POP SWAP2 SWAP1 POP JUMP JUMPDEST PUSH2 0x247 DUP2 PUSH2 0x234 JUMP JUMPDEST DUP3 MSTORE POP POP JUMP JUMPDEST PUSH1 0x0 PUSH1 0x20 DUP3 ADD SWAP1 POP PUSH2 0x262 PUSH1 0x0 DUP4 ADD DUP5 PUSH2 0x23E JUMP JUMPDEST SWAP3 SWAP2 POP POP JUMP INVALID LOG2 PUSH5 0x6970667358 0x22 SLT KECCAK256 0xC 0xC2 PUSH29 0x9A472CF2FFB1E5918D040858B78D8109E9CB4FDD1645BAB785AEADE4C4 PUSH5 0x736F6C6343 STOP ADDMOD AND STOP CALLER "
				},
				"gasEstimates": {
					"creation": {
						"codeDepositCost": "134000",
						"executionCost": "infinite",
						"totalCost": "infinite"
					},
					"external": {
						"accept()": "24439",
						"get_order_id()": "2503",
						"get_orderer()": "2566",
						"get_quantity()": "2525",
						"get_supplier()": "2522",
						"is_accepted()": "2551"
					}
				},
				"methodIdentifiers": {
					"accept()": "2852b71c",
					"get_order_id()": "e4849b23",
					"get_orderer()": "baf2d834",
					"get_quantity()": "ed0109a5",
					"get_supplier()": "4224de69",
					"is_accepted()": "4613cf72"
				}
			},
			"storageLayout": {
				"storage": [
					{
						"astId": 3,
						"contract": "contracts/order.sol:Order",
						"label": "order_id",
						"offset": 0,
						"slot": "0",
						"type": "t_uint256"
					},
					{
						"astId": 5,
						"contract": "contracts/order.sol:Order",
						"label": "quantity",
						"offset": 0,
						"slot": "1",
						"type": "t_uint256"
					},
					{
						"astId": 7,
						"contract": "contracts/order.sol:Order",
						"label": "orderer",
						"offset": 0,
						"slot": "2",
						"type": "t_address"
					},
					{
						"astId": 9,
						"contract": "contracts/order.sol:Order",
						"label": "supplier",
						"offset": 0,
						"slot": "3",
						"type": "t_address"
					},
					{
						"astId": 11,
						"contract": "contracts/order.sol:Order",
						"label": "accepted",
						"offset": 20,
						"slot": "3",
						"type": "t_bool"
					}
				],
				"types": {
					"t_address": {
						"encoding": "inplace",
						"label": "address",
						"numberOfBytes": "20"
					},
					"t_bool": {
						"encoding": "inplace",
						"label": "bool",
						"numberOfBytes": "1"
					},
					"t_uint256": {
						"encoding": "inplace",
						"label": "uint256",
						"numberOfBytes": "32"
					}
				}
			},
			"userdoc": {
				"kind": "user",
				"methods": {},
				"version": 1
			}
		}
	}
}