{
	"contracts/order_database.sol": {
		"OrderDb": {
			"abi": [
				{
					"anonymous": false,
					"inputs": [
						{
							"indexed": false,
							"internalType": "uint256",
							"name": "",
							"type": "uint256"
						},
						{
							"indexed": false,
							"internalType": "uint256",
							"name": "",
							"type": "uint256"
						},
						{
							"indexed": false,
							"internalType": "address",
							"name": "",
							"type": "address"
						},
						{
							"indexed": false,
							"internalType": "address",
							"name": "",
							"type": "address"
						},
						{
							"indexed": false,
							"internalType": "bool",
							"name": "",
							"type": "bool"
						}
					],
					"name": "show_order",
					"type": "event"
				},
				{
					"inputs": [
						{
							"internalType": "uint256",
							"name": "_order_id",
							"type": "uint256"
						}
					],
					"name": "accept_order",
					"outputs": [],
					"stateMutability": "nonpayable",
					"type": "function"
				},
				{
					"inputs": [
						{
							"internalType": "contract Order",
							"name": "order",
							"type": "address"
						}
					],
					"name": "add_order",
					"outputs": [],
					"stateMutability": "nonpayable",
					"type": "function"
				},
				{
					"inputs": [],
					"name": "display_all_orders",
					"outputs": [],
					"stateMutability": "nonpayable",
					"type": "function"
				},
				{
					"inputs": [],
					"name": "get_count",
					"outputs": [
						{
							"internalType": "uint256",
							"name": "",
							"type": "uint256"
						}
					],
					"stateMutability": "view",
					"type": "function"
				},
				{
					"inputs": [
						{
							"internalType": "uint256",
							"name": "_order_id",
							"type": "uint256"
						}
					],
					"name": "search_order",
					"outputs": [
						{
							"internalType": "int256",
							"name": "",
							"type": "int256"
						}
					],
					"stateMutability": "view",
					"type": "function"
				}
			],
			"devdoc": {
				"kind": "dev",
				"methods": {},
				"version": 1
			},
			"evm": {
				"assembly": "    /* \"contracts/order_database.sol\":56:987  contract OrderDb {... */\n  mstore(0x40, 0x80)\n  callvalue\n  dup1\n  iszero\n  tag_1\n  jumpi\n  0x00\n  dup1\n  revert\ntag_1:\n  pop\n  dataSize(sub_0)\n  dup1\n  dataOffset(sub_0)\n  0x00\n  codecopy\n  0x00\n  return\nstop\n\nsub_0: assembly {\n        /* \"contracts/order_database.sol\":56:987  contract OrderDb {... */\n      mstore(0x40, 0x80)\n      callvalue\n      dup1\n      iszero\n      tag_1\n      jumpi\n      0x00\n      dup1\n      revert\n    tag_1:\n      pop\n      jumpi(tag_2, lt(calldatasize, 0x04))\n      shr(0xe0, calldataload(0x00))\n      dup1\n      0x2d10aea7\n      eq\n      tag_3\n      jumpi\n      dup1\n      0xa126e51c\n      eq\n      tag_4\n      jumpi\n      dup1\n      0xaf73586c\n      eq\n      tag_5\n      jumpi\n      dup1\n      0xc1826926\n      eq\n      tag_6\n      jumpi\n      dup1\n      0xe7278e7f\n      eq\n      tag_7\n      jumpi\n    tag_2:\n      0x00\n      dup1\n      revert\n        /* \"contracts/order_database.sol\":890:984  function accept_order(uint _order_id) public {... */\n    tag_3:\n      tag_8\n      0x04\n      dup1\n      calldatasize\n      sub\n      dup2\n      add\n      swap1\n      tag_9\n      swap2\n      swap1\n      tag_10\n      jump\t// in\n    tag_9:\n      tag_11\n      jump\t// in\n    tag_8:\n      stop\n        /* \"contracts/order_database.sol\":341:622  function display_all_orders() public { ... */\n    tag_4:\n      tag_12\n      tag_13\n      jump\t// in\n    tag_12:\n      stop\n        /* \"contracts/order_database.sol\":628:884  function search_order(uint _order_id) public view returns(int){... */\n    tag_5:\n      tag_14\n      0x04\n      dup1\n      calldatasize\n      sub\n      dup2\n      add\n      swap1\n      tag_15\n      swap2\n      swap1\n      tag_10\n      jump\t// in\n    tag_15:\n      tag_16\n      jump\t// in\n    tag_14:\n      mload(0x40)\n      tag_17\n      swap2\n      swap1\n      tag_18\n      jump\t// in\n    tag_17:\n      mload(0x40)\n      dup1\n      swap2\n      sub\n      swap1\n      return\n        /* \"contracts/order_database.sol\":160:239  function add_order(Order order) public{... */\n    tag_6:\n      tag_19\n      0x04\n      dup1\n      calldatasize\n      sub\n      dup2\n      add\n      swap1\n      tag_20\n      swap2\n      swap1\n      tag_21\n      jump\t// in\n    tag_20:\n      tag_22\n      jump\t// in\n    tag_19:\n      stop\n        /* \"contracts/order_database.sol\":245:335  function get_count() public view returns(uint) {... */\n    tag_7:\n      tag_23\n      tag_24\n      jump\t// in\n    tag_23:\n      mload(0x40)\n      tag_25\n      swap2\n      swap1\n      tag_26\n      jump\t// in\n    tag_25:\n      mload(0x40)\n      dup1\n      swap2\n      sub\n      swap1\n      return\n        /* \"contracts/order_database.sol\":890:984  function accept_order(uint _order_id) public {... */\n    tag_11:\n        /* \"contracts/order_database.sol\":946:956  order_list */\n      0x00\n        /* \"contracts/order_database.sol\":957:966  _order_id */\n      dup2\n        /* \"contracts/order_database.sol\":946:967  order_list[_order_id] */\n      dup2\n      sload\n      dup2\n      lt\n      tag_28\n      jumpi\n      tag_29\n      tag_30\n      jump\t// in\n    tag_29:\n    tag_28:\n      swap1\n      0x00\n      mstore\n      keccak256(0x00, 0x20)\n      add\n      0x00\n      swap1\n      sload\n      swap1\n      0x0100\n      exp\n      swap1\n      div\n      0xffffffffffffffffffffffffffffffffffffffff\n      and\n        /* \"contracts/order_database.sol\":946:974  order_list[_order_id].accept */\n      0xffffffffffffffffffffffffffffffffffffffff\n      and\n      0x2852b71c\n        /* \"contracts/order_database.sol\":946:976  order_list[_order_id].accept() */\n      mload(0x40)\n      dup2\n      0xffffffff\n      and\n      0xe0\n      shl\n      dup2\n      mstore\n      0x04\n      add\n      0x00\n      mload(0x40)\n      dup1\n      dup4\n      sub\n      dup2\n      0x00\n      dup8\n      dup1\n      extcodesize\n      iszero\n      dup1\n      iszero\n      tag_32\n      jumpi\n      0x00\n      dup1\n      revert\n    tag_32:\n      pop\n      gas\n      call\n      iszero\n      dup1\n      iszero\n      tag_34\n      jumpi\n      returndatasize\n      0x00\n      dup1\n      returndatacopy\n      revert(0x00, returndatasize)\n    tag_34:\n      pop\n      pop\n      pop\n      pop\n        /* \"contracts/order_database.sol\":890:984  function accept_order(uint _order_id) public {... */\n      pop\n      jump\t// out\n        /* \"contracts/order_database.sol\":341:622  function display_all_orders() public { ... */\n    tag_13:\n        /* \"contracts/order_database.sol\":394:400  uint i */\n      0x00\n        /* \"contracts/order_database.sol\":390:615  for(uint i=0;i<order_list.length;i++){... */\n    tag_36:\n        /* \"contracts/order_database.sol\":405:415  order_list */\n      0x00\n        /* \"contracts/order_database.sol\":405:422  order_list.length */\n      dup1\n      sload\n      swap1\n      pop\n        /* \"contracts/order_database.sol\":403:404  i */\n      dup2\n        /* \"contracts/order_database.sol\":403:422  i<order_list.length */\n      lt\n        /* \"contracts/order_database.sol\":390:615  for(uint i=0;i<order_list.length;i++){... */\n      iszero\n      tag_37\n      jumpi\n        /* \"contracts/order_database.sol\":442:453  Order order */\n      0x00\n        /* \"contracts/order_database.sol\":456:466  order_list */\n      dup1\n        /* \"contracts/order_database.sol\":467:468  i */\n      dup3\n        /* \"contracts/order_database.sol\":456:469  order_list[i] */\n      dup2\n      sload\n      dup2\n      lt\n      tag_39\n      jumpi\n      tag_40\n      tag_30\n      jump\t// in\n    tag_40:\n    tag_39:\n      swap1\n      0x00\n      mstore\n      keccak256(0x00, 0x20)\n      add\n      0x00\n      swap1\n      sload\n      swap1\n      0x0100\n      exp\n      swap1\n      div\n      0xffffffffffffffffffffffffffffffffffffffff\n      and\n        /* \"contracts/order_database.sol\":442:469  Order order = order_list[i] */\n      swap1\n      pop\n        /* \"contracts/order_database.sol\":489:603  show_order(order.get_order_id(),order.get_quantity(),order.get_orderer(),order.get_supplier(),order.is_accepted()) */\n      0xb86063779fbc89305a612701d5e9471a4afe804a69efc85f6cbfc912b80f68a3\n        /* \"contracts/order_database.sol\":500:505  order */\n      dup2\n        /* \"contracts/order_database.sol\":500:518  order.get_order_id */\n      0xffffffffffffffffffffffffffffffffffffffff\n      and\n      0xe4849b23\n        /* \"contracts/order_database.sol\":500:520  order.get_order_id() */\n      mload(0x40)\n      dup2\n      0xffffffff\n      and\n      0xe0\n      shl\n      dup2\n      mstore\n      0x04\n      add\n      0x20\n      mload(0x40)\n      dup1\n      dup4\n      sub\n      dup2\n      dup7\n      gas\n      staticcall\n      iszero\n      dup1\n      iszero\n      tag_43\n      jumpi\n      returndatasize\n      0x00\n      dup1\n      returndatacopy\n      revert(0x00, returndatasize)\n    tag_43:\n      pop\n      pop\n      pop\n      pop\n      mload(0x40)\n      returndatasize\n      not(0x1f)\n      0x1f\n      dup3\n      add\n      and\n      dup3\n      add\n      dup1\n      0x40\n      mstore\n      pop\n      dup2\n      add\n      swap1\n      tag_44\n      swap2\n      swap1\n      tag_45\n      jump\t// in\n    tag_44:\n        /* \"contracts/order_database.sol\":521:526  order */\n      dup3\n        /* \"contracts/order_database.sol\":521:539  order.get_quantity */\n      0xffffffffffffffffffffffffffffffffffffffff\n      and\n      0xed0109a5\n        /* \"contracts/order_database.sol\":521:541  order.get_quantity() */\n      mload(0x40)\n      dup2\n      0xffffffff\n      and\n      0xe0\n      shl\n      dup2\n      mstore\n      0x04\n      add\n      0x20\n      mload(0x40)\n      dup1\n      dup4\n      sub\n      dup2\n      dup7\n      gas\n      staticcall\n      iszero\n      dup1\n      iszero\n      tag_47\n      jumpi\n      returndatasize\n      0x00\n      dup1\n      returndatacopy\n      revert(0x00, returndatasize)\n    tag_47:\n      pop\n      pop\n      pop\n      pop\n      mload(0x40)\n      returndatasize\n      not(0x1f)\n      0x1f\n      dup3\n      add\n      and\n      dup3\n      add\n      dup1\n      0x40\n      mstore\n      pop\n      dup2\n      add\n      swap1\n      tag_48\n      swap2\n      swap1\n      tag_45\n      jump\t// in\n    tag_48:\n        /* \"contracts/order_database.sol\":542:547  order */\n      dup4\n        /* \"contracts/order_database.sol\":542:559  order.get_orderer */\n      0xffffffffffffffffffffffffffffffffffffffff\n      and\n      0xbaf2d834\n        /* \"contracts/order_database.sol\":542:561  order.get_orderer() */\n      mload(0x40)\n      dup2\n      0xffffffff\n      and\n      0xe0\n      shl\n      dup2\n      mstore\n      0x04\n      add\n      0x20\n      mload(0x40)\n      dup1\n      dup4\n      sub\n      dup2\n      dup7\n      gas\n      staticcall\n      iszero\n      dup1\n      iszero\n      tag_50\n      jumpi\n      returndatasize\n      0x00\n      dup1\n      returndatacopy\n      revert(0x00, returndatasize)\n    tag_50:\n      pop\n      pop\n      pop\n      pop\n      mload(0x40)\n      returndatasize\n      not(0x1f)\n      0x1f\n      dup3\n      add\n      and\n      dup3\n      add\n      dup1\n      0x40\n      mstore\n      pop\n      dup2\n      add\n      swap1\n      tag_51\n      swap2\n      swap1\n      tag_52\n      jump\t// in\n    tag_51:\n        /* \"contracts/order_database.sol\":562:567  order */\n      dup5\n        /* \"contracts/order_database.sol\":562:580  order.get_supplier */\n      0xffffffffffffffffffffffffffffffffffffffff\n      and\n      0x4224de69\n        /* \"contracts/order_database.sol\":562:582  order.get_supplier() */\n      mload(0x40)\n      dup2\n      0xffffffff\n      and\n      0xe0\n      shl\n      dup2\n      mstore\n      0x04\n      add\n      0x20\n      mload(0x40)\n      dup1\n      dup4\n      sub\n      dup2\n      dup7\n      gas\n      staticcall\n      iszero\n      dup1\n      iszero\n      tag_54\n      jumpi\n      returndatasize\n      0x00\n      dup1\n      returndatacopy\n      revert(0x00, returndatasize)\n    tag_54:\n      pop\n      pop\n      pop\n      pop\n      mload(0x40)\n      returndatasize\n      not(0x1f)\n      0x1f\n      dup3\n      add\n      and\n      dup3\n      add\n      dup1\n      0x40\n      mstore\n      pop\n      dup2\n      add\n      swap1\n      tag_55\n      swap2\n      swap1\n      tag_52\n      jump\t// in\n    tag_55:\n        /* \"contracts/order_database.sol\":583:588  order */\n      dup6\n        /* \"contracts/order_database.sol\":583:600  order.is_accepted */\n      0xffffffffffffffffffffffffffffffffffffffff\n      and\n      0x4613cf72\n        /* \"contracts/order_database.sol\":583:602  order.is_accepted() */\n      mload(0x40)\n      dup2\n      0xffffffff\n      and\n      0xe0\n      shl\n      dup2\n      mstore\n      0x04\n      add\n      0x20\n      mload(0x40)\n      dup1\n      dup4\n      sub\n      dup2\n      dup7\n      gas\n      staticcall\n      iszero\n      dup1\n      iszero\n      tag_57\n      jumpi\n      returndatasize\n      0x00\n      dup1\n      returndatacopy\n      revert(0x00, returndatasize)\n    tag_57:\n      pop\n      pop\n      pop\n      pop\n      mload(0x40)\n      returndatasize\n      not(0x1f)\n      0x1f\n      dup3\n      add\n      and\n      dup3\n      add\n      dup1\n      0x40\n      mstore\n      pop\n      dup2\n      add\n      swap1\n      tag_58\n      swap2\n      swap1\n      tag_59\n      jump\t// in\n    tag_58:\n        /* \"contracts/order_database.sol\":489:603  show_order(order.get_order_id(),order.get_quantity(),order.get_orderer(),order.get_supplier(),order.is_accepted()) */\n      mload(0x40)\n      tag_60\n      swap6\n      swap5\n      swap4\n      swap3\n      swap2\n      swap1\n      tag_61\n      jump\t// in\n    tag_60:\n      mload(0x40)\n      dup1\n      swap2\n      sub\n      swap1\n      log1\n        /* \"contracts/order_database.sol\":427:615  {... */\n      pop\n        /* \"contracts/order_database.sol\":423:426  i++ */\n      dup1\n      dup1\n      0x01\n      add\n      swap2\n      pop\n      pop\n        /* \"contracts/order_database.sol\":390:615  for(uint i=0;i<order_list.length;i++){... */\n      jump(tag_36)\n    tag_37:\n      pop\n        /* \"contracts/order_database.sol\":341:622  function display_all_orders() public { ... */\n      jump\t// out\n        /* \"contracts/order_database.sol\":628:884  function search_order(uint _order_id) public view returns(int){... */\n    tag_16:\n        /* \"contracts/order_database.sol\":686:689  int */\n      0x00\n        /* \"contracts/order_database.sol\":705:711  uint i */\n      dup1\n        /* \"contracts/order_database.sol\":712:713  0 */\n      0x00\n        /* \"contracts/order_database.sol\":705:713  uint i=0 */\n      swap1\n      pop\n        /* \"contracts/order_database.sol\":701:857  for(uint i=0;i<order_list.length;i++){... */\n    tag_63:\n        /* \"contracts/order_database.sol\":716:726  order_list */\n      0x00\n        /* \"contracts/order_database.sol\":716:733  order_list.length */\n      dup1\n      sload\n      swap1\n      pop\n        /* \"contracts/order_database.sol\":714:715  i */\n      dup2\n        /* \"contracts/order_database.sol\":714:733  i<order_list.length */\n      lt\n        /* \"contracts/order_database.sol\":701:857  for(uint i=0;i<order_list.length;i++){... */\n      iszero\n      tag_64\n      jumpi\n        /* \"contracts/order_database.sol\":769:779  order_list */\n      0x00\n        /* \"contracts/order_database.sol\":780:781  i */\n      dup2\n        /* \"contracts/order_database.sol\":769:782  order_list[i] */\n      dup2\n      sload\n      dup2\n      lt\n      tag_66\n      jumpi\n      tag_67\n      tag_30\n      jump\t// in\n    tag_67:\n    tag_66:\n      swap1\n      0x00\n      mstore\n      keccak256(0x00, 0x20)\n      add\n      0x00\n      swap1\n      sload\n      swap1\n      0x0100\n      exp\n      swap1\n      div\n      0xffffffffffffffffffffffffffffffffffffffff\n      and\n        /* \"contracts/order_database.sol\":769:795  order_list[i].get_order_id */\n      0xffffffffffffffffffffffffffffffffffffffff\n      and\n      0xe4849b23\n        /* \"contracts/order_database.sol\":769:797  order_list[i].get_order_id() */\n      mload(0x40)\n      dup2\n      0xffffffff\n      and\n      0xe0\n      shl\n      dup2\n      mstore\n      0x04\n      add\n      0x20\n      mload(0x40)\n      dup1\n      dup4\n      sub\n      dup2\n      dup7\n      gas\n      staticcall\n      iszero\n      dup1\n      iszero\n      tag_70\n      jumpi\n      returndatasize\n      0x00\n      dup1\n      returndatacopy\n      revert(0x00, returndatasize)\n    tag_70:\n      pop\n      pop\n      pop\n      pop\n      mload(0x40)\n      returndatasize\n      not(0x1f)\n      0x1f\n      dup3\n      add\n      and\n      dup3\n      add\n      dup1\n      0x40\n      mstore\n      pop\n      dup2\n      add\n      swap1\n      tag_71\n      swap2\n      swap1\n      tag_45\n      jump\t// in\n    tag_71:\n        /* \"contracts/order_database.sol\":756:765  _order_id */\n      dup4\n        /* \"contracts/order_database.sol\":756:797  _order_id == order_list[i].get_order_id() */\n      sub\n        /* \"contracts/order_database.sol\":753:846  if(_order_id == order_list[i].get_order_id()){... */\n      tag_72\n      jumpi\n        /* \"contracts/order_database.sol\":828:829  i */\n      dup1\n        /* \"contracts/order_database.sol\":817:830  return int(i) */\n      swap2\n      pop\n      pop\n      jump(tag_62)\n        /* \"contracts/order_database.sol\":753:846  if(_order_id == order_list[i].get_order_id()){... */\n    tag_72:\n        /* \"contracts/order_database.sol\":734:737  i++ */\n      dup1\n      dup1\n      0x01\n      add\n      swap2\n      pop\n      pop\n        /* \"contracts/order_database.sol\":701:857  for(uint i=0;i<order_list.length;i++){... */\n      jump(tag_63)\n    tag_64:\n      pop\n        /* \"contracts/order_database.sol\":874:876  -1 */\n      0xffffffffffffffffffffffffffffffffffffffffffffffffffffffffffffffff\n        /* \"contracts/order_database.sol\":867:876  return -1 */\n      swap1\n      pop\n        /* \"contracts/order_database.sol\":628:884  function search_order(uint _order_id) public view returns(int){... */\n    tag_62:\n      swap2\n      swap1\n      pop\n      jump\t// out\n        /* \"contracts/order_database.sol\":160:239  function add_order(Order order) public{... */\n    tag_22:\n        /* \"contracts/order_database.sol\":209:219  order_list */\n      0x00\n        /* \"contracts/order_database.sol\":225:230  order */\n      dup2\n        /* \"contracts/order_database.sol\":209:231  order_list.push(order) */\n      swap1\n      dup1\n      0x01\n      dup2\n      sload\n      add\n      dup1\n      dup3\n      sstore\n      dup1\n      swap2\n      pop\n      pop\n      0x01\n      swap1\n      sub\n      swap1\n      0x00\n      mstore\n      keccak256(0x00, 0x20)\n      add\n      0x00\n      swap1\n      swap2\n      swap1\n      swap2\n      swap1\n      swap2\n      0x0100\n      exp\n      dup2\n      sload\n      dup2\n      0xffffffffffffffffffffffffffffffffffffffff\n      mul\n      not\n      and\n      swap1\n      dup4\n      0xffffffffffffffffffffffffffffffffffffffff\n      and\n      mul\n      or\n      swap1\n      sstore\n      pop\n        /* \"contracts/order_database.sol\":160:239  function add_order(Order order) public{... */\n      pop\n      jump\t// out\n        /* \"contracts/order_database.sol\":245:335  function get_count() public view returns(uint) {... */\n    tag_24:\n        /* \"contracts/order_database.sol\":286:290  uint */\n      0x00\n        /* \"contracts/order_database.sol\":310:320  order_list */\n      dup1\n        /* \"contracts/order_database.sol\":310:327  order_list.length */\n      dup1\n      sload\n      swap1\n      pop\n        /* \"contracts/order_database.sol\":303:327  return order_list.length */\n      swap1\n      pop\n        /* \"contracts/order_database.sol\":245:335  function get_count() public view returns(uint) {... */\n      swap1\n      jump\t// out\n        /* \"#utility.yul\":88:205   */\n    tag_77:\n        /* \"#utility.yul\":197:198   */\n      0x00\n        /* \"#utility.yul\":194:195   */\n      dup1\n        /* \"#utility.yul\":187:199   */\n      revert\n        /* \"#utility.yul\":334:411   */\n    tag_79:\n        /* \"#utility.yul\":371:378   */\n      0x00\n        /* \"#utility.yul\":400:405   */\n      dup2\n        /* \"#utility.yul\":389:405   */\n      swap1\n      pop\n        /* \"#utility.yul\":334:411   */\n      swap2\n      swap1\n      pop\n      jump\t// out\n        /* \"#utility.yul\":417:539   */\n    tag_80:\n        /* \"#utility.yul\":490:514   */\n      tag_104\n        /* \"#utility.yul\":508:513   */\n      dup2\n        /* \"#utility.yul\":490:514   */\n      tag_79\n      jump\t// in\n    tag_104:\n        /* \"#utility.yul\":483:488   */\n      dup2\n        /* \"#utility.yul\":480:515   */\n      eq\n        /* \"#utility.yul\":470:533   */\n      tag_105\n      jumpi\n        /* \"#utility.yul\":529:530   */\n      0x00\n        /* \"#utility.yul\":526:527   */\n      dup1\n        /* \"#utility.yul\":519:531   */\n      revert\n        /* \"#utility.yul\":470:533   */\n    tag_105:\n        /* \"#utility.yul\":417:539   */\n      pop\n      jump\t// out\n        /* \"#utility.yul\":545:684   */\n    tag_81:\n        /* \"#utility.yul\":591:596   */\n      0x00\n        /* \"#utility.yul\":629:635   */\n      dup2\n        /* \"#utility.yul\":616:636   */\n      calldataload\n        /* \"#utility.yul\":607:636   */\n      swap1\n      pop\n        /* \"#utility.yul\":645:678   */\n      tag_107\n        /* \"#utility.yul\":672:677   */\n      dup2\n        /* \"#utility.yul\":645:678   */\n      tag_80\n      jump\t// in\n    tag_107:\n        /* \"#utility.yul\":545:684   */\n      swap3\n      swap2\n      pop\n      pop\n      jump\t// out\n        /* \"#utility.yul\":690:1019   */\n    tag_10:\n        /* \"#utility.yul\":749:755   */\n      0x00\n        /* \"#utility.yul\":798:800   */\n      0x20\n        /* \"#utility.yul\":786:795   */\n      dup3\n        /* \"#utility.yul\":777:784   */\n      dup5\n        /* \"#utility.yul\":773:796   */\n      sub\n        /* \"#utility.yul\":769:801   */\n      slt\n        /* \"#utility.yul\":766:885   */\n      iszero\n      tag_109\n      jumpi\n        /* \"#utility.yul\":804:883   */\n      tag_110\n      tag_77\n      jump\t// in\n    tag_110:\n        /* \"#utility.yul\":766:885   */\n    tag_109:\n        /* \"#utility.yul\":924:925   */\n      0x00\n        /* \"#utility.yul\":949:1002   */\n      tag_111\n        /* \"#utility.yul\":994:1001   */\n      dup5\n        /* \"#utility.yul\":985:991   */\n      dup3\n        /* \"#utility.yul\":974:983   */\n      dup6\n        /* \"#utility.yul\":970:992   */\n      add\n        /* \"#utility.yul\":949:1002   */\n      tag_81\n      jump\t// in\n    tag_111:\n        /* \"#utility.yul\":939:1002   */\n      swap2\n      pop\n        /* \"#utility.yul\":895:1012   */\n      pop\n        /* \"#utility.yul\":690:1019   */\n      swap3\n      swap2\n      pop\n      pop\n      jump\t// out\n        /* \"#utility.yul\":1025:1101   */\n    tag_82:\n        /* \"#utility.yul\":1061:1068   */\n      0x00\n        /* \"#utility.yul\":1090:1095   */\n      dup2\n        /* \"#utility.yul\":1079:1095   */\n      swap1\n      pop\n        /* \"#utility.yul\":1025:1101   */\n      swap2\n      swap1\n      pop\n      jump\t// out\n        /* \"#utility.yul\":1107:1222   */\n    tag_83:\n        /* \"#utility.yul\":1192:1215   */\n      tag_114\n        /* \"#utility.yul\":1209:1214   */\n      dup2\n        /* \"#utility.yul\":1192:1215   */\n      tag_82\n      jump\t// in\n    tag_114:\n        /* \"#utility.yul\":1187:1190   */\n      dup3\n        /* \"#utility.yul\":1180:1216   */\n      mstore\n        /* \"#utility.yul\":1107:1222   */\n      pop\n      pop\n      jump\t// out\n        /* \"#utility.yul\":1228:1446   */\n    tag_18:\n        /* \"#utility.yul\":1319:1323   */\n      0x00\n        /* \"#utility.yul\":1357:1359   */\n      0x20\n        /* \"#utility.yul\":1346:1355   */\n      dup3\n        /* \"#utility.yul\":1342:1360   */\n      add\n        /* \"#utility.yul\":1334:1360   */\n      swap1\n      pop\n        /* \"#utility.yul\":1370:1439   */\n      tag_116\n        /* \"#utility.yul\":1436:1437   */\n      0x00\n        /* \"#utility.yul\":1425:1434   */\n      dup4\n        /* \"#utility.yul\":1421:1438   */\n      add\n        /* \"#utility.yul\":1412:1418   */\n      dup5\n        /* \"#utility.yul\":1370:1439   */\n      tag_83\n      jump\t// in\n    tag_116:\n        /* \"#utility.yul\":1228:1446   */\n      swap3\n      swap2\n      pop\n      pop\n      jump\t// out\n        /* \"#utility.yul\":1452:1578   */\n    tag_84:\n        /* \"#utility.yul\":1489:1496   */\n      0x00\n        /* \"#utility.yul\":1529:1571   */\n      0xffffffffffffffffffffffffffffffffffffffff\n        /* \"#utility.yul\":1522:1527   */\n      dup3\n        /* \"#utility.yul\":1518:1572   */\n      and\n        /* \"#utility.yul\":1507:1572   */\n      swap1\n      pop\n        /* \"#utility.yul\":1452:1578   */\n      swap2\n      swap1\n      pop\n      jump\t// out\n        /* \"#utility.yul\":1584:1680   */\n    tag_85:\n        /* \"#utility.yul\":1621:1628   */\n      0x00\n        /* \"#utility.yul\":1650:1674   */\n      tag_119\n        /* \"#utility.yul\":1668:1673   */\n      dup3\n        /* \"#utility.yul\":1650:1674   */\n      tag_84\n      jump\t// in\n    tag_119:\n        /* \"#utility.yul\":1639:1674   */\n      swap1\n      pop\n        /* \"#utility.yul\":1584:1680   */\n      swap2\n      swap1\n      pop\n      jump\t// out\n        /* \"#utility.yul\":1686:1794   */\n    tag_86:\n        /* \"#utility.yul\":1735:1742   */\n      0x00\n        /* \"#utility.yul\":1764:1788   */\n      tag_121\n        /* \"#utility.yul\":1782:1787   */\n      dup3\n        /* \"#utility.yul\":1764:1788   */\n      tag_85\n      jump\t// in\n    tag_121:\n        /* \"#utility.yul\":1753:1788   */\n      swap1\n      pop\n        /* \"#utility.yul\":1686:1794   */\n      swap2\n      swap1\n      pop\n      jump\t// out\n        /* \"#utility.yul\":1800:1946   */\n    tag_87:\n        /* \"#utility.yul\":1885:1921   */\n      tag_123\n        /* \"#utility.yul\":1915:1920   */\n      dup2\n        /* \"#utility.yul\":1885:1921   */\n      tag_86\n      jump\t// in\n    tag_123:\n        /* \"#utility.yul\":1878:1883   */\n      dup2\n        /* \"#utility.yul\":1875:1922   */\n      eq\n        /* \"#utility.yul\":1865:1940   */\n      tag_124\n      jumpi\n        /* \"#utility.yul\":1936:1937   */\n      0x00\n        /* \"#utility.yul\":1933:1934   */\n      dup1\n        /* \"#utility.yul\":1926:1938   */\n      revert\n        /* \"#utility.yul\":1865:1940   */\n    tag_124:\n        /* \"#utility.yul\":1800:1946   */\n      pop\n      jump\t// out\n        /* \"#utility.yul\":1952:2115   */\n    tag_88:\n        /* \"#utility.yul\":2010:2015   */\n      0x00\n        /* \"#utility.yul\":2048:2054   */\n      dup2\n        /* \"#utility.yul\":2035:2055   */\n      calldataload\n        /* \"#utility.yul\":2026:2055   */\n      swap1\n      pop\n        /* \"#utility.yul\":2064:2109   */\n      tag_126\n        /* \"#utility.yul\":2103:2108   */\n      dup2\n        /* \"#utility.yul\":2064:2109   */\n      tag_87\n      jump\t// in\n    tag_126:\n        /* \"#utility.yul\":1952:2115   */\n      swap3\n      swap2\n      pop\n      pop\n      jump\t// out\n        /* \"#utility.yul\":2121:2474   */\n    tag_21:\n        /* \"#utility.yul\":2192:2198   */\n      0x00\n        /* \"#utility.yul\":2241:2243   */\n      0x20\n        /* \"#utility.yul\":2229:2238   */\n      dup3\n        /* \"#utility.yul\":2220:2227   */\n      dup5\n        /* \"#utility.yul\":2216:2239   */\n      sub\n        /* \"#utility.yul\":2212:2244   */\n      slt\n        /* \"#utility.yul\":2209:2328   */\n      iszero\n      tag_128\n      jumpi\n        /* \"#utility.yul\":2247:2326   */\n      tag_129\n      tag_77\n      jump\t// in\n    tag_129:\n        /* \"#utility.yul\":2209:2328   */\n    tag_128:\n        /* \"#utility.yul\":2367:2368   */\n      0x00\n        /* \"#utility.yul\":2392:2457   */\n      tag_130\n        /* \"#utility.yul\":2449:2456   */\n      dup5\n        /* \"#utility.yul\":2440:2446   */\n      dup3\n        /* \"#utility.yul\":2429:2438   */\n      dup6\n        /* \"#utility.yul\":2425:2447   */\n      add\n        /* \"#utility.yul\":2392:2457   */\n      tag_88\n      jump\t// in\n    tag_130:\n        /* \"#utility.yul\":2382:2457   */\n      swap2\n      pop\n        /* \"#utility.yul\":2338:2467   */\n      pop\n        /* \"#utility.yul\":2121:2474   */\n      swap3\n      swap2\n      pop\n      pop\n      jump\t// out\n        /* \"#utility.yul\":2480:2598   */\n    tag_89:\n        /* \"#utility.yul\":2567:2591   */\n      tag_132\n        /* \"#utility.yul\":2585:2590   */\n      dup2\n        /* \"#utility.yul\":2567:2591   */\n      tag_79\n      jump\t// in\n    tag_132:\n        /* \"#utility.yul\":2562:2565   */\n      dup3\n        /* \"#utility.yul\":2555:2592   */\n      mstore\n        /* \"#utility.yul\":2480:2598   */\n      pop\n      pop\n      jump\t// out\n        /* \"#utility.yul\":2604:2826   */\n    tag_26:\n        /* \"#utility.yul\":2697:2701   */\n      0x00\n        /* \"#utility.yul\":2735:2737   */\n      0x20\n        /* \"#utility.yul\":2724:2733   */\n      dup3\n        /* \"#utility.yul\":2720:2738   */\n      add\n        /* \"#utility.yul\":2712:2738   */\n      swap1\n      pop\n        /* \"#utility.yul\":2748:2819   */\n      tag_134\n        /* \"#utility.yul\":2816:2817   */\n      0x00\n        /* \"#utility.yul\":2805:2814   */\n      dup4\n        /* \"#utility.yul\":2801:2818   */\n      add\n        /* \"#utility.yul\":2792:2798   */\n      dup5\n        /* \"#utility.yul\":2748:2819   */\n      tag_89\n      jump\t// in\n    tag_134:\n        /* \"#utility.yul\":2604:2826   */\n      swap3\n      swap2\n      pop\n      pop\n      jump\t// out\n        /* \"#utility.yul\":2832:3012   */\n    tag_30:\n        /* \"#utility.yul\":2880:2957   */\n      0x4e487b7100000000000000000000000000000000000000000000000000000000\n        /* \"#utility.yul\":2877:2878   */\n      0x00\n        /* \"#utility.yul\":2870:2958   */\n      mstore\n        /* \"#utility.yul\":2977:2981   */\n      0x32\n        /* \"#utility.yul\":2974:2975   */\n      0x04\n        /* \"#utility.yul\":2967:2982   */\n      mstore\n        /* \"#utility.yul\":3001:3005   */\n      0x24\n        /* \"#utility.yul\":2998:2999   */\n      0x00\n        /* \"#utility.yul\":2991:3006   */\n      revert\n        /* \"#utility.yul\":3018:3161   */\n    tag_90:\n        /* \"#utility.yul\":3075:3080   */\n      0x00\n        /* \"#utility.yul\":3106:3112   */\n      dup2\n        /* \"#utility.yul\":3100:3113   */\n      mload\n        /* \"#utility.yul\":3091:3113   */\n      swap1\n      pop\n        /* \"#utility.yul\":3122:3155   */\n      tag_137\n        /* \"#utility.yul\":3149:3154   */\n      dup2\n        /* \"#utility.yul\":3122:3155   */\n      tag_80\n      jump\t// in\n    tag_137:\n        /* \"#utility.yul\":3018:3161   */\n      swap3\n      swap2\n      pop\n      pop\n      jump\t// out\n        /* \"#utility.yul\":3167:3518   */\n    tag_45:\n        /* \"#utility.yul\":3237:3243   */\n      0x00\n        /* \"#utility.yul\":3286:3288   */\n      0x20\n        /* \"#utility.yul\":3274:3283   */\n      dup3\n        /* \"#utility.yul\":3265:3272   */\n      dup5\n        /* \"#utility.yul\":3261:3284   */\n      sub\n        /* \"#utility.yul\":3257:3289   */\n      slt\n        /* \"#utility.yul\":3254:3373   */\n      iszero\n      tag_139\n      jumpi\n        /* \"#utility.yul\":3292:3371   */\n      tag_140\n      tag_77\n      jump\t// in\n    tag_140:\n        /* \"#utility.yul\":3254:3373   */\n    tag_139:\n        /* \"#utility.yul\":3412:3413   */\n      0x00\n        /* \"#utility.yul\":3437:3501   */\n      tag_141\n        /* \"#utility.yul\":3493:3500   */\n      dup5\n        /* \"#utility.yul\":3484:3490   */\n      dup3\n        /* \"#utility.yul\":3473:3482   */\n      dup6\n        /* \"#utility.yul\":3469:3491   */\n      add\n        /* \"#utility.yul\":3437:3501   */\n      tag_90\n      jump\t// in\n    tag_141:\n        /* \"#utility.yul\":3427:3501   */\n      swap2\n      pop\n        /* \"#utility.yul\":3383:3511   */\n      pop\n        /* \"#utility.yul\":3167:3518   */\n      swap3\n      swap2\n      pop\n      pop\n      jump\t// out\n        /* \"#utility.yul\":3524:3646   */\n    tag_91:\n        /* \"#utility.yul\":3597:3621   */\n      tag_143\n        /* \"#utility.yul\":3615:3620   */\n      dup2\n        /* \"#utility.yul\":3597:3621   */\n      tag_85\n      jump\t// in\n    tag_143:\n        /* \"#utility.yul\":3590:3595   */\n      dup2\n        /* \"#utility.yul\":3587:3622   */\n      eq\n        /* \"#utility.yul\":3577:3640   */\n      tag_144\n      jumpi\n        /* \"#utility.yul\":3636:3637   */\n      0x00\n        /* \"#utility.yul\":3633:3634   */\n      dup1\n        /* \"#utility.yul\":3626:3638   */\n      revert\n        /* \"#utility.yul\":3577:3640   */\n    tag_144:\n        /* \"#utility.yul\":3524:3646   */\n      pop\n      jump\t// out\n        /* \"#utility.yul\":3652:3795   */\n    tag_92:\n        /* \"#utility.yul\":3709:3714   */\n      0x00\n        /* \"#utility.yul\":3740:3746   */\n      dup2\n        /* \"#utility.yul\":3734:3747   */\n      mload\n        /* \"#utility.yul\":3725:3747   */\n      swap1\n      pop\n        /* \"#utility.yul\":3756:3789   */\n      tag_146\n        /* \"#utility.yul\":3783:3788   */\n      dup2\n        /* \"#utility.yul\":3756:3789   */\n      tag_91\n      jump\t// in\n    tag_146:\n        /* \"#utility.yul\":3652:3795   */\n      swap3\n      swap2\n      pop\n      pop\n      jump\t// out\n        /* \"#utility.yul\":3801:4152   */\n    tag_52:\n        /* \"#utility.yul\":3871:3877   */\n      0x00\n        /* \"#utility.yul\":3920:3922   */\n      0x20\n        /* \"#utility.yul\":3908:3917   */\n      dup3\n        /* \"#utility.yul\":3899:3906   */\n      dup5\n        /* \"#utility.yul\":3895:3918   */\n      sub\n        /* \"#utility.yul\":3891:3923   */\n      slt\n        /* \"#utility.yul\":3888:4007   */\n      iszero\n      tag_148\n      jumpi\n        /* \"#utility.yul\":3926:4005   */\n      tag_149\n      tag_77\n      jump\t// in\n    tag_149:\n        /* \"#utility.yul\":3888:4007   */\n    tag_148:\n        /* \"#utility.yul\":4046:4047   */\n      0x00\n        /* \"#utility.yul\":4071:4135   */\n      tag_150\n        /* \"#utility.yul\":4127:4134   */\n      dup5\n        /* \"#utility.yul\":4118:4124   */\n      dup3\n        /* \"#utility.yul\":4107:4116   */\n      dup6\n        /* \"#utility.yul\":4103:4125   */\n      add\n        /* \"#utility.yul\":4071:4135   */\n      tag_92\n      jump\t// in\n    tag_150:\n        /* \"#utility.yul\":4061:4135   */\n      swap2\n      pop\n        /* \"#utility.yul\":4017:4145   */\n      pop\n        /* \"#utility.yul\":3801:4152   */\n      swap3\n      swap2\n      pop\n      pop\n      jump\t// out\n        /* \"#utility.yul\":4158:4248   */\n    tag_93:\n        /* \"#utility.yul\":4192:4199   */\n      0x00\n        /* \"#utility.yul\":4235:4240   */\n      dup2\n        /* \"#utility.yul\":4228:4241   */\n      iszero\n        /* \"#utility.yul\":4221:4242   */\n      iszero\n        /* \"#utility.yul\":4210:4242   */\n      swap1\n      pop\n        /* \"#utility.yul\":4158:4248   */\n      swap2\n      swap1\n      pop\n      jump\t// out\n        /* \"#utility.yul\":4254:4370   */\n    tag_94:\n        /* \"#utility.yul\":4324:4345   */\n      tag_153\n        /* \"#utility.yul\":4339:4344   */\n      dup2\n        /* \"#utility.yul\":4324:4345   */\n      tag_93\n      jump\t// in\n    tag_153:\n        /* \"#utility.yul\":4317:4322   */\n      dup2\n        /* \"#utility.yul\":4314:4346   */\n      eq\n        /* \"#utility.yul\":4304:4364   */\n      tag_154\n      jumpi\n        /* \"#utility.yul\":4360:4361   */\n      0x00\n        /* \"#utility.yul\":4357:4358   */\n      dup1\n        /* \"#utility.yul\":4350:4362   */\n      revert\n        /* \"#utility.yul\":4304:4364   */\n    tag_154:\n        /* \"#utility.yul\":4254:4370   */\n      pop\n      jump\t// out\n        /* \"#utility.yul\":4376:4513   */\n    tag_95:\n        /* \"#utility.yul\":4430:4435   */\n      0x00\n        /* \"#utility.yul\":4461:4467   */\n      dup2\n        /* \"#utility.yul\":4455:4468   */\n      mload\n        /* \"#utility.yul\":4446:4468   */\n      swap1\n      pop\n        /* \"#utility.yul\":4477:4507   */\n      tag_156\n        /* \"#utility.yul\":4501:4506   */\n      dup2\n        /* \"#utility.yul\":4477:4507   */\n      tag_94\n      jump\t// in\n    tag_156:\n        /* \"#utility.yul\":4376:4513   */\n      swap3\n      swap2\n      pop\n      pop\n      jump\t// out\n        /* \"#utility.yul\":4519:4864   */\n    tag_59:\n        /* \"#utility.yul\":4586:4592   */\n      0x00\n        /* \"#utility.yul\":4635:4637   */\n      0x20\n        /* \"#utility.yul\":4623:4632   */\n      dup3\n        /* \"#utility.yul\":4614:4621   */\n      dup5\n        /* \"#utility.yul\":4610:4633   */\n      sub\n        /* \"#utility.yul\":4606:4638   */\n      slt\n        /* \"#utility.yul\":4603:4722   */\n      iszero\n      tag_158\n      jumpi\n        /* \"#utility.yul\":4641:4720   */\n      tag_159\n      tag_77\n      jump\t// in\n    tag_159:\n        /* \"#utility.yul\":4603:4722   */\n    tag_158:\n        /* \"#utility.yul\":4761:4762   */\n      0x00\n        /* \"#utility.yul\":4786:4847   */\n      tag_160\n        /* \"#utility.yul\":4839:4846   */\n      dup5\n        /* \"#utility.yul\":4830:4836   */\n      dup3\n        /* \"#utility.yul\":4819:4828   */\n      dup6\n        /* \"#utility.yul\":4815:4837   */\n      add\n        /* \"#utility.yul\":4786:4847   */\n      tag_95\n      jump\t// in\n    tag_160:\n        /* \"#utility.yul\":4776:4847   */\n      swap2\n      pop\n        /* \"#utility.yul\":4732:4857   */\n      pop\n        /* \"#utility.yul\":4519:4864   */\n      swap3\n      swap2\n      pop\n      pop\n      jump\t// out\n        /* \"#utility.yul\":4870:4988   */\n    tag_96:\n        /* \"#utility.yul\":4957:4981   */\n      tag_162\n        /* \"#utility.yul\":4975:4980   */\n      dup2\n        /* \"#utility.yul\":4957:4981   */\n      tag_85\n      jump\t// in\n    tag_162:\n        /* \"#utility.yul\":4952:4955   */\n      dup3\n        /* \"#utility.yul\":4945:4982   */\n      mstore\n        /* \"#utility.yul\":4870:4988   */\n      pop\n      pop\n      jump\t// out\n        /* \"#utility.yul\":4994:5103   */\n    tag_97:\n        /* \"#utility.yul\":5075:5096   */\n      tag_164\n        /* \"#utility.yul\":5090:5095   */\n      dup2\n        /* \"#utility.yul\":5075:5096   */\n      tag_93\n      jump\t// in\n    tag_164:\n        /* \"#utility.yul\":5070:5073   */\n      dup3\n        /* \"#utility.yul\":5063:5097   */\n      mstore\n        /* \"#utility.yul\":4994:5103   */\n      pop\n      pop\n      jump\t// out\n        /* \"#utility.yul\":5109:5761   */\n    tag_61:\n        /* \"#utility.yul\":5308:5312   */\n      0x00\n        /* \"#utility.yul\":5346:5349   */\n      0xa0\n        /* \"#utility.yul\":5335:5344   */\n      dup3\n        /* \"#utility.yul\":5331:5350   */\n      add\n        /* \"#utility.yul\":5323:5350   */\n      swap1\n      pop\n        /* \"#utility.yul\":5360:5431   */\n      tag_166\n        /* \"#utility.yul\":5428:5429   */\n      0x00\n        /* \"#utility.yul\":5417:5426   */\n      dup4\n        /* \"#utility.yul\":5413:5430   */\n      add\n        /* \"#utility.yul\":5404:5410   */\n      dup9\n        /* \"#utility.yul\":5360:5431   */\n      tag_89\n      jump\t// in\n    tag_166:\n        /* \"#utility.yul\":5441:5513   */\n      tag_167\n        /* \"#utility.yul\":5509:5511   */\n      0x20\n        /* \"#utility.yul\":5498:5507   */\n      dup4\n        /* \"#utility.yul\":5494:5512   */\n      add\n        /* \"#utility.yul\":5485:5491   */\n      dup8\n        /* \"#utility.yul\":5441:5513   */\n      tag_89\n      jump\t// in\n    tag_167:\n        /* \"#utility.yul\":5523:5595   */\n      tag_168\n        /* \"#utility.yul\":5591:5593   */\n      0x40\n        /* \"#utility.yul\":5580:5589   */\n      dup4\n        /* \"#utility.yul\":5576:5594   */\n      add\n        /* \"#utility.yul\":5567:5573   */\n      dup7\n        /* \"#utility.yul\":5523:5595   */\n      tag_96\n      jump\t// in\n    tag_168:\n        /* \"#utility.yul\":5605:5677   */\n      tag_169\n        /* \"#utility.yul\":5673:5675   */\n      0x60\n        /* \"#utility.yul\":5662:5671   */\n      dup4\n        /* \"#utility.yul\":5658:5676   */\n      add\n        /* \"#utility.yul\":5649:5655   */\n      dup6\n        /* \"#utility.yul\":5605:5677   */\n      tag_96\n      jump\t// in\n    tag_169:\n        /* \"#utility.yul\":5687:5754   */\n      tag_170\n        /* \"#utility.yul\":5749:5752   */\n      0x80\n        /* \"#utility.yul\":5738:5747   */\n      dup4\n        /* \"#utility.yul\":5734:5753   */\n      add\n        /* \"#utility.yul\":5725:5731   */\n      dup5\n        /* \"#utility.yul\":5687:5754   */\n      tag_97\n      jump\t// in\n    tag_170:\n        /* \"#utility.yul\":5109:5761   */\n      swap7\n      swap6\n      pop\n      pop\n      pop\n      pop\n      pop\n      pop\n      jump\t// out\n\n    auxdata: 0xa26469706673582212204da60765d16f5655b8826a20ada0f7bf113f5012594c47d0cb54a364e2ef559c64736f6c63430008160033\n}\n",
				"bytecode": {
					"linkReferences": {},
					"object": "608060405234801561001057600080fd5b50610908806100206000396000f3fe608060405234801561001057600080fd5b50600436106100575760003560e01c80632d10aea71461005c578063a126e51c14610078578063af73586c14610082578063c1826926146100b2578063e7278e7f146100ce575b600080fd5b6100766004803603810190610071919061060a565b6100ec565b005b61008061018d565b005b61009c6004803603810190610097919061060a565b610455565b6040516100a99190610650565b60405180910390f35b6100cc60048036038101906100c791906106db565b61055d565b005b6100d66105c3565b6040516100e39190610717565b60405180910390f35b60008181548110610100576100ff610732565b5b9060005260206000200160009054906101000a900473ffffffffffffffffffffffffffffffffffffffff1673ffffffffffffffffffffffffffffffffffffffff16632852b71c6040518163ffffffff1660e01b8152600401600060405180830381600087803b15801561017257600080fd5b505af1158015610186573d6000803e3d6000fd5b5050505050565b60005b6000805490508110156104525760008082815481106101b2576101b1610732565b5b9060005260206000200160009054906101000a900473ffffffffffffffffffffffffffffffffffffffff1690507fb86063779fbc89305a612701d5e9471a4afe804a69efc85f6cbfc912b80f68a38173ffffffffffffffffffffffffffffffffffffffff1663e4849b236040518163ffffffff1660e01b8152600401602060405180830381865afa15801561024b573d6000803e3d6000fd5b505050506040513d601f19601f8201168201806040525081019061026f9190610776565b8273ffffffffffffffffffffffffffffffffffffffff1663ed0109a56040518163ffffffff1660e01b8152600401602060405180830381865afa1580156102ba573d6000803e3d6000fd5b505050506040513d601f19601f820116820180604052508101906102de9190610776565b8373ffffffffffffffffffffffffffffffffffffffff1663baf2d8346040518163ffffffff1660e01b8152600401602060405180830381865afa158015610329573d6000803e3d6000fd5b505050506040513d601f19601f8201168201806040525081019061034d91906107cf565b8473ffffffffffffffffffffffffffffffffffffffff16634224de696040518163ffffffff1660e01b8152600401602060405180830381865afa158015610398573d6000803e3d6000fd5b505050506040513d601f19601f820116820180604052508101906103bc91906107cf565b8573ffffffffffffffffffffffffffffffffffffffff16634613cf726040518163ffffffff1660e01b8152600401602060405180830381865afa158015610407573d6000803e3d6000fd5b505050506040513d601f19601f8201168201806040525081019061042b9190610834565b60405161043c95949392919061087f565b60405180910390a1508080600101915050610190565b50565b600080600090505b600080549050811015610533576000818154811061047e5761047d610732565b5b9060005260206000200160009054906101000a900473ffffffffffffffffffffffffffffffffffffffff1673ffffffffffffffffffffffffffffffffffffffff1663e4849b236040518163ffffffff1660e01b8152600401602060405180830381865afa1580156104f3573d6000803e3d6000fd5b505050506040513d601f19601f820116820180604052508101906105179190610776565b83036105265780915050610558565b808060010191505061045d565b507fffffffffffffffffffffffffffffffffffffffffffffffffffffffffffffffff90505b919050565b6000819080600181540180825580915050600190039060005260206000200160009091909190916101000a81548173ffffffffffffffffffffffffffffffffffffffff021916908373ffffffffffffffffffffffffffffffffffffffff16021790555050565b60008080549050905090565b600080fd5b6000819050919050565b6105e7816105d4565b81146105f257600080fd5b50565b600081359050610604816105de565b92915050565b6000602082840312156106205761061f6105cf565b5b600061062e848285016105f5565b91505092915050565b6000819050919050565b61064a81610637565b82525050565b60006020820190506106656000830184610641565b92915050565b600073ffffffffffffffffffffffffffffffffffffffff82169050919050565b60006106968261066b565b9050919050565b60006106a88261068b565b9050919050565b6106b88161069d565b81146106c357600080fd5b50565b6000813590506106d5816106af565b92915050565b6000602082840312156106f1576106f06105cf565b5b60006106ff848285016106c6565b91505092915050565b610711816105d4565b82525050565b600060208201905061072c6000830184610708565b92915050565b7f4e487b7100000000000000000000000000000000000000000000000000000000600052603260045260246000fd5b600081519050610770816105de565b92915050565b60006020828403121561078c5761078b6105cf565b5b600061079a84828501610761565b91505092915050565b6107ac8161068b565b81146107b757600080fd5b50565b6000815190506107c9816107a3565b92915050565b6000602082840312156107e5576107e46105cf565b5b60006107f3848285016107ba565b91505092915050565b60008115159050919050565b610811816107fc565b811461081c57600080fd5b50565b60008151905061082e81610808565b92915050565b60006020828403121561084a576108496105cf565b5b60006108588482850161081f565b91505092915050565b61086a8161068b565b82525050565b610879816107fc565b82525050565b600060a0820190506108946000830188610708565b6108a16020830187610708565b6108ae6040830186610861565b6108bb6060830185610861565b6108c86080830184610870565b969550505050505056fea26469706673582212204da60765d16f5655b8826a20ada0f7bf113f5012594c47d0cb54a364e2ef559c64736f6c63430008160033",
					"opcodes": "PUSH1 0x80 PUSH1 0x40 MSTORE CALLVALUE DUP1 ISZERO PUSH2 0x10 JUMPI PUSH1 0x0 DUP1 REVERT JUMPDEST POP PUSH2 0x908 DUP1 PUSH2 0x20 PUSH1 0x0 CODECOPY PUSH1 0x0 RETURN INVALID PUSH1 0x80 PUSH1 0x40 MSTORE CALLVALUE DUP1 ISZERO PUSH2 0x10 JUMPI PUSH1 0x0 DUP1 REVERT JUMPDEST POP PUSH1 0x4 CALLDATASIZE LT PUSH2 0x57 JUMPI PUSH1 0x0 CALLDATALOAD PUSH1 0xE0 SHR DUP1 PUSH4 0x2D10AEA7 EQ PUSH2 0x5C JUMPI DUP1 PUSH4 0xA126E51C EQ PUSH2 0x78 JUMPI DUP1 PUSH4 0xAF73586C EQ PUSH2 0x82 JUMPI DUP1 PUSH4 0xC1826926 EQ PUSH2 0xB2 JUMPI DUP1 PUSH4 0xE7278E7F EQ PUSH2 0xCE JUMPI JUMPDEST PUSH1 0x0 DUP1 REVERT JUMPDEST PUSH2 0x76 PUSH1 0x4 DUP1 CALLDATASIZE SUB DUP2 ADD SWAP1 PUSH2 0x71 SWAP2 SWAP1 PUSH2 0x60A JUMP JUMPDEST PUSH2 0xEC JUMP JUMPDEST STOP JUMPDEST PUSH2 0x80 PUSH2 0x18D JUMP JUMPDEST STOP JUMPDEST PUSH2 0x9C PUSH1 0x4 DUP1 CALLDATASIZE SUB DUP2 ADD SWAP1 PUSH2 0x97 SWAP2 SWAP1 PUSH2 0x60A JUMP JUMPDEST PUSH2 0x455 JUMP JUMPDEST PUSH1 0x40 MLOAD PUSH2 0xA9 SWAP2 SWAP1 PUSH2 0x650 JUMP JUMPDEST PUSH1 0x40 MLOAD DUP1 SWAP2 SUB SWAP1 RETURN JUMPDEST PUSH2 0xCC PUSH1 0x4 DUP1 CALLDATASIZE SUB DUP2 ADD SWAP1 PUSH2 0xC7 SWAP2 SWAP1 PUSH2 0x6DB JUMP JUMPDEST PUSH2 0x55D JUMP JUMPDEST STOP JUMPDEST PUSH2 0xD6 PUSH2 0x5C3 JUMP JUMPDEST PUSH1 0x40 MLOAD PUSH2 0xE3 SWAP2 SWAP1 PUSH2 0x717 JUMP JUMPDEST PUSH1 0x40 MLOAD DUP1 SWAP2 SUB SWAP1 RETURN JUMPDEST PUSH1 0x0 DUP2 DUP2 SLOAD DUP2 LT PUSH2 0x100 JUMPI PUSH2 0xFF PUSH2 0x732 JUMP JUMPDEST JUMPDEST SWAP1 PUSH1 0x0 MSTORE PUSH1 0x20 PUSH1 0x0 KECCAK256 ADD PUSH1 0x0 SWAP1 SLOAD SWAP1 PUSH2 0x100 EXP SWAP1 DIV PUSH20 0xFFFFFFFFFFFFFFFFFFFFFFFFFFFFFFFFFFFFFFFF AND PUSH20 0xFFFFFFFFFFFFFFFFFFFFFFFFFFFFFFFFFFFFFFFF AND PUSH4 0x2852B71C PUSH1 0x40 MLOAD DUP2 PUSH4 0xFFFFFFFF AND PUSH1 0xE0 SHL DUP2 MSTORE PUSH1 0x4 ADD PUSH1 0x0 PUSH1 0x40 MLOAD DUP1 DUP4 SUB DUP2 PUSH1 0x0 DUP8 DUP1 EXTCODESIZE ISZERO DUP1 ISZERO PUSH2 0x172 JUMPI PUSH1 0x0 DUP1 REVERT JUMPDEST POP GAS CALL ISZERO DUP1 ISZERO PUSH2 0x186 JUMPI RETURNDATASIZE PUSH1 0x0 DUP1 RETURNDATACOPY RETURNDATASIZE PUSH1 0x0 REVERT JUMPDEST POP POP POP POP POP JUMP JUMPDEST PUSH1 0x0 JUMPDEST PUSH1 0x0 DUP1 SLOAD SWAP1 POP DUP2 LT ISZERO PUSH2 0x452 JUMPI PUSH1 0x0 DUP1 DUP3 DUP2 SLOAD DUP2 LT PUSH2 0x1B2 JUMPI PUSH2 0x1B1 PUSH2 0x732 JUMP JUMPDEST JUMPDEST SWAP1 PUSH1 0x0 MSTORE PUSH1 0x20 PUSH1 0x0 KECCAK256 ADD PUSH1 0x0 SWAP1 SLOAD SWAP1 PUSH2 0x100 EXP SWAP1 DIV PUSH20 0xFFFFFFFFFFFFFFFFFFFFFFFFFFFFFFFFFFFFFFFF AND SWAP1 POP PUSH32 0xB86063779FBC89305A612701D5E9471A4AFE804A69EFC85F6CBFC912B80F68A3 DUP2 PUSH20 0xFFFFFFFFFFFFFFFFFFFFFFFFFFFFFFFFFFFFFFFF AND PUSH4 0xE4849B23 PUSH1 0x40 MLOAD DUP2 PUSH4 0xFFFFFFFF AND PUSH1 0xE0 SHL DUP2 MSTORE PUSH1 0x4 ADD PUSH1 0x20 PUSH1 0x40 MLOAD DUP1 DUP4 SUB DUP2 DUP7 GAS STATICCALL ISZERO DUP1 ISZERO PUSH2 0x24B JUMPI RETURNDATASIZE PUSH1 0x0 DUP1 RETURNDATACOPY RETURNDATASIZE PUSH1 0x0 REVERT JUMPDEST POP POP POP POP PUSH1 0x40 MLOAD RETURNDATASIZE PUSH1 0x1F NOT PUSH1 0x1F DUP3 ADD AND DUP3 ADD DUP1 PUSH1 0x40 MSTORE POP DUP2 ADD SWAP1 PUSH2 0x26F SWAP2 SWAP1 PUSH2 0x776 JUMP JUMPDEST DUP3 PUSH20 0xFFFFFFFFFFFFFFFFFFFFFFFFFFFFFFFFFFFFFFFF AND PUSH4 0xED0109A5 PUSH1 0x40 MLOAD DUP2 PUSH4 0xFFFFFFFF AND PUSH1 0xE0 SHL DUP2 MSTORE PUSH1 0x4 ADD PUSH1 0x20 PUSH1 0x40 MLOAD DUP1 DUP4 SUB DUP2 DUP7 GAS STATICCALL ISZERO DUP1 ISZERO PUSH2 0x2BA JUMPI RETURNDATASIZE PUSH1 0x0 DUP1 RETURNDATACOPY RETURNDATASIZE PUSH1 0x0 REVERT JUMPDEST POP POP POP POP PUSH1 0x40 MLOAD RETURNDATASIZE PUSH1 0x1F NOT PUSH1 0x1F DUP3 ADD AND DUP3 ADD DUP1 PUSH1 0x40 MSTORE POP DUP2 ADD SWAP1 PUSH2 0x2DE SWAP2 SWAP1 PUSH2 0x776 JUMP JUMPDEST DUP4 PUSH20 0xFFFFFFFFFFFFFFFFFFFFFFFFFFFFFFFFFFFFFFFF AND PUSH4 0xBAF2D834 PUSH1 0x40 MLOAD DUP2 PUSH4 0xFFFFFFFF AND PUSH1 0xE0 SHL DUP2 MSTORE PUSH1 0x4 ADD PUSH1 0x20 PUSH1 0x40 MLOAD DUP1 DUP4 SUB DUP2 DUP7 GAS STATICCALL ISZERO DUP1 ISZERO PUSH2 0x329 JUMPI RETURNDATASIZE PUSH1 0x0 DUP1 RETURNDATACOPY RETURNDATASIZE PUSH1 0x0 REVERT JUMPDEST POP POP POP POP PUSH1 0x40 MLOAD RETURNDATASIZE PUSH1 0x1F NOT PUSH1 0x1F DUP3 ADD AND DUP3 ADD DUP1 PUSH1 0x40 MSTORE POP DUP2 ADD SWAP1 PUSH2 0x34D SWAP2 SWAP1 PUSH2 0x7CF JUMP JUMPDEST DUP5 PUSH20 0xFFFFFFFFFFFFFFFFFFFFFFFFFFFFFFFFFFFFFFFF AND PUSH4 0x4224DE69 PUSH1 0x40 MLOAD DUP2 PUSH4 0xFFFFFFFF AND PUSH1 0xE0 SHL DUP2 MSTORE PUSH1 0x4 ADD PUSH1 0x20 PUSH1 0x40 MLOAD DUP1 DUP4 SUB DUP2 DUP7 GAS STATICCALL ISZERO DUP1 ISZERO PUSH2 0x398 JUMPI RETURNDATASIZE PUSH1 0x0 DUP1 RETURNDATACOPY RETURNDATASIZE PUSH1 0x0 REVERT JUMPDEST POP POP POP POP PUSH1 0x40 MLOAD RETURNDATASIZE PUSH1 0x1F NOT PUSH1 0x1F DUP3 ADD AND DUP3 ADD DUP1 PUSH1 0x40 MSTORE POP DUP2 ADD SWAP1 PUSH2 0x3BC SWAP2 SWAP1 PUSH2 0x7CF JUMP JUMPDEST DUP6 PUSH20 0xFFFFFFFFFFFFFFFFFFFFFFFFFFFFFFFFFFFFFFFF AND PUSH4 0x4613CF72 PUSH1 0x40 MLOAD DUP2 PUSH4 0xFFFFFFFF AND PUSH1 0xE0 SHL DUP2 MSTORE PUSH1 0x4 ADD PUSH1 0x20 PUSH1 0x40 MLOAD DUP1 DUP4 SUB DUP2 DUP7 GAS STATICCALL ISZERO DUP1 ISZERO PUSH2 0x407 JUMPI RETURNDATASIZE PUSH1 0x0 DUP1 RETURNDATACOPY RETURNDATASIZE PUSH1 0x0 REVERT JUMPDEST POP POP POP POP PUSH1 0x40 MLOAD RETURNDATASIZE PUSH1 0x1F NOT PUSH1 0x1F DUP3 ADD AND DUP3 ADD DUP1 PUSH1 0x40 MSTORE POP DUP2 ADD SWAP1 PUSH2 0x42B SWAP2 SWAP1 PUSH2 0x834 JUMP JUMPDEST PUSH1 0x40 MLOAD PUSH2 0x43C SWAP6 SWAP5 SWAP4 SWAP3 SWAP2 SWAP1 PUSH2 0x87F JUMP JUMPDEST PUSH1 0x40 MLOAD DUP1 SWAP2 SUB SWAP1 LOG1 POP DUP1 DUP1 PUSH1 0x1 ADD SWAP2 POP POP PUSH2 0x190 JUMP JUMPDEST POP JUMP JUMPDEST PUSH1 0x0 DUP1 PUSH1 0x0 SWAP1 POP JUMPDEST PUSH1 0x0 DUP1 SLOAD SWAP1 POP DUP2 LT ISZERO PUSH2 0x533 JUMPI PUSH1 0x0 DUP2 DUP2 SLOAD DUP2 LT PUSH2 0x47E JUMPI PUSH2 0x47D PUSH2 0x732 JUMP JUMPDEST JUMPDEST SWAP1 PUSH1 0x0 MSTORE PUSH1 0x20 PUSH1 0x0 KECCAK256 ADD PUSH1 0x0 SWAP1 SLOAD SWAP1 PUSH2 0x100 EXP SWAP1 DIV PUSH20 0xFFFFFFFFFFFFFFFFFFFFFFFFFFFFFFFFFFFFFFFF AND PUSH20 0xFFFFFFFFFFFFFFFFFFFFFFFFFFFFFFFFFFFFFFFF AND PUSH4 0xE4849B23 PUSH1 0x40 MLOAD DUP2 PUSH4 0xFFFFFFFF AND PUSH1 0xE0 SHL DUP2 MSTORE PUSH1 0x4 ADD PUSH1 0x20 PUSH1 0x40 MLOAD DUP1 DUP4 SUB DUP2 DUP7 GAS STATICCALL ISZERO DUP1 ISZERO PUSH2 0x4F3 JUMPI RETURNDATASIZE PUSH1 0x0 DUP1 RETURNDATACOPY RETURNDATASIZE PUSH1 0x0 REVERT JUMPDEST POP POP POP POP PUSH1 0x40 MLOAD RETURNDATASIZE PUSH1 0x1F NOT PUSH1 0x1F DUP3 ADD AND DUP3 ADD DUP1 PUSH1 0x40 MSTORE POP DUP2 ADD SWAP1 PUSH2 0x517 SWAP2 SWAP1 PUSH2 0x776 JUMP JUMPDEST DUP4 SUB PUSH2 0x526 JUMPI DUP1 SWAP2 POP POP PUSH2 0x558 JUMP JUMPDEST DUP1 DUP1 PUSH1 0x1 ADD SWAP2 POP POP PUSH2 0x45D JUMP JUMPDEST POP PUSH32 0xFFFFFFFFFFFFFFFFFFFFFFFFFFFFFFFFFFFFFFFFFFFFFFFFFFFFFFFFFFFFFFFF SWAP1 POP JUMPDEST SWAP2 SWAP1 POP JUMP JUMPDEST PUSH1 0x0 DUP2 SWAP1 DUP1 PUSH1 0x1 DUP2 SLOAD ADD DUP1 DUP3 SSTORE DUP1 SWAP2 POP POP PUSH1 0x1 SWAP1 SUB SWAP1 PUSH1 0x0 MSTORE PUSH1 0x20 PUSH1 0x0 KECCAK256 ADD PUSH1 0x0 SWAP1 SWAP2 SWAP1 SWAP2 SWAP1 SWAP2 PUSH2 0x100 EXP DUP2 SLOAD DUP2 PUSH20 0xFFFFFFFFFFFFFFFFFFFFFFFFFFFFFFFFFFFFFFFF MUL NOT AND SWAP1 DUP4 PUSH20 0xFFFFFFFFFFFFFFFFFFFFFFFFFFFFFFFFFFFFFFFF AND MUL OR SWAP1 SSTORE POP POP JUMP JUMPDEST PUSH1 0x0 DUP1 DUP1 SLOAD SWAP1 POP SWAP1 POP SWAP1 JUMP JUMPDEST PUSH1 0x0 DUP1 REVERT JUMPDEST PUSH1 0x0 DUP2 SWAP1 POP SWAP2 SWAP1 POP JUMP JUMPDEST PUSH2 0x5E7 DUP2 PUSH2 0x5D4 JUMP JUMPDEST DUP2 EQ PUSH2 0x5F2 JUMPI PUSH1 0x0 DUP1 REVERT JUMPDEST POP JUMP JUMPDEST PUSH1 0x0 DUP2 CALLDATALOAD SWAP1 POP PUSH2 0x604 DUP2 PUSH2 0x5DE JUMP JUMPDEST SWAP3 SWAP2 POP POP JUMP JUMPDEST PUSH1 0x0 PUSH1 0x20 DUP3 DUP5 SUB SLT ISZERO PUSH2 0x620 JUMPI PUSH2 0x61F PUSH2 0x5CF JUMP JUMPDEST JUMPDEST PUSH1 0x0 PUSH2 0x62E DUP5 DUP3 DUP6 ADD PUSH2 0x5F5 JUMP JUMPDEST SWAP2 POP POP SWAP3 SWAP2 POP POP JUMP JUMPDEST PUSH1 0x0 DUP2 SWAP1 POP SWAP2 SWAP1 POP JUMP JUMPDEST PUSH2 0x64A DUP2 PUSH2 0x637 JUMP JUMPDEST DUP3 MSTORE POP POP JUMP JUMPDEST PUSH1 0x0 PUSH1 0x20 DUP3 ADD SWAP1 POP PUSH2 0x665 PUSH1 0x0 DUP4 ADD DUP5 PUSH2 0x641 JUMP JUMPDEST SWAP3 SWAP2 POP POP JUMP JUMPDEST PUSH1 0x0 PUSH20 0xFFFFFFFFFFFFFFFFFFFFFFFFFFFFFFFFFFFFFFFF DUP3 AND SWAP1 POP SWAP2 SWAP1 POP JUMP JUMPDEST PUSH1 0x0 PUSH2 0x696 DUP3 PUSH2 0x66B JUMP JUMPDEST SWAP1 POP SWAP2 SWAP1 POP JUMP JUMPDEST PUSH1 0x0 PUSH2 0x6A8 DUP3 PUSH2 0x68B JUMP JUMPDEST SWAP1 POP SWAP2 SWAP1 POP JUMP JUMPDEST PUSH2 0x6B8 DUP2 PUSH2 0x69D JUMP JUMPDEST DUP2 EQ PUSH2 0x6C3 JUMPI PUSH1 0x0 DUP1 REVERT JUMPDEST POP JUMP JUMPDEST PUSH1 0x0 DUP2 CALLDATALOAD SWAP1 POP PUSH2 0x6D5 DUP2 PUSH2 0x6AF JUMP JUMPDEST SWAP3 SWAP2 POP POP JUMP JUMPDEST PUSH1 0x0 PUSH1 0x20 DUP3 DUP5 SUB SLT ISZERO PUSH2 0x6F1 JUMPI PUSH2 0x6F0 PUSH2 0x5CF JUMP JUMPDEST JUMPDEST PUSH1 0x0 PUSH2 0x6FF DUP5 DUP3 DUP6 ADD PUSH2 0x6C6 JUMP JUMPDEST SWAP2 POP POP SWAP3 SWAP2 POP POP JUMP JUMPDEST PUSH2 0x711 DUP2 PUSH2 0x5D4 JUMP JUMPDEST DUP3 MSTORE POP POP JUMP JUMPDEST PUSH1 0x0 PUSH1 0x20 DUP3 ADD SWAP1 POP PUSH2 0x72C PUSH1 0x0 DUP4 ADD DUP5 PUSH2 0x708 JUMP JUMPDEST SWAP3 SWAP2 POP POP JUMP JUMPDEST PUSH32 0x4E487B7100000000000000000000000000000000000000000000000000000000 PUSH1 0x0 MSTORE PUSH1 0x32 PUSH1 0x4 MSTORE PUSH1 0x24 PUSH1 0x0 REVERT JUMPDEST PUSH1 0x0 DUP2 MLOAD SWAP1 POP PUSH2 0x770 DUP2 PUSH2 0x5DE JUMP JUMPDEST SWAP3 SWAP2 POP POP JUMP JUMPDEST PUSH1 0x0 PUSH1 0x20 DUP3 DUP5 SUB SLT ISZERO PUSH2 0x78C JUMPI PUSH2 0x78B PUSH2 0x5CF JUMP JUMPDEST JUMPDEST PUSH1 0x0 PUSH2 0x79A DUP5 DUP3 DUP6 ADD PUSH2 0x761 JUMP JUMPDEST SWAP2 POP POP SWAP3 SWAP2 POP POP JUMP JUMPDEST PUSH2 0x7AC DUP2 PUSH2 0x68B JUMP JUMPDEST DUP2 EQ PUSH2 0x7B7 JUMPI PUSH1 0x0 DUP1 REVERT JUMPDEST POP JUMP JUMPDEST PUSH1 0x0 DUP2 MLOAD SWAP1 POP PUSH2 0x7C9 DUP2 PUSH2 0x7A3 JUMP JUMPDEST SWAP3 SWAP2 POP POP JUMP JUMPDEST PUSH1 0x0 PUSH1 0x20 DUP3 DUP5 SUB SLT ISZERO PUSH2 0x7E5 JUMPI PUSH2 0x7E4 PUSH2 0x5CF JUMP JUMPDEST JUMPDEST PUSH1 0x0 PUSH2 0x7F3 DUP5 DUP3 DUP6 ADD PUSH2 0x7BA JUMP JUMPDEST SWAP2 POP POP SWAP3 SWAP2 POP POP JUMP JUMPDEST PUSH1 0x0 DUP2 ISZERO ISZERO SWAP1 POP SWAP2 SWAP1 POP JUMP JUMPDEST PUSH2 0x811 DUP2 PUSH2 0x7FC JUMP JUMPDEST DUP2 EQ PUSH2 0x81C JUMPI PUSH1 0x0 DUP1 REVERT JUMPDEST POP JUMP JUMPDEST PUSH1 0x0 DUP2 MLOAD SWAP1 POP PUSH2 0x82E DUP2 PUSH2 0x808 JUMP JUMPDEST SWAP3 SWAP2 POP POP JUMP JUMPDEST PUSH1 0x0 PUSH1 0x20 DUP3 DUP5 SUB SLT ISZERO PUSH2 0x84A JUMPI PUSH2 0x849 PUSH2 0x5CF JUMP JUMPDEST JUMPDEST PUSH1 0x0 PUSH2 0x858 DUP5 DUP3 DUP6 ADD PUSH2 0x81F JUMP JUMPDEST SWAP2 POP POP SWAP3 SWAP2 POP POP JUMP JUMPDEST PUSH2 0x86A DUP2 PUSH2 0x68B JUMP JUMPDEST DUP3 MSTORE POP POP JUMP JUMPDEST PUSH2 0x879 DUP2 PUSH2 0x7FC JUMP JUMPDEST DUP3 MSTORE POP POP JUMP JUMPDEST PUSH1 0x0 PUSH1 0xA0 DUP3 ADD SWAP1 POP PUSH2 0x894 PUSH1 0x0 DUP4 ADD DUP9 PUSH2 0x708 JUMP JUMPDEST PUSH2 0x8A1 PUSH1 0x20 DUP4 ADD DUP8 PUSH2 0x708 JUMP JUMPDEST PUSH2 0x8AE PUSH1 0x40 DUP4 ADD DUP7 PUSH2 0x861 JUMP JUMPDEST PUSH2 0x8BB PUSH1 0x60 DUP4 ADD DUP6 PUSH2 0x861 JUMP JUMPDEST PUSH2 0x8C8 PUSH1 0x80 DUP4 ADD DUP5 PUSH2 0x870 JUMP JUMPDEST SWAP7 SWAP6 POP POP POP POP POP POP JUMP INVALID LOG2 PUSH5 0x6970667358 0x22 SLT KECCAK256 0x4D 0xA6 SMOD PUSH6 0xD16F5655B882 PUSH11 0x20ADA0F7BF113F5012594C SELFBALANCE 0xD0 0xCB SLOAD LOG3 PUSH5 0xE2EF559C64 PUSH20 0x6F6C634300081600330000000000000000000000 "
				},
				"gasEstimates": {
					"creation": {
						"codeDepositCost": "462400",
						"executionCost": "499",
						"totalCost": "462899"
					},
					"external": {
						"accept_order(uint256)": "infinite",
						"add_order(address)": "49121",
						"display_all_orders()": "infinite",
						"get_count()": "2511",
						"search_order(uint256)": "infinite"
					}
				},
				"methodIdentifiers": {
					"accept_order(uint256)": "2d10aea7",
					"add_order(address)": "c1826926",
					"display_all_orders()": "a126e51c",
					"get_count()": "e7278e7f",
					"search_order(uint256)": "af73586c"
				}
			},
			"storageLayout": {
				"storage": [
					{
						"astId": 101,
						"contract": "contracts/order_database.sol:OrderDb",
						"label": "order_list",
						"offset": 0,
						"slot": "0",
						"type": "t_array(t_contract(Order)94)dyn_storage"
					}
				],
				"types": {
					"t_array(t_contract(Order)94)dyn_storage": {
						"base": "t_contract(Order)94",
						"encoding": "dynamic_array",
						"label": "contract Order[]",
						"numberOfBytes": "32"
					},
					"t_contract(Order)94": {
						"encoding": "inplace",
						"label": "contract Order",
						"numberOfBytes": "20"
					}
				}
			},
			"userdoc": {
				"kind": "user",
				"methods": {},
				"version": 1
			}
		}
	}
}