{
	"contracts/main.sol": {
		"SupplyChainManagement": {
			"abi": [
				{
					"anonymous": false,
					"inputs": [
						{
							"indexed": false,
							"internalType": "uint256",
							"name": "eoq",
							"type": "uint256"
						}
					],
					"name": "economic_order_quantity",
					"type": "event"
				},
				{
					"anonymous": false,
					"inputs": [
						{
							"indexed": false,
							"internalType": "address",
							"name": "actor_address",
							"type": "address"
						},
						{
							"indexed": false,
							"internalType": "string",
							"name": "actor_type",
							"type": "string"
						},
						{
							"indexed": false,
							"internalType": "string",
							"name": "actor_name",
							"type": "string"
						},
						{
							"indexed": false,
							"internalType": "string",
							"name": "actor_region",
							"type": "string"
						},
						{
							"indexed": false,
							"internalType": "string",
							"name": "actor_national_id",
							"type": "string"
						}
					],
					"name": "registration",
					"type": "event"
				},
				{
					"anonymous": false,
					"inputs": [
						{
							"indexed": false,
							"internalType": "uint256",
							"name": "rop",
							"type": "uint256"
						}
					],
					"name": "reorder_point",
					"type": "event"
				},
				{
					"inputs": [
						{
							"internalType": "uint256",
							"name": "annual_demand",
							"type": "uint256"
						},
						{
							"internalType": "uint256",
							"name": "cost_to_place_and_process",
							"type": "uint256"
						},
						{
							"internalType": "uint256",
							"name": "holding_cost",
							"type": "uint256"
						}
					],
					"name": "calculate_economic_order_quantity",
					"outputs": [
						{
							"internalType": "uint256",
							"name": "",
							"type": "uint256"
						}
					],
					"stateMutability": "nonpayable",
					"type": "function"
				},
				{
					"inputs": [
						{
							"internalType": "uint256",
							"name": "annual_demand",
							"type": "uint256"
						},
						{
							"internalType": "uint256",
							"name": "days_open",
							"type": "uint256"
						},
						{
							"internalType": "uint256",
							"name": "delivery_days",
							"type": "uint256"
						}
					],
					"name": "calculate_reorder_point",
					"outputs": [
						{
							"internalType": "uint256",
							"name": "",
							"type": "uint256"
						}
					],
					"stateMutability": "nonpayable",
					"type": "function"
				},
				{
					"inputs": [
						{
							"internalType": "string",
							"name": "actor_type",
							"type": "string"
						},
						{
							"internalType": "string",
							"name": "actor_name",
							"type": "string"
						},
						{
							"internalType": "string",
							"name": "actor_region",
							"type": "string"
						},
						{
							"internalType": "string",
							"name": "actor_national_id",
							"type": "string"
						}
					],
					"name": "register",
					"outputs": [],
					"stateMutability": "nonpayable",
					"type": "function"
				}
			],
			"devdoc": {
				"kind": "dev",
				"methods": {},
				"version": 1
			},
			"evm": {
				"assembly": "    /* \"contracts/main.sol\":37:2655  contract SupplyChainManagement {... */\n  mstore(0x40, 0x80)\n  callvalue\n  dup1\n  iszero\n  tag_1\n  jumpi\n  0x00\n  dup1\n  revert\ntag_1:\n  pop\n  dataSize(sub_0)\n  dup1\n  dataOffset(sub_0)\n  0x00\n  codecopy\n  0x00\n  return\nstop\n\nsub_0: assembly {\n        /* \"contracts/main.sol\":37:2655  contract SupplyChainManagement {... */\n      mstore(0x40, 0x80)\n      callvalue\n      dup1\n      iszero\n      tag_1\n      jumpi\n      0x00\n      dup1\n      revert\n    tag_1:\n      pop\n      jumpi(tag_2, lt(calldatasize, 0x04))\n      shr(0xe0, calldataload(0x00))\n      dup1\n      0x073079d6\n      eq\n      tag_3\n      jumpi\n      dup1\n      0x0e24c52c\n      eq\n      tag_4\n      jumpi\n      dup1\n      0x1e646bf7\n      eq\n      tag_5\n      jumpi\n    tag_2:\n      0x00\n      dup1\n      revert\n        /* \"contracts/main.sol\":1917:2207  function calculate_reorder_point(uint annual_demand, uint days_open, uint delivery_days) public valid_user returns(uint) {... */\n    tag_3:\n      tag_6\n      0x04\n      dup1\n      calldatasize\n      sub\n      dup2\n      add\n      swap1\n      tag_7\n      swap2\n      swap1\n      tag_8\n      jump\t// in\n    tag_7:\n      tag_9\n      jump\t// in\n    tag_6:\n      mload(0x40)\n      tag_10\n      swap2\n      swap1\n      tag_11\n      jump\t// in\n    tag_10:\n      mload(0x40)\n      dup1\n      swap2\n      sub\n      swap1\n      return\n        /* \"contracts/main.sol\":1480:1911  function register(string memory actor_type,string memory actor_name,string memory actor_region,string memory actor_national_id) public { ... */\n    tag_4:\n      tag_12\n      0x04\n      dup1\n      calldatasize\n      sub\n      dup2\n      add\n      swap1\n      tag_13\n      swap2\n      swap1\n      tag_14\n      jump\t// in\n    tag_13:\n      tag_15\n      jump\t// in\n    tag_12:\n      stop\n        /* \"contracts/main.sol\":2213:2652  function calculate_economic_order_quantity(uint annual_demand, uint cost_to_place_and_process, uint holding_cost) public valid_user returns(uint) {... */\n    tag_5:\n      tag_16\n      0x04\n      dup1\n      calldatasize\n      sub\n      dup2\n      add\n      swap1\n      tag_17\n      swap2\n      swap1\n      tag_8\n      jump\t// in\n    tag_17:\n      tag_18\n      jump\t// in\n    tag_16:\n      mload(0x40)\n      tag_19\n      swap2\n      swap1\n      tag_11\n      jump\t// in\n    tag_19:\n      mload(0x40)\n      dup1\n      swap2\n      sub\n      swap1\n      return\n        /* \"contracts/main.sol\":1917:2207  function calculate_reorder_point(uint annual_demand, uint days_open, uint delivery_days) public valid_user returns(uint) {... */\n    tag_9:\n        /* \"contracts/main.sol\":2032:2036  uint */\n      0x00\n        /* \"contracts/main.sol\":756:769  is_registered */\n      0x01\n        /* \"contracts/main.sol\":756:781  is_registered[msg.sender] */\n      0x00\n        /* \"contracts/main.sol\":770:780  msg.sender */\n      caller\n        /* \"contracts/main.sol\":756:781  is_registered[msg.sender] */\n      0xffffffffffffffffffffffffffffffffffffffff\n      and\n      0xffffffffffffffffffffffffffffffffffffffff\n      and\n      dup2\n      mstore\n      0x20\n      add\n      swap1\n      dup2\n      mstore\n      0x20\n      add\n      0x00\n      keccak256\n      0x00\n      swap1\n      sload\n      swap1\n      0x0100\n      exp\n      swap1\n      div\n      0xff\n      and\n        /* \"contracts/main.sol\":748:782  require(is_registered[msg.sender]) */\n      tag_21\n      jumpi\n      0x00\n      dup1\n      revert\n    tag_21:\n        /* \"contracts/main.sol\":2049:2066  uint daily_demand */\n      0x00\n        /* \"contracts/main.sol\":2085:2094  days_open */\n      dup4\n        /* \"contracts/main.sol\":2069:2082  annual_demand */\n      dup6\n        /* \"contracts/main.sol\":2069:2094  annual_demand / days_open */\n      tag_23\n      swap2\n      swap1\n      tag_24\n      jump\t// in\n    tag_23:\n        /* \"contracts/main.sol\":2049:2094  uint daily_demand = annual_demand / days_open */\n      swap1\n      pop\n        /* \"contracts/main.sol\":2105:2113  uint rop */\n      0x00\n        /* \"contracts/main.sol\":2131:2144  delivery_days */\n      dup4\n        /* \"contracts/main.sol\":2116:2128  daily_demand */\n      dup3\n        /* \"contracts/main.sol\":2116:2144  daily_demand * delivery_days */\n      tag_25\n      swap2\n      swap1\n      tag_26\n      jump\t// in\n    tag_25:\n        /* \"contracts/main.sol\":2105:2144  uint rop = daily_demand * delivery_days */\n      swap1\n      pop\n        /* \"contracts/main.sol\":2160:2178  reorder_point(rop) */\n      0x0c3010a77dc0dfe04b1878b02a18298b639a392a50942322ade28c170ef1e8d5\n        /* \"contracts/main.sol\":2174:2177  rop */\n      dup2\n        /* \"contracts/main.sol\":2160:2178  reorder_point(rop) */\n      mload(0x40)\n      tag_27\n      swap2\n      swap1\n      tag_11\n      jump\t// in\n    tag_27:\n      mload(0x40)\n      dup1\n      swap2\n      sub\n      swap1\n      log1\n        /* \"contracts/main.sol\":2196:2199  rop */\n      dup1\n        /* \"contracts/main.sol\":2189:2199  return rop */\n      swap3\n      pop\n      pop\n      pop\n        /* \"contracts/main.sol\":1917:2207  function calculate_reorder_point(uint annual_demand, uint days_open, uint delivery_days) public valid_user returns(uint) {... */\n      swap4\n      swap3\n      pop\n      pop\n      pop\n      jump\t// out\n        /* \"contracts/main.sol\":1480:1911  function register(string memory actor_type,string memory actor_name,string memory actor_region,string memory actor_national_id) public { ... */\n    tag_15:\n        /* \"contracts/main.sol\":1636:1649  is_registered */\n      0x01\n        /* \"contracts/main.sol\":1636:1661  is_registered[msg.sender] */\n      0x00\n        /* \"contracts/main.sol\":1650:1660  msg.sender */\n      caller\n        /* \"contracts/main.sol\":1636:1661  is_registered[msg.sender] */\n      0xffffffffffffffffffffffffffffffffffffffff\n      and\n      0xffffffffffffffffffffffffffffffffffffffff\n      and\n      dup2\n      mstore\n      0x20\n      add\n      swap1\n      dup2\n      mstore\n      0x20\n      add\n      0x00\n      keccak256\n      0x00\n      swap1\n      sload\n      swap1\n      0x0100\n      exp\n      swap1\n      div\n      0xff\n      and\n        /* \"contracts/main.sol\":1635:1661  !is_registered[msg.sender] */\n      iszero\n        /* \"contracts/main.sol\":1627:1662  require(!is_registered[msg.sender]) */\n      tag_29\n      jumpi\n      0x00\n      dup1\n      revert\n    tag_29:\n        /* \"contracts/main.sol\":1704:1763  Actor(actor_type,actor_name,actor_region,actor_national_id) */\n      mload(0x40)\n      dup1\n      0x80\n      add\n      0x40\n      mstore\n      dup1\n        /* \"contracts/main.sol\":1710:1720  actor_type */\n      dup6\n        /* \"contracts/main.sol\":1704:1763  Actor(actor_type,actor_name,actor_region,actor_national_id) */\n      dup2\n      mstore\n      0x20\n      add\n        /* \"contracts/main.sol\":1721:1731  actor_name */\n      dup5\n        /* \"contracts/main.sol\":1704:1763  Actor(actor_type,actor_name,actor_region,actor_national_id) */\n      dup2\n      mstore\n      0x20\n      add\n        /* \"contracts/main.sol\":1732:1744  actor_region */\n      dup4\n        /* \"contracts/main.sol\":1704:1763  Actor(actor_type,actor_name,actor_region,actor_national_id) */\n      dup2\n      mstore\n      0x20\n      add\n        /* \"contracts/main.sol\":1745:1762  actor_national_id */\n      dup3\n        /* \"contracts/main.sol\":1704:1763  Actor(actor_type,actor_name,actor_region,actor_national_id) */\n      dup2\n      mstore\n      pop\n        /* \"contracts/main.sol\":1673:1689  address_to_actor */\n      0x00\n        /* \"contracts/main.sol\":1673:1701  address_to_actor[msg.sender] */\n      dup1\n        /* \"contracts/main.sol\":1690:1700  msg.sender */\n      caller\n        /* \"contracts/main.sol\":1673:1701  address_to_actor[msg.sender] */\n      0xffffffffffffffffffffffffffffffffffffffff\n      and\n      0xffffffffffffffffffffffffffffffffffffffff\n      and\n      dup2\n      mstore\n      0x20\n      add\n      swap1\n      dup2\n      mstore\n      0x20\n      add\n      0x00\n      keccak256\n        /* \"contracts/main.sol\":1673:1763  address_to_actor[msg.sender] = Actor(actor_type,actor_name,actor_region,actor_national_id) */\n      0x00\n      dup3\n      add\n      mload\n      dup2\n      0x00\n      add\n      swap1\n      dup2\n      tag_30\n      swap2\n      swap1\n      tag_31\n      jump\t// in\n    tag_30:\n      pop\n      0x20\n      dup3\n      add\n      mload\n      dup2\n      0x01\n      add\n      swap1\n      dup2\n      tag_32\n      swap2\n      swap1\n      tag_31\n      jump\t// in\n    tag_32:\n      pop\n      0x40\n      dup3\n      add\n      mload\n      dup2\n      0x02\n      add\n      swap1\n      dup2\n      tag_33\n      swap2\n      swap1\n      tag_31\n      jump\t// in\n    tag_33:\n      pop\n      0x60\n      dup3\n      add\n      mload\n      dup2\n      0x03\n      add\n      swap1\n      dup2\n      tag_34\n      swap2\n      swap1\n      tag_31\n      jump\t// in\n    tag_34:\n      pop\n      swap1\n      pop\n      pop\n        /* \"contracts/main.sol\":1802:1806  true */\n      0x01\n        /* \"contracts/main.sol\":1774:1787  is_registered */\n      dup1\n        /* \"contracts/main.sol\":1774:1799  is_registered[msg.sender] */\n      0x00\n        /* \"contracts/main.sol\":1788:1798  msg.sender */\n      caller\n        /* \"contracts/main.sol\":1774:1799  is_registered[msg.sender] */\n      0xffffffffffffffffffffffffffffffffffffffff\n      and\n      0xffffffffffffffffffffffffffffffffffffffff\n      and\n      dup2\n      mstore\n      0x20\n      add\n      swap1\n      dup2\n      mstore\n      0x20\n      add\n      0x00\n      keccak256\n      0x00\n        /* \"contracts/main.sol\":1774:1806  is_registered[msg.sender] = true */\n      0x0100\n      exp\n      dup2\n      sload\n      dup2\n      0xff\n      mul\n      not\n      and\n      swap1\n      dup4\n      iszero\n      iszero\n      mul\n      or\n      swap1\n      sstore\n      pop\n        /* \"contracts/main.sol\":1822:1903  registration(msg.sender, actor_type, actor_name, actor_region, actor_national_id) */\n      0x5bd4424be03f8f64e20a0e55c7369b2f8875287feea185ac5c69681c403ee9ac\n        /* \"contracts/main.sol\":1835:1845  msg.sender */\n      caller\n        /* \"contracts/main.sol\":1847:1857  actor_type */\n      dup6\n        /* \"contracts/main.sol\":1859:1869  actor_name */\n      dup6\n        /* \"contracts/main.sol\":1871:1883  actor_region */\n      dup6\n        /* \"contracts/main.sol\":1885:1902  actor_national_id */\n      dup6\n        /* \"contracts/main.sol\":1822:1903  registration(msg.sender, actor_type, actor_name, actor_region, actor_national_id) */\n      mload(0x40)\n      tag_35\n      swap6\n      swap5\n      swap4\n      swap3\n      swap2\n      swap1\n      tag_36\n      jump\t// in\n    tag_35:\n      mload(0x40)\n      dup1\n      swap2\n      sub\n      swap1\n      log1\n        /* \"contracts/main.sol\":1480:1911  function register(string memory actor_type,string memory actor_name,string memory actor_region,string memory actor_national_id) public { ... */\n      pop\n      pop\n      pop\n      pop\n      jump\t// out\n        /* \"contracts/main.sol\":2213:2652  function calculate_economic_order_quantity(uint annual_demand, uint cost_to_place_and_process, uint holding_cost) public valid_user returns(uint) {... */\n    tag_18:\n        /* \"contracts/main.sol\":2353:2357  uint */\n      0x00\n        /* \"contracts/main.sol\":756:769  is_registered */\n      0x01\n        /* \"contracts/main.sol\":756:781  is_registered[msg.sender] */\n      0x00\n        /* \"contracts/main.sol\":770:780  msg.sender */\n      caller\n        /* \"contracts/main.sol\":756:781  is_registered[msg.sender] */\n      0xffffffffffffffffffffffffffffffffffffffff\n      and\n      0xffffffffffffffffffffffffffffffffffffffff\n      and\n      dup2\n      mstore\n      0x20\n      add\n      swap1\n      dup2\n      mstore\n      0x20\n      add\n      0x00\n      keccak256\n      0x00\n      swap1\n      sload\n      swap1\n      0x0100\n      exp\n      swap1\n      div\n      0xff\n      and\n        /* \"contracts/main.sol\":748:782  require(is_registered[msg.sender]) */\n      tag_38\n      jumpi\n      0x00\n      dup1\n      revert\n    tag_38:\n        /* \"contracts/main.sol\":2370:2376  uint x */\n      0x00\n        /* \"contracts/main.sol\":2428:2440  holding_cost */\n      dup3\n        /* \"contracts/main.sol\":2400:2425  cost_to_place_and_process */\n      dup5\n        /* \"contracts/main.sol\":2384:2397  annual_demand */\n      dup7\n        /* \"contracts/main.sol\":2380:2381  2 */\n      0x02\n        /* \"contracts/main.sol\":2380:2397  2 * annual_demand */\n      tag_40\n      swap2\n      swap1\n      tag_26\n      jump\t// in\n    tag_40:\n        /* \"contracts/main.sol\":2380:2425  2 * annual_demand * cost_to_place_and_process */\n      tag_41\n      swap2\n      swap1\n      tag_26\n      jump\t// in\n    tag_41:\n        /* \"contracts/main.sol\":2380:2440  2 * annual_demand * cost_to_place_and_process / holding_cost */\n      tag_42\n      swap2\n      swap1\n      tag_24\n      jump\t// in\n    tag_42:\n        /* \"contracts/main.sol\":2370:2441  uint x = (2 * annual_demand * cost_to_place_and_process / holding_cost) */\n      swap1\n      pop\n        /* \"contracts/main.sol\":2452:2458  uint z */\n      0x00\n        /* \"contracts/main.sol\":2471:2472  2 */\n      0x02\n        /* \"contracts/main.sol\":2466:2467  1 */\n      0x01\n        /* \"contracts/main.sol\":2462:2463  x */\n      dup4\n        /* \"contracts/main.sol\":2462:2467  x + 1 */\n      tag_43\n      swap2\n      swap1\n      tag_44\n      jump\t// in\n    tag_43:\n        /* \"contracts/main.sol\":2461:2472  (x + 1) / 2 */\n      tag_45\n      swap2\n      swap1\n      tag_24\n      jump\t// in\n    tag_45:\n        /* \"contracts/main.sol\":2452:2472  uint z = (x + 1) / 2 */\n      swap1\n      pop\n        /* \"contracts/main.sol\":2483:2489  uint y */\n      0x00\n        /* \"contracts/main.sol\":2492:2493  x */\n      dup3\n        /* \"contracts/main.sol\":2483:2493  uint y = x */\n      swap1\n      pop\n        /* \"contracts/main.sol\":2504:2584  while (z < y) {... */\n    tag_46:\n        /* \"contracts/main.sol\":2515:2516  y */\n      dup1\n        /* \"contracts/main.sol\":2511:2512  z */\n      dup3\n        /* \"contracts/main.sol\":2511:2516  z < y */\n      lt\n        /* \"contracts/main.sol\":2504:2584  while (z < y) {... */\n      iszero\n      tag_47\n      jumpi\n        /* \"contracts/main.sol\":2537:2538  z */\n      dup2\n        /* \"contracts/main.sol\":2533:2538  y = z */\n      swap1\n      pop\n        /* \"contracts/main.sol\":2571:2572  2 */\n      0x02\n        /* \"contracts/main.sol\":2566:2567  z */\n      dup3\n        /* \"contracts/main.sol\":2562:2563  z */\n      dup4\n        /* \"contracts/main.sol\":2558:2559  x */\n      dup6\n        /* \"contracts/main.sol\":2558:2563  x / z */\n      tag_48\n      swap2\n      swap1\n      tag_24\n      jump\t// in\n    tag_48:\n        /* \"contracts/main.sol\":2558:2567  x / z + z */\n      tag_49\n      swap2\n      swap1\n      tag_44\n      jump\t// in\n    tag_49:\n        /* \"contracts/main.sol\":2557:2572  (x / z + z) / 2 */\n      tag_50\n      swap2\n      swap1\n      tag_24\n      jump\t// in\n    tag_50:\n        /* \"contracts/main.sol\":2553:2572  z = (x / z + z) / 2 */\n      swap2\n      pop\n        /* \"contracts/main.sol\":2504:2584  while (z < y) {... */\n      jump(tag_46)\n    tag_47:\n        /* \"contracts/main.sol\":2599:2625  economic_order_quantity(y) */\n      0x69c2b099b66f03401118df49be01f13eaf7f26ec62eb993332b7b79f866a4f5a\n        /* \"contracts/main.sol\":2623:2624  y */\n      dup2\n        /* \"contracts/main.sol\":2599:2625  economic_order_quantity(y) */\n      mload(0x40)\n      tag_51\n      swap2\n      swap1\n      tag_11\n      jump\t// in\n    tag_51:\n      mload(0x40)\n      dup1\n      swap2\n      sub\n      swap1\n      log1\n        /* \"contracts/main.sol\":2643:2644  y */\n      dup1\n        /* \"contracts/main.sol\":2636:2644  return y */\n      swap4\n      pop\n      pop\n      pop\n      pop\n        /* \"contracts/main.sol\":2213:2652  function calculate_economic_order_quantity(uint annual_demand, uint cost_to_place_and_process, uint holding_cost) public valid_user returns(uint) {... */\n      swap4\n      swap3\n      pop\n      pop\n      pop\n      jump\t// out\n        /* \"#utility.yul\":7:82   */\n    tag_52:\n        /* \"#utility.yul\":40:46   */\n      0x00\n        /* \"#utility.yul\":73:75   */\n      0x40\n        /* \"#utility.yul\":67:76   */\n      mload\n        /* \"#utility.yul\":57:76   */\n      swap1\n      pop\n        /* \"#utility.yul\":7:82   */\n      swap1\n      jump\t// out\n        /* \"#utility.yul\":88:205   */\n    tag_53:\n        /* \"#utility.yul\":197:198   */\n      0x00\n        /* \"#utility.yul\":194:195   */\n      dup1\n        /* \"#utility.yul\":187:199   */\n      revert\n        /* \"#utility.yul\":211:328   */\n    tag_54:\n        /* \"#utility.yul\":320:321   */\n      0x00\n        /* \"#utility.yul\":317:318   */\n      dup1\n        /* \"#utility.yul\":310:322   */\n      revert\n        /* \"#utility.yul\":334:411   */\n    tag_55:\n        /* \"#utility.yul\":371:378   */\n      0x00\n        /* \"#utility.yul\":400:405   */\n      dup2\n        /* \"#utility.yul\":389:405   */\n      swap1\n      pop\n        /* \"#utility.yul\":334:411   */\n      swap2\n      swap1\n      pop\n      jump\t// out\n        /* \"#utility.yul\":417:539   */\n    tag_56:\n        /* \"#utility.yul\":490:514   */\n      tag_101\n        /* \"#utility.yul\":508:513   */\n      dup2\n        /* \"#utility.yul\":490:514   */\n      tag_55\n      jump\t// in\n    tag_101:\n        /* \"#utility.yul\":483:488   */\n      dup2\n        /* \"#utility.yul\":480:515   */\n      eq\n        /* \"#utility.yul\":470:533   */\n      tag_102\n      jumpi\n        /* \"#utility.yul\":529:530   */\n      0x00\n        /* \"#utility.yul\":526:527   */\n      dup1\n        /* \"#utility.yul\":519:531   */\n      revert\n        /* \"#utility.yul\":470:533   */\n    tag_102:\n        /* \"#utility.yul\":417:539   */\n      pop\n      jump\t// out\n        /* \"#utility.yul\":545:684   */\n    tag_57:\n        /* \"#utility.yul\":591:596   */\n      0x00\n        /* \"#utility.yul\":629:635   */\n      dup2\n        /* \"#utility.yul\":616:636   */\n      calldataload\n        /* \"#utility.yul\":607:636   */\n      swap1\n      pop\n        /* \"#utility.yul\":645:678   */\n      tag_104\n        /* \"#utility.yul\":672:677   */\n      dup2\n        /* \"#utility.yul\":645:678   */\n      tag_56\n      jump\t// in\n    tag_104:\n        /* \"#utility.yul\":545:684   */\n      swap3\n      swap2\n      pop\n      pop\n      jump\t// out\n        /* \"#utility.yul\":690:1309   */\n    tag_8:\n        /* \"#utility.yul\":767:773   */\n      0x00\n        /* \"#utility.yul\":775:781   */\n      dup1\n        /* \"#utility.yul\":783:789   */\n      0x00\n        /* \"#utility.yul\":832:834   */\n      0x60\n        /* \"#utility.yul\":820:829   */\n      dup5\n        /* \"#utility.yul\":811:818   */\n      dup7\n        /* \"#utility.yul\":807:830   */\n      sub\n        /* \"#utility.yul\":803:835   */\n      slt\n        /* \"#utility.yul\":800:919   */\n      iszero\n      tag_106\n      jumpi\n        /* \"#utility.yul\":838:917   */\n      tag_107\n      tag_53\n      jump\t// in\n    tag_107:\n        /* \"#utility.yul\":800:919   */\n    tag_106:\n        /* \"#utility.yul\":958:959   */\n      0x00\n        /* \"#utility.yul\":983:1036   */\n      tag_108\n        /* \"#utility.yul\":1028:1035   */\n      dup7\n        /* \"#utility.yul\":1019:1025   */\n      dup3\n        /* \"#utility.yul\":1008:1017   */\n      dup8\n        /* \"#utility.yul\":1004:1026   */\n      add\n        /* \"#utility.yul\":983:1036   */\n      tag_57\n      jump\t// in\n    tag_108:\n        /* \"#utility.yul\":973:1036   */\n      swap4\n      pop\n        /* \"#utility.yul\":929:1046   */\n      pop\n        /* \"#utility.yul\":1085:1087   */\n      0x20\n        /* \"#utility.yul\":1111:1164   */\n      tag_109\n        /* \"#utility.yul\":1156:1163   */\n      dup7\n        /* \"#utility.yul\":1147:1153   */\n      dup3\n        /* \"#utility.yul\":1136:1145   */\n      dup8\n        /* \"#utility.yul\":1132:1154   */\n      add\n        /* \"#utility.yul\":1111:1164   */\n      tag_57\n      jump\t// in\n    tag_109:\n        /* \"#utility.yul\":1101:1164   */\n      swap3\n      pop\n        /* \"#utility.yul\":1056:1174   */\n      pop\n        /* \"#utility.yul\":1213:1215   */\n      0x40\n        /* \"#utility.yul\":1239:1292   */\n      tag_110\n        /* \"#utility.yul\":1284:1291   */\n      dup7\n        /* \"#utility.yul\":1275:1281   */\n      dup3\n        /* \"#utility.yul\":1264:1273   */\n      dup8\n        /* \"#utility.yul\":1260:1282   */\n      add\n        /* \"#utility.yul\":1239:1292   */\n      tag_57\n      jump\t// in\n    tag_110:\n        /* \"#utility.yul\":1229:1292   */\n      swap2\n      pop\n        /* \"#utility.yul\":1184:1302   */\n      pop\n        /* \"#utility.yul\":690:1309   */\n      swap3\n      pop\n      swap3\n      pop\n      swap3\n      jump\t// out\n        /* \"#utility.yul\":1315:1433   */\n    tag_58:\n        /* \"#utility.yul\":1402:1426   */\n      tag_112\n        /* \"#utility.yul\":1420:1425   */\n      dup2\n        /* \"#utility.yul\":1402:1426   */\n      tag_55\n      jump\t// in\n    tag_112:\n        /* \"#utility.yul\":1397:1400   */\n      dup3\n        /* \"#utility.yul\":1390:1427   */\n      mstore\n        /* \"#utility.yul\":1315:1433   */\n      pop\n      pop\n      jump\t// out\n        /* \"#utility.yul\":1439:1661   */\n    tag_11:\n        /* \"#utility.yul\":1532:1536   */\n      0x00\n        /* \"#utility.yul\":1570:1572   */\n      0x20\n        /* \"#utility.yul\":1559:1568   */\n      dup3\n        /* \"#utility.yul\":1555:1573   */\n      add\n        /* \"#utility.yul\":1547:1573   */\n      swap1\n      pop\n        /* \"#utility.yul\":1583:1654   */\n      tag_114\n        /* \"#utility.yul\":1651:1652   */\n      0x00\n        /* \"#utility.yul\":1640:1649   */\n      dup4\n        /* \"#utility.yul\":1636:1653   */\n      add\n        /* \"#utility.yul\":1627:1633   */\n      dup5\n        /* \"#utility.yul\":1583:1654   */\n      tag_58\n      jump\t// in\n    tag_114:\n        /* \"#utility.yul\":1439:1661   */\n      swap3\n      swap2\n      pop\n      pop\n      jump\t// out\n        /* \"#utility.yul\":1667:1784   */\n    tag_59:\n        /* \"#utility.yul\":1776:1777   */\n      0x00\n        /* \"#utility.yul\":1773:1774   */\n      dup1\n        /* \"#utility.yul\":1766:1778   */\n      revert\n        /* \"#utility.yul\":1790:1907   */\n    tag_60:\n        /* \"#utility.yul\":1899:1900   */\n      0x00\n        /* \"#utility.yul\":1896:1897   */\n      dup1\n        /* \"#utility.yul\":1889:1901   */\n      revert\n        /* \"#utility.yul\":1913:2015   */\n    tag_61:\n        /* \"#utility.yul\":1954:1960   */\n      0x00\n        /* \"#utility.yul\":2005:2007   */\n      0x1f\n        /* \"#utility.yul\":2001:2008   */\n      not\n        /* \"#utility.yul\":1996:1998   */\n      0x1f\n        /* \"#utility.yul\":1989:1994   */\n      dup4\n        /* \"#utility.yul\":1985:1999   */\n      add\n        /* \"#utility.yul\":1981:2009   */\n      and\n        /* \"#utility.yul\":1971:2009   */\n      swap1\n      pop\n        /* \"#utility.yul\":1913:2015   */\n      swap2\n      swap1\n      pop\n      jump\t// out\n        /* \"#utility.yul\":2021:2201   */\n    tag_62:\n        /* \"#utility.yul\":2069:2146   */\n      0x4e487b7100000000000000000000000000000000000000000000000000000000\n        /* \"#utility.yul\":2066:2067   */\n      0x00\n        /* \"#utility.yul\":2059:2147   */\n      mstore\n        /* \"#utility.yul\":2166:2170   */\n      0x41\n        /* \"#utility.yul\":2163:2164   */\n      0x04\n        /* \"#utility.yul\":2156:2171   */\n      mstore\n        /* \"#utility.yul\":2190:2194   */\n      0x24\n        /* \"#utility.yul\":2187:2188   */\n      0x00\n        /* \"#utility.yul\":2180:2195   */\n      revert\n        /* \"#utility.yul\":2207:2488   */\n    tag_63:\n        /* \"#utility.yul\":2290:2317   */\n      tag_120\n        /* \"#utility.yul\":2312:2316   */\n      dup3\n        /* \"#utility.yul\":2290:2317   */\n      tag_61\n      jump\t// in\n    tag_120:\n        /* \"#utility.yul\":2282:2288   */\n      dup2\n        /* \"#utility.yul\":2278:2318   */\n      add\n        /* \"#utility.yul\":2420:2426   */\n      dup2\n        /* \"#utility.yul\":2408:2418   */\n      dup2\n        /* \"#utility.yul\":2405:2427   */\n      lt\n        /* \"#utility.yul\":2384:2402   */\n      0xffffffffffffffff\n        /* \"#utility.yul\":2372:2382   */\n      dup3\n        /* \"#utility.yul\":2369:2403   */\n      gt\n        /* \"#utility.yul\":2366:2428   */\n      or\n        /* \"#utility.yul\":2363:2451   */\n      iszero\n      tag_121\n      jumpi\n        /* \"#utility.yul\":2431:2449   */\n      tag_122\n      tag_62\n      jump\t// in\n    tag_122:\n        /* \"#utility.yul\":2363:2451   */\n    tag_121:\n        /* \"#utility.yul\":2471:2481   */\n      dup1\n        /* \"#utility.yul\":2467:2469   */\n      0x40\n        /* \"#utility.yul\":2460:2482   */\n      mstore\n        /* \"#utility.yul\":2250:2488   */\n      pop\n        /* \"#utility.yul\":2207:2488   */\n      pop\n      pop\n      jump\t// out\n        /* \"#utility.yul\":2494:2623   */\n    tag_64:\n        /* \"#utility.yul\":2528:2534   */\n      0x00\n        /* \"#utility.yul\":2555:2575   */\n      tag_124\n      tag_52\n      jump\t// in\n    tag_124:\n        /* \"#utility.yul\":2545:2575   */\n      swap1\n      pop\n        /* \"#utility.yul\":2584:2617   */\n      tag_125\n        /* \"#utility.yul\":2612:2616   */\n      dup3\n        /* \"#utility.yul\":2604:2610   */\n      dup3\n        /* \"#utility.yul\":2584:2617   */\n      tag_63\n      jump\t// in\n    tag_125:\n        /* \"#utility.yul\":2494:2623   */\n      swap2\n      swap1\n      pop\n      jump\t// out\n        /* \"#utility.yul\":2629:2937   */\n    tag_65:\n        /* \"#utility.yul\":2691:2695   */\n      0x00\n        /* \"#utility.yul\":2781:2799   */\n      0xffffffffffffffff\n        /* \"#utility.yul\":2773:2779   */\n      dup3\n        /* \"#utility.yul\":2770:2800   */\n      gt\n        /* \"#utility.yul\":2767:2823   */\n      iszero\n      tag_127\n      jumpi\n        /* \"#utility.yul\":2803:2821   */\n      tag_128\n      tag_62\n      jump\t// in\n    tag_128:\n        /* \"#utility.yul\":2767:2823   */\n    tag_127:\n        /* \"#utility.yul\":2841:2870   */\n      tag_129\n        /* \"#utility.yul\":2863:2869   */\n      dup3\n        /* \"#utility.yul\":2841:2870   */\n      tag_61\n      jump\t// in\n    tag_129:\n        /* \"#utility.yul\":2833:2870   */\n      swap1\n      pop\n        /* \"#utility.yul\":2925:2929   */\n      0x20\n        /* \"#utility.yul\":2919:2923   */\n      dup2\n        /* \"#utility.yul\":2915:2930   */\n      add\n        /* \"#utility.yul\":2907:2930   */\n      swap1\n      pop\n        /* \"#utility.yul\":2629:2937   */\n      swap2\n      swap1\n      pop\n      jump\t// out\n        /* \"#utility.yul\":2943:3089   */\n    tag_66:\n        /* \"#utility.yul\":3040:3046   */\n      dup3\n        /* \"#utility.yul\":3035:3038   */\n      dup2\n        /* \"#utility.yul\":3030:3033   */\n      dup4\n        /* \"#utility.yul\":3017:3047   */\n      calldatacopy\n        /* \"#utility.yul\":3081:3082   */\n      0x00\n        /* \"#utility.yul\":3072:3078   */\n      dup4\n        /* \"#utility.yul\":3067:3070   */\n      dup4\n        /* \"#utility.yul\":3063:3079   */\n      add\n        /* \"#utility.yul\":3056:3083   */\n      mstore\n        /* \"#utility.yul\":2943:3089   */\n      pop\n      pop\n      pop\n      jump\t// out\n        /* \"#utility.yul\":3095:3520   */\n    tag_67:\n        /* \"#utility.yul\":3173:3178   */\n      0x00\n        /* \"#utility.yul\":3198:3264   */\n      tag_132\n        /* \"#utility.yul\":3214:3263   */\n      tag_133\n        /* \"#utility.yul\":3256:3262   */\n      dup5\n        /* \"#utility.yul\":3214:3263   */\n      tag_65\n      jump\t// in\n    tag_133:\n        /* \"#utility.yul\":3198:3264   */\n      tag_64\n      jump\t// in\n    tag_132:\n        /* \"#utility.yul\":3189:3264   */\n      swap1\n      pop\n        /* \"#utility.yul\":3287:3293   */\n      dup3\n        /* \"#utility.yul\":3280:3285   */\n      dup2\n        /* \"#utility.yul\":3273:3294   */\n      mstore\n        /* \"#utility.yul\":3325:3329   */\n      0x20\n        /* \"#utility.yul\":3318:3323   */\n      dup2\n        /* \"#utility.yul\":3314:3330   */\n      add\n        /* \"#utility.yul\":3363:3366   */\n      dup5\n        /* \"#utility.yul\":3354:3360   */\n      dup5\n        /* \"#utility.yul\":3349:3352   */\n      dup5\n        /* \"#utility.yul\":3345:3361   */\n      add\n        /* \"#utility.yul\":3342:3367   */\n      gt\n        /* \"#utility.yul\":3339:3451   */\n      iszero\n      tag_134\n      jumpi\n        /* \"#utility.yul\":3370:3449   */\n      tag_135\n      tag_60\n      jump\t// in\n    tag_135:\n        /* \"#utility.yul\":3339:3451   */\n    tag_134:\n        /* \"#utility.yul\":3460:3514   */\n      tag_136\n        /* \"#utility.yul\":3507:3513   */\n      dup5\n        /* \"#utility.yul\":3502:3505   */\n      dup3\n        /* \"#utility.yul\":3497:3500   */\n      dup6\n        /* \"#utility.yul\":3460:3514   */\n      tag_66\n      jump\t// in\n    tag_136:\n        /* \"#utility.yul\":3179:3520   */\n      pop\n        /* \"#utility.yul\":3095:3520   */\n      swap4\n      swap3\n      pop\n      pop\n      pop\n      jump\t// out\n        /* \"#utility.yul\":3540:3880   */\n    tag_68:\n        /* \"#utility.yul\":3596:3601   */\n      0x00\n        /* \"#utility.yul\":3645:3648   */\n      dup3\n        /* \"#utility.yul\":3638:3642   */\n      0x1f\n        /* \"#utility.yul\":3630:3636   */\n      dup4\n        /* \"#utility.yul\":3626:3643   */\n      add\n        /* \"#utility.yul\":3622:3649   */\n      slt\n        /* \"#utility.yul\":3612:3734   */\n      tag_138\n      jumpi\n        /* \"#utility.yul\":3653:3732   */\n      tag_139\n      tag_59\n      jump\t// in\n    tag_139:\n        /* \"#utility.yul\":3612:3734   */\n    tag_138:\n        /* \"#utility.yul\":3770:3776   */\n      dup2\n        /* \"#utility.yul\":3757:3777   */\n      calldataload\n        /* \"#utility.yul\":3795:3874   */\n      tag_140\n        /* \"#utility.yul\":3870:3873   */\n      dup5\n        /* \"#utility.yul\":3862:3868   */\n      dup3\n        /* \"#utility.yul\":3855:3859   */\n      0x20\n        /* \"#utility.yul\":3847:3853   */\n      dup7\n        /* \"#utility.yul\":3843:3860   */\n      add\n        /* \"#utility.yul\":3795:3874   */\n      tag_67\n      jump\t// in\n    tag_140:\n        /* \"#utility.yul\":3786:3874   */\n      swap2\n      pop\n        /* \"#utility.yul\":3602:3880   */\n      pop\n        /* \"#utility.yul\":3540:3880   */\n      swap3\n      swap2\n      pop\n      pop\n      jump\t// out\n        /* \"#utility.yul\":3886:5371   */\n    tag_14:\n        /* \"#utility.yul\":4012:4018   */\n      0x00\n        /* \"#utility.yul\":4020:4026   */\n      dup1\n        /* \"#utility.yul\":4028:4034   */\n      0x00\n        /* \"#utility.yul\":4036:4042   */\n      dup1\n        /* \"#utility.yul\":4085:4088   */\n      0x80\n        /* \"#utility.yul\":4073:4082   */\n      dup6\n        /* \"#utility.yul\":4064:4071   */\n      dup8\n        /* \"#utility.yul\":4060:4083   */\n      sub\n        /* \"#utility.yul\":4056:4089   */\n      slt\n        /* \"#utility.yul\":4053:4173   */\n      iszero\n      tag_142\n      jumpi\n        /* \"#utility.yul\":4092:4171   */\n      tag_143\n      tag_53\n      jump\t// in\n    tag_143:\n        /* \"#utility.yul\":4053:4173   */\n    tag_142:\n        /* \"#utility.yul\":4240:4241   */\n      0x00\n        /* \"#utility.yul\":4229:4238   */\n      dup6\n        /* \"#utility.yul\":4225:4242   */\n      add\n        /* \"#utility.yul\":4212:4243   */\n      calldataload\n        /* \"#utility.yul\":4270:4288   */\n      0xffffffffffffffff\n        /* \"#utility.yul\":4262:4268   */\n      dup2\n        /* \"#utility.yul\":4259:4289   */\n      gt\n        /* \"#utility.yul\":4256:4373   */\n      iszero\n      tag_144\n      jumpi\n        /* \"#utility.yul\":4292:4371   */\n      tag_145\n      tag_54\n      jump\t// in\n    tag_145:\n        /* \"#utility.yul\":4256:4373   */\n    tag_144:\n        /* \"#utility.yul\":4397:4460   */\n      tag_146\n        /* \"#utility.yul\":4452:4459   */\n      dup8\n        /* \"#utility.yul\":4443:4449   */\n      dup3\n        /* \"#utility.yul\":4432:4441   */\n      dup9\n        /* \"#utility.yul\":4428:4450   */\n      add\n        /* \"#utility.yul\":4397:4460   */\n      tag_68\n      jump\t// in\n    tag_146:\n        /* \"#utility.yul\":4387:4460   */\n      swap5\n      pop\n        /* \"#utility.yul\":4183:4470   */\n      pop\n        /* \"#utility.yul\":4537:4539   */\n      0x20\n        /* \"#utility.yul\":4526:4535   */\n      dup6\n        /* \"#utility.yul\":4522:4540   */\n      add\n        /* \"#utility.yul\":4509:4541   */\n      calldataload\n        /* \"#utility.yul\":4568:4586   */\n      0xffffffffffffffff\n        /* \"#utility.yul\":4560:4566   */\n      dup2\n        /* \"#utility.yul\":4557:4587   */\n      gt\n        /* \"#utility.yul\":4554:4671   */\n      iszero\n      tag_147\n      jumpi\n        /* \"#utility.yul\":4590:4669   */\n      tag_148\n      tag_54\n      jump\t// in\n    tag_148:\n        /* \"#utility.yul\":4554:4671   */\n    tag_147:\n        /* \"#utility.yul\":4695:4758   */\n      tag_149\n        /* \"#utility.yul\":4750:4757   */\n      dup8\n        /* \"#utility.yul\":4741:4747   */\n      dup3\n        /* \"#utility.yul\":4730:4739   */\n      dup9\n        /* \"#utility.yul\":4726:4748   */\n      add\n        /* \"#utility.yul\":4695:4758   */\n      tag_68\n      jump\t// in\n    tag_149:\n        /* \"#utility.yul\":4685:4758   */\n      swap4\n      pop\n        /* \"#utility.yul\":4480:4768   */\n      pop\n        /* \"#utility.yul\":4835:4837   */\n      0x40\n        /* \"#utility.yul\":4824:4833   */\n      dup6\n        /* \"#utility.yul\":4820:4838   */\n      add\n        /* \"#utility.yul\":4807:4839   */\n      calldataload\n        /* \"#utility.yul\":4866:4884   */\n      0xffffffffffffffff\n        /* \"#utility.yul\":4858:4864   */\n      dup2\n        /* \"#utility.yul\":4855:4885   */\n      gt\n        /* \"#utility.yul\":4852:4969   */\n      iszero\n      tag_150\n      jumpi\n        /* \"#utility.yul\":4888:4967   */\n      tag_151\n      tag_54\n      jump\t// in\n    tag_151:\n        /* \"#utility.yul\":4852:4969   */\n    tag_150:\n        /* \"#utility.yul\":4993:5056   */\n      tag_152\n        /* \"#utility.yul\":5048:5055   */\n      dup8\n        /* \"#utility.yul\":5039:5045   */\n      dup3\n        /* \"#utility.yul\":5028:5037   */\n      dup9\n        /* \"#utility.yul\":5024:5046   */\n      add\n        /* \"#utility.yul\":4993:5056   */\n      tag_68\n      jump\t// in\n    tag_152:\n        /* \"#utility.yul\":4983:5056   */\n      swap3\n      pop\n        /* \"#utility.yul\":4778:5066   */\n      pop\n        /* \"#utility.yul\":5133:5135   */\n      0x60\n        /* \"#utility.yul\":5122:5131   */\n      dup6\n        /* \"#utility.yul\":5118:5136   */\n      add\n        /* \"#utility.yul\":5105:5137   */\n      calldataload\n        /* \"#utility.yul\":5164:5182   */\n      0xffffffffffffffff\n        /* \"#utility.yul\":5156:5162   */\n      dup2\n        /* \"#utility.yul\":5153:5183   */\n      gt\n        /* \"#utility.yul\":5150:5267   */\n      iszero\n      tag_153\n      jumpi\n        /* \"#utility.yul\":5186:5265   */\n      tag_154\n      tag_54\n      jump\t// in\n    tag_154:\n        /* \"#utility.yul\":5150:5267   */\n    tag_153:\n        /* \"#utility.yul\":5291:5354   */\n      tag_155\n        /* \"#utility.yul\":5346:5353   */\n      dup8\n        /* \"#utility.yul\":5337:5343   */\n      dup3\n        /* \"#utility.yul\":5326:5335   */\n      dup9\n        /* \"#utility.yul\":5322:5344   */\n      add\n        /* \"#utility.yul\":5291:5354   */\n      tag_68\n      jump\t// in\n    tag_155:\n        /* \"#utility.yul\":5281:5354   */\n      swap2\n      pop\n        /* \"#utility.yul\":5076:5364   */\n      pop\n        /* \"#utility.yul\":3886:5371   */\n      swap3\n      swap6\n      swap2\n      swap5\n      pop\n      swap3\n      pop\n      jump\t// out\n        /* \"#utility.yul\":5377:5557   */\n    tag_69:\n        /* \"#utility.yul\":5425:5502   */\n      0x4e487b7100000000000000000000000000000000000000000000000000000000\n        /* \"#utility.yul\":5422:5423   */\n      0x00\n        /* \"#utility.yul\":5415:5503   */\n      mstore\n        /* \"#utility.yul\":5522:5526   */\n      0x12\n        /* \"#utility.yul\":5519:5520   */\n      0x04\n        /* \"#utility.yul\":5512:5527   */\n      mstore\n        /* \"#utility.yul\":5546:5550   */\n      0x24\n        /* \"#utility.yul\":5543:5544   */\n      0x00\n        /* \"#utility.yul\":5536:5551   */\n      revert\n        /* \"#utility.yul\":5563:5743   */\n    tag_70:\n        /* \"#utility.yul\":5611:5688   */\n      0x4e487b7100000000000000000000000000000000000000000000000000000000\n        /* \"#utility.yul\":5608:5609   */\n      0x00\n        /* \"#utility.yul\":5601:5689   */\n      mstore\n        /* \"#utility.yul\":5708:5712   */\n      0x11\n        /* \"#utility.yul\":5705:5706   */\n      0x04\n        /* \"#utility.yul\":5698:5713   */\n      mstore\n        /* \"#utility.yul\":5732:5736   */\n      0x24\n        /* \"#utility.yul\":5729:5730   */\n      0x00\n        /* \"#utility.yul\":5722:5737   */\n      revert\n        /* \"#utility.yul\":5749:5934   */\n    tag_24:\n        /* \"#utility.yul\":5789:5790   */\n      0x00\n        /* \"#utility.yul\":5806:5826   */\n      tag_159\n        /* \"#utility.yul\":5824:5825   */\n      dup3\n        /* \"#utility.yul\":5806:5826   */\n      tag_55\n      jump\t// in\n    tag_159:\n        /* \"#utility.yul\":5801:5826   */\n      swap2\n      pop\n        /* \"#utility.yul\":5840:5860   */\n      tag_160\n        /* \"#utility.yul\":5858:5859   */\n      dup4\n        /* \"#utility.yul\":5840:5860   */\n      tag_55\n      jump\t// in\n    tag_160:\n        /* \"#utility.yul\":5835:5860   */\n      swap3\n      pop\n        /* \"#utility.yul\":5879:5880   */\n      dup3\n        /* \"#utility.yul\":5869:5904   */\n      tag_161\n      jumpi\n        /* \"#utility.yul\":5884:5902   */\n      tag_162\n      tag_69\n      jump\t// in\n    tag_162:\n        /* \"#utility.yul\":5869:5904   */\n    tag_161:\n        /* \"#utility.yul\":5926:5927   */\n      dup3\n        /* \"#utility.yul\":5923:5924   */\n      dup3\n        /* \"#utility.yul\":5919:5928   */\n      div\n        /* \"#utility.yul\":5914:5928   */\n      swap1\n      pop\n        /* \"#utility.yul\":5749:5934   */\n      swap3\n      swap2\n      pop\n      pop\n      jump\t// out\n        /* \"#utility.yul\":5940:6350   */\n    tag_26:\n        /* \"#utility.yul\":5980:5987   */\n      0x00\n        /* \"#utility.yul\":6003:6023   */\n      tag_164\n        /* \"#utility.yul\":6021:6022   */\n      dup3\n        /* \"#utility.yul\":6003:6023   */\n      tag_55\n      jump\t// in\n    tag_164:\n        /* \"#utility.yul\":5998:6023   */\n      swap2\n      pop\n        /* \"#utility.yul\":6037:6057   */\n      tag_165\n        /* \"#utility.yul\":6055:6056   */\n      dup4\n        /* \"#utility.yul\":6037:6057   */\n      tag_55\n      jump\t// in\n    tag_165:\n        /* \"#utility.yul\":6032:6057   */\n      swap3\n      pop\n        /* \"#utility.yul\":6092:6093   */\n      dup3\n        /* \"#utility.yul\":6089:6090   */\n      dup3\n        /* \"#utility.yul\":6085:6094   */\n      mul\n        /* \"#utility.yul\":6114:6144   */\n      tag_166\n        /* \"#utility.yul\":6132:6143   */\n      dup2\n        /* \"#utility.yul\":6114:6144   */\n      tag_55\n      jump\t// in\n    tag_166:\n        /* \"#utility.yul\":6103:6144   */\n      swap2\n      pop\n        /* \"#utility.yul\":6293:6294   */\n      dup3\n        /* \"#utility.yul\":6284:6291   */\n      dup3\n        /* \"#utility.yul\":6280:6295   */\n      div\n        /* \"#utility.yul\":6277:6278   */\n      dup5\n        /* \"#utility.yul\":6274:6296   */\n      eq\n        /* \"#utility.yul\":6254:6255   */\n      dup4\n        /* \"#utility.yul\":6247:6256   */\n      iszero\n        /* \"#utility.yul\":6227:6310   */\n      or\n        /* \"#utility.yul\":6204:6343   */\n      tag_167\n      jumpi\n        /* \"#utility.yul\":6323:6341   */\n      tag_168\n      tag_70\n      jump\t// in\n    tag_168:\n        /* \"#utility.yul\":6204:6343   */\n    tag_167:\n        /* \"#utility.yul\":5988:6350   */\n      pop\n        /* \"#utility.yul\":5940:6350   */\n      swap3\n      swap2\n      pop\n      pop\n      jump\t// out\n        /* \"#utility.yul\":6356:6455   */\n    tag_71:\n        /* \"#utility.yul\":6408:6414   */\n      0x00\n        /* \"#utility.yul\":6442:6447   */\n      dup2\n        /* \"#utility.yul\":6436:6448   */\n      mload\n        /* \"#utility.yul\":6426:6448   */\n      swap1\n      pop\n        /* \"#utility.yul\":6356:6455   */\n      swap2\n      swap1\n      pop\n      jump\t// out\n        /* \"#utility.yul\":6461:6641   */\n    tag_72:\n        /* \"#utility.yul\":6509:6586   */\n      0x4e487b7100000000000000000000000000000000000000000000000000000000\n        /* \"#utility.yul\":6506:6507   */\n      0x00\n        /* \"#utility.yul\":6499:6587   */\n      mstore\n        /* \"#utility.yul\":6606:6610   */\n      0x22\n        /* \"#utility.yul\":6603:6604   */\n      0x04\n        /* \"#utility.yul\":6596:6611   */\n      mstore\n        /* \"#utility.yul\":6630:6634   */\n      0x24\n        /* \"#utility.yul\":6627:6628   */\n      0x00\n        /* \"#utility.yul\":6620:6635   */\n      revert\n        /* \"#utility.yul\":6647:6967   */\n    tag_73:\n        /* \"#utility.yul\":6691:6697   */\n      0x00\n        /* \"#utility.yul\":6728:6729   */\n      0x02\n        /* \"#utility.yul\":6722:6726   */\n      dup3\n        /* \"#utility.yul\":6718:6730   */\n      div\n        /* \"#utility.yul\":6708:6730   */\n      swap1\n      pop\n        /* \"#utility.yul\":6775:6776   */\n      0x01\n        /* \"#utility.yul\":6769:6773   */\n      dup3\n        /* \"#utility.yul\":6765:6777   */\n      and\n        /* \"#utility.yul\":6796:6814   */\n      dup1\n        /* \"#utility.yul\":6786:6867   */\n      tag_172\n      jumpi\n        /* \"#utility.yul\":6852:6856   */\n      0x7f\n        /* \"#utility.yul\":6844:6850   */\n      dup3\n        /* \"#utility.yul\":6840:6857   */\n      and\n        /* \"#utility.yul\":6830:6857   */\n      swap2\n      pop\n        /* \"#utility.yul\":6786:6867   */\n    tag_172:\n        /* \"#utility.yul\":6914:6916   */\n      0x20\n        /* \"#utility.yul\":6906:6912   */\n      dup3\n        /* \"#utility.yul\":6903:6917   */\n      lt\n        /* \"#utility.yul\":6883:6901   */\n      dup2\n        /* \"#utility.yul\":6880:6918   */\n      sub\n        /* \"#utility.yul\":6877:6961   */\n      tag_173\n      jumpi\n        /* \"#utility.yul\":6933:6951   */\n      tag_174\n      tag_72\n      jump\t// in\n    tag_174:\n        /* \"#utility.yul\":6877:6961   */\n    tag_173:\n        /* \"#utility.yul\":6698:6967   */\n      pop\n        /* \"#utility.yul\":6647:6967   */\n      swap2\n      swap1\n      pop\n      jump\t// out\n        /* \"#utility.yul\":6973:7114   */\n    tag_74:\n        /* \"#utility.yul\":7022:7026   */\n      0x00\n        /* \"#utility.yul\":7045:7048   */\n      dup2\n        /* \"#utility.yul\":7037:7048   */\n      swap1\n      pop\n        /* \"#utility.yul\":7068:7071   */\n      dup2\n        /* \"#utility.yul\":7065:7066   */\n      0x00\n        /* \"#utility.yul\":7058:7072   */\n      mstore\n        /* \"#utility.yul\":7102:7106   */\n      0x20\n        /* \"#utility.yul\":7099:7100   */\n      0x00\n        /* \"#utility.yul\":7089:7107   */\n      keccak256\n        /* \"#utility.yul\":7081:7107   */\n      swap1\n      pop\n        /* \"#utility.yul\":6973:7114   */\n      swap2\n      swap1\n      pop\n      jump\t// out\n        /* \"#utility.yul\":7120:7213   */\n    tag_75:\n        /* \"#utility.yul\":7157:7163   */\n      0x00\n        /* \"#utility.yul\":7204:7206   */\n      0x20\n        /* \"#utility.yul\":7199:7201   */\n      0x1f\n        /* \"#utility.yul\":7192:7197   */\n      dup4\n        /* \"#utility.yul\":7188:7202   */\n      add\n        /* \"#utility.yul\":7184:7207   */\n      div\n        /* \"#utility.yul\":7174:7207   */\n      swap1\n      pop\n        /* \"#utility.yul\":7120:7213   */\n      swap2\n      swap1\n      pop\n      jump\t// out\n        /* \"#utility.yul\":7219:7326   */\n    tag_76:\n        /* \"#utility.yul\":7263:7271   */\n      0x00\n        /* \"#utility.yul\":7313:7318   */\n      dup3\n        /* \"#utility.yul\":7307:7311   */\n      dup3\n        /* \"#utility.yul\":7303:7319   */\n      shl\n        /* \"#utility.yul\":7282:7319   */\n      swap1\n      pop\n        /* \"#utility.yul\":7219:7326   */\n      swap3\n      swap2\n      pop\n      pop\n      jump\t// out\n        /* \"#utility.yul\":7332:7725   */\n    tag_77:\n        /* \"#utility.yul\":7401:7407   */\n      0x00\n        /* \"#utility.yul\":7451:7452   */\n      0x08\n        /* \"#utility.yul\":7439:7449   */\n      dup4\n        /* \"#utility.yul\":7435:7453   */\n      mul\n        /* \"#utility.yul\":7474:7571   */\n      tag_179\n        /* \"#utility.yul\":7504:7570   */\n      0xffffffffffffffffffffffffffffffffffffffffffffffffffffffffffffffff\n        /* \"#utility.yul\":7493:7502   */\n      dup3\n        /* \"#utility.yul\":7474:7571   */\n      tag_76\n      jump\t// in\n    tag_179:\n        /* \"#utility.yul\":7592:7631   */\n      tag_180\n        /* \"#utility.yul\":7622:7630   */\n      dup7\n        /* \"#utility.yul\":7611:7620   */\n      dup4\n        /* \"#utility.yul\":7592:7631   */\n      tag_76\n      jump\t// in\n    tag_180:\n        /* \"#utility.yul\":7580:7631   */\n      swap6\n      pop\n        /* \"#utility.yul\":7664:7668   */\n      dup1\n        /* \"#utility.yul\":7660:7669   */\n      not\n        /* \"#utility.yul\":7653:7658   */\n      dup5\n        /* \"#utility.yul\":7649:7670   */\n      and\n        /* \"#utility.yul\":7640:7670   */\n      swap4\n      pop\n        /* \"#utility.yul\":7713:7717   */\n      dup1\n        /* \"#utility.yul\":7703:7711   */\n      dup7\n        /* \"#utility.yul\":7699:7718   */\n      and\n        /* \"#utility.yul\":7692:7697   */\n      dup5\n        /* \"#utility.yul\":7689:7719   */\n      or\n        /* \"#utility.yul\":7679:7719   */\n      swap3\n      pop\n        /* \"#utility.yul\":7408:7725   */\n      pop\n      pop\n        /* \"#utility.yul\":7332:7725   */\n      swap4\n      swap3\n      pop\n      pop\n      pop\n      jump\t// out\n        /* \"#utility.yul\":7731:7791   */\n    tag_78:\n        /* \"#utility.yul\":7759:7762   */\n      0x00\n        /* \"#utility.yul\":7780:7785   */\n      dup2\n        /* \"#utility.yul\":7773:7785   */\n      swap1\n      pop\n        /* \"#utility.yul\":7731:7791   */\n      swap2\n      swap1\n      pop\n      jump\t// out\n        /* \"#utility.yul\":7797:7939   */\n    tag_79:\n        /* \"#utility.yul\":7847:7856   */\n      0x00\n        /* \"#utility.yul\":7880:7933   */\n      tag_183\n        /* \"#utility.yul\":7898:7932   */\n      tag_184\n        /* \"#utility.yul\":7907:7931   */\n      tag_185\n        /* \"#utility.yul\":7925:7930   */\n      dup5\n        /* \"#utility.yul\":7907:7931   */\n      tag_55\n      jump\t// in\n    tag_185:\n        /* \"#utility.yul\":7898:7932   */\n      tag_78\n      jump\t// in\n    tag_184:\n        /* \"#utility.yul\":7880:7933   */\n      tag_55\n      jump\t// in\n    tag_183:\n        /* \"#utility.yul\":7867:7933   */\n      swap1\n      pop\n        /* \"#utility.yul\":7797:7939   */\n      swap2\n      swap1\n      pop\n      jump\t// out\n        /* \"#utility.yul\":7945:8020   */\n    tag_80:\n        /* \"#utility.yul\":7988:7991   */\n      0x00\n        /* \"#utility.yul\":8009:8014   */\n      dup2\n        /* \"#utility.yul\":8002:8014   */\n      swap1\n      pop\n        /* \"#utility.yul\":7945:8020   */\n      swap2\n      swap1\n      pop\n      jump\t// out\n        /* \"#utility.yul\":8026:8295   */\n    tag_81:\n        /* \"#utility.yul\":8136:8175   */\n      tag_188\n        /* \"#utility.yul\":8167:8174   */\n      dup4\n        /* \"#utility.yul\":8136:8175   */\n      tag_79\n      jump\t// in\n    tag_188:\n        /* \"#utility.yul\":8197:8288   */\n      tag_189\n        /* \"#utility.yul\":8246:8287   */\n      tag_190\n        /* \"#utility.yul\":8270:8286   */\n      dup3\n        /* \"#utility.yul\":8246:8287   */\n      tag_80\n      jump\t// in\n    tag_190:\n        /* \"#utility.yul\":8238:8244   */\n      dup5\n        /* \"#utility.yul\":8231:8235   */\n      dup5\n        /* \"#utility.yul\":8225:8236   */\n      sload\n        /* \"#utility.yul\":8197:8288   */\n      tag_77\n      jump\t// in\n    tag_189:\n        /* \"#utility.yul\":8191:8195   */\n      dup3\n        /* \"#utility.yul\":8184:8289   */\n      sstore\n        /* \"#utility.yul\":8102:8295   */\n      pop\n        /* \"#utility.yul\":8026:8295   */\n      pop\n      pop\n      pop\n      jump\t// out\n        /* \"#utility.yul\":8301:8374   */\n    tag_82:\n        /* \"#utility.yul\":8346:8349   */\n      0x00\n        /* \"#utility.yul\":8301:8374   */\n      swap1\n      jump\t// out\n        /* \"#utility.yul\":8380:8569   */\n    tag_83:\n        /* \"#utility.yul\":8457:8489   */\n      tag_193\n      tag_82\n      jump\t// in\n    tag_193:\n        /* \"#utility.yul\":8498:8563   */\n      tag_194\n        /* \"#utility.yul\":8556:8562   */\n      dup2\n        /* \"#utility.yul\":8548:8554   */\n      dup5\n        /* \"#utility.yul\":8542:8546   */\n      dup5\n        /* \"#utility.yul\":8498:8563   */\n      tag_81\n      jump\t// in\n    tag_194:\n        /* \"#utility.yul\":8433:8569   */\n      pop\n        /* \"#utility.yul\":8380:8569   */\n      pop\n      pop\n      jump\t// out\n        /* \"#utility.yul\":8575:8761   */\n    tag_84:\n        /* \"#utility.yul\":8635:8755   */\n    tag_196:\n        /* \"#utility.yul\":8652:8655   */\n      dup2\n        /* \"#utility.yul\":8645:8650   */\n      dup2\n        /* \"#utility.yul\":8642:8656   */\n      lt\n        /* \"#utility.yul\":8635:8755   */\n      iszero\n      tag_198\n      jumpi\n        /* \"#utility.yul\":8706:8745   */\n      tag_199\n        /* \"#utility.yul\":8743:8744   */\n      0x00\n        /* \"#utility.yul\":8736:8741   */\n      dup3\n        /* \"#utility.yul\":8706:8745   */\n      tag_83\n      jump\t// in\n    tag_199:\n        /* \"#utility.yul\":8679:8680   */\n      0x01\n        /* \"#utility.yul\":8672:8677   */\n      dup2\n        /* \"#utility.yul\":8668:8681   */\n      add\n        /* \"#utility.yul\":8659:8681   */\n      swap1\n      pop\n        /* \"#utility.yul\":8635:8755   */\n      jump(tag_196)\n    tag_198:\n        /* \"#utility.yul\":8575:8761   */\n      pop\n      pop\n      jump\t// out\n        /* \"#utility.yul\":8767:9310   */\n    tag_85:\n        /* \"#utility.yul\":8868:8870   */\n      0x1f\n        /* \"#utility.yul\":8863:8866   */\n      dup3\n        /* \"#utility.yul\":8860:8871   */\n      gt\n        /* \"#utility.yul\":8857:9303   */\n      iszero\n      tag_201\n      jumpi\n        /* \"#utility.yul\":8902:8940   */\n      tag_202\n        /* \"#utility.yul\":8934:8939   */\n      dup2\n        /* \"#utility.yul\":8902:8940   */\n      tag_74\n      jump\t// in\n    tag_202:\n        /* \"#utility.yul\":8986:9015   */\n      tag_203\n        /* \"#utility.yul\":9004:9014   */\n      dup5\n        /* \"#utility.yul\":8986:9015   */\n      tag_75\n      jump\t// in\n    tag_203:\n        /* \"#utility.yul\":8976:8984   */\n      dup2\n        /* \"#utility.yul\":8972:9016   */\n      add\n        /* \"#utility.yul\":9169:9171   */\n      0x20\n        /* \"#utility.yul\":9157:9167   */\n      dup6\n        /* \"#utility.yul\":9154:9172   */\n      lt\n        /* \"#utility.yul\":9151:9200   */\n      iszero\n      tag_204\n      jumpi\n        /* \"#utility.yul\":9190:9198   */\n      dup2\n        /* \"#utility.yul\":9175:9198   */\n      swap1\n      pop\n        /* \"#utility.yul\":9151:9200   */\n    tag_204:\n        /* \"#utility.yul\":9213:9293   */\n      tag_205\n        /* \"#utility.yul\":9269:9291   */\n      tag_206\n        /* \"#utility.yul\":9287:9290   */\n      dup6\n        /* \"#utility.yul\":9269:9291   */\n      tag_75\n      jump\t// in\n    tag_206:\n        /* \"#utility.yul\":9259:9267   */\n      dup4\n        /* \"#utility.yul\":9255:9292   */\n      add\n        /* \"#utility.yul\":9242:9253   */\n      dup3\n        /* \"#utility.yul\":9213:9293   */\n      tag_84\n      jump\t// in\n    tag_205:\n        /* \"#utility.yul\":8872:9303   */\n      pop\n      pop\n        /* \"#utility.yul\":8857:9303   */\n    tag_201:\n        /* \"#utility.yul\":8767:9310   */\n      pop\n      pop\n      pop\n      jump\t// out\n        /* \"#utility.yul\":9316:9433   */\n    tag_86:\n        /* \"#utility.yul\":9370:9378   */\n      0x00\n        /* \"#utility.yul\":9420:9425   */\n      dup3\n        /* \"#utility.yul\":9414:9418   */\n      dup3\n        /* \"#utility.yul\":9410:9426   */\n      shr\n        /* \"#utility.yul\":9389:9426   */\n      swap1\n      pop\n        /* \"#utility.yul\":9316:9433   */\n      swap3\n      swap2\n      pop\n      pop\n      jump\t// out\n        /* \"#utility.yul\":9439:9608   */\n    tag_87:\n        /* \"#utility.yul\":9483:9489   */\n      0x00\n        /* \"#utility.yul\":9516:9567   */\n      tag_209\n        /* \"#utility.yul\":9564:9565   */\n      0x00\n        /* \"#utility.yul\":9560:9566   */\n      not\n        /* \"#utility.yul\":9552:9557   */\n      dup5\n        /* \"#utility.yul\":9549:9550   */\n      0x08\n        /* \"#utility.yul\":9545:9558   */\n      mul\n        /* \"#utility.yul\":9516:9567   */\n      tag_86\n      jump\t// in\n    tag_209:\n        /* \"#utility.yul\":9512:9568   */\n      not\n        /* \"#utility.yul\":9597:9601   */\n      dup1\n        /* \"#utility.yul\":9591:9595   */\n      dup4\n        /* \"#utility.yul\":9587:9602   */\n      and\n        /* \"#utility.yul\":9577:9602   */\n      swap2\n      pop\n        /* \"#utility.yul\":9490:9608   */\n      pop\n        /* \"#utility.yul\":9439:9608   */\n      swap3\n      swap2\n      pop\n      pop\n      jump\t// out\n        /* \"#utility.yul\":9613:9908   */\n    tag_88:\n        /* \"#utility.yul\":9689:9693   */\n      0x00\n        /* \"#utility.yul\":9835:9864   */\n      tag_211\n        /* \"#utility.yul\":9860:9863   */\n      dup4\n        /* \"#utility.yul\":9854:9858   */\n      dup4\n        /* \"#utility.yul\":9835:9864   */\n      tag_87\n      jump\t// in\n    tag_211:\n        /* \"#utility.yul\":9827:9864   */\n      swap2\n      pop\n        /* \"#utility.yul\":9897:9900   */\n      dup3\n        /* \"#utility.yul\":9894:9895   */\n      0x02\n        /* \"#utility.yul\":9890:9901   */\n      mul\n        /* \"#utility.yul\":9884:9888   */\n      dup3\n        /* \"#utility.yul\":9881:9902   */\n      or\n        /* \"#utility.yul\":9873:9902   */\n      swap1\n      pop\n        /* \"#utility.yul\":9613:9908   */\n      swap3\n      swap2\n      pop\n      pop\n      jump\t// out\n        /* \"#utility.yul\":9913:11308   */\n    tag_31:\n        /* \"#utility.yul\":10030:10067   */\n      tag_213\n        /* \"#utility.yul\":10063:10066   */\n      dup3\n        /* \"#utility.yul\":10030:10067   */\n      tag_71\n      jump\t// in\n    tag_213:\n        /* \"#utility.yul\":10132:10150   */\n      0xffffffffffffffff\n        /* \"#utility.yul\":10124:10130   */\n      dup2\n        /* \"#utility.yul\":10121:10151   */\n      gt\n        /* \"#utility.yul\":10118:10174   */\n      iszero\n      tag_214\n      jumpi\n        /* \"#utility.yul\":10154:10172   */\n      tag_215\n      tag_62\n      jump\t// in\n    tag_215:\n        /* \"#utility.yul\":10118:10174   */\n    tag_214:\n        /* \"#utility.yul\":10198:10236   */\n      tag_216\n        /* \"#utility.yul\":10230:10234   */\n      dup3\n        /* \"#utility.yul\":10224:10235   */\n      sload\n        /* \"#utility.yul\":10198:10236   */\n      tag_73\n      jump\t// in\n    tag_216:\n        /* \"#utility.yul\":10283:10350   */\n      tag_217\n        /* \"#utility.yul\":10343:10349   */\n      dup3\n        /* \"#utility.yul\":10335:10341   */\n      dup3\n        /* \"#utility.yul\":10329:10333   */\n      dup6\n        /* \"#utility.yul\":10283:10350   */\n      tag_85\n      jump\t// in\n    tag_217:\n        /* \"#utility.yul\":10377:10378   */\n      0x00\n        /* \"#utility.yul\":10401:10405   */\n      0x20\n        /* \"#utility.yul\":10388:10405   */\n      swap1\n      pop\n        /* \"#utility.yul\":10433:10435   */\n      0x1f\n        /* \"#utility.yul\":10425:10431   */\n      dup4\n        /* \"#utility.yul\":10422:10436   */\n      gt\n        /* \"#utility.yul\":10450:10451   */\n      0x01\n        /* \"#utility.yul\":10445:11063   */\n      dup2\n      eq\n      tag_219\n      jumpi\n        /* \"#utility.yul\":11107:11108   */\n      0x00\n        /* \"#utility.yul\":11124:11130   */\n      dup5\n        /* \"#utility.yul\":11121:11198   */\n      iszero\n      tag_220\n      jumpi\n        /* \"#utility.yul\":11173:11182   */\n      dup3\n        /* \"#utility.yul\":11168:11171   */\n      dup8\n        /* \"#utility.yul\":11164:11183   */\n      add\n        /* \"#utility.yul\":11158:11184   */\n      mload\n        /* \"#utility.yul\":11149:11184   */\n      swap1\n      pop\n        /* \"#utility.yul\":11121:11198   */\n    tag_220:\n        /* \"#utility.yul\":11224:11291   */\n      tag_221\n        /* \"#utility.yul\":11284:11290   */\n      dup6\n        /* \"#utility.yul\":11277:11282   */\n      dup3\n        /* \"#utility.yul\":11224:11291   */\n      tag_88\n      jump\t// in\n    tag_221:\n        /* \"#utility.yul\":11218:11222   */\n      dup7\n        /* \"#utility.yul\":11211:11292   */\n      sstore\n        /* \"#utility.yul\":11080:11302   */\n      pop\n        /* \"#utility.yul\":10415:11302   */\n      jump(tag_218)\n        /* \"#utility.yul\":10445:11063   */\n    tag_219:\n        /* \"#utility.yul\":10497:10501   */\n      0x1f\n        /* \"#utility.yul\":10493:10502   */\n      not\n        /* \"#utility.yul\":10485:10491   */\n      dup5\n        /* \"#utility.yul\":10481:10503   */\n      and\n        /* \"#utility.yul\":10531:10568   */\n      tag_222\n        /* \"#utility.yul\":10563:10567   */\n      dup7\n        /* \"#utility.yul\":10531:10568   */\n      tag_74\n      jump\t// in\n    tag_222:\n        /* \"#utility.yul\":10590:10591   */\n      0x00\n        /* \"#utility.yul\":10604:10812   */\n    tag_223:\n        /* \"#utility.yul\":10618:10625   */\n      dup3\n        /* \"#utility.yul\":10615:10616   */\n      dup2\n        /* \"#utility.yul\":10612:10626   */\n      lt\n        /* \"#utility.yul\":10604:10812   */\n      iszero\n      tag_225\n      jumpi\n        /* \"#utility.yul\":10697:10706   */\n      dup5\n        /* \"#utility.yul\":10692:10695   */\n      dup10\n        /* \"#utility.yul\":10688:10707   */\n      add\n        /* \"#utility.yul\":10682:10708   */\n      mload\n        /* \"#utility.yul\":10674:10680   */\n      dup3\n        /* \"#utility.yul\":10667:10709   */\n      sstore\n        /* \"#utility.yul\":10748:10749   */\n      0x01\n        /* \"#utility.yul\":10740:10746   */\n      dup3\n        /* \"#utility.yul\":10736:10750   */\n      add\n        /* \"#utility.yul\":10726:10750   */\n      swap2\n      pop\n        /* \"#utility.yul\":10795:10797   */\n      0x20\n        /* \"#utility.yul\":10784:10793   */\n      dup6\n        /* \"#utility.yul\":10780:10798   */\n      add\n        /* \"#utility.yul\":10767:10798   */\n      swap5\n      pop\n        /* \"#utility.yul\":10641:10645   */\n      0x20\n        /* \"#utility.yul\":10638:10639   */\n      dup2\n        /* \"#utility.yul\":10634:10646   */\n      add\n        /* \"#utility.yul\":10629:10646   */\n      swap1\n      pop\n        /* \"#utility.yul\":10604:10812   */\n      jump(tag_223)\n    tag_225:\n        /* \"#utility.yul\":10840:10846   */\n      dup7\n        /* \"#utility.yul\":10831:10838   */\n      dup4\n        /* \"#utility.yul\":10828:10847   */\n      lt\n        /* \"#utility.yul\":10825:11004   */\n      iszero\n      tag_226\n      jumpi\n        /* \"#utility.yul\":10898:10907   */\n      dup5\n        /* \"#utility.yul\":10893:10896   */\n      dup10\n        /* \"#utility.yul\":10889:10908   */\n      add\n        /* \"#utility.yul\":10883:10909   */\n      mload\n        /* \"#utility.yul\":10941:10989   */\n      tag_227\n        /* \"#utility.yul\":10983:10987   */\n      0x1f\n        /* \"#utility.yul\":10975:10981   */\n      dup10\n        /* \"#utility.yul\":10971:10988   */\n      and\n        /* \"#utility.yul\":10960:10969   */\n      dup3\n        /* \"#utility.yul\":10941:10989   */\n      tag_87\n      jump\t// in\n    tag_227:\n        /* \"#utility.yul\":10933:10939   */\n      dup4\n        /* \"#utility.yul\":10926:10990   */\n      sstore\n        /* \"#utility.yul\":10848:11004   */\n      pop\n        /* \"#utility.yul\":10825:11004   */\n    tag_226:\n        /* \"#utility.yul\":11050:11051   */\n      0x01\n        /* \"#utility.yul\":11046:11047   */\n      0x02\n        /* \"#utility.yul\":11038:11044   */\n      dup9\n        /* \"#utility.yul\":11034:11048   */\n      mul\n        /* \"#utility.yul\":11030:11052   */\n      add\n        /* \"#utility.yul\":11024:11028   */\n      dup9\n        /* \"#utility.yul\":11017:11053   */\n      sstore\n        /* \"#utility.yul\":10452:11063   */\n      pop\n      pop\n      pop\n        /* \"#utility.yul\":10415:11302   */\n    tag_218:\n      pop\n        /* \"#utility.yul\":10005:11308   */\n      pop\n      pop\n      pop\n        /* \"#utility.yul\":9913:11308   */\n      pop\n      pop\n      jump\t// out\n        /* \"#utility.yul\":11314:11440   */\n    tag_89:\n        /* \"#utility.yul\":11351:11358   */\n      0x00\n        /* \"#utility.yul\":11391:11433   */\n      0xffffffffffffffffffffffffffffffffffffffff\n        /* \"#utility.yul\":11384:11389   */\n      dup3\n        /* \"#utility.yul\":11380:11434   */\n      and\n        /* \"#utility.yul\":11369:11434   */\n      swap1\n      pop\n        /* \"#utility.yul\":11314:11440   */\n      swap2\n      swap1\n      pop\n      jump\t// out\n        /* \"#utility.yul\":11446:11542   */\n    tag_90:\n        /* \"#utility.yul\":11483:11490   */\n      0x00\n        /* \"#utility.yul\":11512:11536   */\n      tag_230\n        /* \"#utility.yul\":11530:11535   */\n      dup3\n        /* \"#utility.yul\":11512:11536   */\n      tag_89\n      jump\t// in\n    tag_230:\n        /* \"#utility.yul\":11501:11536   */\n      swap1\n      pop\n        /* \"#utility.yul\":11446:11542   */\n      swap2\n      swap1\n      pop\n      jump\t// out\n        /* \"#utility.yul\":11548:11666   */\n    tag_91:\n        /* \"#utility.yul\":11635:11659   */\n      tag_232\n        /* \"#utility.yul\":11653:11658   */\n      dup2\n        /* \"#utility.yul\":11635:11659   */\n      tag_90\n      jump\t// in\n    tag_232:\n        /* \"#utility.yul\":11630:11633   */\n      dup3\n        /* \"#utility.yul\":11623:11660   */\n      mstore\n        /* \"#utility.yul\":11548:11666   */\n      pop\n      pop\n      jump\t// out\n        /* \"#utility.yul\":11672:11841   */\n    tag_92:\n        /* \"#utility.yul\":11756:11767   */\n      0x00\n        /* \"#utility.yul\":11790:11796   */\n      dup3\n        /* \"#utility.yul\":11785:11788   */\n      dup3\n        /* \"#utility.yul\":11778:11797   */\n      mstore\n        /* \"#utility.yul\":11830:11834   */\n      0x20\n        /* \"#utility.yul\":11825:11828   */\n      dup3\n        /* \"#utility.yul\":11821:11835   */\n      add\n        /* \"#utility.yul\":11806:11835   */\n      swap1\n      pop\n        /* \"#utility.yul\":11672:11841   */\n      swap3\n      swap2\n      pop\n      pop\n      jump\t// out\n        /* \"#utility.yul\":11847:12093   */\n    tag_93:\n        /* \"#utility.yul\":11928:11929   */\n      0x00\n        /* \"#utility.yul\":11938:12051   */\n    tag_235:\n        /* \"#utility.yul\":11952:11958   */\n      dup4\n        /* \"#utility.yul\":11949:11950   */\n      dup2\n        /* \"#utility.yul\":11946:11959   */\n      lt\n        /* \"#utility.yul\":11938:12051   */\n      iszero\n      tag_237\n      jumpi\n        /* \"#utility.yul\":12037:12038   */\n      dup1\n        /* \"#utility.yul\":12032:12035   */\n      dup3\n        /* \"#utility.yul\":12028:12039   */\n      add\n        /* \"#utility.yul\":12022:12040   */\n      mload\n        /* \"#utility.yul\":12018:12019   */\n      dup2\n        /* \"#utility.yul\":12013:12016   */\n      dup5\n        /* \"#utility.yul\":12009:12020   */\n      add\n        /* \"#utility.yul\":12002:12041   */\n      mstore\n        /* \"#utility.yul\":11974:11976   */\n      0x20\n        /* \"#utility.yul\":11971:11972   */\n      dup2\n        /* \"#utility.yul\":11967:11977   */\n      add\n        /* \"#utility.yul\":11962:11977   */\n      swap1\n      pop\n        /* \"#utility.yul\":11938:12051   */\n      jump(tag_235)\n    tag_237:\n        /* \"#utility.yul\":12085:12086   */\n      0x00\n        /* \"#utility.yul\":12076:12082   */\n      dup5\n        /* \"#utility.yul\":12071:12074   */\n      dup5\n        /* \"#utility.yul\":12067:12083   */\n      add\n        /* \"#utility.yul\":12060:12087   */\n      mstore\n        /* \"#utility.yul\":11909:12093   */\n      pop\n        /* \"#utility.yul\":11847:12093   */\n      pop\n      pop\n      pop\n      jump\t// out\n        /* \"#utility.yul\":12099:12476   */\n    tag_94:\n        /* \"#utility.yul\":12187:12190   */\n      0x00\n        /* \"#utility.yul\":12215:12254   */\n      tag_239\n        /* \"#utility.yul\":12248:12253   */\n      dup3\n        /* \"#utility.yul\":12215:12254   */\n      tag_71\n      jump\t// in\n    tag_239:\n        /* \"#utility.yul\":12270:12341   */\n      tag_240\n        /* \"#utility.yul\":12334:12340   */\n      dup2\n        /* \"#utility.yul\":12329:12332   */\n      dup6\n        /* \"#utility.yul\":12270:12341   */\n      tag_92\n      jump\t// in\n    tag_240:\n        /* \"#utility.yul\":12263:12341   */\n      swap4\n      pop\n        /* \"#utility.yul\":12350:12415   */\n      tag_241\n        /* \"#utility.yul\":12408:12414   */\n      dup2\n        /* \"#utility.yul\":12403:12406   */\n      dup6\n        /* \"#utility.yul\":12396:12400   */\n      0x20\n        /* \"#utility.yul\":12389:12394   */\n      dup7\n        /* \"#utility.yul\":12385:12401   */\n      add\n        /* \"#utility.yul\":12350:12415   */\n      tag_93\n      jump\t// in\n    tag_241:\n        /* \"#utility.yul\":12440:12469   */\n      tag_242\n        /* \"#utility.yul\":12462:12468   */\n      dup2\n        /* \"#utility.yul\":12440:12469   */\n      tag_61\n      jump\t// in\n    tag_242:\n        /* \"#utility.yul\":12435:12438   */\n      dup5\n        /* \"#utility.yul\":12431:12470   */\n      add\n        /* \"#utility.yul\":12424:12470   */\n      swap2\n      pop\n        /* \"#utility.yul\":12191:12476   */\n      pop\n        /* \"#utility.yul\":12099:12476   */\n      swap3\n      swap2\n      pop\n      pop\n      jump\t// out\n        /* \"#utility.yul\":12482:13510   */\n    tag_36:\n        /* \"#utility.yul\":12767:12771   */\n      0x00\n        /* \"#utility.yul\":12805:12808   */\n      0xa0\n        /* \"#utility.yul\":12794:12803   */\n      dup3\n        /* \"#utility.yul\":12790:12809   */\n      add\n        /* \"#utility.yul\":12782:12809   */\n      swap1\n      pop\n        /* \"#utility.yul\":12819:12890   */\n      tag_244\n        /* \"#utility.yul\":12887:12888   */\n      0x00\n        /* \"#utility.yul\":12876:12885   */\n      dup4\n        /* \"#utility.yul\":12872:12889   */\n      add\n        /* \"#utility.yul\":12863:12869   */\n      dup9\n        /* \"#utility.yul\":12819:12890   */\n      tag_91\n      jump\t// in\n    tag_244:\n        /* \"#utility.yul\":12937:12946   */\n      dup2\n        /* \"#utility.yul\":12931:12935   */\n      dup2\n        /* \"#utility.yul\":12927:12947   */\n      sub\n        /* \"#utility.yul\":12922:12924   */\n      0x20\n        /* \"#utility.yul\":12911:12920   */\n      dup4\n        /* \"#utility.yul\":12907:12925   */\n      add\n        /* \"#utility.yul\":12900:12948   */\n      mstore\n        /* \"#utility.yul\":12965:13043   */\n      tag_245\n        /* \"#utility.yul\":13038:13042   */\n      dup2\n        /* \"#utility.yul\":13029:13035   */\n      dup8\n        /* \"#utility.yul\":12965:13043   */\n      tag_94\n      jump\t// in\n    tag_245:\n        /* \"#utility.yul\":12957:13043   */\n      swap1\n      pop\n        /* \"#utility.yul\":13090:13099   */\n      dup2\n        /* \"#utility.yul\":13084:13088   */\n      dup2\n        /* \"#utility.yul\":13080:13100   */\n      sub\n        /* \"#utility.yul\":13075:13077   */\n      0x40\n        /* \"#utility.yul\":13064:13073   */\n      dup4\n        /* \"#utility.yul\":13060:13078   */\n      add\n        /* \"#utility.yul\":13053:13101   */\n      mstore\n        /* \"#utility.yul\":13118:13196   */\n      tag_246\n        /* \"#utility.yul\":13191:13195   */\n      dup2\n        /* \"#utility.yul\":13182:13188   */\n      dup7\n        /* \"#utility.yul\":13118:13196   */\n      tag_94\n      jump\t// in\n    tag_246:\n        /* \"#utility.yul\":13110:13196   */\n      swap1\n      pop\n        /* \"#utility.yul\":13243:13252   */\n      dup2\n        /* \"#utility.yul\":13237:13241   */\n      dup2\n        /* \"#utility.yul\":13233:13253   */\n      sub\n        /* \"#utility.yul\":13228:13230   */\n      0x60\n        /* \"#utility.yul\":13217:13226   */\n      dup4\n        /* \"#utility.yul\":13213:13231   */\n      add\n        /* \"#utility.yul\":13206:13254   */\n      mstore\n        /* \"#utility.yul\":13271:13349   */\n      tag_247\n        /* \"#utility.yul\":13344:13348   */\n      dup2\n        /* \"#utility.yul\":13335:13341   */\n      dup6\n        /* \"#utility.yul\":13271:13349   */\n      tag_94\n      jump\t// in\n    tag_247:\n        /* \"#utility.yul\":13263:13349   */\n      swap1\n      pop\n        /* \"#utility.yul\":13397:13406   */\n      dup2\n        /* \"#utility.yul\":13391:13395   */\n      dup2\n        /* \"#utility.yul\":13387:13407   */\n      sub\n        /* \"#utility.yul\":13381:13384   */\n      0x80\n        /* \"#utility.yul\":13370:13379   */\n      dup4\n        /* \"#utility.yul\":13366:13385   */\n      add\n        /* \"#utility.yul\":13359:13408   */\n      mstore\n        /* \"#utility.yul\":13425:13503   */\n      tag_248\n        /* \"#utility.yul\":13498:13502   */\n      dup2\n        /* \"#utility.yul\":13489:13495   */\n      dup5\n        /* \"#utility.yul\":13425:13503   */\n      tag_94\n      jump\t// in\n    tag_248:\n        /* \"#utility.yul\":13417:13503   */\n      swap1\n      pop\n        /* \"#utility.yul\":12482:13510   */\n      swap7\n      swap6\n      pop\n      pop\n      pop\n      pop\n      pop\n      pop\n      jump\t// out\n        /* \"#utility.yul\":13516:13707   */\n    tag_44:\n        /* \"#utility.yul\":13556:13559   */\n      0x00\n        /* \"#utility.yul\":13575:13595   */\n      tag_250\n        /* \"#utility.yul\":13593:13594   */\n      dup3\n        /* \"#utility.yul\":13575:13595   */\n      tag_55\n      jump\t// in\n    tag_250:\n        /* \"#utility.yul\":13570:13595   */\n      swap2\n      pop\n        /* \"#utility.yul\":13609:13629   */\n      tag_251\n        /* \"#utility.yul\":13627:13628   */\n      dup4\n        /* \"#utility.yul\":13609:13629   */\n      tag_55\n      jump\t// in\n    tag_251:\n        /* \"#utility.yul\":13604:13629   */\n      swap3\n      pop\n        /* \"#utility.yul\":13652:13653   */\n      dup3\n        /* \"#utility.yul\":13649:13650   */\n      dup3\n        /* \"#utility.yul\":13645:13654   */\n      add\n        /* \"#utility.yul\":13638:13654   */\n      swap1\n      pop\n        /* \"#utility.yul\":13673:13676   */\n      dup1\n        /* \"#utility.yul\":13670:13671   */\n      dup3\n        /* \"#utility.yul\":13667:13677   */\n      gt\n        /* \"#utility.yul\":13664:13700   */\n      iszero\n      tag_252\n      jumpi\n        /* \"#utility.yul\":13680:13698   */\n      tag_253\n      tag_70\n      jump\t// in\n    tag_253:\n        /* \"#utility.yul\":13664:13700   */\n    tag_252:\n        /* \"#utility.yul\":13516:13707   */\n      swap3\n      swap2\n      pop\n      pop\n      jump\t// out\n\n    auxdata: 0xa2646970667358221220ba2546ab86bf02f0303044f341ffc5c5f7f647d656dc8b5b55d959ca3d89171c64736f6c63430008160033\n}\n",
				"bytecode": {
					"linkReferences": {},
					"object": "608060405234801561001057600080fd5b50610c71806100206000396000f3fe608060405234801561001057600080fd5b50600436106100415760003560e01c8063073079d6146100465780630e24c52c146100765780631e646bf714610092575b600080fd5b610060600480360381019061005b919061048f565b6100c2565b60405161006d91906104f1565b60405180910390f35b610090600480360381019061008b9190610652565b61017d565b005b6100ac60048036038101906100a7919061048f565b61032a565b6040516100b991906104f1565b60405180910390f35b6000600160003373ffffffffffffffffffffffffffffffffffffffff1673ffffffffffffffffffffffffffffffffffffffff16815260200190815260200160002060009054906101000a900460ff1661011a57600080fd5b600083856101289190610787565b90506000838261013891906107b8565b90507f0c3010a77dc0dfe04b1878b02a18298b639a392a50942322ade28c170ef1e8d58160405161016991906104f1565b60405180910390a180925050509392505050565b600160003373ffffffffffffffffffffffffffffffffffffffff1673ffffffffffffffffffffffffffffffffffffffff16815260200190815260200160002060009054906101000a900460ff16156101d457600080fd5b6040518060800160405280858152602001848152602001838152602001828152506000803373ffffffffffffffffffffffffffffffffffffffff1673ffffffffffffffffffffffffffffffffffffffff16815260200190815260200160002060008201518160000190816102489190610a11565b50602082015181600101908161025e9190610a11565b5060408201518160020190816102749190610a11565b50606082015181600301908161028a9190610a11565b5090505060018060003373ffffffffffffffffffffffffffffffffffffffff1673ffffffffffffffffffffffffffffffffffffffff16815260200190815260200160002060006101000a81548160ff0219169083151502179055507f5bd4424be03f8f64e20a0e55c7369b2f8875287feea185ac5c69681c403ee9ac338585858560405161031c959493929190610b98565b60405180910390a150505050565b6000600160003373ffffffffffffffffffffffffffffffffffffffff1673ffffffffffffffffffffffffffffffffffffffff16815260200190815260200160002060009054906101000a900460ff1661038257600080fd5b6000828486600261039391906107b8565b61039d91906107b8565b6103a79190610787565b9050600060026001836103ba9190610c07565b6103c49190610787565b905060008290505b808210156104015781905060028283856103e69190610787565b6103f09190610c07565b6103fa9190610787565b91506103cc565b7f69c2b099b66f03401118df49be01f13eaf7f26ec62eb993332b7b79f866a4f5a8160405161043091906104f1565b60405180910390a18093505050509392505050565b6000604051905090565b600080fd5b600080fd5b6000819050919050565b61046c81610459565b811461047757600080fd5b50565b60008135905061048981610463565b92915050565b6000806000606084860312156104a8576104a761044f565b5b60006104b68682870161047a565b93505060206104c78682870161047a565b92505060406104d88682870161047a565b9150509250925092565b6104eb81610459565b82525050565b600060208201905061050660008301846104e2565b92915050565b600080fd5b600080fd5b6000601f19601f8301169050919050565b7f4e487b7100000000000000000000000000000000000000000000000000000000600052604160045260246000fd5b61055f82610516565b810181811067ffffffffffffffff8211171561057e5761057d610527565b5b80604052505050565b6000610591610445565b905061059d8282610556565b919050565b600067ffffffffffffffff8211156105bd576105bc610527565b5b6105c682610516565b9050602081019050919050565b82818337600083830152505050565b60006105f56105f0846105a2565b610587565b90508281526020810184848401111561061157610610610511565b5b61061c8482856105d3565b509392505050565b600082601f8301126106395761063861050c565b5b81356106498482602086016105e2565b91505092915050565b6000806000806080858703121561066c5761066b61044f565b5b600085013567ffffffffffffffff81111561068a57610689610454565b5b61069687828801610624565b945050602085013567ffffffffffffffff8111156106b7576106b6610454565b5b6106c387828801610624565b935050604085013567ffffffffffffffff8111156106e4576106e3610454565b5b6106f087828801610624565b925050606085013567ffffffffffffffff81111561071157610710610454565b5b61071d87828801610624565b91505092959194509250565b7f4e487b7100000000000000000000000000000000000000000000000000000000600052601260045260246000fd5b7f4e487b7100000000000000000000000000000000000000000000000000000000600052601160045260246000fd5b600061079282610459565b915061079d83610459565b9250826107ad576107ac610729565b5b828204905092915050565b60006107c382610459565b91506107ce83610459565b92508282026107dc81610459565b915082820484148315176107f3576107f2610758565b5b5092915050565b600081519050919050565b7f4e487b7100000000000000000000000000000000000000000000000000000000600052602260045260246000fd5b6000600282049050600182168061084c57607f821691505b60208210810361085f5761085e610805565b5b50919050565b60008190508160005260206000209050919050565b60006020601f8301049050919050565b600082821b905092915050565b6000600883026108c77fffffffffffffffffffffffffffffffffffffffffffffffffffffffffffffffff8261088a565b6108d1868361088a565b95508019841693508086168417925050509392505050565b6000819050919050565b600061090e61090961090484610459565b6108e9565b610459565b9050919050565b6000819050919050565b610928836108f3565b61093c61093482610915565b848454610897565b825550505050565b600090565b610951610944565b61095c81848461091f565b505050565b5b8181101561098057610975600082610949565b600181019050610962565b5050565b601f8211156109c55761099681610865565b61099f8461087a565b810160208510156109ae578190505b6109c26109ba8561087a565b830182610961565b50505b505050565b600082821c905092915050565b60006109e8600019846008026109ca565b1980831691505092915050565b6000610a0183836109d7565b9150826002028217905092915050565b610a1a826107fa565b67ffffffffffffffff811115610a3357610a32610527565b5b610a3d8254610834565b610a48828285610984565b600060209050601f831160018114610a7b5760008415610a69578287015190505b610a7385826109f5565b865550610adb565b601f198416610a8986610865565b60005b82811015610ab157848901518255600182019150602085019450602081019050610a8c565b86831015610ace5784890151610aca601f8916826109d7565b8355505b6001600288020188555050505b505050505050565b600073ffffffffffffffffffffffffffffffffffffffff82169050919050565b6000610b0e82610ae3565b9050919050565b610b1e81610b03565b82525050565b600082825260208201905092915050565b60005b83811015610b53578082015181840152602081019050610b38565b60008484015250505050565b6000610b6a826107fa565b610b748185610b24565b9350610b84818560208601610b35565b610b8d81610516565b840191505092915050565b600060a082019050610bad6000830188610b15565b8181036020830152610bbf8187610b5f565b90508181036040830152610bd38186610b5f565b90508181036060830152610be78185610b5f565b90508181036080830152610bfb8184610b5f565b90509695505050505050565b6000610c1282610459565b9150610c1d83610459565b9250828201905080821115610c3557610c34610758565b5b9291505056fea2646970667358221220ba2546ab86bf02f0303044f341ffc5c5f7f647d656dc8b5b55d959ca3d89171c64736f6c63430008160033",
					"opcodes": "PUSH1 0x80 PUSH1 0x40 MSTORE CALLVALUE DUP1 ISZERO PUSH2 0x10 JUMPI PUSH1 0x0 DUP1 REVERT JUMPDEST POP PUSH2 0xC71 DUP1 PUSH2 0x20 PUSH1 0x0 CODECOPY PUSH1 0x0 RETURN INVALID PUSH1 0x80 PUSH1 0x40 MSTORE CALLVALUE DUP1 ISZERO PUSH2 0x10 JUMPI PUSH1 0x0 DUP1 REVERT JUMPDEST POP PUSH1 0x4 CALLDATASIZE LT PUSH2 0x41 JUMPI PUSH1 0x0 CALLDATALOAD PUSH1 0xE0 SHR DUP1 PUSH4 0x73079D6 EQ PUSH2 0x46 JUMPI DUP1 PUSH4 0xE24C52C EQ PUSH2 0x76 JUMPI DUP1 PUSH4 0x1E646BF7 EQ PUSH2 0x92 JUMPI JUMPDEST PUSH1 0x0 DUP1 REVERT JUMPDEST PUSH2 0x60 PUSH1 0x4 DUP1 CALLDATASIZE SUB DUP2 ADD SWAP1 PUSH2 0x5B SWAP2 SWAP1 PUSH2 0x48F JUMP JUMPDEST PUSH2 0xC2 JUMP JUMPDEST PUSH1 0x40 MLOAD PUSH2 0x6D SWAP2 SWAP1 PUSH2 0x4F1 JUMP JUMPDEST PUSH1 0x40 MLOAD DUP1 SWAP2 SUB SWAP1 RETURN JUMPDEST PUSH2 0x90 PUSH1 0x4 DUP1 CALLDATASIZE SUB DUP2 ADD SWAP1 PUSH2 0x8B SWAP2 SWAP1 PUSH2 0x652 JUMP JUMPDEST PUSH2 0x17D JUMP JUMPDEST STOP JUMPDEST PUSH2 0xAC PUSH1 0x4 DUP1 CALLDATASIZE SUB DUP2 ADD SWAP1 PUSH2 0xA7 SWAP2 SWAP1 PUSH2 0x48F JUMP JUMPDEST PUSH2 0x32A JUMP JUMPDEST PUSH1 0x40 MLOAD PUSH2 0xB9 SWAP2 SWAP1 PUSH2 0x4F1 JUMP JUMPDEST PUSH1 0x40 MLOAD DUP1 SWAP2 SUB SWAP1 RETURN JUMPDEST PUSH1 0x0 PUSH1 0x1 PUSH1 0x0 CALLER PUSH20 0xFFFFFFFFFFFFFFFFFFFFFFFFFFFFFFFFFFFFFFFF AND PUSH20 0xFFFFFFFFFFFFFFFFFFFFFFFFFFFFFFFFFFFFFFFF AND DUP2 MSTORE PUSH1 0x20 ADD SWAP1 DUP2 MSTORE PUSH1 0x20 ADD PUSH1 0x0 KECCAK256 PUSH1 0x0 SWAP1 SLOAD SWAP1 PUSH2 0x100 EXP SWAP1 DIV PUSH1 0xFF AND PUSH2 0x11A JUMPI PUSH1 0x0 DUP1 REVERT JUMPDEST PUSH1 0x0 DUP4 DUP6 PUSH2 0x128 SWAP2 SWAP1 PUSH2 0x787 JUMP JUMPDEST SWAP1 POP PUSH1 0x0 DUP4 DUP3 PUSH2 0x138 SWAP2 SWAP1 PUSH2 0x7B8 JUMP JUMPDEST SWAP1 POP PUSH32 0xC3010A77DC0DFE04B1878B02A18298B639A392A50942322ADE28C170EF1E8D5 DUP2 PUSH1 0x40 MLOAD PUSH2 0x169 SWAP2 SWAP1 PUSH2 0x4F1 JUMP JUMPDEST PUSH1 0x40 MLOAD DUP1 SWAP2 SUB SWAP1 LOG1 DUP1 SWAP3 POP POP POP SWAP4 SWAP3 POP POP POP JUMP JUMPDEST PUSH1 0x1 PUSH1 0x0 CALLER PUSH20 0xFFFFFFFFFFFFFFFFFFFFFFFFFFFFFFFFFFFFFFFF AND PUSH20 0xFFFFFFFFFFFFFFFFFFFFFFFFFFFFFFFFFFFFFFFF AND DUP2 MSTORE PUSH1 0x20 ADD SWAP1 DUP2 MSTORE PUSH1 0x20 ADD PUSH1 0x0 KECCAK256 PUSH1 0x0 SWAP1 SLOAD SWAP1 PUSH2 0x100 EXP SWAP1 DIV PUSH1 0xFF AND ISZERO PUSH2 0x1D4 JUMPI PUSH1 0x0 DUP1 REVERT JUMPDEST PUSH1 0x40 MLOAD DUP1 PUSH1 0x80 ADD PUSH1 0x40 MSTORE DUP1 DUP6 DUP2 MSTORE PUSH1 0x20 ADD DUP5 DUP2 MSTORE PUSH1 0x20 ADD DUP4 DUP2 MSTORE PUSH1 0x20 ADD DUP3 DUP2 MSTORE POP PUSH1 0x0 DUP1 CALLER PUSH20 0xFFFFFFFFFFFFFFFFFFFFFFFFFFFFFFFFFFFFFFFF AND PUSH20 0xFFFFFFFFFFFFFFFFFFFFFFFFFFFFFFFFFFFFFFFF AND DUP2 MSTORE PUSH1 0x20 ADD SWAP1 DUP2 MSTORE PUSH1 0x20 ADD PUSH1 0x0 KECCAK256 PUSH1 0x0 DUP3 ADD MLOAD DUP2 PUSH1 0x0 ADD SWAP1 DUP2 PUSH2 0x248 SWAP2 SWAP1 PUSH2 0xA11 JUMP JUMPDEST POP PUSH1 0x20 DUP3 ADD MLOAD DUP2 PUSH1 0x1 ADD SWAP1 DUP2 PUSH2 0x25E SWAP2 SWAP1 PUSH2 0xA11 JUMP JUMPDEST POP PUSH1 0x40 DUP3 ADD MLOAD DUP2 PUSH1 0x2 ADD SWAP1 DUP2 PUSH2 0x274 SWAP2 SWAP1 PUSH2 0xA11 JUMP JUMPDEST POP PUSH1 0x60 DUP3 ADD MLOAD DUP2 PUSH1 0x3 ADD SWAP1 DUP2 PUSH2 0x28A SWAP2 SWAP1 PUSH2 0xA11 JUMP JUMPDEST POP SWAP1 POP POP PUSH1 0x1 DUP1 PUSH1 0x0 CALLER PUSH20 0xFFFFFFFFFFFFFFFFFFFFFFFFFFFFFFFFFFFFFFFF AND PUSH20 0xFFFFFFFFFFFFFFFFFFFFFFFFFFFFFFFFFFFFFFFF AND DUP2 MSTORE PUSH1 0x20 ADD SWAP1 DUP2 MSTORE PUSH1 0x20 ADD PUSH1 0x0 KECCAK256 PUSH1 0x0 PUSH2 0x100 EXP DUP2 SLOAD DUP2 PUSH1 0xFF MUL NOT AND SWAP1 DUP4 ISZERO ISZERO MUL OR SWAP1 SSTORE POP PUSH32 0x5BD4424BE03F8F64E20A0E55C7369B2F8875287FEEA185AC5C69681C403EE9AC CALLER DUP6 DUP6 DUP6 DUP6 PUSH1 0x40 MLOAD PUSH2 0x31C SWAP6 SWAP5 SWAP4 SWAP3 SWAP2 SWAP1 PUSH2 0xB98 JUMP JUMPDEST PUSH1 0x40 MLOAD DUP1 SWAP2 SUB SWAP1 LOG1 POP POP POP POP JUMP JUMPDEST PUSH1 0x0 PUSH1 0x1 PUSH1 0x0 CALLER PUSH20 0xFFFFFFFFFFFFFFFFFFFFFFFFFFFFFFFFFFFFFFFF AND PUSH20 0xFFFFFFFFFFFFFFFFFFFFFFFFFFFFFFFFFFFFFFFF AND DUP2 MSTORE PUSH1 0x20 ADD SWAP1 DUP2 MSTORE PUSH1 0x20 ADD PUSH1 0x0 KECCAK256 PUSH1 0x0 SWAP1 SLOAD SWAP1 PUSH2 0x100 EXP SWAP1 DIV PUSH1 0xFF AND PUSH2 0x382 JUMPI PUSH1 0x0 DUP1 REVERT JUMPDEST PUSH1 0x0 DUP3 DUP5 DUP7 PUSH1 0x2 PUSH2 0x393 SWAP2 SWAP1 PUSH2 0x7B8 JUMP JUMPDEST PUSH2 0x39D SWAP2 SWAP1 PUSH2 0x7B8 JUMP JUMPDEST PUSH2 0x3A7 SWAP2 SWAP1 PUSH2 0x787 JUMP JUMPDEST SWAP1 POP PUSH1 0x0 PUSH1 0x2 PUSH1 0x1 DUP4 PUSH2 0x3BA SWAP2 SWAP1 PUSH2 0xC07 JUMP JUMPDEST PUSH2 0x3C4 SWAP2 SWAP1 PUSH2 0x787 JUMP JUMPDEST SWAP1 POP PUSH1 0x0 DUP3 SWAP1 POP JUMPDEST DUP1 DUP3 LT ISZERO PUSH2 0x401 JUMPI DUP2 SWAP1 POP PUSH1 0x2 DUP3 DUP4 DUP6 PUSH2 0x3E6 SWAP2 SWAP1 PUSH2 0x787 JUMP JUMPDEST PUSH2 0x3F0 SWAP2 SWAP1 PUSH2 0xC07 JUMP JUMPDEST PUSH2 0x3FA SWAP2 SWAP1 PUSH2 0x787 JUMP JUMPDEST SWAP2 POP PUSH2 0x3CC JUMP JUMPDEST PUSH32 0x69C2B099B66F03401118DF49BE01F13EAF7F26EC62EB993332B7B79F866A4F5A DUP2 PUSH1 0x40 MLOAD PUSH2 0x430 SWAP2 SWAP1 PUSH2 0x4F1 JUMP JUMPDEST PUSH1 0x40 MLOAD DUP1 SWAP2 SUB SWAP1 LOG1 DUP1 SWAP4 POP POP POP POP SWAP4 SWAP3 POP POP POP JUMP JUMPDEST PUSH1 0x0 PUSH1 0x40 MLOAD SWAP1 POP SWAP1 JUMP JUMPDEST PUSH1 0x0 DUP1 REVERT JUMPDEST PUSH1 0x0 DUP1 REVERT JUMPDEST PUSH1 0x0 DUP2 SWAP1 POP SWAP2 SWAP1 POP JUMP JUMPDEST PUSH2 0x46C DUP2 PUSH2 0x459 JUMP JUMPDEST DUP2 EQ PUSH2 0x477 JUMPI PUSH1 0x0 DUP1 REVERT JUMPDEST POP JUMP JUMPDEST PUSH1 0x0 DUP2 CALLDATALOAD SWAP1 POP PUSH2 0x489 DUP2 PUSH2 0x463 JUMP JUMPDEST SWAP3 SWAP2 POP POP JUMP JUMPDEST PUSH1 0x0 DUP1 PUSH1 0x0 PUSH1 0x60 DUP5 DUP7 SUB SLT ISZERO PUSH2 0x4A8 JUMPI PUSH2 0x4A7 PUSH2 0x44F JUMP JUMPDEST JUMPDEST PUSH1 0x0 PUSH2 0x4B6 DUP7 DUP3 DUP8 ADD PUSH2 0x47A JUMP JUMPDEST SWAP4 POP POP PUSH1 0x20 PUSH2 0x4C7 DUP7 DUP3 DUP8 ADD PUSH2 0x47A JUMP JUMPDEST SWAP3 POP POP PUSH1 0x40 PUSH2 0x4D8 DUP7 DUP3 DUP8 ADD PUSH2 0x47A JUMP JUMPDEST SWAP2 POP POP SWAP3 POP SWAP3 POP SWAP3 JUMP JUMPDEST PUSH2 0x4EB DUP2 PUSH2 0x459 JUMP JUMPDEST DUP3 MSTORE POP POP JUMP JUMPDEST PUSH1 0x0 PUSH1 0x20 DUP3 ADD SWAP1 POP PUSH2 0x506 PUSH1 0x0 DUP4 ADD DUP5 PUSH2 0x4E2 JUMP JUMPDEST SWAP3 SWAP2 POP POP JUMP JUMPDEST PUSH1 0x0 DUP1 REVERT JUMPDEST PUSH1 0x0 DUP1 REVERT JUMPDEST PUSH1 0x0 PUSH1 0x1F NOT PUSH1 0x1F DUP4 ADD AND SWAP1 POP SWAP2 SWAP1 POP JUMP JUMPDEST PUSH32 0x4E487B7100000000000000000000000000000000000000000000000000000000 PUSH1 0x0 MSTORE PUSH1 0x41 PUSH1 0x4 MSTORE PUSH1 0x24 PUSH1 0x0 REVERT JUMPDEST PUSH2 0x55F DUP3 PUSH2 0x516 JUMP JUMPDEST DUP2 ADD DUP2 DUP2 LT PUSH8 0xFFFFFFFFFFFFFFFF DUP3 GT OR ISZERO PUSH2 0x57E JUMPI PUSH2 0x57D PUSH2 0x527 JUMP JUMPDEST JUMPDEST DUP1 PUSH1 0x40 MSTORE POP POP POP JUMP JUMPDEST PUSH1 0x0 PUSH2 0x591 PUSH2 0x445 JUMP JUMPDEST SWAP1 POP PUSH2 0x59D DUP3 DUP3 PUSH2 0x556 JUMP JUMPDEST SWAP2 SWAP1 POP JUMP JUMPDEST PUSH1 0x0 PUSH8 0xFFFFFFFFFFFFFFFF DUP3 GT ISZERO PUSH2 0x5BD JUMPI PUSH2 0x5BC PUSH2 0x527 JUMP JUMPDEST JUMPDEST PUSH2 0x5C6 DUP3 PUSH2 0x516 JUMP JUMPDEST SWAP1 POP PUSH1 0x20 DUP2 ADD SWAP1 POP SWAP2 SWAP1 POP JUMP JUMPDEST DUP3 DUP2 DUP4 CALLDATACOPY PUSH1 0x0 DUP4 DUP4 ADD MSTORE POP POP POP JUMP JUMPDEST PUSH1 0x0 PUSH2 0x5F5 PUSH2 0x5F0 DUP5 PUSH2 0x5A2 JUMP JUMPDEST PUSH2 0x587 JUMP JUMPDEST SWAP1 POP DUP3 DUP2 MSTORE PUSH1 0x20 DUP2 ADD DUP5 DUP5 DUP5 ADD GT ISZERO PUSH2 0x611 JUMPI PUSH2 0x610 PUSH2 0x511 JUMP JUMPDEST JUMPDEST PUSH2 0x61C DUP5 DUP3 DUP6 PUSH2 0x5D3 JUMP JUMPDEST POP SWAP4 SWAP3 POP POP POP JUMP JUMPDEST PUSH1 0x0 DUP3 PUSH1 0x1F DUP4 ADD SLT PUSH2 0x639 JUMPI PUSH2 0x638 PUSH2 0x50C JUMP JUMPDEST JUMPDEST DUP2 CALLDATALOAD PUSH2 0x649 DUP5 DUP3 PUSH1 0x20 DUP7 ADD PUSH2 0x5E2 JUMP JUMPDEST SWAP2 POP POP SWAP3 SWAP2 POP POP JUMP JUMPDEST PUSH1 0x0 DUP1 PUSH1 0x0 DUP1 PUSH1 0x80 DUP6 DUP8 SUB SLT ISZERO PUSH2 0x66C JUMPI PUSH2 0x66B PUSH2 0x44F JUMP JUMPDEST JUMPDEST PUSH1 0x0 DUP6 ADD CALLDATALOAD PUSH8 0xFFFFFFFFFFFFFFFF DUP2 GT ISZERO PUSH2 0x68A JUMPI PUSH2 0x689 PUSH2 0x454 JUMP JUMPDEST JUMPDEST PUSH2 0x696 DUP8 DUP3 DUP9 ADD PUSH2 0x624 JUMP JUMPDEST SWAP5 POP POP PUSH1 0x20 DUP6 ADD CALLDATALOAD PUSH8 0xFFFFFFFFFFFFFFFF DUP2 GT ISZERO PUSH2 0x6B7 JUMPI PUSH2 0x6B6 PUSH2 0x454 JUMP JUMPDEST JUMPDEST PUSH2 0x6C3 DUP8 DUP3 DUP9 ADD PUSH2 0x624 JUMP JUMPDEST SWAP4 POP POP PUSH1 0x40 DUP6 ADD CALLDATALOAD PUSH8 0xFFFFFFFFFFFFFFFF DUP2 GT ISZERO PUSH2 0x6E4 JUMPI PUSH2 0x6E3 PUSH2 0x454 JUMP JUMPDEST JUMPDEST PUSH2 0x6F0 DUP8 DUP3 DUP9 ADD PUSH2 0x624 JUMP JUMPDEST SWAP3 POP POP PUSH1 0x60 DUP6 ADD CALLDATALOAD PUSH8 0xFFFFFFFFFFFFFFFF DUP2 GT ISZERO PUSH2 0x711 JUMPI PUSH2 0x710 PUSH2 0x454 JUMP JUMPDEST JUMPDEST PUSH2 0x71D DUP8 DUP3 DUP9 ADD PUSH2 0x624 JUMP JUMPDEST SWAP2 POP POP SWAP3 SWAP6 SWAP2 SWAP5 POP SWAP3 POP JUMP JUMPDEST PUSH32 0x4E487B7100000000000000000000000000000000000000000000000000000000 PUSH1 0x0 MSTORE PUSH1 0x12 PUSH1 0x4 MSTORE PUSH1 0x24 PUSH1 0x0 REVERT JUMPDEST PUSH32 0x4E487B7100000000000000000000000000000000000000000000000000000000 PUSH1 0x0 MSTORE PUSH1 0x11 PUSH1 0x4 MSTORE PUSH1 0x24 PUSH1 0x0 REVERT JUMPDEST PUSH1 0x0 PUSH2 0x792 DUP3 PUSH2 0x459 JUMP JUMPDEST SWAP2 POP PUSH2 0x79D DUP4 PUSH2 0x459 JUMP JUMPDEST SWAP3 POP DUP3 PUSH2 0x7AD JUMPI PUSH2 0x7AC PUSH2 0x729 JUMP JUMPDEST JUMPDEST DUP3 DUP3 DIV SWAP1 POP SWAP3 SWAP2 POP POP JUMP JUMPDEST PUSH1 0x0 PUSH2 0x7C3 DUP3 PUSH2 0x459 JUMP JUMPDEST SWAP2 POP PUSH2 0x7CE DUP4 PUSH2 0x459 JUMP JUMPDEST SWAP3 POP DUP3 DUP3 MUL PUSH2 0x7DC DUP2 PUSH2 0x459 JUMP JUMPDEST SWAP2 POP DUP3 DUP3 DIV DUP5 EQ DUP4 ISZERO OR PUSH2 0x7F3 JUMPI PUSH2 0x7F2 PUSH2 0x758 JUMP JUMPDEST JUMPDEST POP SWAP3 SWAP2 POP POP JUMP JUMPDEST PUSH1 0x0 DUP2 MLOAD SWAP1 POP SWAP2 SWAP1 POP JUMP JUMPDEST PUSH32 0x4E487B7100000000000000000000000000000000000000000000000000000000 PUSH1 0x0 MSTORE PUSH1 0x22 PUSH1 0x4 MSTORE PUSH1 0x24 PUSH1 0x0 REVERT JUMPDEST PUSH1 0x0 PUSH1 0x2 DUP3 DIV SWAP1 POP PUSH1 0x1 DUP3 AND DUP1 PUSH2 0x84C JUMPI PUSH1 0x7F DUP3 AND SWAP2 POP JUMPDEST PUSH1 0x20 DUP3 LT DUP2 SUB PUSH2 0x85F JUMPI PUSH2 0x85E PUSH2 0x805 JUMP JUMPDEST JUMPDEST POP SWAP2 SWAP1 POP JUMP JUMPDEST PUSH1 0x0 DUP2 SWAP1 POP DUP2 PUSH1 0x0 MSTORE PUSH1 0x20 PUSH1 0x0 KECCAK256 SWAP1 POP SWAP2 SWAP1 POP JUMP JUMPDEST PUSH1 0x0 PUSH1 0x20 PUSH1 0x1F DUP4 ADD DIV SWAP1 POP SWAP2 SWAP1 POP JUMP JUMPDEST PUSH1 0x0 DUP3 DUP3 SHL SWAP1 POP SWAP3 SWAP2 POP POP JUMP JUMPDEST PUSH1 0x0 PUSH1 0x8 DUP4 MUL PUSH2 0x8C7 PUSH32 0xFFFFFFFFFFFFFFFFFFFFFFFFFFFFFFFFFFFFFFFFFFFFFFFFFFFFFFFFFFFFFFFF DUP3 PUSH2 0x88A JUMP JUMPDEST PUSH2 0x8D1 DUP7 DUP4 PUSH2 0x88A JUMP JUMPDEST SWAP6 POP DUP1 NOT DUP5 AND SWAP4 POP DUP1 DUP7 AND DUP5 OR SWAP3 POP POP POP SWAP4 SWAP3 POP POP POP JUMP JUMPDEST PUSH1 0x0 DUP2 SWAP1 POP SWAP2 SWAP1 POP JUMP JUMPDEST PUSH1 0x0 PUSH2 0x90E PUSH2 0x909 PUSH2 0x904 DUP5 PUSH2 0x459 JUMP JUMPDEST PUSH2 0x8E9 JUMP JUMPDEST PUSH2 0x459 JUMP JUMPDEST SWAP1 POP SWAP2 SWAP1 POP JUMP JUMPDEST PUSH1 0x0 DUP2 SWAP1 POP SWAP2 SWAP1 POP JUMP JUMPDEST PUSH2 0x928 DUP4 PUSH2 0x8F3 JUMP JUMPDEST PUSH2 0x93C PUSH2 0x934 DUP3 PUSH2 0x915 JUMP JUMPDEST DUP5 DUP5 SLOAD PUSH2 0x897 JUMP JUMPDEST DUP3 SSTORE POP POP POP POP JUMP JUMPDEST PUSH1 0x0 SWAP1 JUMP JUMPDEST PUSH2 0x951 PUSH2 0x944 JUMP JUMPDEST PUSH2 0x95C DUP2 DUP5 DUP5 PUSH2 0x91F JUMP JUMPDEST POP POP POP JUMP JUMPDEST JUMPDEST DUP2 DUP2 LT ISZERO PUSH2 0x980 JUMPI PUSH2 0x975 PUSH1 0x0 DUP3 PUSH2 0x949 JUMP JUMPDEST PUSH1 0x1 DUP2 ADD SWAP1 POP PUSH2 0x962 JUMP JUMPDEST POP POP JUMP JUMPDEST PUSH1 0x1F DUP3 GT ISZERO PUSH2 0x9C5 JUMPI PUSH2 0x996 DUP2 PUSH2 0x865 JUMP JUMPDEST PUSH2 0x99F DUP5 PUSH2 0x87A JUMP JUMPDEST DUP2 ADD PUSH1 0x20 DUP6 LT ISZERO PUSH2 0x9AE JUMPI DUP2 SWAP1 POP JUMPDEST PUSH2 0x9C2 PUSH2 0x9BA DUP6 PUSH2 0x87A JUMP JUMPDEST DUP4 ADD DUP3 PUSH2 0x961 JUMP JUMPDEST POP POP JUMPDEST POP POP POP JUMP JUMPDEST PUSH1 0x0 DUP3 DUP3 SHR SWAP1 POP SWAP3 SWAP2 POP POP JUMP JUMPDEST PUSH1 0x0 PUSH2 0x9E8 PUSH1 0x0 NOT DUP5 PUSH1 0x8 MUL PUSH2 0x9CA JUMP JUMPDEST NOT DUP1 DUP4 AND SWAP2 POP POP SWAP3 SWAP2 POP POP JUMP JUMPDEST PUSH1 0x0 PUSH2 0xA01 DUP4 DUP4 PUSH2 0x9D7 JUMP JUMPDEST SWAP2 POP DUP3 PUSH1 0x2 MUL DUP3 OR SWAP1 POP SWAP3 SWAP2 POP POP JUMP JUMPDEST PUSH2 0xA1A DUP3 PUSH2 0x7FA JUMP JUMPDEST PUSH8 0xFFFFFFFFFFFFFFFF DUP2 GT ISZERO PUSH2 0xA33 JUMPI PUSH2 0xA32 PUSH2 0x527 JUMP JUMPDEST JUMPDEST PUSH2 0xA3D DUP3 SLOAD PUSH2 0x834 JUMP JUMPDEST PUSH2 0xA48 DUP3 DUP3 DUP6 PUSH2 0x984 JUMP JUMPDEST PUSH1 0x0 PUSH1 0x20 SWAP1 POP PUSH1 0x1F DUP4 GT PUSH1 0x1 DUP2 EQ PUSH2 0xA7B JUMPI PUSH1 0x0 DUP5 ISZERO PUSH2 0xA69 JUMPI DUP3 DUP8 ADD MLOAD SWAP1 POP JUMPDEST PUSH2 0xA73 DUP6 DUP3 PUSH2 0x9F5 JUMP JUMPDEST DUP7 SSTORE POP PUSH2 0xADB JUMP JUMPDEST PUSH1 0x1F NOT DUP5 AND PUSH2 0xA89 DUP7 PUSH2 0x865 JUMP JUMPDEST PUSH1 0x0 JUMPDEST DUP3 DUP2 LT ISZERO PUSH2 0xAB1 JUMPI DUP5 DUP10 ADD MLOAD DUP3 SSTORE PUSH1 0x1 DUP3 ADD SWAP2 POP PUSH1 0x20 DUP6 ADD SWAP5 POP PUSH1 0x20 DUP2 ADD SWAP1 POP PUSH2 0xA8C JUMP JUMPDEST DUP7 DUP4 LT ISZERO PUSH2 0xACE JUMPI DUP5 DUP10 ADD MLOAD PUSH2 0xACA PUSH1 0x1F DUP10 AND DUP3 PUSH2 0x9D7 JUMP JUMPDEST DUP4 SSTORE POP JUMPDEST PUSH1 0x1 PUSH1 0x2 DUP9 MUL ADD DUP9 SSTORE POP POP POP JUMPDEST POP POP POP POP POP POP JUMP JUMPDEST PUSH1 0x0 PUSH20 0xFFFFFFFFFFFFFFFFFFFFFFFFFFFFFFFFFFFFFFFF DUP3 AND SWAP1 POP SWAP2 SWAP1 POP JUMP JUMPDEST PUSH1 0x0 PUSH2 0xB0E DUP3 PUSH2 0xAE3 JUMP JUMPDEST SWAP1 POP SWAP2 SWAP1 POP JUMP JUMPDEST PUSH2 0xB1E DUP2 PUSH2 0xB03 JUMP JUMPDEST DUP3 MSTORE POP POP JUMP JUMPDEST PUSH1 0x0 DUP3 DUP3 MSTORE PUSH1 0x20 DUP3 ADD SWAP1 POP SWAP3 SWAP2 POP POP JUMP JUMPDEST PUSH1 0x0 JUMPDEST DUP4 DUP2 LT ISZERO PUSH2 0xB53 JUMPI DUP1 DUP3 ADD MLOAD DUP2 DUP5 ADD MSTORE PUSH1 0x20 DUP2 ADD SWAP1 POP PUSH2 0xB38 JUMP JUMPDEST PUSH1 0x0 DUP5 DUP5 ADD MSTORE POP POP POP POP JUMP JUMPDEST PUSH1 0x0 PUSH2 0xB6A DUP3 PUSH2 0x7FA JUMP JUMPDEST PUSH2 0xB74 DUP2 DUP6 PUSH2 0xB24 JUMP JUMPDEST SWAP4 POP PUSH2 0xB84 DUP2 DUP6 PUSH1 0x20 DUP7 ADD PUSH2 0xB35 JUMP JUMPDEST PUSH2 0xB8D DUP2 PUSH2 0x516 JUMP JUMPDEST DUP5 ADD SWAP2 POP POP SWAP3 SWAP2 POP POP JUMP JUMPDEST PUSH1 0x0 PUSH1 0xA0 DUP3 ADD SWAP1 POP PUSH2 0xBAD PUSH1 0x0 DUP4 ADD DUP9 PUSH2 0xB15 JUMP JUMPDEST DUP2 DUP2 SUB PUSH1 0x20 DUP4 ADD MSTORE PUSH2 0xBBF DUP2 DUP8 PUSH2 0xB5F JUMP JUMPDEST SWAP1 POP DUP2 DUP2 SUB PUSH1 0x40 DUP4 ADD MSTORE PUSH2 0xBD3 DUP2 DUP7 PUSH2 0xB5F JUMP JUMPDEST SWAP1 POP DUP2 DUP2 SUB PUSH1 0x60 DUP4 ADD MSTORE PUSH2 0xBE7 DUP2 DUP6 PUSH2 0xB5F JUMP JUMPDEST SWAP1 POP DUP2 DUP2 SUB PUSH1 0x80 DUP4 ADD MSTORE PUSH2 0xBFB DUP2 DUP5 PUSH2 0xB5F JUMP JUMPDEST SWAP1 POP SWAP7 SWAP6 POP POP POP POP POP POP JUMP JUMPDEST PUSH1 0x0 PUSH2 0xC12 DUP3 PUSH2 0x459 JUMP JUMPDEST SWAP2 POP PUSH2 0xC1D DUP4 PUSH2 0x459 JUMP JUMPDEST SWAP3 POP DUP3 DUP3 ADD SWAP1 POP DUP1 DUP3 GT ISZERO PUSH2 0xC35 JUMPI PUSH2 0xC34 PUSH2 0x758 JUMP JUMPDEST JUMPDEST SWAP3 SWAP2 POP POP JUMP INVALID LOG2 PUSH5 0x6970667358 0x22 SLT KECCAK256 0xBA 0x25 CHAINID 0xAB DUP7 0xBF MUL CREATE ADDRESS ADDRESS PREVRANDAO RETURN COINBASE SELFDESTRUCT 0xC5 0xC5 0xF7 0xF6 SELFBALANCE 0xD6 JUMP 0xDC DUP12 JUMPDEST SSTORE 0xD9 MSIZE 0xCA RETURNDATASIZE DUP10 OR SHR PUSH5 0x736F6C6343 STOP ADDMOD AND STOP CALLER "
				},
				"gasEstimates": {
					"creation": {
						"codeDepositCost": "637000",
						"executionCost": "670",
						"totalCost": "637670"
					},
					"external": {
						"calculate_economic_order_quantity(uint256,uint256,uint256)": "infinite",
						"calculate_reorder_point(uint256,uint256,uint256)": "infinite",
						"register(string,string,string,string)": "infinite"
					},
					"internal": {
						"str_cmp(string memory,string memory)": "infinite"
					}
				},
				"methodIdentifiers": {
					"calculate_economic_order_quantity(uint256,uint256,uint256)": "1e646bf7",
					"calculate_reorder_point(uint256,uint256,uint256)": "073079d6",
					"register(string,string,string,string)": "0e24c52c"
				}
			},
			"storageLayout": {
				"storage": [
					{
						"astId": 24,
						"contract": "contracts/main.sol:SupplyChainManagement",
						"label": "address_to_actor",
						"offset": 0,
						"slot": "0",
						"type": "t_mapping(t_address,t_struct(Actor)10_storage)"
					},
					{
						"astId": 28,
						"contract": "contracts/main.sol:SupplyChainManagement",
						"label": "is_registered",
						"offset": 0,
						"slot": "1",
						"type": "t_mapping(t_address,t_bool)"
					},
					{
						"astId": 33,
						"contract": "contracts/main.sol:SupplyChainManagement",
						"label": "address_to_order",
						"offset": 0,
						"slot": "2",
						"type": "t_mapping(t_address,t_struct(Order)19_storage)"
					}
				],
				"types": {
					"t_address": {
						"encoding": "inplace",
						"label": "address",
						"numberOfBytes": "20"
					},
					"t_bool": {
						"encoding": "inplace",
						"label": "bool",
						"numberOfBytes": "1"
					},
					"t_mapping(t_address,t_bool)": {
						"encoding": "mapping",
						"key": "t_address",
						"label": "mapping(address => bool)",
						"numberOfBytes": "32",
						"value": "t_bool"
					},
					"t_mapping(t_address,t_struct(Actor)10_storage)": {
						"encoding": "mapping",
						"key": "t_address",
						"label": "mapping(address => struct SupplyChainManagement.Actor)",
						"numberOfBytes": "32",
						"value": "t_struct(Actor)10_storage"
					},
					"t_mapping(t_address,t_struct(Order)19_storage)": {
						"encoding": "mapping",
						"key": "t_address",
						"label": "mapping(address => struct SupplyChainManagement.Order)",
						"numberOfBytes": "32",
						"value": "t_struct(Order)19_storage"
					},
					"t_string_storage": {
						"encoding": "bytes",
						"label": "string",
						"numberOfBytes": "32"
					},
					"t_struct(Actor)10_storage": {
						"encoding": "inplace",
						"label": "struct SupplyChainManagement.Actor",
						"members": [
							{
								"astId": 3,
								"contract": "contracts/main.sol:SupplyChainManagement",
								"label": "actor_type",
								"offset": 0,
								"slot": "0",
								"type": "t_string_storage"
							},
							{
								"astId": 5,
								"contract": "contracts/main.sol:SupplyChainManagement",
								"label": "actor_name",
								"offset": 0,
								"slot": "1",
								"type": "t_string_storage"
							},
							{
								"astId": 7,
								"contract": "contracts/main.sol:SupplyChainManagement",
								"label": "actor_region",
								"offset": 0,
								"slot": "2",
								"type": "t_string_storage"
							},
							{
								"astId": 9,
								"contract": "contracts/main.sol:SupplyChainManagement",
								"label": "actor_national_id",
								"offset": 0,
								"slot": "3",
								"type": "t_string_storage"
							}
						],
						"numberOfBytes": "128"
					},
					"t_struct(Order)19_storage": {
						"encoding": "inplace",
						"label": "struct SupplyChainManagement.Order",
						"members": [
							{
								"astId": 12,
								"contract": "contracts/main.sol:SupplyChainManagement",
								"label": "orderer_id",
								"offset": 0,
								"slot": "0",
								"type": "t_address"
							},
							{
								"astId": 14,
								"contract": "contracts/main.sol:SupplyChainManagement",
								"label": "supplier_id",
								"offset": 0,
								"slot": "1",
								"type": "t_address"
							},
							{
								"astId": 16,
								"contract": "contracts/main.sol:SupplyChainManagement",
								"label": "quantity",
								"offset": 0,
								"slot": "2",
								"type": "t_uint256"
							},
							{
								"astId": 18,
								"contract": "contracts/main.sol:SupplyChainManagement",
								"label": "accepted",
								"offset": 0,
								"slot": "3",
								"type": "t_bool"
							}
						],
						"numberOfBytes": "128"
					},
					"t_uint256": {
						"encoding": "inplace",
						"label": "uint256",
						"numberOfBytes": "32"
					}
				}
			},
			"userdoc": {
				"kind": "user",
				"methods": {},
				"version": 1
			}
		}
	}
}