{
	"data": {
		"bytecode": {
			"linkReferences": {},
			"object": "608060405234801561001057600080fd5b506040516105ef3803806105ef833981810160405281019061003291906101b7565b846000819055508360018190555082600260006101000a81548173ffffffffffffffffffffffffffffffffffffffff021916908373ffffffffffffffffffffffffffffffffffffffff16021790555081600360006101000a81548173ffffffffffffffffffffffffffffffffffffffff021916908373ffffffffffffffffffffffffffffffffffffffff16021790555080600360146101000a81548160ff0219169083151502179055505050505050610232565b600080fd5b6000819050919050565b6100fe816100eb565b811461010957600080fd5b50565b60008151905061011b816100f5565b92915050565b600073ffffffffffffffffffffffffffffffffffffffff82169050919050565b600061014c82610121565b9050919050565b61015c81610141565b811461016757600080fd5b50565b60008151905061017981610153565b92915050565b60008115159050919050565b6101948161017f565b811461019f57600080fd5b50565b6000815190506101b18161018b565b92915050565b600080600080600060a086880312156101d3576101d26100e6565b5b60006101e18882890161010c565b95505060206101f28882890161010c565b94505060406102038882890161016a565b93505060606102148882890161016a565b9250506080610225888289016101a2565b9150509295509295909350565b6103ae806102416000396000f3fe608060405234801561001057600080fd5b506004361061007d5760003560e01c8063495625c51161005b578063495625c5146100c8578063baf2d834146100d2578063e4849b23146100f0578063ed0109a51461010e5761007d565b80632852b71c146100825780634224de691461008c5780634613cf72146100aa575b600080fd5b61008a61012c565b005b610094610149565b6040516100a191906102a0565b60405180910390f35b6100b2610173565b6040516100bf91906102d6565b60405180910390f35b6100d061018a565b005b6100da610222565b6040516100e791906102a0565b60405180910390f35b6100f861024c565b604051610105919061030a565b60405180910390f35b610116610255565b604051610123919061030a565b60405180910390f35b6001600360146101000a81548160ff021916908315150217905550565b6000600360009054906101000a900473ffffffffffffffffffffffffffffffffffffffff16905090565b6000600360149054906101000a900460ff16905090565b7f12624584f043f4e96d07b5831ddd4c1224e033c110f78adf21bdbc0a10fcd477600054600154600260009054906101000a900473ffffffffffffffffffffffffffffffffffffffff16600360009054906101000a900473ffffffffffffffffffffffffffffffffffffffff16600360149054906101000a900460ff16604051610218959493929190610325565b60405180910390a1565b6000600260009054906101000a900473ffffffffffffffffffffffffffffffffffffffff16905090565b60008054905090565b6000600154905090565b600073ffffffffffffffffffffffffffffffffffffffff82169050919050565b600061028a8261025f565b9050919050565b61029a8161027f565b82525050565b60006020820190506102b56000830184610291565b92915050565b60008115159050919050565b6102d0816102bb565b82525050565b60006020820190506102eb60008301846102c7565b92915050565b6000819050919050565b610304816102f1565b82525050565b600060208201905061031f60008301846102fb565b92915050565b600060a08201905061033a60008301886102fb565b61034760208301876102fb565b6103546040830186610291565b6103616060830185610291565b61036e60808301846102c7565b969550505050505056fea2646970667358221220b48ff2c5ee0667c799afb216047b5fa4f5740125315aa6eb5811a70d92010f1b64736f6c63430008160033",
			"opcodes": "PUSH1 0x80 PUSH1 0x40 MSTORE CALLVALUE DUP1 ISZERO PUSH2 0x10 JUMPI PUSH1 0x0 DUP1 REVERT JUMPDEST POP PUSH1 0x40 MLOAD PUSH2 0x5EF CODESIZE SUB DUP1 PUSH2 0x5EF DUP4 CODECOPY DUP2 DUP2 ADD PUSH1 0x40 MSTORE DUP2 ADD SWAP1 PUSH2 0x32 SWAP2 SWAP1 PUSH2 0x1B7 JUMP JUMPDEST DUP5 PUSH1 0x0 DUP2 SWAP1 SSTORE POP DUP4 PUSH1 0x1 DUP2 SWAP1 SSTORE POP DUP3 PUSH1 0x2 PUSH1 0x0 PUSH2 0x100 EXP DUP2 SLOAD DUP2 PUSH20 0xFFFFFFFFFFFFFFFFFFFFFFFFFFFFFFFFFFFFFFFF MUL NOT AND SWAP1 DUP4 PUSH20 0xFFFFFFFFFFFFFFFFFFFFFFFFFFFFFFFFFFFFFFFF AND MUL OR SWAP1 SSTORE POP DUP2 PUSH1 0x3 PUSH1 0x0 PUSH2 0x100 EXP DUP2 SLOAD DUP2 PUSH20 0xFFFFFFFFFFFFFFFFFFFFFFFFFFFFFFFFFFFFFFFF MUL NOT AND SWAP1 DUP4 PUSH20 0xFFFFFFFFFFFFFFFFFFFFFFFFFFFFFFFFFFFFFFFF AND MUL OR SWAP1 SSTORE POP DUP1 PUSH1 0x3 PUSH1 0x14 PUSH2 0x100 EXP DUP2 SLOAD DUP2 PUSH1 0xFF MUL NOT AND SWAP1 DUP4 ISZERO ISZERO MUL OR SWAP1 SSTORE POP POP POP POP POP POP PUSH2 0x232 JUMP JUMPDEST PUSH1 0x0 DUP1 REVERT JUMPDEST PUSH1 0x0 DUP2 SWAP1 POP SWAP2 SWAP1 POP JUMP JUMPDEST PUSH2 0xFE DUP2 PUSH2 0xEB JUMP JUMPDEST DUP2 EQ PUSH2 0x109 JUMPI PUSH1 0x0 DUP1 REVERT JUMPDEST POP JUMP JUMPDEST PUSH1 0x0 DUP2 MLOAD SWAP1 POP PUSH2 0x11B DUP2 PUSH2 0xF5 JUMP JUMPDEST SWAP3 SWAP2 POP POP JUMP JUMPDEST PUSH1 0x0 PUSH20 0xFFFFFFFFFFFFFFFFFFFFFFFFFFFFFFFFFFFFFFFF DUP3 AND SWAP1 POP SWAP2 SWAP1 POP JUMP JUMPDEST PUSH1 0x0 PUSH2 0x14C DUP3 PUSH2 0x121 JUMP JUMPDEST SWAP1 POP SWAP2 SWAP1 POP JUMP JUMPDEST PUSH2 0x15C DUP2 PUSH2 0x141 JUMP JUMPDEST DUP2 EQ PUSH2 0x167 JUMPI PUSH1 0x0 DUP1 REVERT JUMPDEST POP JUMP JUMPDEST PUSH1 0x0 DUP2 MLOAD SWAP1 POP PUSH2 0x179 DUP2 PUSH2 0x153 JUMP JUMPDEST SWAP3 SWAP2 POP POP JUMP JUMPDEST PUSH1 0x0 DUP2 ISZERO ISZERO SWAP1 POP SWAP2 SWAP1 POP JUMP JUMPDEST PUSH2 0x194 DUP2 PUSH2 0x17F JUMP JUMPDEST DUP2 EQ PUSH2 0x19F JUMPI PUSH1 0x0 DUP1 REVERT JUMPDEST POP JUMP JUMPDEST PUSH1 0x0 DUP2 MLOAD SWAP1 POP PUSH2 0x1B1 DUP2 PUSH2 0x18B JUMP JUMPDEST SWAP3 SWAP2 POP POP JUMP JUMPDEST PUSH1 0x0 DUP1 PUSH1 0x0 DUP1 PUSH1 0x0 PUSH1 0xA0 DUP7 DUP9 SUB SLT ISZERO PUSH2 0x1D3 JUMPI PUSH2 0x1D2 PUSH2 0xE6 JUMP JUMPDEST JUMPDEST PUSH1 0x0 PUSH2 0x1E1 DUP9 DUP3 DUP10 ADD PUSH2 0x10C JUMP JUMPDEST SWAP6 POP POP PUSH1 0x20 PUSH2 0x1F2 DUP9 DUP3 DUP10 ADD PUSH2 0x10C JUMP JUMPDEST SWAP5 POP POP PUSH1 0x40 PUSH2 0x203 DUP9 DUP3 DUP10 ADD PUSH2 0x16A JUMP JUMPDEST SWAP4 POP POP PUSH1 0x60 PUSH2 0x214 DUP9 DUP3 DUP10 ADD PUSH2 0x16A JUMP JUMPDEST SWAP3 POP POP PUSH1 0x80 PUSH2 0x225 DUP9 DUP3 DUP10 ADD PUSH2 0x1A2 JUMP JUMPDEST SWAP2 POP POP SWAP3 SWAP6 POP SWAP3 SWAP6 SWAP1 SWAP4 POP JUMP JUMPDEST PUSH2 0x3AE DUP1 PUSH2 0x241 PUSH1 0x0 CODECOPY PUSH1 0x0 RETURN INVALID PUSH1 0x80 PUSH1 0x40 MSTORE CALLVALUE DUP1 ISZERO PUSH2 0x10 JUMPI PUSH1 0x0 DUP1 REVERT JUMPDEST POP PUSH1 0x4 CALLDATASIZE LT PUSH2 0x7D JUMPI PUSH1 0x0 CALLDATALOAD PUSH1 0xE0 SHR DUP1 PUSH4 0x495625C5 GT PUSH2 0x5B JUMPI DUP1 PUSH4 0x495625C5 EQ PUSH2 0xC8 JUMPI DUP1 PUSH4 0xBAF2D834 EQ PUSH2 0xD2 JUMPI DUP1 PUSH4 0xE4849B23 EQ PUSH2 0xF0 JUMPI DUP1 PUSH4 0xED0109A5 EQ PUSH2 0x10E JUMPI PUSH2 0x7D JUMP JUMPDEST DUP1 PUSH4 0x2852B71C EQ PUSH2 0x82 JUMPI DUP1 PUSH4 0x4224DE69 EQ PUSH2 0x8C JUMPI DUP1 PUSH4 0x4613CF72 EQ PUSH2 0xAA JUMPI JUMPDEST PUSH1 0x0 DUP1 REVERT JUMPDEST PUSH2 0x8A PUSH2 0x12C JUMP JUMPDEST STOP JUMPDEST PUSH2 0x94 PUSH2 0x149 JUMP JUMPDEST PUSH1 0x40 MLOAD PUSH2 0xA1 SWAP2 SWAP1 PUSH2 0x2A0 JUMP JUMPDEST PUSH1 0x40 MLOAD DUP1 SWAP2 SUB SWAP1 RETURN JUMPDEST PUSH2 0xB2 PUSH2 0x173 JUMP JUMPDEST PUSH1 0x40 MLOAD PUSH2 0xBF SWAP2 SWAP1 PUSH2 0x2D6 JUMP JUMPDEST PUSH1 0x40 MLOAD DUP1 SWAP2 SUB SWAP1 RETURN JUMPDEST PUSH2 0xD0 PUSH2 0x18A JUMP JUMPDEST STOP JUMPDEST PUSH2 0xDA PUSH2 0x222 JUMP JUMPDEST PUSH1 0x40 MLOAD PUSH2 0xE7 SWAP2 SWAP1 PUSH2 0x2A0 JUMP JUMPDEST PUSH1 0x40 MLOAD DUP1 SWAP2 SUB SWAP1 RETURN JUMPDEST PUSH2 0xF8 PUSH2 0x24C JUMP JUMPDEST PUSH1 0x40 MLOAD PUSH2 0x105 SWAP2 SWAP1 PUSH2 0x30A JUMP JUMPDEST PUSH1 0x40 MLOAD DUP1 SWAP2 SUB SWAP1 RETURN JUMPDEST PUSH2 0x116 PUSH2 0x255 JUMP JUMPDEST PUSH1 0x40 MLOAD PUSH2 0x123 SWAP2 SWAP1 PUSH2 0x30A JUMP JUMPDEST PUSH1 0x40 MLOAD DUP1 SWAP2 SUB SWAP1 RETURN JUMPDEST PUSH1 0x1 PUSH1 0x3 PUSH1 0x14 PUSH2 0x100 EXP DUP2 SLOAD DUP2 PUSH1 0xFF MUL NOT AND SWAP1 DUP4 ISZERO ISZERO MUL OR SWAP1 SSTORE POP JUMP JUMPDEST PUSH1 0x0 PUSH1 0x3 PUSH1 0x0 SWAP1 SLOAD SWAP1 PUSH2 0x100 EXP SWAP1 DIV PUSH20 0xFFFFFFFFFFFFFFFFFFFFFFFFFFFFFFFFFFFFFFFF AND SWAP1 POP SWAP1 JUMP JUMPDEST PUSH1 0x0 PUSH1 0x3 PUSH1 0x14 SWAP1 SLOAD SWAP1 PUSH2 0x100 EXP SWAP1 DIV PUSH1 0xFF AND SWAP1 POP SWAP1 JUMP JUMPDEST PUSH32 0x12624584F043F4E96D07B5831DDD4C1224E033C110F78ADF21BDBC0A10FCD477 PUSH1 0x0 SLOAD PUSH1 0x1 SLOAD PUSH1 0x2 PUSH1 0x0 SWAP1 SLOAD SWAP1 PUSH2 0x100 EXP SWAP1 DIV PUSH20 0xFFFFFFFFFFFFFFFFFFFFFFFFFFFFFFFFFFFFFFFF AND PUSH1 0x3 PUSH1 0x0 SWAP1 SLOAD SWAP1 PUSH2 0x100 EXP SWAP1 DIV PUSH20 0xFFFFFFFFFFFFFFFFFFFFFFFFFFFFFFFFFFFFFFFF AND PUSH1 0x3 PUSH1 0x14 SWAP1 SLOAD SWAP1 PUSH2 0x100 EXP SWAP1 DIV PUSH1 0xFF AND PUSH1 0x40 MLOAD PUSH2 0x218 SWAP6 SWAP5 SWAP4 SWAP3 SWAP2 SWAP1 PUSH2 0x325 JUMP JUMPDEST PUSH1 0x40 MLOAD DUP1 SWAP2 SUB SWAP1 LOG1 JUMP JUMPDEST PUSH1 0x0 PUSH1 0x2 PUSH1 0x0 SWAP1 SLOAD SWAP1 PUSH2 0x100 EXP SWAP1 DIV PUSH20 0xFFFFFFFFFFFFFFFFFFFFFFFFFFFFFFFFFFFFFFFF AND SWAP1 POP SWAP1 JUMP JUMPDEST PUSH1 0x0 DUP1 SLOAD SWAP1 POP SWAP1 JUMP JUMPDEST PUSH1 0x0 PUSH1 0x1 SLOAD SWAP1 POP SWAP1 JUMP JUMPDEST PUSH1 0x0 PUSH20 0xFFFFFFFFFFFFFFFFFFFFFFFFFFFFFFFFFFFFFFFF DUP3 AND SWAP1 POP SWAP2 SWAP1 POP JUMP JUMPDEST PUSH1 0x0 PUSH2 0x28A DUP3 PUSH2 0x25F JUMP JUMPDEST SWAP1 POP SWAP2 SWAP1 POP JUMP JUMPDEST PUSH2 0x29A DUP2 PUSH2 0x27F JUMP JUMPDEST DUP3 MSTORE POP POP JUMP JUMPDEST PUSH1 0x0 PUSH1 0x20 DUP3 ADD SWAP1 POP PUSH2 0x2B5 PUSH1 0x0 DUP4 ADD DUP5 PUSH2 0x291 JUMP JUMPDEST SWAP3 SWAP2 POP POP JUMP JUMPDEST PUSH1 0x0 DUP2 ISZERO ISZERO SWAP1 POP SWAP2 SWAP1 POP JUMP JUMPDEST PUSH2 0x2D0 DUP2 PUSH2 0x2BB JUMP JUMPDEST DUP3 MSTORE POP POP JUMP JUMPDEST PUSH1 0x0 PUSH1 0x20 DUP3 ADD SWAP1 POP PUSH2 0x2EB PUSH1 0x0 DUP4 ADD DUP5 PUSH2 0x2C7 JUMP JUMPDEST SWAP3 SWAP2 POP POP JUMP JUMPDEST PUSH1 0x0 DUP2 SWAP1 POP SWAP2 SWAP1 POP JUMP JUMPDEST PUSH2 0x304 DUP2 PUSH2 0x2F1 JUMP JUMPDEST DUP3 MSTORE POP POP JUMP JUMPDEST PUSH1 0x0 PUSH1 0x20 DUP3 ADD SWAP1 POP PUSH2 0x31F PUSH1 0x0 DUP4 ADD DUP5 PUSH2 0x2FB JUMP JUMPDEST SWAP3 SWAP2 POP POP JUMP JUMPDEST PUSH1 0x0 PUSH1 0xA0 DUP3 ADD SWAP1 POP PUSH2 0x33A PUSH1 0x0 DUP4 ADD DUP9 PUSH2 0x2FB JUMP JUMPDEST PUSH2 0x347 PUSH1 0x20 DUP4 ADD DUP8 PUSH2 0x2FB JUMP JUMPDEST PUSH2 0x354 PUSH1 0x40 DUP4 ADD DUP7 PUSH2 0x291 JUMP JUMPDEST PUSH2 0x361 PUSH1 0x60 DUP4 ADD DUP6 PUSH2 0x291 JUMP JUMPDEST PUSH2 0x36E PUSH1 0x80 DUP4 ADD DUP5 PUSH2 0x2C7 JUMP JUMPDEST SWAP7 SWAP6 POP POP POP POP POP POP JUMP INVALID LOG2 PUSH5 0x6970667358 0x22 SLT KECCAK256 0xB4 DUP16 CALLCODE 0xC5 0xEE MOD PUSH8 0xC799AFB216047B5F LOG4 CREATE2 PUSH21 0x125315AA6EB5811A70D92010F1B64736F6C634300 ADDMOD AND STOP CALLER "
		},
		"gasEstimates": {
			"creation": {
				"codeDepositCost": "188400",
				"executionCost": "infinite",
				"totalCost": "infinite"
			},
			"external": {
				"accept()": "24462",
				"get_order_id()": "2481",
				"get_orderer()": "2544",
				"get_quantity()": "2503",
				"get_supplier()": "2545",
				"is_accepted()": "2574",
				"show_order_details()": "infinite"
			}
		},
		"methodIdentifiers": {
			"accept()": "2852b71c",
			"get_order_id()": "e4849b23",
			"get_orderer()": "baf2d834",
			"get_quantity()": "ed0109a5",
			"get_supplier()": "4224de69",
			"is_accepted()": "4613cf72",
			"show_order_details()": "495625c5"
		}
	},
	"abi": [
		{
			"inputs": [
				{
					"internalType": "uint256",
					"name": "_order_id",
					"type": "uint256"
				},
				{
					"internalType": "uint256",
					"name": "_quantity",
					"type": "uint256"
				},
				{
					"internalType": "address",
					"name": "_orderer",
					"type": "address"
				},
				{
					"internalType": "address",
					"name": "_supplier",
					"type": "address"
				},
				{
					"internalType": "bool",
					"name": "_accepted",
					"type": "bool"
				}
			],
			"stateMutability": "nonpayable",
			"type": "constructor"
		},
		{
			"anonymous": false,
			"inputs": [
				{
					"indexed": false,
					"internalType": "uint256",
					"name": "order_id",
					"type": "uint256"
				},
				{
					"indexed": false,
					"internalType": "uint256",
					"name": "quantity",
					"type": "uint256"
				},
				{
					"indexed": false,
					"internalType": "address",
					"name": "orderer",
					"type": "address"
				},
				{
					"indexed": false,
					"internalType": "address",
					"name": "supplier",
					"type": "address"
				},
				{
					"indexed": false,
					"internalType": "bool",
					"name": "accepted",
					"type": "bool"
				}
			],
			"name": "event_show_order_details",
			"type": "event"
		},
		{
			"inputs": [],
			"name": "accept",
			"outputs": [],
			"stateMutability": "nonpayable",
			"type": "function"
		},
		{
			"inputs": [],
			"name": "get_order_id",
			"outputs": [
				{
					"internalType": "uint256",
					"name": "",
					"type": "uint256"
				}
			],
			"stateMutability": "view",
			"type": "function"
		},
		{
			"inputs": [],
			"name": "get_orderer",
			"outputs": [
				{
					"internalType": "address",
					"name": "",
					"type": "address"
				}
			],
			"stateMutability": "view",
			"type": "function"
		},
		{
			"inputs": [],
			"name": "get_quantity",
			"outputs": [
				{
					"internalType": "uint256",
					"name": "",
					"type": "uint256"
				}
			],
			"stateMutability": "view",
			"type": "function"
		},
		{
			"inputs": [],
			"name": "get_supplier",
			"outputs": [
				{
					"internalType": "address",
					"name": "",
					"type": "address"
				}
			],
			"stateMutability": "view",
			"type": "function"
		},
		{
			"inputs": [],
			"name": "is_accepted",
			"outputs": [
				{
					"internalType": "bool",
					"name": "",
					"type": "bool"
				}
			],
			"stateMutability": "view",
			"type": "function"
		},
		{
			"inputs": [],
			"name": "show_order_details",
			"outputs": [],
			"stateMutability": "nonpayable",
			"type": "function"
		}
	]
}