{
	"data": {
		"bytecode": {
			"linkReferences": {},
			"object": "608060405234801561001057600080fd5b5061018a806100206000396000f3fe608060405234801561001057600080fd5b506004361061002b5760003560e01c8063ec1573a914610030575b600080fd5b61004a60048036038101906100459190610127565b61004c565b005b6000819080600181540180825580915050600190039060005260206000200160009091909190916101000a81548173ffffffffffffffffffffffffffffffffffffffff021916908373ffffffffffffffffffffffffffffffffffffffff16021790555050565b600080fd5b600073ffffffffffffffffffffffffffffffffffffffff82169050919050565b60006100e2826100b7565b9050919050565b60006100f4826100d7565b9050919050565b610104816100e9565b811461010f57600080fd5b50565b600081359050610121816100fb565b92915050565b60006020828403121561013d5761013c6100b2565b5b600061014b84828501610112565b9150509291505056fea2646970667358221220268def37550286886c8e51e8f795baae43f699de555091a882e0e9197c42bdf764736f6c63430008160033",
			"opcodes": "PUSH1 0x80 PUSH1 0x40 MSTORE CALLVALUE DUP1 ISZERO PUSH2 0x10 JUMPI PUSH1 0x0 DUP1 REVERT JUMPDEST POP PUSH2 0x18A DUP1 PUSH2 0x20 PUSH1 0x0 CODECOPY PUSH1 0x0 RETURN INVALID PUSH1 0x80 PUSH1 0x40 MSTORE CALLVALUE DUP1 ISZERO PUSH2 0x10 JUMPI PUSH1 0x0 DUP1 REVERT JUMPDEST POP PUSH1 0x4 CALLDATASIZE LT PUSH2 0x2B JUMPI PUSH1 0x0 CALLDATALOAD PUSH1 0xE0 SHR DUP1 PUSH4 0xEC1573A9 EQ PUSH2 0x30 JUMPI JUMPDEST PUSH1 0x0 DUP1 REVERT JUMPDEST PUSH2 0x4A PUSH1 0x4 DUP1 CALLDATASIZE SUB DUP2 ADD SWAP1 PUSH2 0x45 SWAP2 SWAP1 PUSH2 0x127 JUMP JUMPDEST PUSH2 0x4C JUMP JUMPDEST STOP JUMPDEST PUSH1 0x0 DUP2 SWAP1 DUP1 PUSH1 0x1 DUP2 SLOAD ADD DUP1 DUP3 SSTORE DUP1 SWAP2 POP POP PUSH1 0x1 SWAP1 SUB SWAP1 PUSH1 0x0 MSTORE PUSH1 0x20 PUSH1 0x0 KECCAK256 ADD PUSH1 0x0 SWAP1 SWAP2 SWAP1 SWAP2 SWAP1 SWAP2 PUSH2 0x100 EXP DUP2 SLOAD DUP2 PUSH20 0xFFFFFFFFFFFFFFFFFFFFFFFFFFFFFFFFFFFFFFFF MUL NOT AND SWAP1 DUP4 PUSH20 0xFFFFFFFFFFFFFFFFFFFFFFFFFFFFFFFFFFFFFFFF AND MUL OR SWAP1 SSTORE POP POP JUMP JUMPDEST PUSH1 0x0 DUP1 REVERT JUMPDEST PUSH1 0x0 PUSH20 0xFFFFFFFFFFFFFFFFFFFFFFFFFFFFFFFFFFFFFFFF DUP3 AND SWAP1 POP SWAP2 SWAP1 POP JUMP JUMPDEST PUSH1 0x0 PUSH2 0xE2 DUP3 PUSH2 0xB7 JUMP JUMPDEST SWAP1 POP SWAP2 SWAP1 POP JUMP JUMPDEST PUSH1 0x0 PUSH2 0xF4 DUP3 PUSH2 0xD7 JUMP JUMPDEST SWAP1 POP SWAP2 SWAP1 POP JUMP JUMPDEST PUSH2 0x104 DUP2 PUSH2 0xE9 JUMP JUMPDEST DUP2 EQ PUSH2 0x10F JUMPI PUSH1 0x0 DUP1 REVERT JUMPDEST POP JUMP JUMPDEST PUSH1 0x0 DUP2 CALLDATALOAD SWAP1 POP PUSH2 0x121 DUP2 PUSH2 0xFB JUMP JUMPDEST SWAP3 SWAP2 POP POP JUMP JUMPDEST PUSH1 0x0 PUSH1 0x20 DUP3 DUP5 SUB SLT ISZERO PUSH2 0x13D JUMPI PUSH2 0x13C PUSH2 0xB2 JUMP JUMPDEST JUMPDEST PUSH1 0x0 PUSH2 0x14B DUP5 DUP3 DUP6 ADD PUSH2 0x112 JUMP JUMPDEST SWAP2 POP POP SWAP3 SWAP2 POP POP JUMP INVALID LOG2 PUSH5 0x6970667358 0x22 SLT KECCAK256 0x26 DUP14 0xEF CALLDATACOPY SSTORE MUL DUP7 DUP9 PUSH13 0x8E51E8F795BAAE43F699DE5550 SWAP2 0xA8 DUP3 0xE0 0xE9 NOT PUSH29 0x42BDF764736F6C63430008160033000000000000000000000000000000 "
		},
		"gasEstimates": {
			"creation": {
				"codeDepositCost": "78800",
				"executionCost": "129",
				"totalCost": "78929"
			},
			"external": {
				"add_product(address)": "49055"
			}
		},
		"methodIdentifiers": {
			"add_product(address)": "ec1573a9"
		}
	},
	"abi": [
		{
			"inputs": [
				{
					"internalType": "contract Product",
					"name": "product",
					"type": "address"
				}
			],
			"name": "add_product",
			"outputs": [],
			"stateMutability": "nonpayable",
			"type": "function"
		}
	]
}